{
  "_format": "hh-sol-artifact-1",
  "contractName": "PeachManager",
  "sourceName": "contracts/PeachManager.sol",
  "abi": [
    {
      "inputs": [
        {
          "internalType": "address",
          "name": "_factory",
          "type": "address"
        },
        {
          "internalType": "address",
          "name": "_router",
          "type": "address"
        },
        {
          "internalType": "address",
          "name": "_peachToken",
          "type": "address"
        },
        {
          "internalType": "address",
          "name": "_WAVAX",
          "type": "address"
        },
        {
          "internalType": "address[2]",
          "name": "path",
          "type": "address[2]"
        }
      ],
      "stateMutability": "nonpayable",
      "type": "constructor"
    },
    {
      "anonymous": false,
      "inputs": [
        {
          "indexed": false,
          "internalType": "string",
          "name": "message",
          "type": "string"
        },
        {
          "indexed": false,
          "internalType": "uint256",
          "name": "val",
          "type": "uint256"
        }
      ],
      "name": "Log",
      "type": "event"
    },
    {
      "anonymous": false,
      "inputs": [
        {
          "indexed": false,
          "internalType": "string",
          "name": "message",
          "type": "string"
        },
        {
          "indexed": false,
          "internalType": "address",
          "name": "pairAddress",
          "type": "address"
        }
      ],
      "name": "Pair",
      "type": "event"
    },
    {
      "inputs": [],
      "name": "WAVAX",
      "outputs": [
        {
          "internalType": "address",
          "name": "",
          "type": "address"
        }
      ],
      "stateMutability": "view",
      "type": "function"
    },
    {
      "inputs": [
        {
          "internalType": "address",
          "name": "_tokenAddress",
          "type": "address"
        },
        {
          "internalType": "uint256",
          "name": "_tokenAmount",
          "type": "uint256"
        }
      ],
      "name": "addLiquidityAvax",
      "outputs": [],
      "stateMutability": "payable",
      "type": "function"
    },
    {
      "inputs": [],
      "name": "checkLPTokenBalance",
      "outputs": [
        {
          "internalType": "uint256",
          "name": "",
          "type": "uint256"
        }
      ],
      "stateMutability": "view",
      "type": "function"
    },
    {
      "inputs": [],
      "name": "getPair",
      "outputs": [
        {
          "internalType": "address",
          "name": "",
          "type": "address"
        }
      ],
      "stateMutability": "view",
      "type": "function"
    },
    {
      "inputs": [],
      "name": "getPair2",
      "outputs": [
        {
          "internalType": "address",
          "name": "",
          "type": "address"
        }
      ],
      "stateMutability": "view",
      "type": "function"
    },
    {
      "inputs": [],
      "name": "getPairTotalSupply",
      "outputs": [
        {
          "internalType": "uint256",
          "name": "",
          "type": "uint256"
        }
      ],
      "stateMutability": "view",
      "type": "function"
    },
    {
      "inputs": [],
      "name": "getRouter",
      "outputs": [
        {
          "internalType": "address",
          "name": "",
          "type": "address"
        }
      ],
      "stateMutability": "view",
      "type": "function"
    },
    {
      "inputs": [
        {
          "internalType": "address",
          "name": "_pair",
          "type": "address"
        }
      ],
      "name": "isAddressPair",
      "outputs": [
        {
          "internalType": "bool",
          "name": "",
          "type": "bool"
        }
      ],
      "stateMutability": "view",
      "type": "function"
    },
    {
      "inputs": [
        {
          "internalType": "address",
          "name": "_router",
          "type": "address"
        }
      ],
      "name": "isAddressRouter",
      "outputs": [
        {
          "internalType": "bool",
          "name": "",
          "type": "bool"
        }
      ],
      "stateMutability": "view",
      "type": "function"
    },
    {
      "inputs": [
        {
          "internalType": "address",
          "name": "_tokenAddress",
          "type": "address"
        }
      ],
      "name": "removeLiquidityAvax",
      "outputs": [],
      "stateMutability": "nonpayable",
      "type": "function"
    },
    {
      "inputs": [
        {
          "internalType": "address",
          "name": "_tokenAddress",
          "type": "address"
        },
        {
          "internalType": "uint256",
          "name": "_tokenAmount",
          "type": "uint256"
        },
        {
          "internalType": "address[]",
          "name": "path",
          "type": "address[]"
        }
      ],
      "name": "swapAVAXForExactTokens",
      "outputs": [
        {
          "internalType": "uint256[]",
          "name": "amount",
          "type": "uint256[]"
        }
      ],
      "stateMutability": "payable",
      "type": "function"
    },
    {
      "inputs": [
        {
          "internalType": "address",
          "name": "_tokenAddress",
          "type": "address"
        },
        {
          "internalType": "uint256",
          "name": "_tokenAmount",
          "type": "uint256"
        },
        {
          "internalType": "address[]",
          "name": "path",
          "type": "address[]"
        }
      ],
      "name": "swapExactTokensForAVAX",
      "outputs": [
        {
          "internalType": "uint256[]",
          "name": "amount",
          "type": "uint256[]"
        }
      ],
      "stateMutability": "nonpayable",
      "type": "function"
    },
    {
      "inputs": [],
      "name": "wavaxPeachPairAddress",
      "outputs": [
        {
          "internalType": "address",
          "name": "",
          "type": "address"
        }
      ],
      "stateMutability": "view",
      "type": "function"
    },
    {
      "stateMutability": "payable",
      "type": "receive"
    }
  ],
  "bytecode": "0x60a06040523480156200001157600080fd5b5060405162002182380380620021828339818101604052810190620000379190620005c2565b83600460006101000a81548173ffffffffffffffffffffffffffffffffffffffff021916908373ffffffffffffffffffffffffffffffffffffffff1602179055506200008981620001cd60201b60201c565b600560006101000a81548173ffffffffffffffffffffffffffffffffffffffff021916908373ffffffffffffffffffffffffffffffffffffffff160217905550826000806101000a81548173ffffffffffffffffffffffffffffffffffffffff021916908373ffffffffffffffffffffffffffffffffffffffff1602179055508173ffffffffffffffffffffffffffffffffffffffff1660808173ffffffffffffffffffffffffffffffffffffffff1660601b8152505084600260006101000a81548173ffffffffffffffffffffffffffffffffffffffff021916908373ffffffffffffffffffffffffffffffffffffffff16021790555083600360006101000a81548173ffffffffffffffffffffffffffffffffffffffff021916908373ffffffffffffffffffffffffffffffffffffffff160217905550505050505062000798565b600080600460009054906101000a900473ffffffffffffffffffffffffffffffffffffffff1673ffffffffffffffffffffffffffffffffffffffff1663c45a01556040518163ffffffff1660e01b815260040160206040518083038186803b1580156200023957600080fd5b505afa1580156200024e573d6000803e3d6000fd5b505050506040513d601f19601f8201168201806040525081019062000274919062000596565b90506000808273ffffffffffffffffffffffffffffffffffffffff1663c9c6539686600060028110620002d0577f4e487b7100000000000000000000000000000000000000000000000000000000600052603260045260246000fd5b60200201518760016002811062000310577f4e487b7100000000000000000000000000000000000000000000000000000000600052603260045260246000fd5b60200201516040518363ffffffff1660e01b81526004016200033492919062000655565b602060405180830381600087803b1580156200034f57600080fd5b505af115801562000364573d6000803e3d6000fd5b505050506040513d601f19601f820116820180604052508101906200038a919062000596565b9050600073ffffffffffffffffffffffffffffffffffffffff168173ffffffffffffffffffffffffffffffffffffffff1614620003ca57809150620004de565b8273ffffffffffffffffffffffffffffffffffffffff1663c9c653968660006002811062000421577f4e487b7100000000000000000000000000000000000000000000000000000000600052603260045260246000fd5b60200201518760016002811062000461577f4e487b7100000000000000000000000000000000000000000000000000000000600052603260045260246000fd5b60200201516040518363ffffffff1660e01b81526004016200048592919062000655565b602060405180830381600087803b158015620004a057600080fd5b505af1158015620004b5573d6000803e3d6000fd5b505050506040513d601f19601f82011682018060405250810190620004db919062000596565b91505b819350505050919050565b600062000500620004fa84620006ab565b62000682565b905080828560208602820111156200051757600080fd5b60005b858110156200054b578162000530888262000555565b8452602084019350602083019250506001810190506200051a565b5050509392505050565b60008151905062000566816200077e565b92915050565b600082601f8301126200057e57600080fd5b60026200058d848285620004e9565b91505092915050565b600060208284031215620005a957600080fd5b6000620005b98482850162000555565b91505092915050565b600080600080600060c08688031215620005db57600080fd5b6000620005eb8882890162000555565b9550506020620005fe8882890162000555565b9450506040620006118882890162000555565b9350506060620006248882890162000555565b925050608062000637888289016200056c565b9150509295509295909350565b6200064f81620006d4565b82525050565b60006040820190506200066c600083018562000644565b6200067b602083018462000644565b9392505050565b60006200068e620006a1565b90506200069c828262000708565b919050565b6000604051905090565b600067ffffffffffffffff821115620006c957620006c86200073e565b5b602082029050919050565b6000620006e182620006e8565b9050919050565b600073ffffffffffffffffffffffffffffffffffffffff82169050919050565b62000713826200076d565b810181811067ffffffffffffffff821117156200073557620007346200073e565b5b80604052505050565b7f4e487b7100000000000000000000000000000000000000000000000000000000600052604160045260246000fd5b6000601f19601f8301169050919050565b6200078981620006d4565b81146200079557600080fd5b50565b60805160601c6119c4620007be6000396000818161073f0152610be901526119c46000f3fe6080604052600436106100c65760003560e01c806373b295c21161007f578063b5e6b9c911610059578063b5e6b9c91461028b578063c1f1b1b5146102bb578063d3880165146102e6578063f68c0d7f14610302576100cd565b806373b295c2146101f8578063a662103014610223578063b0f479a114610260576100cd565b80630d0d8171146100d25780632051ff52146100fd57806340e0db1a1461013a5780634b940a4c1461016557806354d7cd5e146101905780637323625d146101cd576100cd565b366100cd57005b600080fd5b3480156100de57600080fd5b506100e761032b565b6040516100f4919061144b565b60405180910390f35b34801561010957600080fd5b50610124600480360381019061011f91906110f5565b610351565b6040516101319190611579565b60405180910390f35b34801561014657600080fd5b5061014f610560565b60405161015c9190611640565b60405180910390f35b34801561017157600080fd5b5061017a610612565b604051610187919061144b565b60405180910390f35b34801561019c57600080fd5b506101b760048036038101906101b29190611067565b61063c565b6040516101c4919061159b565b60405180910390f35b3480156101d957600080fd5b506101e2610696565b6040516101ef9190611640565b60405180910390f35b34801561020457600080fd5b5061020d61073d565b60405161021a919061144b565b60405180910390f35b34801561022f57600080fd5b5061024a60048036038101906102459190611067565b610761565b604051610257919061159b565b60405180910390f35b34801561026c57600080fd5b506102756107bb565b604051610282919061144b565b60405180910390f35b6102a560048036038101906102a091906110f5565b6107e5565b6040516102b29190611579565b60405180910390f35b3480156102c757600080fd5b506102d061097c565b6040516102dd919061144b565b60405180910390f35b61030060048036038101906102fb91906110b9565b6109a6565b005b34801561030e57600080fd5b5061032960048036038101906103249190611067565b610ba6565b005b600160009054906101000a900473ffffffffffffffffffffffffffffffffffffffff1681565b60608473ffffffffffffffffffffffffffffffffffffffff1663095ea7b3600460009054906101000a900473ffffffffffffffffffffffffffffffffffffffff16866040518363ffffffff1660e01b81526004016103b09291906114ef565b602060405180830381600087803b1580156103ca57600080fd5b505af11580156103de573d6000803e3d6000fd5b505050506040513d601f19601f8201168201806040525081019061040291906111a2565b508473ffffffffffffffffffffffffffffffffffffffff166323b872dd3330876040518463ffffffff1660e01b81526004016104409392919061148f565b602060405180830381600087803b15801561045a57600080fd5b505af115801561046e573d6000803e3d6000fd5b505050506040513d601f19601f8201168201806040525081019061049291906111a2565b506000600460009054906101000a900473ffffffffffffffffffffffffffffffffffffffff1673ffffffffffffffffffffffffffffffffffffffff1663676528d1866000878733426040518763ffffffff1660e01b81526004016104fb969594939291906116a9565b600060405180830381600087803b15801561051557600080fd5b505af1158015610529573d6000803e3d6000fd5b505050506040513d6000823e3d601f19601f820116820180604052508101906105529190611161565b905080915050949350505050565b6000600560009054906101000a900473ffffffffffffffffffffffffffffffffffffffff1673ffffffffffffffffffffffffffffffffffffffff166370a08231336040518263ffffffff1660e01b81526004016105bd919061144b565b60206040518083038186803b1580156105d557600080fd5b505afa1580156105e9573d6000803e3d6000fd5b505050506040513d601f19601f8201168201806040525081019061060d91906111cb565b905090565b6000600560009054906101000a900473ffffffffffffffffffffffffffffffffffffffff16905090565b6000600460009054906101000a900473ffffffffffffffffffffffffffffffffffffffff1673ffffffffffffffffffffffffffffffffffffffff168273ffffffffffffffffffffffffffffffffffffffff16149050919050565b6000600560009054906101000a900473ffffffffffffffffffffffffffffffffffffffff1673ffffffffffffffffffffffffffffffffffffffff166318160ddd6040518163ffffffff1660e01b815260040160206040518083038186803b15801561070057600080fd5b505afa158015610714573d6000803e3d6000fd5b505050506040513d601f19601f8201168201806040525081019061073891906111cb565b905090565b7f000000000000000000000000000000000000000000000000000000000000000081565b6000600560009054906101000a900473ffffffffffffffffffffffffffffffffffffffff1673ffffffffffffffffffffffffffffffffffffffff168273ffffffffffffffffffffffffffffffffffffffff16149050919050565b6000600460009054906101000a900473ffffffffffffffffffffffffffffffffffffffff16905090565b60608473ffffffffffffffffffffffffffffffffffffffff1663095ea7b3600460009054906101000a900473ffffffffffffffffffffffffffffffffffffffff167fffffffffffffffffffffffffffffffffffffffffffffffffffffffffffffffff6040518363ffffffff1660e01b81526004016108649291906114c6565b602060405180830381600087803b15801561087e57600080fd5b505af1158015610892573d6000803e3d6000fd5b505050506040513d601f19601f820116820180604052508101906108b691906111a2565b50600460009054906101000a900473ffffffffffffffffffffffffffffffffffffffff1673ffffffffffffffffffffffffffffffffffffffff16638a657e673486868633426040518763ffffffff1660e01b815260040161091b95949392919061165b565b6000604051808303818588803b15801561093457600080fd5b505af1158015610948573d6000803e3d6000fd5b50505050506040513d6000823e3d601f19601f820116820180604052508101906109729190611161565b9050949350505050565b6000600160009054906101000a900473ffffffffffffffffffffffffffffffffffffffff16905090565b8173ffffffffffffffffffffffffffffffffffffffff166323b872dd3330846040518463ffffffff1660e01b81526004016109e39392919061148f565b602060405180830381600087803b1580156109fd57600080fd5b505af1158015610a11573d6000803e3d6000fd5b505050506040513d601f19601f82011682018060405250810190610a3591906111a2565b508173ffffffffffffffffffffffffffffffffffffffff1663095ea7b3600460009054906101000a900473ffffffffffffffffffffffffffffffffffffffff16836040518363ffffffff1660e01b8152600401610a939291906114ef565b602060405180830381600087803b158015610aad57600080fd5b505af1158015610ac1573d6000803e3d6000fd5b505050506040513d601f19601f82011682018060405250810190610ae591906111a2565b50600460009054906101000a900473ffffffffffffffffffffffffffffffffffffffff1673ffffffffffffffffffffffffffffffffffffffff1663f91b3f7234848460018033426040518863ffffffff1660e01b8152600401610b4d96959493929190611518565b6060604051808303818588803b158015610b6657600080fd5b505af1158015610b7a573d6000803e3d6000fd5b50505050506040513d601f19601f82011682018060405250810190610b9f9190611230565b5050505050565b6000600260009054906101000a900473ffffffffffffffffffffffffffffffffffffffff1673ffffffffffffffffffffffffffffffffffffffff1663e6a43905837f00000000000000000000000000000000000000000000000000000000000000006040518363ffffffff1660e01b8152600401610c25929190611466565b60206040518083038186803b158015610c3d57600080fd5b505afa158015610c51573d6000803e3d6000fd5b505050506040513d601f19601f82011682018060405250810190610c759190611090565b90507fa688e701e54e142df359f6a65f7e07f51559f72427234cb649f9eabcd4b6774181604051610ca69190611612565b60405180910390a160008173ffffffffffffffffffffffffffffffffffffffff166370a08231306040518263ffffffff1660e01b8152600401610ce9919061144b565b60206040518083038186803b158015610d0157600080fd5b505afa158015610d15573d6000803e3d6000fd5b505050506040513d601f19601f82011682018060405250810190610d3991906111cb565b90508173ffffffffffffffffffffffffffffffffffffffff1663095ea7b3600360009054906101000a900473ffffffffffffffffffffffffffffffffffffffff16836040518363ffffffff1660e01b8152600401610d989291906114ef565b602060405180830381600087803b158015610db257600080fd5b505af1158015610dc6573d6000803e3d6000fd5b505050506040513d601f19601f82011682018060405250810190610dea91906111a2565b50600080600360009054906101000a900473ffffffffffffffffffffffffffffffffffffffff1673ffffffffffffffffffffffffffffffffffffffff166333c6b725868560018030426040518763ffffffff1660e01b8152600401610e5496959493929190611518565b6040805180830381600087803b158015610e6d57600080fd5b505af1158015610e81573d6000803e3d6000fd5b505050506040513d601f19601f82011682018060405250810190610ea591906111f4565b915091507fdd970dd9b5bfe707922155b058a407655cb18288b807e2216442bca8ad83d6b582604051610ed891906115b6565b60405180910390a17fdd970dd9b5bfe707922155b058a407655cb18288b807e2216442bca8ad83d6b581604051610f0f91906115e4565b60405180910390a15050505050565b6000610f31610f2c8461172a565b611705565b90508083825260208201905082856020860282011115610f5057600080fd5b60005b85811015610f805781610f668882611052565b845260208401935060208301925050600181019050610f53565b5050509392505050565b600081359050610f9981611949565b92915050565b600081519050610fae81611949565b92915050565b60008083601f840112610fc657600080fd5b8235905067ffffffffffffffff811115610fdf57600080fd5b602083019150836020820283011115610ff757600080fd5b9250929050565b600082601f83011261100f57600080fd5b815161101f848260208601610f1e565b91505092915050565b60008151905061103781611960565b92915050565b60008135905061104c81611977565b92915050565b60008151905061106181611977565b92915050565b60006020828403121561107957600080fd5b600061108784828501610f8a565b91505092915050565b6000602082840312156110a257600080fd5b60006110b084828501610f9f565b91505092915050565b600080604083850312156110cc57600080fd5b60006110da85828601610f8a565b92505060206110eb8582860161103d565b9150509250929050565b6000806000806060858703121561110b57600080fd5b600061111987828801610f8a565b945050602061112a8782880161103d565b935050604085013567ffffffffffffffff81111561114757600080fd5b61115387828801610fb4565b925092505092959194509250565b60006020828403121561117357600080fd5b600082015167ffffffffffffffff81111561118d57600080fd5b61119984828501610ffe565b91505092915050565b6000602082840312156111b457600080fd5b60006111c284828501611028565b91505092915050565b6000602082840312156111dd57600080fd5b60006111eb84828501611052565b91505092915050565b6000806040838503121561120757600080fd5b600061121585828601611052565b925050602061122685828601611052565b9150509250929050565b60008060006060848603121561124557600080fd5b600061125386828701611052565b935050602061126486828701611052565b925050604061127586828701611052565b9150509250925092565b600061128b83836112af565b60208301905092915050565b60006112a3838361142d565b60208301905092915050565b6112b8816117df565b82525050565b6112c7816117df565b82525050565b60006112d98385611795565b93506112e482611756565b8060005b8581101561131d576112fa82846117c8565b611304888261127f565b975061130f8361177b565b9250506001810190506112e8565b5085925050509392505050565b600061133582611770565b61133f81856117a6565b935061134a83611760565b8060005b8381101561137b5781516113628882611297565b975061136d83611788565b92505060018101905061134e565b5085935050505092915050565b611391816117f1565b82525050565b6113a081611827565b82525050565b6113af81611839565b82525050565b6113be8161184b565b82525050565b60006113d1600b836117b7565b91506113dc826118ce565b602082019050919050565b60006113f4600a836117b7565b91506113ff826118f7565b602082019050919050565b6000611417600b836117b7565b915061142282611920565b602082019050919050565b6114368161181d565b82525050565b6114458161181d565b82525050565b600060208201905061146060008301846112be565b92915050565b600060408201905061147b60008301856112be565b61148860208301846112be565b9392505050565b60006060820190506114a460008301866112be565b6114b160208301856112be565b6114be604083018461143c565b949350505050565b60006040820190506114db60008301856112be565b6114e860208301846113a6565b9392505050565b600060408201905061150460008301856112be565b611511602083018461143c565b9392505050565b600060c08201905061152d60008301896112be565b61153a602083018861143c565b61154760408301876113b5565b61155460608301866113b5565b61156160808301856112be565b61156e60a083018461143c565b979650505050505050565b60006020820190508181036000830152611593818461132a565b905092915050565b60006020820190506115b06000830184611388565b92915050565b600060408201905081810360008301526115cf816113c4565b90506115de602083018461143c565b92915050565b600060408201905081810360008301526115fd816113e7565b905061160c602083018461143c565b92915050565b6000604082019050818103600083015261162b8161140a565b905061163a60208301846112be565b92915050565b6000602082019050611655600083018461143c565b92915050565b6000608082019050611670600083018861143c565b81810360208301526116838186886112cd565b905061169260408301856112be565b61169f606083018461143c565b9695505050505050565b600060a0820190506116be600083018961143c565b6116cb6020830188611397565b81810360408301526116de8186886112cd565b90506116ed60608301856112be565b6116fa608083018461143c565b979650505050505050565b600061170f611720565b905061171b828261185d565b919050565b6000604051905090565b600067ffffffffffffffff8211156117455761174461188e565b5b602082029050602081019050919050565b6000819050919050565b6000819050602082019050919050565b600081519050919050565b6000602082019050919050565b6000602082019050919050565b600082825260208201905092915050565b600082825260208201905092915050565b600082825260208201905092915050565b60006117d76020840184610f8a565b905092915050565b60006117ea826117fd565b9050919050565b60008115159050919050565b600073ffffffffffffffffffffffffffffffffffffffff82169050919050565b6000819050919050565b60006118328261181d565b9050919050565b60006118448261181d565b9050919050565b60006118568261181d565b9050919050565b611866826118bd565b810181811067ffffffffffffffff821117156118855761188461188e565b5b80604052505050565b7f4e487b7100000000000000000000000000000000000000000000000000000000600052604160045260246000fd5b6000601f19601f8301169050919050565b7f7065616368416d6f756e74000000000000000000000000000000000000000000600082015250565b7f61766178416d6f756e7400000000000000000000000000000000000000000000600082015250565b7f50656163682f5761766178000000000000000000000000000000000000000000600082015250565b611952816117df565b811461195d57600080fd5b50565b611969816117f1565b811461197457600080fd5b50565b6119808161181d565b811461198b57600080fd5b5056fea26469706673582212200a78031d3f3ebd785a17d577d13125b634808adae67b55b4c8be87dbd6647aa064736f6c63430008040033",
  "linkReferences": {},
  "deployedLinkReferences": {}
}