{
  "_format": "hh-sol-artifact-1",
  "contractName": "PeachManager",
  "sourceName": "contracts/PeachManager.sol",
  "abi": [
    {
      "inputs": [
        {
          "internalType": "address",
          "name": "_factory",
          "type": "address"
        },
        {
          "internalType": "address",
          "name": "_router",
          "type": "address"
        },
        {
          "internalType": "address",
          "name": "_peachToken",
          "type": "address"
        },
        {
          "internalType": "address",
          "name": "_WAVAX",
          "type": "address"
        },
        {
          "internalType": "address[2]",
          "name": "path",
          "type": "address[2]"
        }
      ],
      "stateMutability": "nonpayable",
      "type": "constructor"
    },
    {
      "anonymous": false,
      "inputs": [
        {
          "indexed": false,
          "internalType": "string",
          "name": "message",
          "type": "string"
        },
        {
          "indexed": false,
          "internalType": "uint256",
          "name": "val",
          "type": "uint256"
        }
      ],
      "name": "Log",
      "type": "event"
    },
    {
      "anonymous": false,
      "inputs": [
        {
          "indexed": false,
          "internalType": "string",
          "name": "message",
          "type": "string"
        },
        {
          "indexed": false,
          "internalType": "address",
          "name": "pairAddress",
          "type": "address"
        }
      ],
      "name": "Pair",
      "type": "event"
    },
    {
      "inputs": [],
      "name": "WAVAX",
      "outputs": [
        {
          "internalType": "address",
          "name": "",
          "type": "address"
        }
      ],
      "stateMutability": "view",
      "type": "function"
    },
    {
      "inputs": [
        {
          "internalType": "address",
          "name": "_tokenAddress",
          "type": "address"
        },
        {
          "internalType": "uint256",
          "name": "_tokenAmount",
          "type": "uint256"
        }
      ],
      "name": "addLiquidityAvax",
      "outputs": [],
      "stateMutability": "payable",
      "type": "function"
    },
    {
      "inputs": [],
      "name": "checkLPTokenBalance",
      "outputs": [
        {
          "internalType": "uint256",
          "name": "",
          "type": "uint256"
        }
      ],
      "stateMutability": "view",
      "type": "function"
    },
    {
      "inputs": [],
      "name": "getPair",
      "outputs": [
        {
          "internalType": "address",
          "name": "",
          "type": "address"
        }
      ],
      "stateMutability": "view",
      "type": "function"
    },
    {
      "inputs": [],
      "name": "getPair2",
      "outputs": [
        {
          "internalType": "address",
          "name": "",
          "type": "address"
        }
      ],
      "stateMutability": "view",
      "type": "function"
    },
    {
      "inputs": [],
      "name": "getPairTotalSupply",
      "outputs": [
        {
          "internalType": "uint256",
          "name": "",
          "type": "uint256"
        }
      ],
      "stateMutability": "view",
      "type": "function"
    },
    {
      "inputs": [],
      "name": "getRouter",
      "outputs": [
        {
          "internalType": "address",
          "name": "",
          "type": "address"
        }
      ],
      "stateMutability": "view",
      "type": "function"
    },
    {
      "inputs": [
        {
          "internalType": "address",
          "name": "_pair",
          "type": "address"
        }
      ],
      "name": "isAddressPair",
      "outputs": [
        {
          "internalType": "bool",
          "name": "",
          "type": "bool"
        }
      ],
      "stateMutability": "view",
      "type": "function"
    },
    {
      "inputs": [
        {
          "internalType": "address",
          "name": "_router",
          "type": "address"
        }
      ],
      "name": "isAddressRouter",
      "outputs": [
        {
          "internalType": "bool",
          "name": "",
          "type": "bool"
        }
      ],
      "stateMutability": "view",
      "type": "function"
    },
    {
      "inputs": [
        {
          "internalType": "address",
          "name": "_tokenAddress",
          "type": "address"
        }
      ],
      "name": "removeLiquidityAvax",
      "outputs": [],
      "stateMutability": "nonpayable",
      "type": "function"
    },
    {
      "inputs": [
        {
          "internalType": "address",
          "name": "_tokenAddress",
          "type": "address"
        },
        {
          "internalType": "uint256",
          "name": "_tokenAmount",
          "type": "uint256"
        },
        {
          "internalType": "address[]",
          "name": "path",
          "type": "address[]"
        }
      ],
      "name": "swapAVAXForExactTokens",
      "outputs": [
        {
          "internalType": "uint256[]",
          "name": "amount",
          "type": "uint256[]"
        }
      ],
      "stateMutability": "payable",
      "type": "function"
    },
    {
      "inputs": [
        {
          "internalType": "address",
          "name": "_tokenAddress",
          "type": "address"
        },
        {
          "internalType": "uint256",
          "name": "_tokenAmount",
          "type": "uint256"
        },
        {
          "internalType": "address[]",
          "name": "path",
          "type": "address[]"
        }
      ],
      "name": "swapExactTokensForAVAX",
      "outputs": [
        {
          "internalType": "uint256[]",
          "name": "amount",
          "type": "uint256[]"
        }
      ],
      "stateMutability": "nonpayable",
      "type": "function"
    },
    {
      "inputs": [],
      "name": "wavaxPeachPairAddress",
      "outputs": [
        {
          "internalType": "address",
          "name": "",
          "type": "address"
        }
      ],
      "stateMutability": "view",
      "type": "function"
    },
    {
      "stateMutability": "payable",
      "type": "receive"
    }
  ],
  "bytecode": "0x60a06040523480156200001157600080fd5b5060405162002118380380620021188339818101604052810190620000379190620005c2565b83600460006101000a81548173ffffffffffffffffffffffffffffffffffffffff021916908373ffffffffffffffffffffffffffffffffffffffff1602179055506200008981620001cd60201b60201c565b600560006101000a81548173ffffffffffffffffffffffffffffffffffffffff021916908373ffffffffffffffffffffffffffffffffffffffff160217905550826000806101000a81548173ffffffffffffffffffffffffffffffffffffffff021916908373ffffffffffffffffffffffffffffffffffffffff1602179055508173ffffffffffffffffffffffffffffffffffffffff1660808173ffffffffffffffffffffffffffffffffffffffff1660601b8152505084600260006101000a81548173ffffffffffffffffffffffffffffffffffffffff021916908373ffffffffffffffffffffffffffffffffffffffff16021790555083600360006101000a81548173ffffffffffffffffffffffffffffffffffffffff021916908373ffffffffffffffffffffffffffffffffffffffff160217905550505050505062000798565b600080600460009054906101000a900473ffffffffffffffffffffffffffffffffffffffff1673ffffffffffffffffffffffffffffffffffffffff1663c45a01556040518163ffffffff1660e01b815260040160206040518083038186803b1580156200023957600080fd5b505afa1580156200024e573d6000803e3d6000fd5b505050506040513d601f19601f8201168201806040525081019062000274919062000596565b90506000808273ffffffffffffffffffffffffffffffffffffffff1663c9c6539686600060028110620002d0577f4e487b7100000000000000000000000000000000000000000000000000000000600052603260045260246000fd5b60200201518760016002811062000310577f4e487b7100000000000000000000000000000000000000000000000000000000600052603260045260246000fd5b60200201516040518363ffffffff1660e01b81526004016200033492919062000655565b602060405180830381600087803b1580156200034f57600080fd5b505af115801562000364573d6000803e3d6000fd5b505050506040513d601f19601f820116820180604052508101906200038a919062000596565b9050600073ffffffffffffffffffffffffffffffffffffffff168173ffffffffffffffffffffffffffffffffffffffff1614620003ca57809150620004de565b8273ffffffffffffffffffffffffffffffffffffffff1663c9c653968660006002811062000421577f4e487b7100000000000000000000000000000000000000000000000000000000600052603260045260246000fd5b60200201518760016002811062000461577f4e487b7100000000000000000000000000000000000000000000000000000000600052603260045260246000fd5b60200201516040518363ffffffff1660e01b81526004016200048592919062000655565b602060405180830381600087803b158015620004a057600080fd5b505af1158015620004b5573d6000803e3d6000fd5b505050506040513d601f19601f82011682018060405250810190620004db919062000596565b91505b819350505050919050565b600062000500620004fa84620006ab565b62000682565b905080828560208602820111156200051757600080fd5b60005b858110156200054b578162000530888262000555565b8452602084019350602083019250506001810190506200051a565b5050509392505050565b60008151905062000566816200077e565b92915050565b600082601f8301126200057e57600080fd5b60026200058d848285620004e9565b91505092915050565b600060208284031215620005a957600080fd5b6000620005b98482850162000555565b91505092915050565b600080600080600060c08688031215620005db57600080fd5b6000620005eb8882890162000555565b9550506020620005fe8882890162000555565b9450506040620006118882890162000555565b9350506060620006248882890162000555565b925050608062000637888289016200056c565b9150509295509295909350565b6200064f81620006d4565b82525050565b60006040820190506200066c600083018562000644565b6200067b602083018462000644565b9392505050565b60006200068e620006a1565b90506200069c828262000708565b919050565b6000604051905090565b600067ffffffffffffffff821115620006c957620006c86200073e565b5b602082029050919050565b6000620006e182620006e8565b9050919050565b600073ffffffffffffffffffffffffffffffffffffffff82169050919050565b62000713826200076d565b810181811067ffffffffffffffff821117156200073557620007346200073e565b5b80604052505050565b7f4e487b7100000000000000000000000000000000000000000000000000000000600052604160045260246000fd5b6000601f19601f8301169050919050565b6200078981620006d4565b81146200079557600080fd5b50565b60805160601c61195a620007be6000396000818161073f0152610bc9015261195a6000f3fe6080604052600436106100c65760003560e01c806373b295c21161007f578063b5e6b9c911610059578063b5e6b9c91461028b578063c1f1b1b5146102bb578063d3880165146102e6578063f68c0d7f14610302576100cd565b806373b295c2146101f8578063a662103014610223578063b0f479a114610260576100cd565b80630d0d8171146100d25780632051ff52146100fd57806340e0db1a1461013a5780634b940a4c1461016557806354d7cd5e146101905780637323625d146101cd576100cd565b366100cd57005b600080fd5b3480156100de57600080fd5b506100e761032b565b6040516100f4919061141c565b60405180910390f35b34801561010957600080fd5b50610124600480360381019061011f91906110d5565b610351565b6040516101319190611521565b60405180910390f35b34801561014657600080fd5b5061014f610560565b60405161015c91906115e8565b60405180910390f35b34801561017157600080fd5b5061017a610612565b604051610187919061141c565b60405180910390f35b34801561019c57600080fd5b506101b760048036038101906101b29190611047565b61063c565b6040516101c49190611543565b60405180910390f35b3480156101d957600080fd5b506101e2610696565b6040516101ef91906115e8565b60405180910390f35b34801561020457600080fd5b5061020d61073d565b60405161021a919061141c565b60405180910390f35b34801561022f57600080fd5b5061024a60048036038101906102459190611047565b610761565b6040516102579190611543565b60405180910390f35b34801561026c57600080fd5b506102756107bb565b604051610282919061141c565b60405180910390f35b6102a560048036038101906102a091906110d5565b6107e5565b6040516102b29190611521565b60405180910390f35b3480156102c757600080fd5b506102d061095c565b6040516102dd919061141c565b60405180910390f35b61030060048036038101906102fb9190611099565b610986565b005b34801561030e57600080fd5b5061032960048036038101906103249190611047565b610b86565b005b600160009054906101000a900473ffffffffffffffffffffffffffffffffffffffff1681565b60608473ffffffffffffffffffffffffffffffffffffffff1663095ea7b3600460009054906101000a900473ffffffffffffffffffffffffffffffffffffffff16866040518363ffffffff1660e01b81526004016103b0929190611497565b602060405180830381600087803b1580156103ca57600080fd5b505af11580156103de573d6000803e3d6000fd5b505050506040513d601f19601f820116820180604052508101906104029190611182565b508473ffffffffffffffffffffffffffffffffffffffff166323b872dd3330876040518463ffffffff1660e01b815260040161044093929190611460565b602060405180830381600087803b15801561045a57600080fd5b505af115801561046e573d6000803e3d6000fd5b505050506040513d601f19601f820116820180604052508101906104929190611182565b506000600460009054906101000a900473ffffffffffffffffffffffffffffffffffffffff1673ffffffffffffffffffffffffffffffffffffffff1663676528d1866000878733426040518763ffffffff1660e01b81526004016104fb96959493929190611651565b600060405180830381600087803b15801561051557600080fd5b505af1158015610529573d6000803e3d6000fd5b505050506040513d6000823e3d601f19601f820116820180604052508101906105529190611141565b905080915050949350505050565b6000600560009054906101000a900473ffffffffffffffffffffffffffffffffffffffff1673ffffffffffffffffffffffffffffffffffffffff166370a08231336040518263ffffffff1660e01b81526004016105bd919061141c565b60206040518083038186803b1580156105d557600080fd5b505afa1580156105e9573d6000803e3d6000fd5b505050506040513d601f19601f8201168201806040525081019061060d91906111ab565b905090565b6000600560009054906101000a900473ffffffffffffffffffffffffffffffffffffffff16905090565b6000600460009054906101000a900473ffffffffffffffffffffffffffffffffffffffff1673ffffffffffffffffffffffffffffffffffffffff168273ffffffffffffffffffffffffffffffffffffffff16149050919050565b6000600560009054906101000a900473ffffffffffffffffffffffffffffffffffffffff1673ffffffffffffffffffffffffffffffffffffffff166318160ddd6040518163ffffffff1660e01b815260040160206040518083038186803b15801561070057600080fd5b505afa158015610714573d6000803e3d6000fd5b505050506040513d601f19601f8201168201806040525081019061073891906111ab565b905090565b7f000000000000000000000000000000000000000000000000000000000000000081565b6000600560009054906101000a900473ffffffffffffffffffffffffffffffffffffffff1673ffffffffffffffffffffffffffffffffffffffff168273ffffffffffffffffffffffffffffffffffffffff16149050919050565b6000600460009054906101000a900473ffffffffffffffffffffffffffffffffffffffff16905090565b60608473ffffffffffffffffffffffffffffffffffffffff1663095ea7b3600460009054906101000a900473ffffffffffffffffffffffffffffffffffffffff16866040518363ffffffff1660e01b8152600401610844929190611497565b602060405180830381600087803b15801561085e57600080fd5b505af1158015610872573d6000803e3d6000fd5b505050506040513d601f19601f820116820180604052508101906108969190611182565b50600460009054906101000a900473ffffffffffffffffffffffffffffffffffffffff1673ffffffffffffffffffffffffffffffffffffffff16638a657e673486868633426040518763ffffffff1660e01b81526004016108fb959493929190611603565b6000604051808303818588803b15801561091457600080fd5b505af1158015610928573d6000803e3d6000fd5b50505050506040513d6000823e3d601f19601f820116820180604052508101906109529190611141565b9050949350505050565b6000600160009054906101000a900473ffffffffffffffffffffffffffffffffffffffff16905090565b8173ffffffffffffffffffffffffffffffffffffffff166323b872dd3330846040518463ffffffff1660e01b81526004016109c393929190611460565b602060405180830381600087803b1580156109dd57600080fd5b505af11580156109f1573d6000803e3d6000fd5b505050506040513d601f19601f82011682018060405250810190610a159190611182565b508173ffffffffffffffffffffffffffffffffffffffff1663095ea7b3600460009054906101000a900473ffffffffffffffffffffffffffffffffffffffff16836040518363ffffffff1660e01b8152600401610a73929190611497565b602060405180830381600087803b158015610a8d57600080fd5b505af1158015610aa1573d6000803e3d6000fd5b505050506040513d601f19601f82011682018060405250810190610ac59190611182565b50600460009054906101000a900473ffffffffffffffffffffffffffffffffffffffff1673ffffffffffffffffffffffffffffffffffffffff1663f91b3f7234848460018033426040518863ffffffff1660e01b8152600401610b2d969594939291906114c0565b6060604051808303818588803b158015610b4657600080fd5b505af1158015610b5a573d6000803e3d6000fd5b50505050506040513d601f19601f82011682018060405250810190610b7f9190611210565b5050505050565b6000600260009054906101000a900473ffffffffffffffffffffffffffffffffffffffff1673ffffffffffffffffffffffffffffffffffffffff1663e6a43905837f00000000000000000000000000000000000000000000000000000000000000006040518363ffffffff1660e01b8152600401610c05929190611437565b60206040518083038186803b158015610c1d57600080fd5b505afa158015610c31573d6000803e3d6000fd5b505050506040513d601f19601f82011682018060405250810190610c559190611070565b90507fa688e701e54e142df359f6a65f7e07f51559f72427234cb649f9eabcd4b6774181604051610c8691906115ba565b60405180910390a160008173ffffffffffffffffffffffffffffffffffffffff166370a08231306040518263ffffffff1660e01b8152600401610cc9919061141c565b60206040518083038186803b158015610ce157600080fd5b505afa158015610cf5573d6000803e3d6000fd5b505050506040513d601f19601f82011682018060405250810190610d1991906111ab565b90508173ffffffffffffffffffffffffffffffffffffffff1663095ea7b3600360009054906101000a900473ffffffffffffffffffffffffffffffffffffffff16836040518363ffffffff1660e01b8152600401610d78929190611497565b602060405180830381600087803b158015610d9257600080fd5b505af1158015610da6573d6000803e3d6000fd5b505050506040513d601f19601f82011682018060405250810190610dca9190611182565b50600080600360009054906101000a900473ffffffffffffffffffffffffffffffffffffffff1673ffffffffffffffffffffffffffffffffffffffff166333c6b725868560018030426040518763ffffffff1660e01b8152600401610e34969594939291906114c0565b6040805180830381600087803b158015610e4d57600080fd5b505af1158015610e61573d6000803e3d6000fd5b505050506040513d601f19601f82011682018060405250810190610e8591906111d4565b915091507fdd970dd9b5bfe707922155b058a407655cb18288b807e2216442bca8ad83d6b582604051610eb8919061155e565b60405180910390a17fdd970dd9b5bfe707922155b058a407655cb18288b807e2216442bca8ad83d6b581604051610eef919061158c565b60405180910390a15050505050565b6000610f11610f0c846116d2565b6116ad565b90508083825260208201905082856020860282011115610f3057600080fd5b60005b85811015610f605781610f468882611032565b845260208401935060208301925050600181019050610f33565b5050509392505050565b600081359050610f79816118df565b92915050565b600081519050610f8e816118df565b92915050565b60008083601f840112610fa657600080fd5b8235905067ffffffffffffffff811115610fbf57600080fd5b602083019150836020820283011115610fd757600080fd5b9250929050565b600082601f830112610fef57600080fd5b8151610fff848260208601610efe565b91505092915050565b600081519050611017816118f6565b92915050565b60008135905061102c8161190d565b92915050565b6000815190506110418161190d565b92915050565b60006020828403121561105957600080fd5b600061106784828501610f6a565b91505092915050565b60006020828403121561108257600080fd5b600061109084828501610f7f565b91505092915050565b600080604083850312156110ac57600080fd5b60006110ba85828601610f6a565b92505060206110cb8582860161101d565b9150509250929050565b600080600080606085870312156110eb57600080fd5b60006110f987828801610f6a565b945050602061110a8782880161101d565b935050604085013567ffffffffffffffff81111561112757600080fd5b61113387828801610f94565b925092505092959194509250565b60006020828403121561115357600080fd5b600082015167ffffffffffffffff81111561116d57600080fd5b61117984828501610fde565b91505092915050565b60006020828403121561119457600080fd5b60006111a284828501611008565b91505092915050565b6000602082840312156111bd57600080fd5b60006111cb84828501611032565b91505092915050565b600080604083850312156111e757600080fd5b60006111f585828601611032565b925050602061120685828601611032565b9150509250929050565b60008060006060848603121561122557600080fd5b600061123386828701611032565b935050602061124486828701611032565b925050604061125586828701611032565b9150509250925092565b600061126b838361128f565b60208301905092915050565b600061128383836113fe565b60208301905092915050565b61129881611787565b82525050565b6112a781611787565b82525050565b60006112b9838561173d565b93506112c4826116fe565b8060005b858110156112fd576112da8284611770565b6112e4888261125f565b97506112ef83611723565b9250506001810190506112c8565b5085925050509392505050565b600061131582611718565b61131f818561174e565b935061132a83611708565b8060005b8381101561135b5781516113428882611277565b975061134d83611730565b92505060018101905061132e565b5085935050505092915050565b61137181611799565b82525050565b611380816117cf565b82525050565b61138f816117e1565b82525050565b60006113a2600b8361175f565b91506113ad82611864565b602082019050919050565b60006113c5600a8361175f565b91506113d08261188d565b602082019050919050565b60006113e8600b8361175f565b91506113f3826118b6565b602082019050919050565b611407816117c5565b82525050565b611416816117c5565b82525050565b6000602082019050611431600083018461129e565b92915050565b600060408201905061144c600083018561129e565b611459602083018461129e565b9392505050565b6000606082019050611475600083018661129e565b611482602083018561129e565b61148f604083018461140d565b949350505050565b60006040820190506114ac600083018561129e565b6114b9602083018461140d565b9392505050565b600060c0820190506114d5600083018961129e565b6114e2602083018861140d565b6114ef6040830187611386565b6114fc6060830186611386565b611509608083018561129e565b61151660a083018461140d565b979650505050505050565b6000602082019050818103600083015261153b818461130a565b905092915050565b60006020820190506115586000830184611368565b92915050565b6000604082019050818103600083015261157781611395565b9050611586602083018461140d565b92915050565b600060408201905081810360008301526115a5816113b8565b90506115b4602083018461140d565b92915050565b600060408201905081810360008301526115d3816113db565b90506115e2602083018461129e565b92915050565b60006020820190506115fd600083018461140d565b92915050565b6000608082019050611618600083018861140d565b818103602083015261162b8186886112ad565b905061163a604083018561129e565b611647606083018461140d565b9695505050505050565b600060a082019050611666600083018961140d565b6116736020830188611377565b81810360408301526116868186886112ad565b9050611695606083018561129e565b6116a2608083018461140d565b979650505050505050565b60006116b76116c8565b90506116c382826117f3565b919050565b6000604051905090565b600067ffffffffffffffff8211156116ed576116ec611824565b5b602082029050602081019050919050565b6000819050919050565b6000819050602082019050919050565b600081519050919050565b6000602082019050919050565b6000602082019050919050565b600082825260208201905092915050565b600082825260208201905092915050565b600082825260208201905092915050565b600061177f6020840184610f6a565b905092915050565b6000611792826117a5565b9050919050565b60008115159050919050565b600073ffffffffffffffffffffffffffffffffffffffff82169050919050565b6000819050919050565b60006117da826117c5565b9050919050565b60006117ec826117c5565b9050919050565b6117fc82611853565b810181811067ffffffffffffffff8211171561181b5761181a611824565b5b80604052505050565b7f4e487b7100000000000000000000000000000000000000000000000000000000600052604160045260246000fd5b6000601f19601f8301169050919050565b7f7065616368416d6f756e74000000000000000000000000000000000000000000600082015250565b7f61766178416d6f756e7400000000000000000000000000000000000000000000600082015250565b7f50656163682f5761766178000000000000000000000000000000000000000000600082015250565b6118e881611787565b81146118f357600080fd5b50565b6118ff81611799565b811461190a57600080fd5b50565b611916816117c5565b811461192157600080fd5b5056fea26469706673582212208054dd797a7ef93c68eb1a3b2d23b799dcd2dbc61e2b0029101c2374b72f12db64736f6c63430008040033",
  "linkReferences": {},
  "deployedLinkReferences": {}
}