{
  "_format": "hh-sol-artifact-1",
  "contractName": "PeachManager",
  "sourceName": "contracts/PeachManager.sol",
  "abi": [
    {
      "inputs": [
        {
          "internalType": "address",
          "name": "_factory",
          "type": "address"
        },
        {
          "internalType": "address",
          "name": "_router",
          "type": "address"
        },
        {
          "internalType": "address",
          "name": "_peachToken",
          "type": "address"
        },
        {
          "internalType": "address",
          "name": "_WAVAX",
          "type": "address"
        },
        {
          "internalType": "address[2]",
          "name": "path",
          "type": "address[2]"
        },
        {
          "internalType": "address",
          "name": "_rewardsPool",
          "type": "address"
        }
      ],
      "stateMutability": "nonpayable",
      "type": "constructor"
    },
    {
      "anonymous": false,
      "inputs": [
        {
          "indexed": false,
          "internalType": "string",
          "name": "message",
          "type": "string"
        },
        {
          "indexed": false,
          "internalType": "uint256",
          "name": "val",
          "type": "uint256"
        }
      ],
      "name": "Log",
      "type": "event"
    },
    {
      "anonymous": false,
      "inputs": [
        {
          "indexed": false,
          "internalType": "string",
          "name": "message",
          "type": "string"
        },
        {
          "indexed": false,
          "internalType": "address",
          "name": "pairAddress",
          "type": "address"
        }
      ],
      "name": "Pair",
      "type": "event"
    },
    {
      "inputs": [],
      "name": "WAVAX",
      "outputs": [
        {
          "internalType": "address",
          "name": "",
          "type": "address"
        }
      ],
      "stateMutability": "view",
      "type": "function"
    },
    {
      "inputs": [
        {
          "internalType": "address",
          "name": "_tokenAddress",
          "type": "address"
        },
        {
          "internalType": "uint256",
          "name": "_tokenAmount",
          "type": "uint256"
        }
      ],
      "name": "addLiquidityAvax",
      "outputs": [],
      "stateMutability": "payable",
      "type": "function"
    },
    {
      "inputs": [
        {
          "internalType": "address",
          "name": "_in",
          "type": "address"
        }
      ],
      "name": "approveContract",
      "outputs": [],
      "stateMutability": "nonpayable",
      "type": "function"
    },
    {
      "inputs": [],
      "name": "checkLPTokenBalance",
      "outputs": [
        {
          "internalType": "uint256",
          "name": "",
          "type": "uint256"
        }
      ],
      "stateMutability": "view",
      "type": "function"
    },
    {
      "inputs": [],
      "name": "getPair",
      "outputs": [
        {
          "internalType": "address",
          "name": "",
          "type": "address"
        }
      ],
      "stateMutability": "view",
      "type": "function"
    },
    {
      "inputs": [],
      "name": "getPair2",
      "outputs": [
        {
          "internalType": "address",
          "name": "",
          "type": "address"
        }
      ],
      "stateMutability": "view",
      "type": "function"
    },
    {
      "inputs": [],
      "name": "getPairTotalSupply",
      "outputs": [
        {
          "internalType": "uint256",
          "name": "",
          "type": "uint256"
        }
      ],
      "stateMutability": "view",
      "type": "function"
    },
    {
      "inputs": [],
      "name": "getRouter",
      "outputs": [
        {
          "internalType": "address",
          "name": "",
          "type": "address"
        }
      ],
      "stateMutability": "view",
      "type": "function"
    },
    {
      "inputs": [
        {
          "internalType": "address",
          "name": "_pair",
          "type": "address"
        }
      ],
      "name": "isAddressPair",
      "outputs": [
        {
          "internalType": "bool",
          "name": "",
          "type": "bool"
        }
      ],
      "stateMutability": "view",
      "type": "function"
    },
    {
      "inputs": [
        {
          "internalType": "address",
          "name": "_router",
          "type": "address"
        }
      ],
      "name": "isAddressRouter",
      "outputs": [
        {
          "internalType": "bool",
          "name": "",
          "type": "bool"
        }
      ],
      "stateMutability": "view",
      "type": "function"
    },
    {
      "inputs": [
        {
          "internalType": "address",
          "name": "_tokenAddress",
          "type": "address"
        }
      ],
      "name": "removeLiquidityAvax",
      "outputs": [],
      "stateMutability": "nonpayable",
      "type": "function"
    },
    {
      "inputs": [
        {
          "internalType": "address",
          "name": "_tokenAddress",
          "type": "address"
        },
        {
          "internalType": "uint256",
          "name": "_tokenAmount",
          "type": "uint256"
        },
        {
          "internalType": "address[]",
          "name": "path",
          "type": "address[]"
        }
      ],
      "name": "swapAVAXForExactTokens",
      "outputs": [
        {
          "internalType": "uint256[]",
          "name": "amount",
          "type": "uint256[]"
        }
      ],
      "stateMutability": "payable",
      "type": "function"
    },
    {
      "inputs": [
        {
          "internalType": "address",
          "name": "_tokenAddress",
          "type": "address"
        },
        {
          "internalType": "uint256",
          "name": "_tokenAmount",
          "type": "uint256"
        },
        {
          "internalType": "address[]",
          "name": "path",
          "type": "address[]"
        }
      ],
      "name": "swapExactTokensForAVAX",
      "outputs": [
        {
          "internalType": "uint256[]",
          "name": "amount",
          "type": "uint256[]"
        }
      ],
      "stateMutability": "nonpayable",
      "type": "function"
    },
    {
      "inputs": [],
      "name": "wavaxPeachPairAddress",
      "outputs": [
        {
          "internalType": "address",
          "name": "",
          "type": "address"
        }
      ],
      "stateMutability": "view",
      "type": "function"
    },
    {
      "stateMutability": "payable",
      "type": "receive"
    }
  ],
  "bytecode": "0x60a06040523480156200001157600080fd5b506040516200235a3803806200235a833981810160405281019062000037919062000604565b84600560006101000a81548173ffffffffffffffffffffffffffffffffffffffff021916908373ffffffffffffffffffffffffffffffffffffffff16021790555062000089826200020f60201b60201c565b600660006101000a81548173ffffffffffffffffffffffffffffffffffffffff021916908373ffffffffffffffffffffffffffffffffffffffff160217905550836000806101000a81548173ffffffffffffffffffffffffffffffffffffffff021916908373ffffffffffffffffffffffffffffffffffffffff1602179055508273ffffffffffffffffffffffffffffffffffffffff1660808173ffffffffffffffffffffffffffffffffffffffff1660601b8152505085600360006101000a81548173ffffffffffffffffffffffffffffffffffffffff021916908373ffffffffffffffffffffffffffffffffffffffff16021790555084600460006101000a81548173ffffffffffffffffffffffffffffffffffffffff021916908373ffffffffffffffffffffffffffffffffffffffff16021790555080600260006101000a81548173ffffffffffffffffffffffffffffffffffffffff021916908373ffffffffffffffffffffffffffffffffffffffff160217905550505050505050620007ee565b600080600560009054906101000a900473ffffffffffffffffffffffffffffffffffffffff1673ffffffffffffffffffffffffffffffffffffffff1663c45a01556040518163ffffffff1660e01b815260040160206040518083038186803b1580156200027b57600080fd5b505afa15801562000290573d6000803e3d6000fd5b505050506040513d601f19601f82011682018060405250810190620002b69190620005d8565b90506000808273ffffffffffffffffffffffffffffffffffffffff1663c9c653968660006002811062000312577f4e487b7100000000000000000000000000000000000000000000000000000000600052603260045260246000fd5b60200201518760016002811062000352577f4e487b7100000000000000000000000000000000000000000000000000000000600052603260045260246000fd5b60200201516040518363ffffffff1660e01b815260040162000376929190620006ab565b602060405180830381600087803b1580156200039157600080fd5b505af1158015620003a6573d6000803e3d6000fd5b505050506040513d601f19601f82011682018060405250810190620003cc9190620005d8565b9050600073ffffffffffffffffffffffffffffffffffffffff168173ffffffffffffffffffffffffffffffffffffffff16146200040c5780915062000520565b8273ffffffffffffffffffffffffffffffffffffffff1663c9c653968660006002811062000463577f4e487b7100000000000000000000000000000000000000000000000000000000600052603260045260246000fd5b602002015187600160028110620004a3577f4e487b7100000000000000000000000000000000000000000000000000000000600052603260045260246000fd5b60200201516040518363ffffffff1660e01b8152600401620004c7929190620006ab565b602060405180830381600087803b158015620004e257600080fd5b505af1158015620004f7573d6000803e3d6000fd5b505050506040513d601f19601f820116820180604052508101906200051d9190620005d8565b91505b819350505050919050565b6000620005426200053c8462000701565b620006d8565b905080828560208602820111156200055957600080fd5b60005b858110156200058d578162000572888262000597565b8452602084019350602083019250506001810190506200055c565b5050509392505050565b600081519050620005a881620007d4565b92915050565b600082601f830112620005c057600080fd5b6002620005cf8482856200052b565b91505092915050565b600060208284031215620005eb57600080fd5b6000620005fb8482850162000597565b91505092915050565b60008060008060008060e087890312156200061e57600080fd5b60006200062e89828a0162000597565b96505060206200064189828a0162000597565b95505060406200065489828a0162000597565b94505060606200066789828a0162000597565b93505060806200067a89828a01620005ae565b92505060c06200068d89828a0162000597565b9150509295509295509295565b620006a5816200072a565b82525050565b6000604082019050620006c260008301856200069a565b620006d160208301846200069a565b9392505050565b6000620006e4620006f7565b9050620006f282826200075e565b919050565b6000604051905090565b600067ffffffffffffffff8211156200071f576200071e62000794565b5b602082029050919050565b600062000737826200073e565b9050919050565b600073ffffffffffffffffffffffffffffffffffffffff82169050919050565b6200076982620007c3565b810181811067ffffffffffffffff821117156200078b576200078a62000794565b5b80604052505050565b7f4e487b7100000000000000000000000000000000000000000000000000000000600052604160045260246000fd5b6000601f19601f8301169050919050565b620007df816200072a565b8114620007eb57600080fd5b50565b60805160601c611b3f6200081b60003960008181610371015281816108540152610d200152611b3f6000f3fe6080604052600436106100e15760003560e01c806373b295c21161007f578063b5e6b9c911610059578063b5e6b9c9146102cf578063c1f1b1b5146102ff578063d38801651461032a578063f68c0d7f14610346576100e8565b806373b295c21461023c578063a662103014610267578063b0f479a1146102a4576100e8565b806340e0db1a116100bb57806340e0db1a1461017e5780634b940a4c146101a957806354d7cd5e146101d45780637323625d14610211576100e8565b806307f7aafb146100ed5780630d0d8171146101165780632051ff5214610141576100e8565b366100e857005b600080fd5b3480156100f957600080fd5b50610114600480360381019061010f91906111e2565b61036f565b005b34801561012257600080fd5b5061012b610440565b60405161013891906115c6565b60405180910390f35b34801561014d57600080fd5b5061016860048036038101906101639190611270565b610466565b60405161017591906116f4565b60405180910390f35b34801561018a57600080fd5b50610193610675565b6040516101a091906117bb565b60405180910390f35b3480156101b557600080fd5b506101be610727565b6040516101cb91906115c6565b60405180910390f35b3480156101e057600080fd5b506101fb60048036038101906101f691906111e2565b610751565b6040516102089190611716565b60405180910390f35b34801561021d57600080fd5b506102266107ab565b60405161023391906117bb565b60405180910390f35b34801561024857600080fd5b50610251610852565b60405161025e91906115c6565b60405180910390f35b34801561027357600080fd5b5061028e600480360381019061028991906111e2565b610876565b60405161029b9190611716565b60405180910390f35b3480156102b057600080fd5b506102b96108d0565b6040516102c691906115c6565b60405180910390f35b6102e960048036038101906102e49190611270565b6108fa565b6040516102f691906116f4565b60405180910390f35b34801561030b57600080fd5b50610314610a91565b60405161032191906115c6565b60405180910390f35b610344600480360381019061033f9190611234565b610abb565b005b34801561035257600080fd5b5061036d600480360381019061036891906111e2565b610cdd565b005b7f000000000000000000000000000000000000000000000000000000000000000073ffffffffffffffffffffffffffffffffffffffff1663095ea7b3827fffffffffffffffffffffffffffffffffffffffffffffffffffffffffffffffff6040518363ffffffff1660e01b81526004016103ea929190611641565b602060405180830381600087803b15801561040457600080fd5b505af1158015610418573d6000803e3d6000fd5b505050506040513d601f19601f8201168201806040525081019061043c919061131d565b5050565b600160009054906101000a900473ffffffffffffffffffffffffffffffffffffffff1681565b60608473ffffffffffffffffffffffffffffffffffffffff1663095ea7b3600560009054906101000a900473ffffffffffffffffffffffffffffffffffffffff16866040518363ffffffff1660e01b81526004016104c592919061166a565b602060405180830381600087803b1580156104df57600080fd5b505af11580156104f3573d6000803e3d6000fd5b505050506040513d601f19601f82011682018060405250810190610517919061131d565b508473ffffffffffffffffffffffffffffffffffffffff166323b872dd3330876040518463ffffffff1660e01b81526004016105559392919061160a565b602060405180830381600087803b15801561056f57600080fd5b505af1158015610583573d6000803e3d6000fd5b505050506040513d601f19601f820116820180604052508101906105a7919061131d565b506000600560009054906101000a900473ffffffffffffffffffffffffffffffffffffffff1673ffffffffffffffffffffffffffffffffffffffff1663676528d1866000878733426040518763ffffffff1660e01b815260040161061096959493929190611824565b600060405180830381600087803b15801561062a57600080fd5b505af115801561063e573d6000803e3d6000fd5b505050506040513d6000823e3d601f19601f8201168201806040525081019061066791906112dc565b905080915050949350505050565b6000600660009054906101000a900473ffffffffffffffffffffffffffffffffffffffff1673ffffffffffffffffffffffffffffffffffffffff166370a08231336040518263ffffffff1660e01b81526004016106d291906115c6565b60206040518083038186803b1580156106ea57600080fd5b505afa1580156106fe573d6000803e3d6000fd5b505050506040513d601f19601f820116820180604052508101906107229190611346565b905090565b6000600660009054906101000a900473ffffffffffffffffffffffffffffffffffffffff16905090565b6000600560009054906101000a900473ffffffffffffffffffffffffffffffffffffffff1673ffffffffffffffffffffffffffffffffffffffff168273ffffffffffffffffffffffffffffffffffffffff16149050919050565b6000600660009054906101000a900473ffffffffffffffffffffffffffffffffffffffff1673ffffffffffffffffffffffffffffffffffffffff166318160ddd6040518163ffffffff1660e01b815260040160206040518083038186803b15801561081557600080fd5b505afa158015610829573d6000803e3d6000fd5b505050506040513d601f19601f8201168201806040525081019061084d9190611346565b905090565b7f000000000000000000000000000000000000000000000000000000000000000081565b6000600660009054906101000a900473ffffffffffffffffffffffffffffffffffffffff1673ffffffffffffffffffffffffffffffffffffffff168273ffffffffffffffffffffffffffffffffffffffff16149050919050565b6000600560009054906101000a900473ffffffffffffffffffffffffffffffffffffffff16905090565b60608473ffffffffffffffffffffffffffffffffffffffff1663095ea7b3600560009054906101000a900473ffffffffffffffffffffffffffffffffffffffff167fffffffffffffffffffffffffffffffffffffffffffffffffffffffffffffffff6040518363ffffffff1660e01b8152600401610979929190611641565b602060405180830381600087803b15801561099357600080fd5b505af11580156109a7573d6000803e3d6000fd5b505050506040513d601f19601f820116820180604052508101906109cb919061131d565b50600560009054906101000a900473ffffffffffffffffffffffffffffffffffffffff1673ffffffffffffffffffffffffffffffffffffffff16638a657e673486868633426040518763ffffffff1660e01b8152600401610a309594939291906117d6565b6000604051808303818588803b158015610a4957600080fd5b505af1158015610a5d573d6000803e3d6000fd5b50505050506040513d6000823e3d601f19601f82011682018060405250810190610a8791906112dc565b9050949350505050565b6000600160009054906101000a900473ffffffffffffffffffffffffffffffffffffffff16905090565b8173ffffffffffffffffffffffffffffffffffffffff166323b872dd3330846040518463ffffffff1660e01b8152600401610af89392919061160a565b602060405180830381600087803b158015610b1257600080fd5b505af1158015610b26573d6000803e3d6000fd5b505050506040513d601f19601f82011682018060405250810190610b4a919061131d565b508173ffffffffffffffffffffffffffffffffffffffff1663095ea7b3600560009054906101000a900473ffffffffffffffffffffffffffffffffffffffff16836040518363ffffffff1660e01b8152600401610ba892919061166a565b602060405180830381600087803b158015610bc257600080fd5b505af1158015610bd6573d6000803e3d6000fd5b505050506040513d601f19601f82011682018060405250810190610bfa919061131d565b50600560009054906101000a900473ffffffffffffffffffffffffffffffffffffffff1673ffffffffffffffffffffffffffffffffffffffff1663f91b3f72348484600180600260009054906101000a900473ffffffffffffffffffffffffffffffffffffffff16426040518863ffffffff1660e01b8152600401610c8496959493929190611693565b6060604051808303818588803b158015610c9d57600080fd5b505af1158015610cb1573d6000803e3d6000fd5b50505050506040513d601f19601f82011682018060405250810190610cd691906113ab565b5050505050565b6000600360009054906101000a900473ffffffffffffffffffffffffffffffffffffffff1673ffffffffffffffffffffffffffffffffffffffff1663e6a43905837f00000000000000000000000000000000000000000000000000000000000000006040518363ffffffff1660e01b8152600401610d5c9291906115e1565b60206040518083038186803b158015610d7457600080fd5b505afa158015610d88573d6000803e3d6000fd5b505050506040513d601f19601f82011682018060405250810190610dac919061120b565b90507fa688e701e54e142df359f6a65f7e07f51559f72427234cb649f9eabcd4b6774181604051610ddd919061178d565b60405180910390a160008173ffffffffffffffffffffffffffffffffffffffff166370a08231600260009054906101000a900473ffffffffffffffffffffffffffffffffffffffff166040518263ffffffff1660e01b8152600401610e4291906115c6565b60206040518083038186803b158015610e5a57600080fd5b505afa158015610e6e573d6000803e3d6000fd5b505050506040513d601f19601f82011682018060405250810190610e929190611346565b90508173ffffffffffffffffffffffffffffffffffffffff1663095ea7b3600460009054906101000a900473ffffffffffffffffffffffffffffffffffffffff16836040518363ffffffff1660e01b8152600401610ef192919061166a565b602060405180830381600087803b158015610f0b57600080fd5b505af1158015610f1f573d6000803e3d6000fd5b505050506040513d601f19601f82011682018060405250810190610f43919061131d565b50600080600460009054906101000a900473ffffffffffffffffffffffffffffffffffffffff1673ffffffffffffffffffffffffffffffffffffffff166333c6b7258685600180600260009054906101000a900473ffffffffffffffffffffffffffffffffffffffff16426040518763ffffffff1660e01b8152600401610fcf96959493929190611693565b6040805180830381600087803b158015610fe857600080fd5b505af1158015610ffc573d6000803e3d6000fd5b505050506040513d601f19601f82011682018060405250810190611020919061136f565b915091507fdd970dd9b5bfe707922155b058a407655cb18288b807e2216442bca8ad83d6b5826040516110539190611731565b60405180910390a17fdd970dd9b5bfe707922155b058a407655cb18288b807e2216442bca8ad83d6b58160405161108a919061175f565b60405180910390a15050505050565b60006110ac6110a7846118a5565b611880565b905080838252602082019050828560208602820111156110cb57600080fd5b60005b858110156110fb57816110e188826111cd565b8452602084019350602083019250506001810190506110ce565b5050509392505050565b60008135905061111481611ac4565b92915050565b60008151905061112981611ac4565b92915050565b60008083601f84011261114157600080fd5b8235905067ffffffffffffffff81111561115a57600080fd5b60208301915083602082028301111561117257600080fd5b9250929050565b600082601f83011261118a57600080fd5b815161119a848260208601611099565b91505092915050565b6000815190506111b281611adb565b92915050565b6000813590506111c781611af2565b92915050565b6000815190506111dc81611af2565b92915050565b6000602082840312156111f457600080fd5b600061120284828501611105565b91505092915050565b60006020828403121561121d57600080fd5b600061122b8482850161111a565b91505092915050565b6000806040838503121561124757600080fd5b600061125585828601611105565b9250506020611266858286016111b8565b9150509250929050565b6000806000806060858703121561128657600080fd5b600061129487828801611105565b94505060206112a5878288016111b8565b935050604085013567ffffffffffffffff8111156112c257600080fd5b6112ce8782880161112f565b925092505092959194509250565b6000602082840312156112ee57600080fd5b600082015167ffffffffffffffff81111561130857600080fd5b61131484828501611179565b91505092915050565b60006020828403121561132f57600080fd5b600061133d848285016111a3565b91505092915050565b60006020828403121561135857600080fd5b6000611366848285016111cd565b91505092915050565b6000806040838503121561138257600080fd5b6000611390858286016111cd565b92505060206113a1858286016111cd565b9150509250929050565b6000806000606084860312156113c057600080fd5b60006113ce868287016111cd565b93505060206113df868287016111cd565b92505060406113f0868287016111cd565b9150509250925092565b6000611406838361142a565b60208301905092915050565b600061141e83836115a8565b60208301905092915050565b6114338161195a565b82525050565b6114428161195a565b82525050565b60006114548385611910565b935061145f826118d1565b8060005b85811015611498576114758284611943565b61147f88826113fa565b975061148a836118f6565b925050600181019050611463565b5085925050509392505050565b60006114b0826118eb565b6114ba8185611921565b93506114c5836118db565b8060005b838110156114f65781516114dd8882611412565b97506114e883611903565b9250506001810190506114c9565b5085935050505092915050565b61150c8161196c565b82525050565b61151b816119a2565b82525050565b61152a816119b4565b82525050565b611539816119c6565b82525050565b600061154c600b83611932565b915061155782611a49565b602082019050919050565b600061156f600a83611932565b915061157a82611a72565b602082019050919050565b6000611592600b83611932565b915061159d82611a9b565b602082019050919050565b6115b181611998565b82525050565b6115c081611998565b82525050565b60006020820190506115db6000830184611439565b92915050565b60006040820190506115f66000830185611439565b6116036020830184611439565b9392505050565b600060608201905061161f6000830186611439565b61162c6020830185611439565b61163960408301846115b7565b949350505050565b60006040820190506116566000830185611439565b6116636020830184611521565b9392505050565b600060408201905061167f6000830185611439565b61168c60208301846115b7565b9392505050565b600060c0820190506116a86000830189611439565b6116b560208301886115b7565b6116c26040830187611530565b6116cf6060830186611530565b6116dc6080830185611439565b6116e960a08301846115b7565b979650505050505050565b6000602082019050818103600083015261170e81846114a5565b905092915050565b600060208201905061172b6000830184611503565b92915050565b6000604082019050818103600083015261174a8161153f565b905061175960208301846115b7565b92915050565b6000604082019050818103600083015261177881611562565b905061178760208301846115b7565b92915050565b600060408201905081810360008301526117a681611585565b90506117b56020830184611439565b92915050565b60006020820190506117d060008301846115b7565b92915050565b60006080820190506117eb60008301886115b7565b81810360208301526117fe818688611448565b905061180d6040830185611439565b61181a60608301846115b7565b9695505050505050565b600060a08201905061183960008301896115b7565b6118466020830188611512565b8181036040830152611859818688611448565b90506118686060830185611439565b61187560808301846115b7565b979650505050505050565b600061188a61189b565b905061189682826119d8565b919050565b6000604051905090565b600067ffffffffffffffff8211156118c0576118bf611a09565b5b602082029050602081019050919050565b6000819050919050565b6000819050602082019050919050565b600081519050919050565b6000602082019050919050565b6000602082019050919050565b600082825260208201905092915050565b600082825260208201905092915050565b600082825260208201905092915050565b60006119526020840184611105565b905092915050565b600061196582611978565b9050919050565b60008115159050919050565b600073ffffffffffffffffffffffffffffffffffffffff82169050919050565b6000819050919050565b60006119ad82611998565b9050919050565b60006119bf82611998565b9050919050565b60006119d182611998565b9050919050565b6119e182611a38565b810181811067ffffffffffffffff82111715611a00576119ff611a09565b5b80604052505050565b7f4e487b7100000000000000000000000000000000000000000000000000000000600052604160045260246000fd5b6000601f19601f8301169050919050565b7f7065616368416d6f756e74000000000000000000000000000000000000000000600082015250565b7f61766178416d6f756e7400000000000000000000000000000000000000000000600082015250565b7f50656163682f5761766178000000000000000000000000000000000000000000600082015250565b611acd8161195a565b8114611ad857600080fd5b50565b611ae48161196c565b8114611aef57600080fd5b50565b611afb81611998565b8114611b0657600080fd5b5056fea2646970667358221220bc4ad20fe992af94682bb365c5745e2fc9fceff57ae2e92eb1e8bd36ed2fdded64736f6c63430008040033",
  "linkReferences": {},
  "deployedLinkReferences": {}
}