{
  "_format": "hh-sol-artifact-1",
  "contractName": "Pool",
  "sourceName": "contracts/RewardsPool.sol",
  "abi": [
    {
      "inputs": [
        {
          "internalType": "address",
          "name": "_PeachToken",
          "type": "address"
        }
      ],
      "stateMutability": "nonpayable",
      "type": "constructor"
    },
    {
      "anonymous": false,
      "inputs": [
        {
          "indexed": true,
          "internalType": "address",
          "name": "previousOwner",
          "type": "address"
        },
        {
          "indexed": true,
          "internalType": "address",
          "name": "newOwner",
          "type": "address"
        }
      ],
      "name": "OwnershipTransferred",
      "type": "event"
    },
    {
      "inputs": [],
      "name": "PeachToken",
      "outputs": [
        {
          "internalType": "contract IERC20",
          "name": "",
          "type": "address"
        }
      ],
      "stateMutability": "view",
      "type": "function"
    },
    {
      "inputs": [],
      "name": "owner",
      "outputs": [
        {
          "internalType": "address",
          "name": "",
          "type": "address"
        }
      ],
      "stateMutability": "view",
      "type": "function"
    },
    {
      "inputs": [
        {
          "internalType": "address",
          "name": "_to",
          "type": "address"
        },
        {
          "internalType": "uint256",
          "name": "_amount",
          "type": "uint256"
        }
      ],
      "name": "pay",
      "outputs": [
        {
          "internalType": "bool",
          "name": "",
          "type": "bool"
        }
      ],
      "stateMutability": "nonpayable",
      "type": "function"
    },
    {
      "inputs": [],
      "name": "renounceOwnership",
      "outputs": [],
      "stateMutability": "nonpayable",
      "type": "function"
    },
    {
      "inputs": [
        {
          "internalType": "address",
          "name": "newOwner",
          "type": "address"
        }
      ],
      "name": "transferOwnership",
      "outputs": [],
      "stateMutability": "nonpayable",
      "type": "function"
    }
  ],
  "bytecode": "0x608060405234801561001057600080fd5b50604051610a2e380380610a2e83398181016040528101906100329190610176565b61004e61004361009560201b60201c565b61009d60201b60201c565b80600160006101000a81548173ffffffffffffffffffffffffffffffffffffffff021916908373ffffffffffffffffffffffffffffffffffffffff160217905550506101e8565b600033905090565b60008060009054906101000a900473ffffffffffffffffffffffffffffffffffffffff169050816000806101000a81548173ffffffffffffffffffffffffffffffffffffffff021916908373ffffffffffffffffffffffffffffffffffffffff1602179055508173ffffffffffffffffffffffffffffffffffffffff168173ffffffffffffffffffffffffffffffffffffffff167f8be0079c531659141344cd1fd0a4f28419497f9722a3daafe3b4186f6b6457e060405160405180910390a35050565b600081519050610170816101d1565b92915050565b60006020828403121561018857600080fd5b600061019684828501610161565b91505092915050565b60006101aa826101b1565b9050919050565b600073ffffffffffffffffffffffffffffffffffffffff82169050919050565b6101da8161019f565b81146101e557600080fd5b50565b610837806101f76000396000f3fe608060405234801561001057600080fd5b50600436106100575760003560e01c80630e4bbf1c1461005c578063715018a61461007a5780638da5cb5b14610084578063c4076876146100a2578063f2fde38b146100d2575b600080fd5b6100646100ee565b604051610071919061066c565b60405180910390f35b610082610114565b005b61008c61019c565b604051610099919061060d565b60405180910390f35b6100bc60048036038101906100b79190610526565b6101c5565b6040516100c99190610651565b60405180910390f35b6100ec60048036038101906100e791906104fd565b6102fa565b005b600160009054906101000a900473ffffffffffffffffffffffffffffffffffffffff1681565b61011c6103f2565b73ffffffffffffffffffffffffffffffffffffffff1661013a61019c565b73ffffffffffffffffffffffffffffffffffffffff1614610190576040517f08c379a0000000000000000000000000000000000000000000000000000000008152600401610187906106a7565b60405180910390fd5b61019a60006103fa565b565b60008060009054906101000a900473ffffffffffffffffffffffffffffffffffffffff16905090565b60006101cf6103f2565b73ffffffffffffffffffffffffffffffffffffffff166101ed61019c565b73ffffffffffffffffffffffffffffffffffffffff1614610243576040517f08c379a000000000000000000000000000000000000000000000000000000000815260040161023a906106a7565b60405180910390fd5b600160009054906101000a900473ffffffffffffffffffffffffffffffffffffffff1673ffffffffffffffffffffffffffffffffffffffff1663a9059cbb84846040518363ffffffff1660e01b81526004016102a0929190610628565b602060405180830381600087803b1580156102ba57600080fd5b505af11580156102ce573d6000803e3d6000fd5b505050506040513d601f19601f820116820180604052508101906102f29190610562565b905092915050565b6103026103f2565b73ffffffffffffffffffffffffffffffffffffffff1661032061019c565b73ffffffffffffffffffffffffffffffffffffffff1614610376576040517f08c379a000000000000000000000000000000000000000000000000000000000815260040161036d906106a7565b60405180910390fd5b600073ffffffffffffffffffffffffffffffffffffffff168173ffffffffffffffffffffffffffffffffffffffff1614156103e6576040517f08c379a00000000000000000000000000000000000000000000000000000000081526004016103dd90610687565b60405180910390fd5b6103ef816103fa565b50565b600033905090565b60008060009054906101000a900473ffffffffffffffffffffffffffffffffffffffff169050816000806101000a81548173ffffffffffffffffffffffffffffffffffffffff021916908373ffffffffffffffffffffffffffffffffffffffff1602179055508173ffffffffffffffffffffffffffffffffffffffff168173ffffffffffffffffffffffffffffffffffffffff167f8be0079c531659141344cd1fd0a4f28419497f9722a3daafe3b4186f6b6457e060405160405180910390a35050565b6000813590506104cd816107bc565b92915050565b6000815190506104e2816107d3565b92915050565b6000813590506104f7816107ea565b92915050565b60006020828403121561050f57600080fd5b600061051d848285016104be565b91505092915050565b6000806040838503121561053957600080fd5b6000610547858286016104be565b9250506020610558858286016104e8565b9150509250929050565b60006020828403121561057457600080fd5b6000610582848285016104d3565b91505092915050565b610594816106d8565b82525050565b6105a3816106ea565b82525050565b6105b281610720565b82525050565b60006105c56026836106c7565b91506105d082610744565b604082019050919050565b60006105e86020836106c7565b91506105f382610793565b602082019050919050565b61060781610716565b82525050565b6000602082019050610622600083018461058b565b92915050565b600060408201905061063d600083018561058b565b61064a60208301846105fe565b9392505050565b6000602082019050610666600083018461059a565b92915050565b600060208201905061068160008301846105a9565b92915050565b600060208201905081810360008301526106a0816105b8565b9050919050565b600060208201905081810360008301526106c0816105db565b9050919050565b600082825260208201905092915050565b60006106e3826106f6565b9050919050565b60008115159050919050565b600073ffffffffffffffffffffffffffffffffffffffff82169050919050565b6000819050919050565b600061072b82610732565b9050919050565b600061073d826106f6565b9050919050565b7f4f776e61626c653a206e6577206f776e657220697320746865207a65726f206160008201527f6464726573730000000000000000000000000000000000000000000000000000602082015250565b7f4f776e61626c653a2063616c6c6572206973206e6f7420746865206f776e6572600082015250565b6107c5816106d8565b81146107d057600080fd5b50565b6107dc816106ea565b81146107e757600080fd5b50565b6107f381610716565b81146107fe57600080fd5b5056fea26469706673582212202cba384420b736867eed48167d0c6be42da275a7d540747c646dc5c9f9c1d6f264736f6c63430008040033",
  "linkReferences": {},
  "deployedLinkReferences": {}
}