{
  "_format": "hh-sol-artifact-1",
  "contractName": "RewardsPool",
  "sourceName": "contracts/RewardsPool.sol",
  "abi": [
    {
      "inputs": [
        {
          "internalType": "address",
          "name": "_PeachToken",
          "type": "address"
        }
      ],
      "stateMutability": "nonpayable",
      "type": "constructor"
    },
    {
      "anonymous": false,
      "inputs": [
        {
          "indexed": true,
          "internalType": "address",
          "name": "previousOwner",
          "type": "address"
        },
        {
          "indexed": true,
          "internalType": "address",
          "name": "newOwner",
          "type": "address"
        }
      ],
      "name": "OwnershipTransferred",
      "type": "event"
    },
    {
      "inputs": [],
      "name": "PeachToken",
      "outputs": [
        {
          "internalType": "contract IERC20",
          "name": "",
          "type": "address"
        }
      ],
      "stateMutability": "view",
      "type": "function"
    },
    {
      "inputs": [
        {
          "internalType": "address",
          "name": "_to",
          "type": "address"
        }
      ],
      "name": "approve",
      "outputs": [
        {
          "internalType": "bool",
          "name": "",
          "type": "bool"
        }
      ],
      "stateMutability": "nonpayable",
      "type": "function"
    },
    {
      "inputs": [],
      "name": "owner",
      "outputs": [
        {
          "internalType": "address",
          "name": "",
          "type": "address"
        }
      ],
      "stateMutability": "view",
      "type": "function"
    },
    {
      "inputs": [
        {
          "internalType": "address",
          "name": "_to",
          "type": "address"
        },
        {
          "internalType": "uint256",
          "name": "_amount",
          "type": "uint256"
        }
      ],
      "name": "pay",
      "outputs": [
        {
          "internalType": "bool",
          "name": "",
          "type": "bool"
        }
      ],
      "stateMutability": "nonpayable",
      "type": "function"
    },
    {
      "inputs": [],
      "name": "renounceOwnership",
      "outputs": [],
      "stateMutability": "nonpayable",
      "type": "function"
    },
    {
      "inputs": [
        {
          "internalType": "address",
          "name": "newOwner",
          "type": "address"
        }
      ],
      "name": "transferOwnership",
      "outputs": [],
      "stateMutability": "nonpayable",
      "type": "function"
    }
  ],
  "bytecode": "0x608060405234801561001057600080fd5b50604051610c06380380610c0683398181016040528101906100329190610176565b61004e61004361009560201b60201c565b61009d60201b60201c565b80600160006101000a81548173ffffffffffffffffffffffffffffffffffffffff021916908373ffffffffffffffffffffffffffffffffffffffff160217905550506101e8565b600033905090565b60008060009054906101000a900473ffffffffffffffffffffffffffffffffffffffff169050816000806101000a81548173ffffffffffffffffffffffffffffffffffffffff021916908373ffffffffffffffffffffffffffffffffffffffff1602179055508173ffffffffffffffffffffffffffffffffffffffff168173ffffffffffffffffffffffffffffffffffffffff167f8be0079c531659141344cd1fd0a4f28419497f9722a3daafe3b4186f6b6457e060405160405180910390a35050565b600081519050610170816101d1565b92915050565b60006020828403121561018857600080fd5b600061019684828501610161565b91505092915050565b60006101aa826101b1565b9050919050565b600073ffffffffffffffffffffffffffffffffffffffff82169050919050565b6101da8161019f565b81146101e557600080fd5b50565b610a0f806101f76000396000f3fe608060405234801561001057600080fd5b50600436106100625760003560e01c80630e4bbf1c14610067578063715018a6146100855780638da5cb5b1461008f578063c4076876146100ad578063daea85c5146100dd578063f2fde38b1461010d575b600080fd5b61006f610129565b60405161007c9190610832565b60405180910390f35b61008d61014f565b005b6100976101d7565b6040516100a491906107aa565b60405180910390f35b6100c760048036038101906100c291906106b4565b610200565b6040516100d49190610817565b60405180910390f35b6100f760048036038101906100f2919061068b565b610335565b6040516101049190610817565b60405180910390f35b6101276004803603810190610122919061068b565b610488565b005b600160009054906101000a900473ffffffffffffffffffffffffffffffffffffffff1681565b610157610580565b73ffffffffffffffffffffffffffffffffffffffff166101756101d7565b73ffffffffffffffffffffffffffffffffffffffff16146101cb576040517f08c379a00000000000000000000000000000000000000000000000000000000081526004016101c29061086d565b60405180910390fd5b6101d56000610588565b565b60008060009054906101000a900473ffffffffffffffffffffffffffffffffffffffff16905090565b600061020a610580565b73ffffffffffffffffffffffffffffffffffffffff166102286101d7565b73ffffffffffffffffffffffffffffffffffffffff161461027e576040517f08c379a00000000000000000000000000000000000000000000000000000000081526004016102759061086d565b60405180910390fd5b600160009054906101000a900473ffffffffffffffffffffffffffffffffffffffff1673ffffffffffffffffffffffffffffffffffffffff1663a9059cbb84846040518363ffffffff1660e01b81526004016102db9291906107ee565b602060405180830381600087803b1580156102f557600080fd5b505af1158015610309573d6000803e3d6000fd5b505050506040513d601f19601f8201168201806040525081019061032d91906106f0565b905092915050565b600061033f610580565b73ffffffffffffffffffffffffffffffffffffffff1661035d6101d7565b73ffffffffffffffffffffffffffffffffffffffff16146103b3576040517f08c379a00000000000000000000000000000000000000000000000000000000081526004016103aa9061086d565b60405180910390fd5b600160009054906101000a900473ffffffffffffffffffffffffffffffffffffffff1673ffffffffffffffffffffffffffffffffffffffff1663095ea7b3837fffffffffffffffffffffffffffffffffffffffffffffffffffffffffffffffff6040518363ffffffff1660e01b81526004016104309291906107c5565b602060405180830381600087803b15801561044a57600080fd5b505af115801561045e573d6000803e3d6000fd5b505050506040513d601f19601f8201168201806040525081019061048291906106f0565b50919050565b610490610580565b73ffffffffffffffffffffffffffffffffffffffff166104ae6101d7565b73ffffffffffffffffffffffffffffffffffffffff1614610504576040517f08c379a00000000000000000000000000000000000000000000000000000000081526004016104fb9061086d565b60405180910390fd5b600073ffffffffffffffffffffffffffffffffffffffff168173ffffffffffffffffffffffffffffffffffffffff161415610574576040517f08c379a000000000000000000000000000000000000000000000000000000000815260040161056b9061084d565b60405180910390fd5b61057d81610588565b50565b600033905090565b60008060009054906101000a900473ffffffffffffffffffffffffffffffffffffffff169050816000806101000a81548173ffffffffffffffffffffffffffffffffffffffff021916908373ffffffffffffffffffffffffffffffffffffffff1602179055508173ffffffffffffffffffffffffffffffffffffffff168173ffffffffffffffffffffffffffffffffffffffff167f8be0079c531659141344cd1fd0a4f28419497f9722a3daafe3b4186f6b6457e060405160405180910390a35050565b60008135905061065b81610994565b92915050565b600081519050610670816109ab565b92915050565b600081359050610685816109c2565b92915050565b60006020828403121561069d57600080fd5b60006106ab8482850161064c565b91505092915050565b600080604083850312156106c757600080fd5b60006106d58582860161064c565b92505060206106e685828601610676565b9150509250929050565b60006020828403121561070257600080fd5b600061071084828501610661565b91505092915050565b6107228161089e565b82525050565b610731816108b0565b82525050565b610740816108e6565b82525050565b61074f8161090a565b82525050565b600061076260268361088d565b915061076d8261091c565b604082019050919050565b600061078560208361088d565b91506107908261096b565b602082019050919050565b6107a4816108dc565b82525050565b60006020820190506107bf6000830184610719565b92915050565b60006040820190506107da6000830185610719565b6107e76020830184610746565b9392505050565b60006040820190506108036000830185610719565b610810602083018461079b565b9392505050565b600060208201905061082c6000830184610728565b92915050565b60006020820190506108476000830184610737565b92915050565b6000602082019050818103600083015261086681610755565b9050919050565b6000602082019050818103600083015261088681610778565b9050919050565b600082825260208201905092915050565b60006108a9826108bc565b9050919050565b60008115159050919050565b600073ffffffffffffffffffffffffffffffffffffffff82169050919050565b6000819050919050565b60006108f1826108f8565b9050919050565b6000610903826108bc565b9050919050565b6000610915826108dc565b9050919050565b7f4f776e61626c653a206e6577206f776e657220697320746865207a65726f206160008201527f6464726573730000000000000000000000000000000000000000000000000000602082015250565b7f4f776e61626c653a2063616c6c6572206973206e6f7420746865206f776e6572600082015250565b61099d8161089e565b81146109a857600080fd5b50565b6109b4816108b0565b81146109bf57600080fd5b50565b6109cb816108dc565b81146109d657600080fd5b5056fea26469706673582212205c554795dba2ad930048ea758bd10378704bba40bc92accd3ffd1bf4105295d464736f6c63430008040033",
  "linkReferences": {},
  "deployedLinkReferences": {}
}