{
  "_format": "hh-sol-artifact-1",
  "contractName": "VaultWallet",
  "sourceName": "contracts/VaultWallet.sol",
  "abi": [
    {
      "inputs": [],
      "stateMutability": "nonpayable",
      "type": "constructor"
    },
    {
      "anonymous": false,
      "inputs": [
        {
          "indexed": true,
          "internalType": "address",
          "name": "previousOwner",
          "type": "address"
        },
        {
          "indexed": true,
          "internalType": "address",
          "name": "newOwner",
          "type": "address"
        }
      ],
      "name": "OwnershipTransferred",
      "type": "event"
    },
    {
      "anonymous": false,
      "inputs": [
        {
          "indexed": false,
          "internalType": "address",
          "name": "from",
          "type": "address"
        },
        {
          "indexed": false,
          "internalType": "uint256",
          "name": "amount",
          "type": "uint256"
        }
      ],
      "name": "Received",
      "type": "event"
    },
    {
      "anonymous": false,
      "inputs": [
        {
          "indexed": false,
          "internalType": "address",
          "name": "tokenContract",
          "type": "address"
        },
        {
          "indexed": false,
          "internalType": "address",
          "name": "to",
          "type": "address"
        },
        {
          "indexed": false,
          "internalType": "uint256",
          "name": "amount",
          "type": "uint256"
        }
      ],
      "name": "WithdrawTokens",
      "type": "event"
    },
    {
      "inputs": [],
      "name": "createdAt",
      "outputs": [
        {
          "internalType": "uint256",
          "name": "",
          "type": "uint256"
        }
      ],
      "stateMutability": "view",
      "type": "function"
    },
    {
      "inputs": [],
      "name": "info",
      "outputs": [
        {
          "internalType": "uint256",
          "name": "",
          "type": "uint256"
        },
        {
          "internalType": "uint256",
          "name": "",
          "type": "uint256"
        },
        {
          "internalType": "uint256",
          "name": "",
          "type": "uint256"
        }
      ],
      "stateMutability": "view",
      "type": "function"
    },
    {
      "inputs": [],
      "name": "owner",
      "outputs": [
        {
          "internalType": "address",
          "name": "",
          "type": "address"
        }
      ],
      "stateMutability": "view",
      "type": "function"
    },
    {
      "inputs": [],
      "name": "renounceOwnership",
      "outputs": [],
      "stateMutability": "nonpayable",
      "type": "function"
    },
    {
      "inputs": [
        {
          "internalType": "address",
          "name": "newOwner",
          "type": "address"
        }
      ],
      "name": "transferOwnership",
      "outputs": [],
      "stateMutability": "nonpayable",
      "type": "function"
    },
    {
      "inputs": [],
      "name": "unlockDate",
      "outputs": [
        {
          "internalType": "uint256",
          "name": "",
          "type": "uint256"
        }
      ],
      "stateMutability": "view",
      "type": "function"
    },
    {
      "inputs": [
        {
          "internalType": "address",
          "name": "_tokenContract",
          "type": "address"
        }
      ],
      "name": "withdrawTokens",
      "outputs": [],
      "stateMutability": "nonpayable",
      "type": "function"
    }
  ],
  "bytecode": "0x608060405234801561001057600080fd5b5061002d61002261004460201b60201c565b61004c60201b60201c565b6301e1338060018190555042600281905550610110565b600033905090565b60008060009054906101000a900473ffffffffffffffffffffffffffffffffffffffff169050816000806101000a81548173ffffffffffffffffffffffffffffffffffffffff021916908373ffffffffffffffffffffffffffffffffffffffff1602179055508173ffffffffffffffffffffffffffffffffffffffff168173ffffffffffffffffffffffffffffffffffffffff167f8be0079c531659141344cd1fd0a4f28419497f9722a3daafe3b4186f6b6457e060405160405180910390a35050565b6109468061011f6000396000f3fe608060405234801561001057600080fd5b506004361061007d5760003560e01c8063715018a61161005b578063715018a6146100dc5780638da5cb5b146100e6578063cf09e0d014610104578063f2fde38b146101225761007d565b8063370158ea1461008257806349df728c146100a257806369ac5721146100be575b600080fd5b61008a61013e565b604051610099939291906107c3565b60405180910390f35b6100bc60048036038101906100b7919061060e565b610155565b005b6100c661034e565b6040516100d391906107a8565b60405180910390f35b6100e4610354565b005b6100ee6103dc565b6040516100fb91906106ed565b60405180910390f35b61010c610405565b60405161011991906107a8565b60405180910390f35b61013c6004803603810190610137919061060e565b61040b565b005b600080600060015460025447925092509250909192565b61015d610503565b73ffffffffffffffffffffffffffffffffffffffff1661017b6103dc565b73ffffffffffffffffffffffffffffffffffffffff16146101d1576040517f08c379a00000000000000000000000000000000000000000000000000000000081526004016101c890610788565b60405180910390fd5b6001544210156101e057600080fd5b600081905060008173ffffffffffffffffffffffffffffffffffffffff166370a08231306040518263ffffffff1660e01b815260040161022091906106ed565b60206040518083038186803b15801561023857600080fd5b505afa15801561024c573d6000803e3d6000fd5b505050506040513d601f19601f820116820180604052508101906102709190610660565b90508173ffffffffffffffffffffffffffffffffffffffff1663a9059cbb610296610503565b836040518363ffffffff1660e01b81526004016102b492919061073f565b602060405180830381600087803b1580156102ce57600080fd5b505af11580156102e2573d6000803e3d6000fd5b505050506040513d601f19601f820116820180604052508101906103069190610637565b507f70082d08c003c5341f2401bec1c2ae1dbcdc29ae17e9cc5633fa617caa8acd4c83610331610503565b8360405161034193929190610708565b60405180910390a1505050565b60015481565b61035c610503565b73ffffffffffffffffffffffffffffffffffffffff1661037a6103dc565b73ffffffffffffffffffffffffffffffffffffffff16146103d0576040517f08c379a00000000000000000000000000000000000000000000000000000000081526004016103c790610788565b60405180910390fd5b6103da600061050b565b565b60008060009054906101000a900473ffffffffffffffffffffffffffffffffffffffff16905090565b60025481565b610413610503565b73ffffffffffffffffffffffffffffffffffffffff166104316103dc565b73ffffffffffffffffffffffffffffffffffffffff1614610487576040517f08c379a000000000000000000000000000000000000000000000000000000000815260040161047e90610788565b60405180910390fd5b600073ffffffffffffffffffffffffffffffffffffffff168173ffffffffffffffffffffffffffffffffffffffff1614156104f7576040517f08c379a00000000000000000000000000000000000000000000000000000000081526004016104ee90610768565b60405180910390fd5b6105008161050b565b50565b600033905090565b60008060009054906101000a900473ffffffffffffffffffffffffffffffffffffffff169050816000806101000a81548173ffffffffffffffffffffffffffffffffffffffff021916908373ffffffffffffffffffffffffffffffffffffffff1602179055508173ffffffffffffffffffffffffffffffffffffffff168173ffffffffffffffffffffffffffffffffffffffff167f8be0079c531659141344cd1fd0a4f28419497f9722a3daafe3b4186f6b6457e060405160405180910390a35050565b6000813590506105de816108cb565b92915050565b6000815190506105f3816108e2565b92915050565b600081519050610608816108f9565b92915050565b60006020828403121561062057600080fd5b600061062e848285016105cf565b91505092915050565b60006020828403121561064957600080fd5b6000610657848285016105e4565b91505092915050565b60006020828403121561067257600080fd5b6000610680848285016105f9565b91505092915050565b6106928161080b565b82525050565b60006106a56026836107fa565b91506106b082610853565b604082019050919050565b60006106c86020836107fa565b91506106d3826108a2565b602082019050919050565b6106e781610849565b82525050565b60006020820190506107026000830184610689565b92915050565b600060608201905061071d6000830186610689565b61072a6020830185610689565b61073760408301846106de565b949350505050565b60006040820190506107546000830185610689565b61076160208301846106de565b9392505050565b6000602082019050818103600083015261078181610698565b9050919050565b600060208201905081810360008301526107a1816106bb565b9050919050565b60006020820190506107bd60008301846106de565b92915050565b60006060820190506107d860008301866106de565b6107e560208301856106de565b6107f260408301846106de565b949350505050565b600082825260208201905092915050565b600061081682610829565b9050919050565b60008115159050919050565b600073ffffffffffffffffffffffffffffffffffffffff82169050919050565b6000819050919050565b7f4f776e61626c653a206e6577206f776e657220697320746865207a65726f206160008201527f6464726573730000000000000000000000000000000000000000000000000000602082015250565b7f4f776e61626c653a2063616c6c6572206973206e6f7420746865206f776e6572600082015250565b6108d48161080b565b81146108df57600080fd5b50565b6108eb8161081d565b81146108f657600080fd5b50565b61090281610849565b811461090d57600080fd5b5056fea2646970667358221220d631aff76a1adbcde6fabe45866203802b6f18da48914dadd286fe9edfb9e69764736f6c63430008040033",
  "linkReferences": {},
  "deployedLinkReferences": {}
}