{
  "_format": "hh-sol-artifact-1",
  "contractName": "PeachToken",
  "sourceName": "contracts/PeachToken.sol",
  "abi": [
    {
      "inputs": [
        {
          "internalType": "address payable",
          "name": "_treasuryPool",
          "type": "address"
        },
        {
          "internalType": "address payable",
          "name": "_teamPool",
          "type": "address"
        }
      ],
      "stateMutability": "nonpayable",
      "type": "constructor"
    },
    {
      "anonymous": false,
      "inputs": [
        {
          "indexed": true,
          "internalType": "address",
          "name": "owner",
          "type": "address"
        },
        {
          "indexed": true,
          "internalType": "address",
          "name": "spender",
          "type": "address"
        },
        {
          "indexed": false,
          "internalType": "uint256",
          "name": "value",
          "type": "uint256"
        }
      ],
      "name": "Approval",
      "type": "event"
    },
    {
      "anonymous": false,
      "inputs": [
        {
          "indexed": false,
          "internalType": "address",
          "name": "account",
          "type": "address"
        }
      ],
      "name": "ExcludeAccountFromFee",
      "type": "event"
    },
    {
      "anonymous": false,
      "inputs": [
        {
          "indexed": false,
          "internalType": "address",
          "name": "account",
          "type": "address"
        }
      ],
      "name": "IncludeAccountInFee",
      "type": "event"
    },
    {
      "anonymous": false,
      "inputs": [
        {
          "indexed": true,
          "internalType": "address",
          "name": "previousOwner",
          "type": "address"
        },
        {
          "indexed": true,
          "internalType": "address",
          "name": "newOwner",
          "type": "address"
        }
      ],
      "name": "OwnershipTransferred",
      "type": "event"
    },
    {
      "anonymous": false,
      "inputs": [
        {
          "indexed": true,
          "internalType": "address",
          "name": "from",
          "type": "address"
        },
        {
          "indexed": true,
          "internalType": "address",
          "name": "to",
          "type": "address"
        },
        {
          "indexed": false,
          "internalType": "uint256",
          "name": "value",
          "type": "uint256"
        }
      ],
      "name": "Transfer",
      "type": "event"
    },
    {
      "inputs": [
        {
          "internalType": "address",
          "name": "",
          "type": "address"
        }
      ],
      "name": "_isBlacklisted",
      "outputs": [
        {
          "internalType": "bool",
          "name": "",
          "type": "bool"
        }
      ],
      "stateMutability": "view",
      "type": "function"
    },
    {
      "inputs": [
        {
          "internalType": "address",
          "name": "owner",
          "type": "address"
        },
        {
          "internalType": "address",
          "name": "spender",
          "type": "address"
        }
      ],
      "name": "allowance",
      "outputs": [
        {
          "internalType": "uint256",
          "name": "",
          "type": "uint256"
        }
      ],
      "stateMutability": "view",
      "type": "function"
    },
    {
      "inputs": [
        {
          "internalType": "address",
          "name": "spender",
          "type": "address"
        },
        {
          "internalType": "uint256",
          "name": "amount",
          "type": "uint256"
        }
      ],
      "name": "approve",
      "outputs": [
        {
          "internalType": "bool",
          "name": "",
          "type": "bool"
        }
      ],
      "stateMutability": "nonpayable",
      "type": "function"
    },
    {
      "inputs": [
        {
          "internalType": "address",
          "name": "account",
          "type": "address"
        }
      ],
      "name": "balanceOf",
      "outputs": [
        {
          "internalType": "uint256",
          "name": "",
          "type": "uint256"
        }
      ],
      "stateMutability": "view",
      "type": "function"
    },
    {
      "inputs": [
        {
          "internalType": "address",
          "name": "account",
          "type": "address"
        },
        {
          "internalType": "bool",
          "name": "value",
          "type": "bool"
        }
      ],
      "name": "blacklistMalicious",
      "outputs": [],
      "stateMutability": "nonpayable",
      "type": "function"
    },
    {
      "inputs": [],
      "name": "decimals",
      "outputs": [
        {
          "internalType": "uint8",
          "name": "",
          "type": "uint8"
        }
      ],
      "stateMutability": "view",
      "type": "function"
    },
    {
      "inputs": [
        {
          "internalType": "address",
          "name": "spender",
          "type": "address"
        },
        {
          "internalType": "uint256",
          "name": "subtractedValue",
          "type": "uint256"
        }
      ],
      "name": "decreaseAllowance",
      "outputs": [
        {
          "internalType": "bool",
          "name": "",
          "type": "bool"
        }
      ],
      "stateMutability": "nonpayable",
      "type": "function"
    },
    {
      "inputs": [
        {
          "internalType": "address",
          "name": "account",
          "type": "address"
        }
      ],
      "name": "excludeAccountFromFee",
      "outputs": [],
      "stateMutability": "nonpayable",
      "type": "function"
    },
    {
      "inputs": [
        {
          "internalType": "address",
          "name": "account",
          "type": "address"
        }
      ],
      "name": "includeAccountInFee",
      "outputs": [],
      "stateMutability": "nonpayable",
      "type": "function"
    },
    {
      "inputs": [
        {
          "internalType": "address",
          "name": "spender",
          "type": "address"
        },
        {
          "internalType": "uint256",
          "name": "addedValue",
          "type": "uint256"
        }
      ],
      "name": "increaseAllowance",
      "outputs": [
        {
          "internalType": "bool",
          "name": "",
          "type": "bool"
        }
      ],
      "stateMutability": "nonpayable",
      "type": "function"
    },
    {
      "inputs": [
        {
          "internalType": "address",
          "name": "account",
          "type": "address"
        }
      ],
      "name": "isExcludedFromFee",
      "outputs": [
        {
          "internalType": "bool",
          "name": "",
          "type": "bool"
        }
      ],
      "stateMutability": "view",
      "type": "function"
    },
    {
      "inputs": [],
      "name": "lockInTeamWallet",
      "outputs": [],
      "stateMutability": "nonpayable",
      "type": "function"
    },
    {
      "inputs": [
        {
          "internalType": "address payable",
          "name": "recipient",
          "type": "address"
        }
      ],
      "name": "lockInVaultWallet",
      "outputs": [],
      "stateMutability": "nonpayable",
      "type": "function"
    },
    {
      "inputs": [],
      "name": "name",
      "outputs": [
        {
          "internalType": "string",
          "name": "",
          "type": "string"
        }
      ],
      "stateMutability": "view",
      "type": "function"
    },
    {
      "inputs": [],
      "name": "owner",
      "outputs": [
        {
          "internalType": "address",
          "name": "",
          "type": "address"
        }
      ],
      "stateMutability": "view",
      "type": "function"
    },
    {
      "inputs": [],
      "name": "renounceOwnership",
      "outputs": [],
      "stateMutability": "nonpayable",
      "type": "function"
    },
    {
      "inputs": [],
      "name": "symbol",
      "outputs": [
        {
          "internalType": "string",
          "name": "",
          "type": "string"
        }
      ],
      "stateMutability": "view",
      "type": "function"
    },
    {
      "inputs": [],
      "name": "teamPool",
      "outputs": [
        {
          "internalType": "address payable",
          "name": "",
          "type": "address"
        }
      ],
      "stateMutability": "view",
      "type": "function"
    },
    {
      "inputs": [],
      "name": "totalSupply",
      "outputs": [
        {
          "internalType": "uint256",
          "name": "",
          "type": "uint256"
        }
      ],
      "stateMutability": "view",
      "type": "function"
    },
    {
      "inputs": [
        {
          "internalType": "address",
          "name": "recipient",
          "type": "address"
        },
        {
          "internalType": "uint256",
          "name": "amount",
          "type": "uint256"
        }
      ],
      "name": "transfer",
      "outputs": [
        {
          "internalType": "bool",
          "name": "",
          "type": "bool"
        }
      ],
      "stateMutability": "nonpayable",
      "type": "function"
    },
    {
      "inputs": [
        {
          "internalType": "address",
          "name": "from",
          "type": "address"
        },
        {
          "internalType": "address",
          "name": "to",
          "type": "address"
        },
        {
          "internalType": "uint256",
          "name": "amount",
          "type": "uint256"
        }
      ],
      "name": "transferFrom",
      "outputs": [
        {
          "internalType": "bool",
          "name": "",
          "type": "bool"
        }
      ],
      "stateMutability": "nonpayable",
      "type": "function"
    },
    {
      "inputs": [
        {
          "internalType": "address",
          "name": "newOwner",
          "type": "address"
        }
      ],
      "name": "transferOwnership",
      "outputs": [],
      "stateMutability": "nonpayable",
      "type": "function"
    },
    {
      "inputs": [],
      "name": "treasuryFee",
      "outputs": [
        {
          "internalType": "uint8",
          "name": "",
          "type": "uint8"
        }
      ],
      "stateMutability": "view",
      "type": "function"
    },
    {
      "inputs": [],
      "name": "treasuryPool",
      "outputs": [
        {
          "internalType": "address payable",
          "name": "",
          "type": "address"
        }
      ],
      "stateMutability": "view",
      "type": "function"
    },
    {
      "inputs": [
        {
          "internalType": "uint8",
          "name": "value",
          "type": "uint8"
        }
      ],
      "name": "updateTreasuryFee",
      "outputs": [],
      "stateMutability": "nonpayable",
      "type": "function"
    },
    {
      "inputs": [
        {
          "internalType": "address payable",
          "name": "pool",
          "type": "address"
        }
      ],
      "name": "updateTreasuryPool",
      "outputs": [],
      "stateMutability": "nonpayable",
      "type": "function"
    },
    {
      "inputs": [],
      "name": "vault",
      "outputs": [
        {
          "internalType": "address payable",
          "name": "",
          "type": "address"
        }
      ],
      "stateMutability": "view",
      "type": "function"
    },
    {
      "stateMutability": "payable",
      "type": "receive"
    }
  ],
  "bytecode": "0x608060405273b31f66aa3c1e785363f0875a1b74e27b85fd66c7600860006101000a81548173ffffffffffffffffffffffffffffffffffffffff021916908373ffffffffffffffffffffffffffffffffffffffff16021790555061dead600960006101000a81548173ffffffffffffffffffffffffffffffffffffffff021916908373ffffffffffffffffffffffffffffffffffffffff160217905550621e8480600b556012600c60006101000a81548160ff021916908360ff160217905550600c60009054906101000a900460ff16600a620000dd919062000ce0565b600b54620000ec919062000e1d565b600d55614e20600b5462000101919062000c4d565b600e556103e86005600b5462000118919062000e1d565b62000124919062000c4d565b600f55620186a0601055620f42406011556000601260006101000a81548160ff0219169083151502179055506000601260016101000a81548160ff02191690831515021790555060326014806101000a81548160ff021916908360ff1602179055503480156200019357600080fd5b5060405162004400380380620044008339818101604052810190620001b9919062000a67565b6040518060400160405280600a81526020017f5045414348204e4f4445000000000000000000000000000000000000000000008152506040518060400160405280600581526020017f504541434800000000000000000000000000000000000000000000000000000081525081600390805190602001906200023d929190620009a0565b50806004908051906020019062000256929190620009a0565b505050620002796200026d6200057260201b60201c565b6200057a60201b60201c565b60016006819055508181600073ffffffffffffffffffffffffffffffffffffffff168273ffffffffffffffffffffffffffffffffffffffff161415620002be57600080fd5b600073ffffffffffffffffffffffffffffffffffffffff168173ffffffffffffffffffffffffffffffffffffffff161415620002f957600080fd5b620003096200057260201b60201c565b600760006101000a81548173ffffffffffffffffffffffffffffffffffffffff021916908373ffffffffffffffffffffffffffffffffffffffff16021790555083601260026101000a81548173ffffffffffffffffffffffffffffffffffffffff021916908373ffffffffffffffffffffffffffffffffffffffff16021790555082601360006101000a81548173ffffffffffffffffffffffffffffffffffffffff021916908373ffffffffffffffffffffffffffffffffffffffff160217905550620003ee620003df6200057260201b60201c565b600d546200064060201b60201c565b6200040e620004026200057260201b60201c565b620007b960201b60201c565b6200041f30620007b960201b60201c565b62000452601260029054906101000a900473ffffffffffffffffffffffffffffffffffffffff16620007b960201b60201c565b62000485601360009054906101000a900473ffffffffffffffffffffffffffffffffffffffff16620007b960201b60201c565b620004956200057260201b60201c565b73ffffffffffffffffffffffffffffffffffffffff16600073ffffffffffffffffffffffffffffffffffffffff167fddf252ad1be2c89b69c2b068fc378daa952ba7f163c4a11628f55a4df523b3ef600d54604051620004f6919062000bc2565b60405180910390a36200050e6200057260201b60201c565b73ffffffffffffffffffffffffffffffffffffffff16600073ffffffffffffffffffffffffffffffffffffffff167f8be0079c531659141344cd1fd0a4f28419497f9722a3daafe3b4186f6b6457e060405160405180910390a35050505062001042565b600033905090565b6000600560009054906101000a900473ffffffffffffffffffffffffffffffffffffffff16905081600560006101000a81548173ffffffffffffffffffffffffffffffffffffffff021916908373ffffffffffffffffffffffffffffffffffffffff1602179055508173ffffffffffffffffffffffffffffffffffffffff168173ffffffffffffffffffffffffffffffffffffffff167f8be0079c531659141344cd1fd0a4f28419497f9722a3daafe3b4186f6b6457e060405160405180910390a35050565b600073ffffffffffffffffffffffffffffffffffffffff168273ffffffffffffffffffffffffffffffffffffffff161415620006b3576040517f08c379a0000000000000000000000000000000000000000000000000000000008152600401620006aa9062000ba0565b60405180910390fd5b620006c7600083836200096c60201b60201c565b8060026000828254620006db919062000bf0565b92505081905550806000808473ffffffffffffffffffffffffffffffffffffffff1673ffffffffffffffffffffffffffffffffffffffff168152602001908152602001600020600082825462000732919062000bf0565b925050819055508173ffffffffffffffffffffffffffffffffffffffff16600073ffffffffffffffffffffffffffffffffffffffff167fddf252ad1be2c89b69c2b068fc378daa952ba7f163c4a11628f55a4df523b3ef8360405162000799919062000bc2565b60405180910390a3620007b5600083836200097160201b60201c565b5050565b620007c96200057260201b60201c565b73ffffffffffffffffffffffffffffffffffffffff16620007ef6200097660201b60201c565b73ffffffffffffffffffffffffffffffffffffffff161462000848576040517f08c379a00000000000000000000000000000000000000000000000000000000081526004016200083f9062000b7e565b60405180910390fd5b601660008273ffffffffffffffffffffffffffffffffffffffff1673ffffffffffffffffffffffffffffffffffffffff16815260200190815260200160002060009054906101000a900460ff1615620008d8576040517f08c379a0000000000000000000000000000000000000000000000000000000008152600401620008cf9062000b5c565b60405180910390fd5b6001601660008373ffffffffffffffffffffffffffffffffffffffff1673ffffffffffffffffffffffffffffffffffffffff16815260200190815260200160002060006101000a81548160ff0219169083151502179055507f7e35d6b74d35c333860340884eeca4e63b18cb9d73ce17a147a1952654365b5e8160405162000961919062000b3f565b60405180910390a150565b505050565b505050565b6000600560009054906101000a900473ffffffffffffffffffffffffffffffffffffffff16905090565b828054620009ae9062000edd565b90600052602060002090601f016020900481019282620009d2576000855562000a1e565b82601f10620009ed57805160ff191683800117855562000a1e565b8280016001018555821562000a1e579182015b8281111562000a1d57825182559160200191906001019062000a00565b5b50905062000a2d919062000a31565b5090565b5b8082111562000a4c57600081600090555060010162000a32565b5090565b60008151905062000a618162001028565b92915050565b6000806040838503121562000a7b57600080fd5b600062000a8b8582860162000a50565b925050602062000a9e8582860162000a50565b9150509250929050565b62000ab38162000e7e565b82525050565b600062000ac8601c8362000bdf565b915062000ad58262000fad565b602082019050919050565b600062000aef60208362000bdf565b915062000afc8262000fd6565b602082019050919050565b600062000b16601f8362000bdf565b915062000b238262000fff565b602082019050919050565b62000b398162000ec6565b82525050565b600060208201905062000b56600083018462000aa8565b92915050565b6000602082019050818103600083015262000b778162000ab9565b9050919050565b6000602082019050818103600083015262000b998162000ae0565b9050919050565b6000602082019050818103600083015262000bbb8162000b07565b9050919050565b600060208201905062000bd9600083018462000b2e565b92915050565b600082825260208201905092915050565b600062000bfd8262000ec6565b915062000c0a8362000ec6565b9250827fffffffffffffffffffffffffffffffffffffffffffffffffffffffffffffffff0382111562000c425762000c4162000f13565b5b828201905092915050565b600062000c5a8262000ec6565b915062000c678362000ec6565b92508262000c7a5762000c7962000f42565b5b828204905092915050565b6000808291508390505b600185111562000cd75780860481111562000caf5762000cae62000f13565b5b600185161562000cbf5780820291505b808102905062000ccf8562000fa0565b945062000c8f565b94509492505050565b600062000ced8262000ec6565b915062000cfa8362000ed0565b925062000d297fffffffffffffffffffffffffffffffffffffffffffffffffffffffffffffffff848462000d31565b905092915050565b60008262000d43576001905062000e16565b8162000d53576000905062000e16565b816001811462000d6c576002811462000d775762000dad565b600191505062000e16565b60ff84111562000d8c5762000d8b62000f13565b5b8360020a91508482111562000da65762000da562000f13565b5b5062000e16565b5060208310610133831016604e8410600b841016171562000de75782820a90508381111562000de15762000de062000f13565b5b62000e16565b62000df6848484600162000c85565b9250905081840481111562000e105762000e0f62000f13565b5b81810290505b9392505050565b600062000e2a8262000ec6565b915062000e378362000ec6565b9250817fffffffffffffffffffffffffffffffffffffffffffffffffffffffffffffffff048311821515161562000e735762000e7262000f13565b5b828202905092915050565b600062000e8b8262000ea6565b9050919050565b600062000e9f8262000ea6565b9050919050565b600073ffffffffffffffffffffffffffffffffffffffff82169050919050565b6000819050919050565b600060ff82169050919050565b6000600282049050600182168062000ef657607f821691505b6020821081141562000f0d5762000f0c62000f71565b5b50919050565b7f4e487b7100000000000000000000000000000000000000000000000000000000600052601160045260246000fd5b7f4e487b7100000000000000000000000000000000000000000000000000000000600052601260045260246000fd5b7f4e487b7100000000000000000000000000000000000000000000000000000000600052602260045260246000fd5b60008160011c9050919050565b7f4163636f756e7420697320616c7265616479206578636c756465642e00000000600082015250565b7f4f776e61626c653a2063616c6c6572206973206e6f7420746865206f776e6572600082015250565b7f45524332303a206d696e7420746f20746865207a65726f206164647265737300600082015250565b620010338162000e92565b81146200103f57600080fd5b50565b6133ae80620010526000396000f3fe6080604052600436106101a05760003560e01c80638da5cb5b116100ec578063cc32d1761161008a578063daa9334111610064578063daa93341146105e7578063dd62ed3e14610610578063f2fde38b1461064d578063fbfa77cf14610676576101a7565b8063cc32d1761461056a578063d6b4212b14610595578063d8929342146105be576101a7565b8063a5d13c48116100c6578063a5d13c48146104c4578063a9059cbb146104ed578063b14a1e8e1461052a578063cbf6b84d14610553576101a7565b80638da5cb5b1461043157806395d89b411461045c578063a457c2d714610487576101a7565b8063313ce5671161015957806348df58291161013357806348df5829146103755780635342acb4146103a057806370a08231146103dd578063715018a61461041a576101a7565b8063313ce567146102e2578063395093511461030d578063396365041461034a576101a7565b806306fdde03146101ac578063095ea7b3146101d757806318160ddd146102145780631cdd3be31461023f57806323b872dd1461027c5780632deef284146102b9576101a7565b366101a757005b600080fd5b3480156101b857600080fd5b506101c16106a1565b6040516101ce9190612934565b60405180910390f35b3480156101e357600080fd5b506101fe60048036038101906101f99190612529565b610733565b60405161020b9190612919565b60405180910390f35b34801561022057600080fd5b50610229610756565b6040516102369190612ad6565b60405180910390f35b34801561024b57600080fd5b5061026660048036038101906102619190612410565b610760565b6040516102739190612919565b60405180910390f35b34801561028857600080fd5b506102a3600480360381019061029e919061249e565b610780565b6040516102b09190612919565b60405180910390f35b3480156102c557600080fd5b506102e060048036038101906102db91906125a6565b6107af565b005b3480156102ee57600080fd5b506102f7610848565b6040516103049190612af1565b60405180910390f35b34801561031957600080fd5b50610334600480360381019061032f9190612529565b610851565b6040516103419190612919565b60405180910390f35b34801561035657600080fd5b5061035f6108fb565b60405161036c9190612897565b60405180910390f35b34801561038157600080fd5b5061038a610921565b6040516103979190612897565b60405180910390f35b3480156103ac57600080fd5b506103c760048036038101906103c29190612410565b610947565b6040516103d49190612919565b60405180910390f35b3480156103e957600080fd5b5061040460048036038101906103ff9190612410565b61099d565b6040516104119190612ad6565b60405180910390f35b34801561042657600080fd5b5061042f6109e5565b005b34801561043d57600080fd5b50610446610a6d565b604051610453919061287c565b60405180910390f35b34801561046857600080fd5b50610471610a97565b60405161047e9190612934565b60405180910390f35b34801561049357600080fd5b506104ae60048036038101906104a99190612529565b610b29565b6040516104bb9190612919565b60405180910390f35b3480156104d057600080fd5b506104eb60048036038101906104e69190612439565b610c13565b005b3480156104f957600080fd5b50610514600480360381019061050f9190612529565b610d3d565b6040516105219190612919565b60405180910390f35b34801561053657600080fd5b50610551600480360381019061054c9190612439565b610d5b565b005b34801561055f57600080fd5b50610568610e1b565b005b34801561057657600080fd5b5061057f610f03565b60405161058c9190612af1565b60405180910390f35b3480156105a157600080fd5b506105bc60048036038101906105b79190612410565b610f14565b005b3480156105ca57600080fd5b506105e560048036038101906105e091906124ed565b6110af565b005b3480156105f357600080fd5b5061060e60048036038101906106099190612410565b611186565b005b34801561061c57600080fd5b5061063760048036038101906106329190612462565b611320565b6040516106449190612ad6565b60405180910390f35b34801561065957600080fd5b50610674600480360381019061066f9190612410565b6113a7565b005b34801561068257600080fd5b5061068b61149f565b6040516106989190612897565b60405180910390f35b6060600380546106b090612ed2565b80601f01602080910402602001604051908101604052809291908181526020018280546106dc90612ed2565b80156107295780601f106106fe57610100808354040283529160200191610729565b820191906000526020600020905b81548152906001019060200180831161070c57829003601f168201915b5050505050905090565b60008061073e6114c5565b905061074b8185856114cd565b600191505092915050565b6000600254905090565b60156020528060005260406000206000915054906101000a900460ff1681565b60008061078b6114c5565b9050610798858285611698565b6107a3858585611724565b60019150509392505050565b6107b76114c5565b73ffffffffffffffffffffffffffffffffffffffff166107d5610a6d565b73ffffffffffffffffffffffffffffffffffffffff161461082b576040517f08c379a000000000000000000000000000000000000000000000000000000000815260040161082290612a56565b60405180910390fd5b806014806101000a81548160ff021916908360ff16021790555050565b60006012905090565b60008061085c6114c5565b90506108f0818585600160008673ffffffffffffffffffffffffffffffffffffffff1673ffffffffffffffffffffffffffffffffffffffff16815260200190815260200160002060008973ffffffffffffffffffffffffffffffffffffffff1673ffffffffffffffffffffffffffffffffffffffff168152602001908152602001600020546108eb9190612bb2565b6114cd565b600191505092915050565b601360009054906101000a900473ffffffffffffffffffffffffffffffffffffffff1681565b601260029054906101000a900473ffffffffffffffffffffffffffffffffffffffff1681565b6000601660008373ffffffffffffffffffffffffffffffffffffffff1673ffffffffffffffffffffffffffffffffffffffff16815260200190815260200160002060009054906101000a900460ff169050919050565b60008060008373ffffffffffffffffffffffffffffffffffffffff1673ffffffffffffffffffffffffffffffffffffffff168152602001908152602001600020549050919050565b6109ed6114c5565b73ffffffffffffffffffffffffffffffffffffffff16610a0b610a6d565b73ffffffffffffffffffffffffffffffffffffffff1614610a61576040517f08c379a0000000000000000000000000000000000000000000000000000000008152600401610a5890612a56565b60405180910390fd5b610a6b6000611abe565b565b6000600560009054906101000a900473ffffffffffffffffffffffffffffffffffffffff16905090565b606060048054610aa690612ed2565b80601f0160208091040260200160405190810160405280929190818152602001828054610ad290612ed2565b8015610b1f5780601f10610af457610100808354040283529160200191610b1f565b820191906000526020600020905b815481529060010190602001808311610b0257829003601f168201915b5050505050905090565b600080610b346114c5565b90506000600160008373ffffffffffffffffffffffffffffffffffffffff1673ffffffffffffffffffffffffffffffffffffffff16815260200190815260200160002060008673ffffffffffffffffffffffffffffffffffffffff1673ffffffffffffffffffffffffffffffffffffffff16815260200190815260200160002054905083811015610bfa576040517f08c379a0000000000000000000000000000000000000000000000000000000008152600401610bf190612ab6565b60405180910390fd5b610c0782868684036114cd565b60019250505092915050565b610c1b6114c5565b73ffffffffffffffffffffffffffffffffffffffff16610c39610a6d565b73ffffffffffffffffffffffffffffffffffffffff1614610c8f576040517f08c379a0000000000000000000000000000000000000000000000000000000008152600401610c8690612a56565b60405180910390fd5b60001515601260019054906101000a900460ff16151514610caf57600080fd5b80601460006101000a81548173ffffffffffffffffffffffffffffffffffffffff021916908373ffffffffffffffffffffffffffffffffffffffff1602179055506001601260016101000a81548160ff021916908315150217905550610d39601460009054906101000a900473ffffffffffffffffffffffffffffffffffffffff16601154610d3d565b5050565b6000610d51610d4a6114c5565b8484611724565b6001905092915050565b610d636114c5565b73ffffffffffffffffffffffffffffffffffffffff16610d81610a6d565b73ffffffffffffffffffffffffffffffffffffffff1614610dd7576040517f08c379a0000000000000000000000000000000000000000000000000000000008152600401610dce90612a56565b60405180910390fd5b80601260026101000a81548173ffffffffffffffffffffffffffffffffffffffff021916908373ffffffffffffffffffffffffffffffffffffffff16021790555050565b610e236114c5565b73ffffffffffffffffffffffffffffffffffffffff16610e41610a6d565b73ffffffffffffffffffffffffffffffffffffffff1614610e97576040517f08c379a0000000000000000000000000000000000000000000000000000000008152600401610e8e90612a56565b60405180910390fd5b60001515601260009054906101000a900460ff16151514610eb757600080fd5b6001601260006101000a81548160ff021916908315150217905550610f00601360009054906101000a900473ffffffffffffffffffffffffffffffffffffffff16601054610d3d565b50565b60148054906101000a900460ff1681565b610f1c6114c5565b73ffffffffffffffffffffffffffffffffffffffff16610f3a610a6d565b73ffffffffffffffffffffffffffffffffffffffff1614610f90576040517f08c379a0000000000000000000000000000000000000000000000000000000008152600401610f8790612a56565b60405180910390fd5b601660008273ffffffffffffffffffffffffffffffffffffffff1673ffffffffffffffffffffffffffffffffffffffff16815260200190815260200160002060009054906101000a900460ff161561101d576040517f08c379a000000000000000000000000000000000000000000000000000000000815260040161101490612a16565b60405180910390fd5b6001601660008373ffffffffffffffffffffffffffffffffffffffff1673ffffffffffffffffffffffffffffffffffffffff16815260200190815260200160002060006101000a81548160ff0219169083151502179055507f7e35d6b74d35c333860340884eeca4e63b18cb9d73ce17a147a1952654365b5e816040516110a4919061287c565b60405180910390a150565b6110b76114c5565b73ffffffffffffffffffffffffffffffffffffffff166110d5610a6d565b73ffffffffffffffffffffffffffffffffffffffff161461112b576040517f08c379a000000000000000000000000000000000000000000000000000000000815260040161112290612a56565b60405180910390fd5b80601560008473ffffffffffffffffffffffffffffffffffffffff1673ffffffffffffffffffffffffffffffffffffffff16815260200190815260200160002060006101000a81548160ff0219169083151502179055505050565b61118e6114c5565b73ffffffffffffffffffffffffffffffffffffffff166111ac610a6d565b73ffffffffffffffffffffffffffffffffffffffff1614611202576040517f08c379a00000000000000000000000000000000000000000000000000000000081526004016111f990612a56565b60405180910390fd5b601660008273ffffffffffffffffffffffffffffffffffffffff1673ffffffffffffffffffffffffffffffffffffffff16815260200190815260200160002060009054906101000a900460ff1661128e576040517f08c379a0000000000000000000000000000000000000000000000000000000008152600401611285906129b6565b60405180910390fd5b6000601660008373ffffffffffffffffffffffffffffffffffffffff1673ffffffffffffffffffffffffffffffffffffffff16815260200190815260200160002060006101000a81548160ff0219169083151502179055507fc782889d4eb26c6effaa6305a7075c22c2a6e2919ddf49a4a851fecf59cfc75f81604051611315919061287c565b60405180910390a150565b6000600160008473ffffffffffffffffffffffffffffffffffffffff1673ffffffffffffffffffffffffffffffffffffffff16815260200190815260200160002060008373ffffffffffffffffffffffffffffffffffffffff1673ffffffffffffffffffffffffffffffffffffffff16815260200190815260200160002054905092915050565b6113af6114c5565b73ffffffffffffffffffffffffffffffffffffffff166113cd610a6d565b73ffffffffffffffffffffffffffffffffffffffff1614611423576040517f08c379a000000000000000000000000000000000000000000000000000000000815260040161141a90612a56565b60405180910390fd5b600073ffffffffffffffffffffffffffffffffffffffff168173ffffffffffffffffffffffffffffffffffffffff161415611493576040517f08c379a000000000000000000000000000000000000000000000000000000000815260040161148a90612976565b60405180910390fd5b61149c81611abe565b50565b601460009054906101000a900473ffffffffffffffffffffffffffffffffffffffff1681565b600033905090565b600073ffffffffffffffffffffffffffffffffffffffff168373ffffffffffffffffffffffffffffffffffffffff16141561153d576040517f08c379a000000000000000000000000000000000000000000000000000000000815260040161153490612a96565b60405180910390fd5b600073ffffffffffffffffffffffffffffffffffffffff168273ffffffffffffffffffffffffffffffffffffffff1614156115ad576040517f08c379a00000000000000000000000000000000000000000000000000000000081526004016115a490612996565b60405180910390fd5b80600160008573ffffffffffffffffffffffffffffffffffffffff1673ffffffffffffffffffffffffffffffffffffffff16815260200190815260200160002060008473ffffffffffffffffffffffffffffffffffffffff1673ffffffffffffffffffffffffffffffffffffffff168152602001908152602001600020819055508173ffffffffffffffffffffffffffffffffffffffff168373ffffffffffffffffffffffffffffffffffffffff167f8c5be1e5ebec7d5bd14f71427d1e84f3dd0314c0f7b2291e5b200ac8c7c3b9258360405161168b9190612ad6565b60405180910390a3505050565b60006116a48484611320565b90507fffffffffffffffffffffffffffffffffffffffffffffffffffffffffffffffff811461171e5781811015611710576040517f08c379a0000000000000000000000000000000000000000000000000000000008152600401611707906129d6565b60405180910390fd5b61171d84848484036114cd565b5b50505050565b8282600073ffffffffffffffffffffffffffffffffffffffff168273ffffffffffffffffffffffffffffffffffffffff16141561176057600080fd5b600073ffffffffffffffffffffffffffffffffffffffff168173ffffffffffffffffffffffffffffffffffffffff16141561179a57600080fd5b601560008673ffffffffffffffffffffffffffffffffffffffff1673ffffffffffffffffffffffffffffffffffffffff16815260200190815260200160002060009054906101000a900460ff1615801561183e5750601560008573ffffffffffffffffffffffffffffffffffffffff1673ffffffffffffffffffffffffffffffffffffffff16815260200190815260200160002060009054906101000a900460ff16155b61187d576040517f08c379a000000000000000000000000000000000000000000000000000000000815260040161187490612a36565b60405180910390fd5b60006118aa600a60009054906101000a900473ffffffffffffffffffffffffffffffffffffffff1661099d565b9050600f5481106118bb57600f5490505b600e5481106118ce576118cd81611b84565b5b6000600c60009054906101000a900460ff16600a6118ec9190612c8c565b856118f79190612daa565b9050600060019050600061195783601660008c73ffffffffffffffffffffffffffffffffffffffff1673ffffffffffffffffffffffffffffffffffffffff16815260200190815260200160002060009054906101000a900460ff16611f84565b9050601660008a73ffffffffffffffffffffffffffffffffffffffff1673ffffffffffffffffffffffffffffffffffffffff16815260200190815260200160002060009054906101000a900460ff16806119fa5750601660008973ffffffffffffffffffffffffffffffffffffffff1673ffffffffffffffffffffffffffffffffffffffff16815260200190815260200160002060009054906101000a900460ff165b15611a0457600091505b8115611a435780604001519250611a4289601260029054906101000a900473ffffffffffffffffffffffffffffffffffffffff168360200151611fb2565b5b611a4e898985611fb2565b8773ffffffffffffffffffffffffffffffffffffffff168973ffffffffffffffffffffffffffffffffffffffff167fddf252ad1be2c89b69c2b068fc378daa952ba7f163c4a11628f55a4df523b3ef85604051611aab9190612ad6565b60405180910390a3505050505050505050565b6000600560009054906101000a900473ffffffffffffffffffffffffffffffffffffffff16905081600560006101000a81548173ffffffffffffffffffffffffffffffffffffffff021916908373ffffffffffffffffffffffffffffffffffffffff1602179055508173ffffffffffffffffffffffffffffffffffffffff168173ffffffffffffffffffffffffffffffffffffffff167f8be0079c531659141344cd1fd0a4f28419497f9722a3daafe3b4186f6b6457e060405160405180910390a35050565b6000611be38260166000611b966114c5565b73ffffffffffffffffffffffffffffffffffffffff1673ffffffffffffffffffffffffffffffffffffffff16815260200190815260200160002060009054906101000a900460ff16611f84565b90506000816020015190506000600282611bfd9190612c08565b90506000821115611c9057601260029054906101000a900473ffffffffffffffffffffffffffffffffffffffff1673ffffffffffffffffffffffffffffffffffffffff163073ffffffffffffffffffffffffffffffffffffffff167fddf252ad1be2c89b69c2b068fc378daa952ba7f163c4a11628f55a4df523b3ef84604051611c879190612ad6565b60405180910390a35b6000600267ffffffffffffffff811115611cd3577f4e487b7100000000000000000000000000000000000000000000000000000000600052604160045260246000fd5b604051908082528060200260200182016040528015611d015781602001602082028036833780820191505090505b5090503081600081518110611d3f577f4e487b7100000000000000000000000000000000000000000000000000000000600052603260045260246000fd5b602002602001019073ffffffffffffffffffffffffffffffffffffffff16908173ffffffffffffffffffffffffffffffffffffffff1681525050600860009054906101000a900473ffffffffffffffffffffffffffffffffffffffff1681600181518110611dd6577f4e487b7100000000000000000000000000000000000000000000000000000000600052603260045260246000fd5b602002602001019073ffffffffffffffffffffffffffffffffffffffff16908173ffffffffffffffffffffffffffffffffffffffff1681525050600a60009054906101000a900473ffffffffffffffffffffffffffffffffffffffff1673ffffffffffffffffffffffffffffffffffffffff16632051ff5230858589611e5c9190612e04565b611e669190612e04565b846040518463ffffffff1660e01b8152600401611e85939291906128db565b600060405180830381600087803b158015611e9f57600080fd5b505af1158015611eb3573d6000803e3d6000fd5b505050506040513d6000823e3d601f19601f82011682018060405250810190611edc9190612565565b5060004790506000831115611f7c57600a60009054906101000a900473ffffffffffffffffffffffffffffffffffffffff1673ffffffffffffffffffffffffffffffffffffffff1663d38801658230866040518463ffffffff1660e01b8152600401611f499291906128b2565b6000604051808303818588803b158015611f6257600080fd5b505af1158015611f76573d6000803e3d6000fd5b50505050505b505050505050565b611f8c6122db565b611f946122db565b83816000018181525050611fa88184612233565b8091505092915050565b600073ffffffffffffffffffffffffffffffffffffffff168373ffffffffffffffffffffffffffffffffffffffff161415612022576040517f08c379a000000000000000000000000000000000000000000000000000000000815260040161201990612a76565b60405180910390fd5b600073ffffffffffffffffffffffffffffffffffffffff168273ffffffffffffffffffffffffffffffffffffffff161415612092576040517f08c379a000000000000000000000000000000000000000000000000000000000815260040161208990612956565b60405180910390fd5b61209d838383612294565b60008060008573ffffffffffffffffffffffffffffffffffffffff1673ffffffffffffffffffffffffffffffffffffffff16815260200190815260200160002054905081811015612123576040517f08c379a000000000000000000000000000000000000000000000000000000000815260040161211a906129f6565b60405180910390fd5b8181036000808673ffffffffffffffffffffffffffffffffffffffff1673ffffffffffffffffffffffffffffffffffffffff16815260200190815260200160002081905550816000808573ffffffffffffffffffffffffffffffffffffffff1673ffffffffffffffffffffffffffffffffffffffff16815260200190815260200160002060008282546121b69190612bb2565b925050819055508273ffffffffffffffffffffffffffffffffffffffff168473ffffffffffffffffffffffffffffffffffffffff167fddf252ad1be2c89b69c2b068fc378daa952ba7f163c4a11628f55a4df523b3ef8460405161221a9190612ad6565b60405180910390a361222d848484612299565b50505050565b801561224c578160000151826040018181525050612290565b612269826000015160148054906101000a900460ff16600061229e565b826020018181525050816020015182600001516122869190612e04565b8260400181815250505b5050565b505050565b505050565b6000606482600a6122af9190612c8c565b8460ff16866122be9190612daa565b6122c89190612c08565b6122d29190612c08565b90509392505050565b60405180606001604052806000815260200160008152602001600081525090565b600061230f61230a84612b31565b612b0c565b9050808382526020820190508285602086028201111561232e57600080fd5b60005b8581101561235e578161234488826123e6565b845260208401935060208301925050600181019050612331565b5050509392505050565b60008135905061237781613305565b92915050565b60008135905061238c8161331c565b92915050565b600082601f8301126123a357600080fd5b81516123b38482602086016122fc565b91505092915050565b6000813590506123cb81613333565b92915050565b6000813590506123e08161334a565b92915050565b6000815190506123f58161334a565b92915050565b60008135905061240a81613361565b92915050565b60006020828403121561242257600080fd5b600061243084828501612368565b91505092915050565b60006020828403121561244b57600080fd5b60006124598482850161237d565b91505092915050565b6000806040838503121561247557600080fd5b600061248385828601612368565b925050602061249485828601612368565b9150509250929050565b6000806000606084860312156124b357600080fd5b60006124c186828701612368565b93505060206124d286828701612368565b92505060406124e3868287016123d1565b9150509250925092565b6000806040838503121561250057600080fd5b600061250e85828601612368565b925050602061251f858286016123bc565b9150509250929050565b6000806040838503121561253c57600080fd5b600061254a85828601612368565b925050602061255b858286016123d1565b9150509250929050565b60006020828403121561257757600080fd5b600082015167ffffffffffffffff81111561259157600080fd5b61259d84828501612392565b91505092915050565b6000602082840312156125b857600080fd5b60006125c6848285016123fb565b91505092915050565b60006125db83836125f6565b60208301905092915050565b6125f081612e4a565b82525050565b6125ff81612e38565b82525050565b61260e81612e38565b82525050565b600061261f82612b6d565b6126298185612b90565b935061263483612b5d565b8060005b8381101561266557815161264c88826125cf565b975061265783612b83565b925050600181019050612638565b5085935050505092915050565b61267b81612e5c565b82525050565b600061268c82612b78565b6126968185612ba1565b93506126a6818560208601612e9f565b6126af81612ff1565b840191505092915050565b60006126c7602383612ba1565b91506126d28261300f565b604082019050919050565b60006126ea602683612ba1565b91506126f58261305e565b604082019050919050565b600061270d602283612ba1565b9150612718826130ad565b604082019050919050565b6000612730601c83612ba1565b915061273b826130fc565b602082019050919050565b6000612753601d83612ba1565b915061275e82613125565b602082019050919050565b6000612776602683612ba1565b91506127818261314e565b604082019050919050565b6000612799601c83612ba1565b91506127a48261319d565b602082019050919050565b60006127bc601383612ba1565b91506127c7826131c6565b602082019050919050565b60006127df602083612ba1565b91506127ea826131ef565b602082019050919050565b6000612802602583612ba1565b915061280d82613218565b604082019050919050565b6000612825602483612ba1565b915061283082613267565b604082019050919050565b6000612848602583612ba1565b9150612853826132b6565b604082019050919050565b61286781612e88565b82525050565b61287681612e92565b82525050565b60006020820190506128916000830184612605565b92915050565b60006020820190506128ac60008301846125e7565b92915050565b60006040820190506128c76000830185612605565b6128d4602083018461285e565b9392505050565b60006060820190506128f06000830186612605565b6128fd602083018561285e565b818103604083015261290f8184612614565b9050949350505050565b600060208201905061292e6000830184612672565b92915050565b6000602082019050818103600083015261294e8184612681565b905092915050565b6000602082019050818103600083015261296f816126ba565b9050919050565b6000602082019050818103600083015261298f816126dd565b9050919050565b600060208201905081810360008301526129af81612700565b9050919050565b600060208201905081810360008301526129cf81612723565b9050919050565b600060208201905081810360008301526129ef81612746565b9050919050565b60006020820190508181036000830152612a0f81612769565b9050919050565b60006020820190508181036000830152612a2f8161278c565b9050919050565b60006020820190508181036000830152612a4f816127af565b9050919050565b60006020820190508181036000830152612a6f816127d2565b9050919050565b60006020820190508181036000830152612a8f816127f5565b9050919050565b60006020820190508181036000830152612aaf81612818565b9050919050565b60006020820190508181036000830152612acf8161283b565b9050919050565b6000602082019050612aeb600083018461285e565b92915050565b6000602082019050612b06600083018461286d565b92915050565b6000612b16612b27565b9050612b228282612f04565b919050565b6000604051905090565b600067ffffffffffffffff821115612b4c57612b4b612fc2565b5b602082029050602081019050919050565b6000819050602082019050919050565b600081519050919050565b600081519050919050565b6000602082019050919050565b600082825260208201905092915050565b600082825260208201905092915050565b6000612bbd82612e88565b9150612bc883612e88565b9250827fffffffffffffffffffffffffffffffffffffffffffffffffffffffffffffffff03821115612bfd57612bfc612f35565b5b828201905092915050565b6000612c1382612e88565b9150612c1e83612e88565b925082612c2e57612c2d612f64565b5b828204905092915050565b6000808291508390505b6001851115612c8357808604811115612c5f57612c5e612f35565b5b6001851615612c6e5780820291505b8081029050612c7c85613002565b9450612c43565b94509492505050565b6000612c9782612e88565b9150612ca283612e92565b9250612ccf7fffffffffffffffffffffffffffffffffffffffffffffffffffffffffffffffff8484612cd7565b905092915050565b600082612ce75760019050612da3565b81612cf55760009050612da3565b8160018114612d0b5760028114612d1557612d44565b6001915050612da3565b60ff841115612d2757612d26612f35565b5b8360020a915084821115612d3e57612d3d612f35565b5b50612da3565b5060208310610133831016604e8410600b8410161715612d795782820a905083811115612d7457612d73612f35565b5b612da3565b612d868484846001612c39565b92509050818404811115612d9d57612d9c612f35565b5b81810290505b9392505050565b6000612db582612e88565b9150612dc083612e88565b9250817fffffffffffffffffffffffffffffffffffffffffffffffffffffffffffffffff0483118215151615612df957612df8612f35565b5b828202905092915050565b6000612e0f82612e88565b9150612e1a83612e88565b925082821015612e2d57612e2c612f35565b5b828203905092915050565b6000612e4382612e68565b9050919050565b6000612e5582612e68565b9050919050565b60008115159050919050565b600073ffffffffffffffffffffffffffffffffffffffff82169050919050565b6000819050919050565b600060ff82169050919050565b60005b83811015612ebd578082015181840152602081019050612ea2565b83811115612ecc576000848401525b50505050565b60006002820490506001821680612eea57607f821691505b60208210811415612efe57612efd612f93565b5b50919050565b612f0d82612ff1565b810181811067ffffffffffffffff82111715612f2c57612f2b612fc2565b5b80604052505050565b7f4e487b7100000000000000000000000000000000000000000000000000000000600052601160045260246000fd5b7f4e487b7100000000000000000000000000000000000000000000000000000000600052601260045260246000fd5b7f4e487b7100000000000000000000000000000000000000000000000000000000600052602260045260246000fd5b7f4e487b7100000000000000000000000000000000000000000000000000000000600052604160045260246000fd5b6000601f19601f8301169050919050565b60008160011c9050919050565b7f45524332303a207472616e7366657220746f20746865207a65726f206164647260008201527f6573730000000000000000000000000000000000000000000000000000000000602082015250565b7f4f776e61626c653a206e6577206f776e657220697320746865207a65726f206160008201527f6464726573730000000000000000000000000000000000000000000000000000602082015250565b7f45524332303a20617070726f766520746f20746865207a65726f20616464726560008201527f7373000000000000000000000000000000000000000000000000000000000000602082015250565b7f4163636f756e7420697320616c726561647920696e636c756465642e00000000600082015250565b7f45524332303a20696e73756666696369656e7420616c6c6f77616e6365000000600082015250565b7f45524332303a207472616e7366657220616d6f756e742065786365656473206260008201527f616c616e63650000000000000000000000000000000000000000000000000000602082015250565b7f4163636f756e7420697320616c7265616479206578636c756465642e00000000600082015250565b7f426c61636b6c6973746564206164647265737300000000000000000000000000600082015250565b7f4f776e61626c653a2063616c6c6572206973206e6f7420746865206f776e6572600082015250565b7f45524332303a207472616e736665722066726f6d20746865207a65726f20616460008201527f6472657373000000000000000000000000000000000000000000000000000000602082015250565b7f45524332303a20617070726f76652066726f6d20746865207a65726f2061646460008201527f7265737300000000000000000000000000000000000000000000000000000000602082015250565b7f45524332303a2064656372656173656420616c6c6f77616e63652062656c6f7760008201527f207a65726f000000000000000000000000000000000000000000000000000000602082015250565b61330e81612e38565b811461331957600080fd5b50565b61332581612e4a565b811461333057600080fd5b50565b61333c81612e5c565b811461334757600080fd5b50565b61335381612e88565b811461335e57600080fd5b50565b61336a81612e92565b811461337557600080fd5b5056fea26469706673582212200d6f6383b1980ae2bbd4481d41ca86428e063ca554b007e9d6ec6b48c108fc0664736f6c63430008040033",
  "linkReferences": {},
  "deployedLinkReferences": {}
}