{
  "_format": "hh-sol-artifact-1",
  "contractName": "PeachToken",
  "sourceName": "contracts/PeachToken.sol",
  "abi": [
    {
      "inputs": [
        {
          "internalType": "address payable",
          "name": "_treasuryPool",
          "type": "address"
        },
        {
          "internalType": "address payable",
          "name": "_teamPool",
          "type": "address"
        }
      ],
      "stateMutability": "nonpayable",
      "type": "constructor"
    },
    {
      "anonymous": false,
      "inputs": [
        {
          "indexed": true,
          "internalType": "address",
          "name": "owner",
          "type": "address"
        },
        {
          "indexed": true,
          "internalType": "address",
          "name": "spender",
          "type": "address"
        },
        {
          "indexed": false,
          "internalType": "uint256",
          "name": "value",
          "type": "uint256"
        }
      ],
      "name": "Approval",
      "type": "event"
    },
    {
      "anonymous": false,
      "inputs": [
        {
          "indexed": false,
          "internalType": "address",
          "name": "account",
          "type": "address"
        }
      ],
      "name": "ExcludeAccountFromFee",
      "type": "event"
    },
    {
      "anonymous": false,
      "inputs": [
        {
          "indexed": false,
          "internalType": "address",
          "name": "account",
          "type": "address"
        }
      ],
      "name": "IncludeAccountInFee",
      "type": "event"
    },
    {
      "anonymous": false,
      "inputs": [
        {
          "indexed": true,
          "internalType": "address",
          "name": "previousOwner",
          "type": "address"
        },
        {
          "indexed": true,
          "internalType": "address",
          "name": "newOwner",
          "type": "address"
        }
      ],
      "name": "OwnershipTransferred",
      "type": "event"
    },
    {
      "anonymous": false,
      "inputs": [
        {
          "indexed": true,
          "internalType": "address",
          "name": "from",
          "type": "address"
        },
        {
          "indexed": true,
          "internalType": "address",
          "name": "to",
          "type": "address"
        },
        {
          "indexed": false,
          "internalType": "uint256",
          "name": "value",
          "type": "uint256"
        }
      ],
      "name": "Transfer",
      "type": "event"
    },
    {
      "inputs": [
        {
          "internalType": "address",
          "name": "",
          "type": "address"
        }
      ],
      "name": "_isBlacklisted",
      "outputs": [
        {
          "internalType": "bool",
          "name": "",
          "type": "bool"
        }
      ],
      "stateMutability": "view",
      "type": "function"
    },
    {
      "inputs": [
        {
          "internalType": "address",
          "name": "owner",
          "type": "address"
        },
        {
          "internalType": "address",
          "name": "spender",
          "type": "address"
        }
      ],
      "name": "allowance",
      "outputs": [
        {
          "internalType": "uint256",
          "name": "",
          "type": "uint256"
        }
      ],
      "stateMutability": "view",
      "type": "function"
    },
    {
      "inputs": [
        {
          "internalType": "address",
          "name": "spender",
          "type": "address"
        },
        {
          "internalType": "uint256",
          "name": "amount",
          "type": "uint256"
        }
      ],
      "name": "approve",
      "outputs": [
        {
          "internalType": "bool",
          "name": "",
          "type": "bool"
        }
      ],
      "stateMutability": "nonpayable",
      "type": "function"
    },
    {
      "inputs": [
        {
          "internalType": "address",
          "name": "account",
          "type": "address"
        }
      ],
      "name": "balanceOf",
      "outputs": [
        {
          "internalType": "uint256",
          "name": "",
          "type": "uint256"
        }
      ],
      "stateMutability": "view",
      "type": "function"
    },
    {
      "inputs": [
        {
          "internalType": "address",
          "name": "account",
          "type": "address"
        },
        {
          "internalType": "bool",
          "name": "value",
          "type": "bool"
        }
      ],
      "name": "blacklistMalicious",
      "outputs": [],
      "stateMutability": "nonpayable",
      "type": "function"
    },
    {
      "inputs": [],
      "name": "decimals",
      "outputs": [
        {
          "internalType": "uint8",
          "name": "",
          "type": "uint8"
        }
      ],
      "stateMutability": "view",
      "type": "function"
    },
    {
      "inputs": [
        {
          "internalType": "address",
          "name": "spender",
          "type": "address"
        },
        {
          "internalType": "uint256",
          "name": "subtractedValue",
          "type": "uint256"
        }
      ],
      "name": "decreaseAllowance",
      "outputs": [
        {
          "internalType": "bool",
          "name": "",
          "type": "bool"
        }
      ],
      "stateMutability": "nonpayable",
      "type": "function"
    },
    {
      "inputs": [
        {
          "internalType": "address",
          "name": "spender",
          "type": "address"
        },
        {
          "internalType": "uint256",
          "name": "addedValue",
          "type": "uint256"
        }
      ],
      "name": "increaseAllowance",
      "outputs": [
        {
          "internalType": "bool",
          "name": "",
          "type": "bool"
        }
      ],
      "stateMutability": "nonpayable",
      "type": "function"
    },
    {
      "inputs": [],
      "name": "lockInTeamWallet",
      "outputs": [],
      "stateMutability": "nonpayable",
      "type": "function"
    },
    {
      "inputs": [
        {
          "internalType": "address payable",
          "name": "recipient",
          "type": "address"
        }
      ],
      "name": "lockInVaultWallet",
      "outputs": [],
      "stateMutability": "nonpayable",
      "type": "function"
    },
    {
      "inputs": [],
      "name": "name",
      "outputs": [
        {
          "internalType": "string",
          "name": "",
          "type": "string"
        }
      ],
      "stateMutability": "view",
      "type": "function"
    },
    {
      "inputs": [],
      "name": "owner",
      "outputs": [
        {
          "internalType": "address",
          "name": "",
          "type": "address"
        }
      ],
      "stateMutability": "view",
      "type": "function"
    },
    {
      "inputs": [],
      "name": "renounceOwnership",
      "outputs": [],
      "stateMutability": "nonpayable",
      "type": "function"
    },
    {
      "inputs": [
        {
          "internalType": "address",
          "name": "account",
          "type": "address"
        },
        {
          "internalType": "bool",
          "name": "exempt",
          "type": "bool"
        }
      ],
      "name": "setFeeExempt",
      "outputs": [],
      "stateMutability": "nonpayable",
      "type": "function"
    },
    {
      "inputs": [
        {
          "internalType": "address",
          "name": "sender",
          "type": "address"
        }
      ],
      "name": "shouldTakeFee",
      "outputs": [
        {
          "internalType": "bool",
          "name": "",
          "type": "bool"
        }
      ],
      "stateMutability": "view",
      "type": "function"
    },
    {
      "inputs": [],
      "name": "symbol",
      "outputs": [
        {
          "internalType": "string",
          "name": "",
          "type": "string"
        }
      ],
      "stateMutability": "view",
      "type": "function"
    },
    {
      "inputs": [],
      "name": "teamPool",
      "outputs": [
        {
          "internalType": "address payable",
          "name": "",
          "type": "address"
        }
      ],
      "stateMutability": "view",
      "type": "function"
    },
    {
      "inputs": [],
      "name": "totalSupply",
      "outputs": [
        {
          "internalType": "uint256",
          "name": "",
          "type": "uint256"
        }
      ],
      "stateMutability": "view",
      "type": "function"
    },
    {
      "inputs": [
        {
          "internalType": "address",
          "name": "recipient",
          "type": "address"
        },
        {
          "internalType": "uint256",
          "name": "amount",
          "type": "uint256"
        }
      ],
      "name": "transfer",
      "outputs": [
        {
          "internalType": "bool",
          "name": "",
          "type": "bool"
        }
      ],
      "stateMutability": "nonpayable",
      "type": "function"
    },
    {
      "inputs": [
        {
          "internalType": "address",
          "name": "from",
          "type": "address"
        },
        {
          "internalType": "address",
          "name": "to",
          "type": "address"
        },
        {
          "internalType": "uint256",
          "name": "amount",
          "type": "uint256"
        }
      ],
      "name": "transferFrom",
      "outputs": [
        {
          "internalType": "bool",
          "name": "",
          "type": "bool"
        }
      ],
      "stateMutability": "nonpayable",
      "type": "function"
    },
    {
      "inputs": [
        {
          "internalType": "address",
          "name": "newOwner",
          "type": "address"
        }
      ],
      "name": "transferOwnership",
      "outputs": [],
      "stateMutability": "nonpayable",
      "type": "function"
    },
    {
      "inputs": [],
      "name": "treasuryFee",
      "outputs": [
        {
          "internalType": "uint8",
          "name": "",
          "type": "uint8"
        }
      ],
      "stateMutability": "view",
      "type": "function"
    },
    {
      "inputs": [],
      "name": "treasuryPool",
      "outputs": [
        {
          "internalType": "address payable",
          "name": "",
          "type": "address"
        }
      ],
      "stateMutability": "view",
      "type": "function"
    },
    {
      "inputs": [
        {
          "internalType": "uint8",
          "name": "value",
          "type": "uint8"
        }
      ],
      "name": "updateTreasuryFee",
      "outputs": [],
      "stateMutability": "nonpayable",
      "type": "function"
    },
    {
      "inputs": [
        {
          "internalType": "address payable",
          "name": "pool",
          "type": "address"
        }
      ],
      "name": "updateTreasuryPool",
      "outputs": [],
      "stateMutability": "nonpayable",
      "type": "function"
    },
    {
      "inputs": [],
      "name": "vault",
      "outputs": [
        {
          "internalType": "address payable",
          "name": "",
          "type": "address"
        }
      ],
      "stateMutability": "view",
      "type": "function"
    },
    {
      "stateMutability": "payable",
      "type": "receive"
    }
  ],
  "bytecode": "0x6080604052621e84806007556012600860006101000a81548160ff021916908360ff160217905550600860009054906101000a900460ff16600a62000045919062000a96565b60075462000054919062000bd3565b600955600860009054906101000a900460ff16600a62000075919062000a96565b620186a062000085919062000bd3565b600a55600860009054906101000a900460ff16600a620000a6919062000a96565b620f4240620000b6919062000bd3565b600b556000600c60006101000a81548160ff0219169083151502179055506000600c60016101000a81548160ff0219169083151502179055506032600e60146101000a81548160ff021916908360ff1602179055503480156200011857600080fd5b50604051620037e0380380620037e083398181016040528101906200013e9190620008cc565b6040518060400160405280600881526020017f50454143484946590000000000000000000000000000000000000000000000008152506040518060400160405280600581526020017f50454143480000000000000000000000000000000000000000000000000000008152508160039080519060200190620001c292919062000805565b508060049080519060200190620001db92919062000805565b505050620001fe620001f2620004a060201b60201c565b620004a860201b60201c565b60016006819055508181600073ffffffffffffffffffffffffffffffffffffffff168273ffffffffffffffffffffffffffffffffffffffff1614156200024357600080fd5b600073ffffffffffffffffffffffffffffffffffffffff168173ffffffffffffffffffffffffffffffffffffffff1614156200027e57600080fd5b83600c60026101000a81548173ffffffffffffffffffffffffffffffffffffffff021916908373ffffffffffffffffffffffffffffffffffffffff16021790555082600d60006101000a81548173ffffffffffffffffffffffffffffffffffffffff021916908373ffffffffffffffffffffffffffffffffffffffff1602179055506200032362000314620004a060201b60201c565b6009546200056e60201b60201c565b62000336336001620006e760201b60201c565b62000349306001620006e760201b60201c565b6200037e600c60029054906101000a900473ffffffffffffffffffffffffffffffffffffffff166001620006e760201b60201c565b620003b3600d60009054906101000a900473ffffffffffffffffffffffffffffffffffffffff166001620006e760201b60201c565b620003c3620004a060201b60201c565b73ffffffffffffffffffffffffffffffffffffffff16600073ffffffffffffffffffffffffffffffffffffffff167fddf252ad1be2c89b69c2b068fc378daa952ba7f163c4a11628f55a4df523b3ef600954604051620004249190620009b0565b60405180910390a36200043c620004a060201b60201c565b73ffffffffffffffffffffffffffffffffffffffff16600073ffffffffffffffffffffffffffffffffffffffff167f8be0079c531659141344cd1fd0a4f28419497f9722a3daafe3b4186f6b6457e060405160405180910390a35050505062000d8c565b600033905090565b6000600560009054906101000a900473ffffffffffffffffffffffffffffffffffffffff16905081600560006101000a81548173ffffffffffffffffffffffffffffffffffffffff021916908373ffffffffffffffffffffffffffffffffffffffff1602179055508173ffffffffffffffffffffffffffffffffffffffff168173ffffffffffffffffffffffffffffffffffffffff167f8be0079c531659141344cd1fd0a4f28419497f9722a3daafe3b4186f6b6457e060405160405180910390a35050565b600073ffffffffffffffffffffffffffffffffffffffff168273ffffffffffffffffffffffffffffffffffffffff161415620005e1576040517f08c379a0000000000000000000000000000000000000000000000000000000008152600401620005d8906200098e565b60405180910390fd5b620005f560008383620007d160201b60201c565b8060026000828254620006099190620009de565b92505081905550806000808473ffffffffffffffffffffffffffffffffffffffff1673ffffffffffffffffffffffffffffffffffffffff1681526020019081526020016000206000828254620006609190620009de565b925050819055508173ffffffffffffffffffffffffffffffffffffffff16600073ffffffffffffffffffffffffffffffffffffffff167fddf252ad1be2c89b69c2b068fc378daa952ba7f163c4a11628f55a4df523b3ef83604051620006c79190620009b0565b60405180910390a3620006e360008383620007d660201b60201c565b5050565b620006f7620004a060201b60201c565b73ffffffffffffffffffffffffffffffffffffffff166200071d620007db60201b60201c565b73ffffffffffffffffffffffffffffffffffffffff161462000776576040517f08c379a00000000000000000000000000000000000000000000000000000000081526004016200076d906200096c565b60405180910390fd5b80601060008473ffffffffffffffffffffffffffffffffffffffff1673ffffffffffffffffffffffffffffffffffffffff16815260200190815260200160002060006101000a81548160ff0219169083151502179055505050565b505050565b505050565b6000600560009054906101000a900473ffffffffffffffffffffffffffffffffffffffff16905090565b828054620008139062000c7f565b90600052602060002090601f01602090048101928262000837576000855562000883565b82601f106200085257805160ff191683800117855562000883565b8280016001018555821562000883579182015b828111156200088257825182559160200191906001019062000865565b5b50905062000892919062000896565b5090565b5b80821115620008b157600081600090555060010162000897565b5090565b600081519050620008c68162000d72565b92915050565b60008060408385031215620008e057600080fd5b6000620008f085828601620008b5565b92505060206200090385828601620008b5565b9150509250929050565b60006200091c602083620009cd565b9150620009298262000d20565b602082019050919050565b600062000943601f83620009cd565b9150620009508262000d49565b602082019050919050565b620009668162000c68565b82525050565b6000602082019050818103600083015262000987816200090d565b9050919050565b60006020820190508181036000830152620009a98162000934565b9050919050565b6000602082019050620009c760008301846200095b565b92915050565b600082825260208201905092915050565b6000620009eb8262000c68565b9150620009f88362000c68565b9250827fffffffffffffffffffffffffffffffffffffffffffffffffffffffffffffffff0382111562000a305762000a2f62000cb5565b5b828201905092915050565b6000808291508390505b600185111562000a8d5780860481111562000a655762000a6462000cb5565b5b600185161562000a755780820291505b808102905062000a858562000d13565b945062000a45565b94509492505050565b600062000aa38262000c68565b915062000ab08362000c72565b925062000adf7fffffffffffffffffffffffffffffffffffffffffffffffffffffffffffffffff848462000ae7565b905092915050565b60008262000af9576001905062000bcc565b8162000b09576000905062000bcc565b816001811462000b22576002811462000b2d5762000b63565b600191505062000bcc565b60ff84111562000b425762000b4162000cb5565b5b8360020a91508482111562000b5c5762000b5b62000cb5565b5b5062000bcc565b5060208310610133831016604e8410600b841016171562000b9d5782820a90508381111562000b975762000b9662000cb5565b5b62000bcc565b62000bac848484600162000a3b565b9250905081840481111562000bc65762000bc562000cb5565b5b81810290505b9392505050565b600062000be08262000c68565b915062000bed8362000c68565b9250817fffffffffffffffffffffffffffffffffffffffffffffffffffffffffffffffff048311821515161562000c295762000c2862000cb5565b5b828202905092915050565b600062000c418262000c48565b9050919050565b600073ffffffffffffffffffffffffffffffffffffffff82169050919050565b6000819050919050565b600060ff82169050919050565b6000600282049050600182168062000c9857607f821691505b6020821081141562000caf5762000cae62000ce4565b5b50919050565b7f4e487b7100000000000000000000000000000000000000000000000000000000600052601160045260246000fd5b7f4e487b7100000000000000000000000000000000000000000000000000000000600052602260045260246000fd5b60008160011c9050919050565b7f4f776e61626c653a2063616c6c6572206973206e6f7420746865206f776e6572600082015250565b7f45524332303a206d696e7420746f20746865207a65726f206164647265737300600082015250565b62000d7d8162000c34565b811462000d8957600080fd5b50565b612a448062000d9c6000396000f3fe6080604052600436106101855760003560e01c80638ebfc796116100d1578063cbf6b84d1161008a578063dd62ed3e11610064578063dd62ed3e1461058f578063e7c44c69146105cc578063f2fde38b14610609578063fbfa77cf146106325761018c565b8063cbf6b84d14610524578063cc32d1761461053b578063d8929342146105665761018c565b80638ebfc7961461040457806395d89b411461042d578063a457c2d714610458578063a5d13c4814610495578063a9059cbb146104be578063b14a1e8e146104fb5761018c565b8063313ce5671161013e57806348df58291161011857806348df58291461035a57806370a0823114610385578063715018a6146103c25780638da5cb5b146103d95761018c565b8063313ce567146102c757806339509351146102f2578063396365041461032f5761018c565b806306fdde0314610191578063095ea7b3146101bc57806318160ddd146101f95780631cdd3be31461022457806323b872dd146102615780632deef2841461029e5761018c565b3661018c57005b600080fd5b34801561019d57600080fd5b506101a661065d565b6040516101b391906120b4565b60405180910390f35b3480156101c857600080fd5b506101e360048036038101906101de9190611dd6565b6106ef565b6040516101f09190612099565b60405180910390f35b34801561020557600080fd5b5061020e610712565b60405161021b9190612256565b60405180910390f35b34801561023057600080fd5b5061024b60048036038101906102469190611cbd565b61071c565b6040516102589190612099565b60405180910390f35b34801561026d57600080fd5b5061028860048036038101906102839190611d4b565b61073c565b6040516102959190612099565b60405180910390f35b3480156102aa57600080fd5b506102c560048036038101906102c09190611e12565b61076b565b005b3480156102d357600080fd5b506102dc610805565b6040516102e99190612271565b60405180910390f35b3480156102fe57600080fd5b5061031960048036038101906103149190611dd6565b61080e565b6040516103269190612099565b60405180910390f35b34801561033b57600080fd5b506103446108b8565b604051610351919061207e565b60405180910390f35b34801561036657600080fd5b5061036f6108de565b60405161037c919061207e565b60405180910390f35b34801561039157600080fd5b506103ac60048036038101906103a79190611cbd565b610904565b6040516103b99190612256565b60405180910390f35b3480156103ce57600080fd5b506103d761094c565b005b3480156103e557600080fd5b506103ee6109d4565b6040516103fb9190612063565b60405180910390f35b34801561041057600080fd5b5061042b60048036038101906104269190611d9a565b6109fe565b005b34801561043957600080fd5b50610442610ad5565b60405161044f91906120b4565b60405180910390f35b34801561046457600080fd5b5061047f600480360381019061047a9190611dd6565b610b67565b60405161048c9190612099565b60405180910390f35b3480156104a157600080fd5b506104bc60048036038101906104b79190611ce6565b610c51565b005b3480156104ca57600080fd5b506104e560048036038101906104e09190611dd6565b610db1565b6040516104f29190612099565b60405180910390f35b34801561050757600080fd5b50610522600480360381019061051d9190611ce6565b610dcf565b005b34801561053057600080fd5b50610539610e8f565b005b34801561054757600080fd5b50610550610fad565b60405161055d9190612271565b60405180910390f35b34801561057257600080fd5b5061058d60048036038101906105889190611d9a565b610fc0565b005b34801561059b57600080fd5b506105b660048036038101906105b19190611d0f565b611097565b6040516105c39190612256565b60405180910390f35b3480156105d857600080fd5b506105f360048036038101906105ee9190611cbd565b61111e565b6040516106009190612099565b60405180910390f35b34801561061557600080fd5b50610630600480360381019061062b9190611cbd565b611175565b005b34801561063e57600080fd5b5061064761126d565b604051610654919061207e565b60405180910390f35b60606003805461066c906125c8565b80601f0160208091040260200160405190810160405280929190818152602001828054610698906125c8565b80156106e55780601f106106ba576101008083540402835291602001916106e5565b820191906000526020600020905b8154815290600101906020018083116106c857829003601f168201915b5050505050905090565b6000806106fa611293565b905061070781858561129b565b600191505092915050565b6000600254905090565b600f6020528060005260406000206000915054906101000a900460ff1681565b600080610747611293565b9050610754858285611466565b61075f8585856114f2565b60019150509392505050565b610773611293565b73ffffffffffffffffffffffffffffffffffffffff166107916109d4565b73ffffffffffffffffffffffffffffffffffffffff16146107e7576040517f08c379a00000000000000000000000000000000000000000000000000000000081526004016107de906121b6565b60405180910390fd5b80600e60146101000a81548160ff021916908360ff16021790555050565b60006012905090565b600080610819611293565b90506108ad818585600160008673ffffffffffffffffffffffffffffffffffffffff1673ffffffffffffffffffffffffffffffffffffffff16815260200190815260200160002060008973ffffffffffffffffffffffffffffffffffffffff1673ffffffffffffffffffffffffffffffffffffffff168152602001908152602001600020546108a891906122a8565b61129b565b600191505092915050565b600d60009054906101000a900473ffffffffffffffffffffffffffffffffffffffff1681565b600c60029054906101000a900473ffffffffffffffffffffffffffffffffffffffff1681565b60008060008373ffffffffffffffffffffffffffffffffffffffff1673ffffffffffffffffffffffffffffffffffffffff168152602001908152602001600020549050919050565b610954611293565b73ffffffffffffffffffffffffffffffffffffffff166109726109d4565b73ffffffffffffffffffffffffffffffffffffffff16146109c8576040517f08c379a00000000000000000000000000000000000000000000000000000000081526004016109bf906121b6565b60405180910390fd5b6109d26000611814565b565b6000600560009054906101000a900473ffffffffffffffffffffffffffffffffffffffff16905090565b610a06611293565b73ffffffffffffffffffffffffffffffffffffffff16610a246109d4565b73ffffffffffffffffffffffffffffffffffffffff1614610a7a576040517f08c379a0000000000000000000000000000000000000000000000000000000008152600401610a71906121b6565b60405180910390fd5b80601060008473ffffffffffffffffffffffffffffffffffffffff1673ffffffffffffffffffffffffffffffffffffffff16815260200190815260200160002060006101000a81548160ff0219169083151502179055505050565b606060048054610ae4906125c8565b80601f0160208091040260200160405190810160405280929190818152602001828054610b10906125c8565b8015610b5d5780601f10610b3257610100808354040283529160200191610b5d565b820191906000526020600020905b815481529060010190602001808311610b4057829003601f168201915b5050505050905090565b600080610b72611293565b90506000600160008373ffffffffffffffffffffffffffffffffffffffff1673ffffffffffffffffffffffffffffffffffffffff16815260200190815260200160002060008673ffffffffffffffffffffffffffffffffffffffff1673ffffffffffffffffffffffffffffffffffffffff16815260200190815260200160002054905083811015610c38576040517f08c379a0000000000000000000000000000000000000000000000000000000008152600401610c2f90612236565b60405180910390fd5b610c45828686840361129b565b60019250505092915050565b610c59611293565b73ffffffffffffffffffffffffffffffffffffffff16610c776109d4565b73ffffffffffffffffffffffffffffffffffffffff1614610ccd576040517f08c379a0000000000000000000000000000000000000000000000000000000008152600401610cc4906121b6565b60405180910390fd5b60001515600c60019054906101000a900460ff16151514610d23576040517f08c379a0000000000000000000000000000000000000000000000000000000008152600401610d1a906121d6565b60405180910390fd5b80600e60006101000a81548173ffffffffffffffffffffffffffffffffffffffff021916908373ffffffffffffffffffffffffffffffffffffffff1602179055506001600c60016101000a81548160ff021916908315150217905550610dad600e60009054906101000a900473ffffffffffffffffffffffffffffffffffffffff16600b54610db1565b5050565b6000610dc5610dbe611293565b84846114f2565b6001905092915050565b610dd7611293565b73ffffffffffffffffffffffffffffffffffffffff16610df56109d4565b73ffffffffffffffffffffffffffffffffffffffff1614610e4b576040517f08c379a0000000000000000000000000000000000000000000000000000000008152600401610e42906121b6565b60405180910390fd5b80600c60026101000a81548173ffffffffffffffffffffffffffffffffffffffff021916908373ffffffffffffffffffffffffffffffffffffffff16021790555050565b610e97611293565b73ffffffffffffffffffffffffffffffffffffffff16610eb56109d4565b73ffffffffffffffffffffffffffffffffffffffff1614610f0b576040517f08c379a0000000000000000000000000000000000000000000000000000000008152600401610f02906121b6565b60405180910390fd5b60001515600c60009054906101000a900460ff16151514610f61576040517f08c379a0000000000000000000000000000000000000000000000000000000008152600401610f5890612196565b60405180910390fd5b6001600c60006101000a81548160ff021916908315150217905550610faa600d60009054906101000a900473ffffffffffffffffffffffffffffffffffffffff16600a54610db1565b50565b600e60149054906101000a900460ff1681565b610fc8611293565b73ffffffffffffffffffffffffffffffffffffffff16610fe66109d4565b73ffffffffffffffffffffffffffffffffffffffff161461103c576040517f08c379a0000000000000000000000000000000000000000000000000000000008152600401611033906121b6565b60405180910390fd5b80600f60008473ffffffffffffffffffffffffffffffffffffffff1673ffffffffffffffffffffffffffffffffffffffff16815260200190815260200160002060006101000a81548160ff0219169083151502179055505050565b6000600160008473ffffffffffffffffffffffffffffffffffffffff1673ffffffffffffffffffffffffffffffffffffffff16815260200190815260200160002060008373ffffffffffffffffffffffffffffffffffffffff1673ffffffffffffffffffffffffffffffffffffffff16815260200190815260200160002054905092915050565b6000601060008373ffffffffffffffffffffffffffffffffffffffff1673ffffffffffffffffffffffffffffffffffffffff16815260200190815260200160002060009054906101000a900460ff16159050919050565b61117d611293565b73ffffffffffffffffffffffffffffffffffffffff1661119b6109d4565b73ffffffffffffffffffffffffffffffffffffffff16146111f1576040517f08c379a00000000000000000000000000000000000000000000000000000000081526004016111e8906121b6565b60405180910390fd5b600073ffffffffffffffffffffffffffffffffffffffff168173ffffffffffffffffffffffffffffffffffffffff161415611261576040517f08c379a0000000000000000000000000000000000000000000000000000000008152600401611258906120f6565b60405180910390fd5b61126a81611814565b50565b600e60009054906101000a900473ffffffffffffffffffffffffffffffffffffffff1681565b600033905090565b600073ffffffffffffffffffffffffffffffffffffffff168373ffffffffffffffffffffffffffffffffffffffff16141561130b576040517f08c379a000000000000000000000000000000000000000000000000000000000815260040161130290612216565b60405180910390fd5b600073ffffffffffffffffffffffffffffffffffffffff168273ffffffffffffffffffffffffffffffffffffffff16141561137b576040517f08c379a000000000000000000000000000000000000000000000000000000000815260040161137290612116565b60405180910390fd5b80600160008573ffffffffffffffffffffffffffffffffffffffff1673ffffffffffffffffffffffffffffffffffffffff16815260200190815260200160002060008473ffffffffffffffffffffffffffffffffffffffff1673ffffffffffffffffffffffffffffffffffffffff168152602001908152602001600020819055508173ffffffffffffffffffffffffffffffffffffffff168373ffffffffffffffffffffffffffffffffffffffff167f8c5be1e5ebec7d5bd14f71427d1e84f3dd0314c0f7b2291e5b200ac8c7c3b925836040516114599190612256565b60405180910390a3505050565b60006114728484611097565b90507fffffffffffffffffffffffffffffffffffffffffffffffffffffffffffffffff81146114ec57818110156114de576040517f08c379a00000000000000000000000000000000000000000000000000000000081526004016114d590612136565b60405180910390fd5b6114eb848484840361129b565b5b50505050565b8282600073ffffffffffffffffffffffffffffffffffffffff168273ffffffffffffffffffffffffffffffffffffffff16141561152e57600080fd5b600073ffffffffffffffffffffffffffffffffffffffff168173ffffffffffffffffffffffffffffffffffffffff16141561156857600080fd5b600f60008673ffffffffffffffffffffffffffffffffffffffff1673ffffffffffffffffffffffffffffffffffffffff16815260200190815260200160002060009054906101000a900460ff1615801561160c5750600f60008573ffffffffffffffffffffffffffffffffffffffff1673ffffffffffffffffffffffffffffffffffffffff16815260200190815260200160002060009054906101000a900460ff16155b61164b576040517f08c379a000000000000000000000000000000000000000000000000000000000815260040161164290612176565b60405180910390fd5b600083905060006001905060006116ae83601060008b73ffffffffffffffffffffffffffffffffffffffff1673ffffffffffffffffffffffffffffffffffffffff16815260200190815260200160002060009054906101000a900460ff166118da565b9050601060008973ffffffffffffffffffffffffffffffffffffffff1673ffffffffffffffffffffffffffffffffffffffff16815260200190815260200160002060009054906101000a900460ff16806117515750601060008873ffffffffffffffffffffffffffffffffffffffff1673ffffffffffffffffffffffffffffffffffffffff16815260200190815260200160002060009054906101000a900460ff165b1561175b57600091505b811561179a578060400151925061179988600c60029054906101000a900473ffffffffffffffffffffffffffffffffffffffff168360200151611908565b5b6117a5888885611908565b8673ffffffffffffffffffffffffffffffffffffffff168873ffffffffffffffffffffffffffffffffffffffff167fddf252ad1be2c89b69c2b068fc378daa952ba7f163c4a11628f55a4df523b3ef856040516118029190612256565b60405180910390a35050505050505050565b6000600560009054906101000a900473ffffffffffffffffffffffffffffffffffffffff16905081600560006101000a81548173ffffffffffffffffffffffffffffffffffffffff021916908373ffffffffffffffffffffffffffffffffffffffff1602179055508173ffffffffffffffffffffffffffffffffffffffff168173ffffffffffffffffffffffffffffffffffffffff167f8be0079c531659141344cd1fd0a4f28419497f9722a3daafe3b4186f6b6457e060405160405180910390a35050565b6118e2611c33565b6118ea611c33565b838160000181815250506118fe8184611b89565b8091505092915050565b600073ffffffffffffffffffffffffffffffffffffffff168373ffffffffffffffffffffffffffffffffffffffff161415611978576040517f08c379a000000000000000000000000000000000000000000000000000000000815260040161196f906121f6565b60405180910390fd5b600073ffffffffffffffffffffffffffffffffffffffff168273ffffffffffffffffffffffffffffffffffffffff1614156119e8576040517f08c379a00000000000000000000000000000000000000000000000000000000081526004016119df906120d6565b60405180910390fd5b6119f3838383611bec565b60008060008573ffffffffffffffffffffffffffffffffffffffff1673ffffffffffffffffffffffffffffffffffffffff16815260200190815260200160002054905081811015611a79576040517f08c379a0000000000000000000000000000000000000000000000000000000008152600401611a7090612156565b60405180910390fd5b8181036000808673ffffffffffffffffffffffffffffffffffffffff1673ffffffffffffffffffffffffffffffffffffffff16815260200190815260200160002081905550816000808573ffffffffffffffffffffffffffffffffffffffff1673ffffffffffffffffffffffffffffffffffffffff1681526020019081526020016000206000828254611b0c91906122a8565b925050819055508273ffffffffffffffffffffffffffffffffffffffff168473ffffffffffffffffffffffffffffffffffffffff167fddf252ad1be2c89b69c2b068fc378daa952ba7f163c4a11628f55a4df523b3ef84604051611b709190612256565b60405180910390a3611b83848484611bf1565b50505050565b8015611ba2578160000151826040018181525050611be8565b611bc18260000151600e60149054906101000a900460ff166000611bf6565b82602001818152505081602001518260000151611bde91906124fa565b8260400181815250505b5050565b505050565b505050565b6000606482600a611c079190612382565b8460ff1686611c1691906124a0565b611c2091906122fe565b611c2a91906122fe565b90509392505050565b60405180606001604052806000815260200160008152602001600081525090565b600081359050611c638161299b565b92915050565b600081359050611c78816129b2565b92915050565b600081359050611c8d816129c9565b92915050565b600081359050611ca2816129e0565b92915050565b600081359050611cb7816129f7565b92915050565b600060208284031215611ccf57600080fd5b6000611cdd84828501611c54565b91505092915050565b600060208284031215611cf857600080fd5b6000611d0684828501611c69565b91505092915050565b60008060408385031215611d2257600080fd5b6000611d3085828601611c54565b9250506020611d4185828601611c54565b9150509250929050565b600080600060608486031215611d6057600080fd5b6000611d6e86828701611c54565b9350506020611d7f86828701611c54565b9250506040611d9086828701611c93565b9150509250925092565b60008060408385031215611dad57600080fd5b6000611dbb85828601611c54565b9250506020611dcc85828601611c7e565b9150509250929050565b60008060408385031215611de957600080fd5b6000611df785828601611c54565b9250506020611e0885828601611c93565b9150509250929050565b600060208284031215611e2457600080fd5b6000611e3284828501611ca8565b91505092915050565b611e4481612540565b82525050565b611e538161252e565b82525050565b611e6281612552565b82525050565b6000611e738261228c565b611e7d8185612297565b9350611e8d818560208601612595565b611e9681612687565b840191505092915050565b6000611eae602383612297565b9150611eb9826126a5565b604082019050919050565b6000611ed1602683612297565b9150611edc826126f4565b604082019050919050565b6000611ef4602283612297565b9150611eff82612743565b604082019050919050565b6000611f17601d83612297565b9150611f2282612792565b602082019050919050565b6000611f3a602683612297565b9150611f45826127bb565b604082019050919050565b6000611f5d601383612297565b9150611f688261280a565b602082019050919050565b6000611f80601c83612297565b9150611f8b82612833565b602082019050919050565b6000611fa3602083612297565b9150611fae8261285c565b602082019050919050565b6000611fc6601d83612297565b9150611fd182612885565b602082019050919050565b6000611fe9602583612297565b9150611ff4826128ae565b604082019050919050565b600061200c602483612297565b9150612017826128fd565b604082019050919050565b600061202f602583612297565b915061203a8261294c565b604082019050919050565b61204e8161257e565b82525050565b61205d81612588565b82525050565b60006020820190506120786000830184611e4a565b92915050565b60006020820190506120936000830184611e3b565b92915050565b60006020820190506120ae6000830184611e59565b92915050565b600060208201905081810360008301526120ce8184611e68565b905092915050565b600060208201905081810360008301526120ef81611ea1565b9050919050565b6000602082019050818103600083015261210f81611ec4565b9050919050565b6000602082019050818103600083015261212f81611ee7565b9050919050565b6000602082019050818103600083015261214f81611f0a565b9050919050565b6000602082019050818103600083015261216f81611f2d565b9050919050565b6000602082019050818103600083015261218f81611f50565b9050919050565b600060208201905081810360008301526121af81611f73565b9050919050565b600060208201905081810360008301526121cf81611f96565b9050919050565b600060208201905081810360008301526121ef81611fb9565b9050919050565b6000602082019050818103600083015261220f81611fdc565b9050919050565b6000602082019050818103600083015261222f81611fff565b9050919050565b6000602082019050818103600083015261224f81612022565b9050919050565b600060208201905061226b6000830184612045565b92915050565b60006020820190506122866000830184612054565b92915050565b600081519050919050565b600082825260208201905092915050565b60006122b38261257e565b91506122be8361257e565b9250827fffffffffffffffffffffffffffffffffffffffffffffffffffffffffffffffff038211156122f3576122f26125fa565b5b828201905092915050565b60006123098261257e565b91506123148361257e565b92508261232457612323612629565b5b828204905092915050565b6000808291508390505b600185111561237957808604811115612355576123546125fa565b5b60018516156123645780820291505b808102905061237285612698565b9450612339565b94509492505050565b600061238d8261257e565b915061239883612588565b92506123c57fffffffffffffffffffffffffffffffffffffffffffffffffffffffffffffffff84846123cd565b905092915050565b6000826123dd5760019050612499565b816123eb5760009050612499565b8160018114612401576002811461240b5761243a565b6001915050612499565b60ff84111561241d5761241c6125fa565b5b8360020a915084821115612434576124336125fa565b5b50612499565b5060208310610133831016604e8410600b841016171561246f5782820a90508381111561246a576124696125fa565b5b612499565b61247c848484600161232f565b92509050818404811115612493576124926125fa565b5b81810290505b9392505050565b60006124ab8261257e565b91506124b68361257e565b9250817fffffffffffffffffffffffffffffffffffffffffffffffffffffffffffffffff04831182151516156124ef576124ee6125fa565b5b828202905092915050565b60006125058261257e565b91506125108361257e565b925082821015612523576125226125fa565b5b828203905092915050565b60006125398261255e565b9050919050565b600061254b8261255e565b9050919050565b60008115159050919050565b600073ffffffffffffffffffffffffffffffffffffffff82169050919050565b6000819050919050565b600060ff82169050919050565b60005b838110156125b3578082015181840152602081019050612598565b838111156125c2576000848401525b50505050565b600060028204905060018216806125e057607f821691505b602082108114156125f4576125f3612658565b5b50919050565b7f4e487b7100000000000000000000000000000000000000000000000000000000600052601160045260246000fd5b7f4e487b7100000000000000000000000000000000000000000000000000000000600052601260045260246000fd5b7f4e487b7100000000000000000000000000000000000000000000000000000000600052602260045260246000fd5b6000601f19601f8301169050919050565b60008160011c9050919050565b7f45524332303a207472616e7366657220746f20746865207a65726f206164647260008201527f6573730000000000000000000000000000000000000000000000000000000000602082015250565b7f4f776e61626c653a206e6577206f776e657220697320746865207a65726f206160008201527f6464726573730000000000000000000000000000000000000000000000000000602082015250565b7f45524332303a20617070726f766520746f20746865207a65726f20616464726560008201527f7373000000000000000000000000000000000000000000000000000000000000602082015250565b7f45524332303a20696e73756666696369656e7420616c6c6f77616e6365000000600082015250565b7f45524332303a207472616e7366657220616d6f756e742065786365656473206260008201527f616c616e63650000000000000000000000000000000000000000000000000000602082015250565b7f426c61636b6c6973746564206164647265737300000000000000000000000000600082015250565b7f5465616d2057616c6c657420416c726561647920537570706c69656400000000600082015250565b7f4f776e61626c653a2063616c6c6572206973206e6f7420746865206f776e6572600082015250565b7f5661756c742057616c6c657420416c726561647920537570706c696564000000600082015250565b7f45524332303a207472616e736665722066726f6d20746865207a65726f20616460008201527f6472657373000000000000000000000000000000000000000000000000000000602082015250565b7f45524332303a20617070726f76652066726f6d20746865207a65726f2061646460008201527f7265737300000000000000000000000000000000000000000000000000000000602082015250565b7f45524332303a2064656372656173656420616c6c6f77616e63652062656c6f7760008201527f207a65726f000000000000000000000000000000000000000000000000000000602082015250565b6129a48161252e565b81146129af57600080fd5b50565b6129bb81612540565b81146129c657600080fd5b50565b6129d281612552565b81146129dd57600080fd5b50565b6129e98161257e565b81146129f457600080fd5b50565b612a0081612588565b8114612a0b57600080fd5b5056fea2646970667358221220ab912ede3beffa7b58af2aeec28364f098ee0a9e9e29b2461c6ccc947c3ec84864736f6c63430008040033",
  "linkReferences": {},
  "deployedLinkReferences": {}
}