{
  "_format": "hh-sol-artifact-1",
  "contractName": "PeachToken",
  "sourceName": "contracts/PeachToken.sol",
  "abi": [
    {
      "inputs": [
        {
          "internalType": "address payable",
          "name": "_treasuryPool",
          "type": "address"
        },
        {
          "internalType": "address payable",
          "name": "_teamPool",
          "type": "address"
        }
      ],
      "stateMutability": "nonpayable",
      "type": "constructor"
    },
    {
      "anonymous": false,
      "inputs": [
        {
          "indexed": true,
          "internalType": "address",
          "name": "owner",
          "type": "address"
        },
        {
          "indexed": true,
          "internalType": "address",
          "name": "spender",
          "type": "address"
        },
        {
          "indexed": false,
          "internalType": "uint256",
          "name": "value",
          "type": "uint256"
        }
      ],
      "name": "Approval",
      "type": "event"
    },
    {
      "anonymous": false,
      "inputs": [
        {
          "indexed": false,
          "internalType": "address",
          "name": "account",
          "type": "address"
        }
      ],
      "name": "ExcludeAccountFromFee",
      "type": "event"
    },
    {
      "anonymous": false,
      "inputs": [
        {
          "indexed": false,
          "internalType": "address",
          "name": "account",
          "type": "address"
        }
      ],
      "name": "IncludeAccountInFee",
      "type": "event"
    },
    {
      "anonymous": false,
      "inputs": [
        {
          "indexed": true,
          "internalType": "address",
          "name": "previousOwner",
          "type": "address"
        },
        {
          "indexed": true,
          "internalType": "address",
          "name": "newOwner",
          "type": "address"
        }
      ],
      "name": "OwnershipTransferred",
      "type": "event"
    },
    {
      "anonymous": false,
      "inputs": [
        {
          "indexed": true,
          "internalType": "address",
          "name": "from",
          "type": "address"
        },
        {
          "indexed": true,
          "internalType": "address",
          "name": "to",
          "type": "address"
        },
        {
          "indexed": false,
          "internalType": "uint256",
          "name": "value",
          "type": "uint256"
        }
      ],
      "name": "Transfer",
      "type": "event"
    },
    {
      "inputs": [
        {
          "internalType": "address",
          "name": "",
          "type": "address"
        }
      ],
      "name": "_isBlacklisted",
      "outputs": [
        {
          "internalType": "bool",
          "name": "",
          "type": "bool"
        }
      ],
      "stateMutability": "view",
      "type": "function"
    },
    {
      "inputs": [
        {
          "internalType": "address",
          "name": "owner",
          "type": "address"
        },
        {
          "internalType": "address",
          "name": "spender",
          "type": "address"
        }
      ],
      "name": "allowance",
      "outputs": [
        {
          "internalType": "uint256",
          "name": "",
          "type": "uint256"
        }
      ],
      "stateMutability": "view",
      "type": "function"
    },
    {
      "inputs": [
        {
          "internalType": "address",
          "name": "spender",
          "type": "address"
        },
        {
          "internalType": "uint256",
          "name": "amount",
          "type": "uint256"
        }
      ],
      "name": "approve",
      "outputs": [
        {
          "internalType": "bool",
          "name": "",
          "type": "bool"
        }
      ],
      "stateMutability": "nonpayable",
      "type": "function"
    },
    {
      "inputs": [
        {
          "internalType": "address",
          "name": "account",
          "type": "address"
        }
      ],
      "name": "balanceOf",
      "outputs": [
        {
          "internalType": "uint256",
          "name": "",
          "type": "uint256"
        }
      ],
      "stateMutability": "view",
      "type": "function"
    },
    {
      "inputs": [
        {
          "internalType": "address",
          "name": "account",
          "type": "address"
        },
        {
          "internalType": "bool",
          "name": "value",
          "type": "bool"
        }
      ],
      "name": "blacklistMalicious",
      "outputs": [],
      "stateMutability": "nonpayable",
      "type": "function"
    },
    {
      "inputs": [],
      "name": "decimals",
      "outputs": [
        {
          "internalType": "uint8",
          "name": "",
          "type": "uint8"
        }
      ],
      "stateMutability": "view",
      "type": "function"
    },
    {
      "inputs": [
        {
          "internalType": "address",
          "name": "spender",
          "type": "address"
        },
        {
          "internalType": "uint256",
          "name": "subtractedValue",
          "type": "uint256"
        }
      ],
      "name": "decreaseAllowance",
      "outputs": [
        {
          "internalType": "bool",
          "name": "",
          "type": "bool"
        }
      ],
      "stateMutability": "nonpayable",
      "type": "function"
    },
    {
      "inputs": [
        {
          "internalType": "address",
          "name": "account",
          "type": "address"
        }
      ],
      "name": "excludeAccountFromFee",
      "outputs": [],
      "stateMutability": "nonpayable",
      "type": "function"
    },
    {
      "inputs": [
        {
          "internalType": "address",
          "name": "account",
          "type": "address"
        }
      ],
      "name": "includeAccountInFee",
      "outputs": [],
      "stateMutability": "nonpayable",
      "type": "function"
    },
    {
      "inputs": [
        {
          "internalType": "address",
          "name": "spender",
          "type": "address"
        },
        {
          "internalType": "uint256",
          "name": "addedValue",
          "type": "uint256"
        }
      ],
      "name": "increaseAllowance",
      "outputs": [
        {
          "internalType": "bool",
          "name": "",
          "type": "bool"
        }
      ],
      "stateMutability": "nonpayable",
      "type": "function"
    },
    {
      "inputs": [
        {
          "internalType": "address",
          "name": "account",
          "type": "address"
        }
      ],
      "name": "isExcludedFromFee",
      "outputs": [
        {
          "internalType": "bool",
          "name": "",
          "type": "bool"
        }
      ],
      "stateMutability": "view",
      "type": "function"
    },
    {
      "inputs": [],
      "name": "lockInTeamWallet",
      "outputs": [],
      "stateMutability": "nonpayable",
      "type": "function"
    },
    {
      "inputs": [
        {
          "internalType": "address payable",
          "name": "recipient",
          "type": "address"
        }
      ],
      "name": "lockInVaultWallet",
      "outputs": [],
      "stateMutability": "nonpayable",
      "type": "function"
    },
    {
      "inputs": [],
      "name": "name",
      "outputs": [
        {
          "internalType": "string",
          "name": "",
          "type": "string"
        }
      ],
      "stateMutability": "view",
      "type": "function"
    },
    {
      "inputs": [],
      "name": "owner",
      "outputs": [
        {
          "internalType": "address",
          "name": "",
          "type": "address"
        }
      ],
      "stateMutability": "view",
      "type": "function"
    },
    {
      "inputs": [],
      "name": "renounceOwnership",
      "outputs": [],
      "stateMutability": "nonpayable",
      "type": "function"
    },
    {
      "inputs": [],
      "name": "symbol",
      "outputs": [
        {
          "internalType": "string",
          "name": "",
          "type": "string"
        }
      ],
      "stateMutability": "view",
      "type": "function"
    },
    {
      "inputs": [],
      "name": "teamPool",
      "outputs": [
        {
          "internalType": "address payable",
          "name": "",
          "type": "address"
        }
      ],
      "stateMutability": "view",
      "type": "function"
    },
    {
      "inputs": [],
      "name": "totalSupply",
      "outputs": [
        {
          "internalType": "uint256",
          "name": "",
          "type": "uint256"
        }
      ],
      "stateMutability": "view",
      "type": "function"
    },
    {
      "inputs": [
        {
          "internalType": "address",
          "name": "recipient",
          "type": "address"
        },
        {
          "internalType": "uint256",
          "name": "amount",
          "type": "uint256"
        }
      ],
      "name": "transfer",
      "outputs": [
        {
          "internalType": "bool",
          "name": "",
          "type": "bool"
        }
      ],
      "stateMutability": "nonpayable",
      "type": "function"
    },
    {
      "inputs": [
        {
          "internalType": "address",
          "name": "from",
          "type": "address"
        },
        {
          "internalType": "address",
          "name": "to",
          "type": "address"
        },
        {
          "internalType": "uint256",
          "name": "amount",
          "type": "uint256"
        }
      ],
      "name": "transferFrom",
      "outputs": [
        {
          "internalType": "bool",
          "name": "",
          "type": "bool"
        }
      ],
      "stateMutability": "nonpayable",
      "type": "function"
    },
    {
      "inputs": [
        {
          "internalType": "address",
          "name": "newOwner",
          "type": "address"
        }
      ],
      "name": "transferOwnership",
      "outputs": [],
      "stateMutability": "nonpayable",
      "type": "function"
    },
    {
      "inputs": [],
      "name": "treasuryFee",
      "outputs": [
        {
          "internalType": "uint8",
          "name": "",
          "type": "uint8"
        }
      ],
      "stateMutability": "view",
      "type": "function"
    },
    {
      "inputs": [],
      "name": "treasuryPool",
      "outputs": [
        {
          "internalType": "address payable",
          "name": "",
          "type": "address"
        }
      ],
      "stateMutability": "view",
      "type": "function"
    },
    {
      "inputs": [
        {
          "internalType": "uint8",
          "name": "value",
          "type": "uint8"
        }
      ],
      "name": "updateTreasuryFee",
      "outputs": [],
      "stateMutability": "nonpayable",
      "type": "function"
    },
    {
      "inputs": [
        {
          "internalType": "address payable",
          "name": "pool",
          "type": "address"
        }
      ],
      "name": "updateTreasuryPool",
      "outputs": [],
      "stateMutability": "nonpayable",
      "type": "function"
    },
    {
      "inputs": [],
      "name": "vault",
      "outputs": [
        {
          "internalType": "address payable",
          "name": "",
          "type": "address"
        }
      ],
      "stateMutability": "view",
      "type": "function"
    },
    {
      "stateMutability": "payable",
      "type": "receive"
    }
  ],
  "bytecode": "0x608060405273b31f66aa3c1e785363f0875a1b74e27b85fd66c7600860006101000a81548173ffffffffffffffffffffffffffffffffffffffff021916908373ffffffffffffffffffffffffffffffffffffffff16021790555061dead600960006101000a81548173ffffffffffffffffffffffffffffffffffffffff021916908373ffffffffffffffffffffffffffffffffffffffff160217905550621e8480600b556012600c60006101000a81548160ff021916908360ff160217905550600c60009054906101000a900460ff16600a620000dd919062000ce0565b600b54620000ec919062000e1d565b600d55614e20600b5462000101919062000c4d565b600e556103e86005600b5462000118919062000e1d565b62000124919062000c4d565b600f55620186a0601055620f42406011556000601260006101000a81548160ff0219169083151502179055506000601260016101000a81548160ff02191690831515021790555060326014806101000a81548160ff021916908360ff1602179055503480156200019357600080fd5b5060405162003cc038038062003cc08339818101604052810190620001b9919062000a67565b6040518060400160405280600a81526020017f5045414348204e4f4445000000000000000000000000000000000000000000008152506040518060400160405280600581526020017f504541434800000000000000000000000000000000000000000000000000000081525081600390805190602001906200023d929190620009a0565b50806004908051906020019062000256929190620009a0565b505050620002796200026d6200057260201b60201c565b6200057a60201b60201c565b60016006819055508181600073ffffffffffffffffffffffffffffffffffffffff168273ffffffffffffffffffffffffffffffffffffffff161415620002be57600080fd5b600073ffffffffffffffffffffffffffffffffffffffff168173ffffffffffffffffffffffffffffffffffffffff161415620002f957600080fd5b620003096200057260201b60201c565b600760006101000a81548173ffffffffffffffffffffffffffffffffffffffff021916908373ffffffffffffffffffffffffffffffffffffffff16021790555083601260026101000a81548173ffffffffffffffffffffffffffffffffffffffff021916908373ffffffffffffffffffffffffffffffffffffffff16021790555082601360006101000a81548173ffffffffffffffffffffffffffffffffffffffff021916908373ffffffffffffffffffffffffffffffffffffffff160217905550620003ee620003df6200057260201b60201c565b600d546200064060201b60201c565b6200040e620004026200057260201b60201c565b620007b960201b60201c565b6200041f30620007b960201b60201c565b62000452601260029054906101000a900473ffffffffffffffffffffffffffffffffffffffff16620007b960201b60201c565b62000485601360009054906101000a900473ffffffffffffffffffffffffffffffffffffffff16620007b960201b60201c565b620004956200057260201b60201c565b73ffffffffffffffffffffffffffffffffffffffff16600073ffffffffffffffffffffffffffffffffffffffff167fddf252ad1be2c89b69c2b068fc378daa952ba7f163c4a11628f55a4df523b3ef600d54604051620004f6919062000bc2565b60405180910390a36200050e6200057260201b60201c565b73ffffffffffffffffffffffffffffffffffffffff16600073ffffffffffffffffffffffffffffffffffffffff167f8be0079c531659141344cd1fd0a4f28419497f9722a3daafe3b4186f6b6457e060405160405180910390a35050505062001042565b600033905090565b6000600560009054906101000a900473ffffffffffffffffffffffffffffffffffffffff16905081600560006101000a81548173ffffffffffffffffffffffffffffffffffffffff021916908373ffffffffffffffffffffffffffffffffffffffff1602179055508173ffffffffffffffffffffffffffffffffffffffff168173ffffffffffffffffffffffffffffffffffffffff167f8be0079c531659141344cd1fd0a4f28419497f9722a3daafe3b4186f6b6457e060405160405180910390a35050565b600073ffffffffffffffffffffffffffffffffffffffff168273ffffffffffffffffffffffffffffffffffffffff161415620006b3576040517f08c379a0000000000000000000000000000000000000000000000000000000008152600401620006aa9062000ba0565b60405180910390fd5b620006c7600083836200096c60201b60201c565b8060026000828254620006db919062000bf0565b92505081905550806000808473ffffffffffffffffffffffffffffffffffffffff1673ffffffffffffffffffffffffffffffffffffffff168152602001908152602001600020600082825462000732919062000bf0565b925050819055508173ffffffffffffffffffffffffffffffffffffffff16600073ffffffffffffffffffffffffffffffffffffffff167fddf252ad1be2c89b69c2b068fc378daa952ba7f163c4a11628f55a4df523b3ef8360405162000799919062000bc2565b60405180910390a3620007b5600083836200097160201b60201c565b5050565b620007c96200057260201b60201c565b73ffffffffffffffffffffffffffffffffffffffff16620007ef6200097660201b60201c565b73ffffffffffffffffffffffffffffffffffffffff161462000848576040517f08c379a00000000000000000000000000000000000000000000000000000000081526004016200083f9062000b7e565b60405180910390fd5b601660008273ffffffffffffffffffffffffffffffffffffffff1673ffffffffffffffffffffffffffffffffffffffff16815260200190815260200160002060009054906101000a900460ff1615620008d8576040517f08c379a0000000000000000000000000000000000000000000000000000000008152600401620008cf9062000b5c565b60405180910390fd5b6001601660008373ffffffffffffffffffffffffffffffffffffffff1673ffffffffffffffffffffffffffffffffffffffff16815260200190815260200160002060006101000a81548160ff0219169083151502179055507f7e35d6b74d35c333860340884eeca4e63b18cb9d73ce17a147a1952654365b5e8160405162000961919062000b3f565b60405180910390a150565b505050565b505050565b6000600560009054906101000a900473ffffffffffffffffffffffffffffffffffffffff16905090565b828054620009ae9062000edd565b90600052602060002090601f016020900481019282620009d2576000855562000a1e565b82601f10620009ed57805160ff191683800117855562000a1e565b8280016001018555821562000a1e579182015b8281111562000a1d57825182559160200191906001019062000a00565b5b50905062000a2d919062000a31565b5090565b5b8082111562000a4c57600081600090555060010162000a32565b5090565b60008151905062000a618162001028565b92915050565b6000806040838503121562000a7b57600080fd5b600062000a8b8582860162000a50565b925050602062000a9e8582860162000a50565b9150509250929050565b62000ab38162000e7e565b82525050565b600062000ac8601c8362000bdf565b915062000ad58262000fad565b602082019050919050565b600062000aef60208362000bdf565b915062000afc8262000fd6565b602082019050919050565b600062000b16601f8362000bdf565b915062000b238262000fff565b602082019050919050565b62000b398162000ec6565b82525050565b600060208201905062000b56600083018462000aa8565b92915050565b6000602082019050818103600083015262000b778162000ab9565b9050919050565b6000602082019050818103600083015262000b998162000ae0565b9050919050565b6000602082019050818103600083015262000bbb8162000b07565b9050919050565b600060208201905062000bd9600083018462000b2e565b92915050565b600082825260208201905092915050565b600062000bfd8262000ec6565b915062000c0a8362000ec6565b9250827fffffffffffffffffffffffffffffffffffffffffffffffffffffffffffffffff0382111562000c425762000c4162000f13565b5b828201905092915050565b600062000c5a8262000ec6565b915062000c678362000ec6565b92508262000c7a5762000c7962000f42565b5b828204905092915050565b6000808291508390505b600185111562000cd75780860481111562000caf5762000cae62000f13565b5b600185161562000cbf5780820291505b808102905062000ccf8562000fa0565b945062000c8f565b94509492505050565b600062000ced8262000ec6565b915062000cfa8362000ed0565b925062000d297fffffffffffffffffffffffffffffffffffffffffffffffffffffffffffffffff848462000d31565b905092915050565b60008262000d43576001905062000e16565b8162000d53576000905062000e16565b816001811462000d6c576002811462000d775762000dad565b600191505062000e16565b60ff84111562000d8c5762000d8b62000f13565b5b8360020a91508482111562000da65762000da562000f13565b5b5062000e16565b5060208310610133831016604e8410600b841016171562000de75782820a90508381111562000de15762000de062000f13565b5b62000e16565b62000df6848484600162000c85565b9250905081840481111562000e105762000e0f62000f13565b5b81810290505b9392505050565b600062000e2a8262000ec6565b915062000e378362000ec6565b9250817fffffffffffffffffffffffffffffffffffffffffffffffffffffffffffffffff048311821515161562000e735762000e7262000f13565b5b828202905092915050565b600062000e8b8262000ea6565b9050919050565b600062000e9f8262000ea6565b9050919050565b600073ffffffffffffffffffffffffffffffffffffffff82169050919050565b6000819050919050565b600060ff82169050919050565b6000600282049050600182168062000ef657607f821691505b6020821081141562000f0d5762000f0c62000f71565b5b50919050565b7f4e487b7100000000000000000000000000000000000000000000000000000000600052601160045260246000fd5b7f4e487b7100000000000000000000000000000000000000000000000000000000600052601260045260246000fd5b7f4e487b7100000000000000000000000000000000000000000000000000000000600052602260045260246000fd5b60008160011c9050919050565b7f4163636f756e7420697320616c7265616479206578636c756465642e00000000600082015250565b7f4f776e61626c653a2063616c6c6572206973206e6f7420746865206f776e6572600082015250565b7f45524332303a206d696e7420746f20746865207a65726f206164647265737300600082015250565b620010338162000e92565b81146200103f57600080fd5b50565b612c6e80620010526000396000f3fe6080604052600436106101a05760003560e01c80638da5cb5b116100ec578063cc32d1761161008a578063daa9334111610064578063daa93341146105e7578063dd62ed3e14610610578063f2fde38b1461064d578063fbfa77cf14610676576101a7565b8063cc32d1761461056a578063d6b4212b14610595578063d8929342146105be576101a7565b8063a5d13c48116100c6578063a5d13c48146104c4578063a9059cbb146104ed578063b14a1e8e1461052a578063cbf6b84d14610553576101a7565b80638da5cb5b1461043157806395d89b411461045c578063a457c2d714610487576101a7565b8063313ce5671161015957806348df58291161013357806348df5829146103755780635342acb4146103a057806370a08231146103dd578063715018a61461041a576101a7565b8063313ce567146102e2578063395093511461030d578063396365041461034a576101a7565b806306fdde03146101ac578063095ea7b3146101d757806318160ddd146102145780631cdd3be31461023f57806323b872dd1461027c5780632deef284146102b9576101a7565b366101a757005b600080fd5b3480156101b857600080fd5b506101c16106a1565b6040516101ce91906122de565b60405180910390f35b3480156101e357600080fd5b506101fe60048036038101906101f99190612000565b610733565b60405161020b91906122c3565b60405180910390f35b34801561022057600080fd5b50610229610756565b6040516102369190612480565b60405180910390f35b34801561024b57600080fd5b5061026660048036038101906102619190611ee7565b610760565b60405161027391906122c3565b60405180910390f35b34801561028857600080fd5b506102a3600480360381019061029e9190611f75565b610780565b6040516102b091906122c3565b60405180910390f35b3480156102c557600080fd5b506102e060048036038101906102db919061203c565b6107af565b005b3480156102ee57600080fd5b506102f7610848565b604051610304919061249b565b60405180910390f35b34801561031957600080fd5b50610334600480360381019061032f9190612000565b610851565b60405161034191906122c3565b60405180910390f35b34801561035657600080fd5b5061035f6108fb565b60405161036c91906122a8565b60405180910390f35b34801561038157600080fd5b5061038a610921565b60405161039791906122a8565b60405180910390f35b3480156103ac57600080fd5b506103c760048036038101906103c29190611ee7565b610947565b6040516103d491906122c3565b60405180910390f35b3480156103e957600080fd5b5061040460048036038101906103ff9190611ee7565b61099d565b6040516104119190612480565b60405180910390f35b34801561042657600080fd5b5061042f6109e5565b005b34801561043d57600080fd5b50610446610a6d565b604051610453919061228d565b60405180910390f35b34801561046857600080fd5b50610471610a97565b60405161047e91906122de565b60405180910390f35b34801561049357600080fd5b506104ae60048036038101906104a99190612000565b610b29565b6040516104bb91906122c3565b60405180910390f35b3480156104d057600080fd5b506104eb60048036038101906104e69190611f10565b610c13565b005b3480156104f957600080fd5b50610514600480360381019061050f9190612000565b610d3d565b60405161052191906122c3565b60405180910390f35b34801561053657600080fd5b50610551600480360381019061054c9190611f10565b610d5b565b005b34801561055f57600080fd5b50610568610e1b565b005b34801561057657600080fd5b5061057f610f03565b60405161058c919061249b565b60405180910390f35b3480156105a157600080fd5b506105bc60048036038101906105b79190611ee7565b610f14565b005b3480156105ca57600080fd5b506105e560048036038101906105e09190611fc4565b6110af565b005b3480156105f357600080fd5b5061060e60048036038101906106099190611ee7565b611186565b005b34801561061c57600080fd5b5061063760048036038101906106329190611f39565b611320565b6040516106449190612480565b60405180910390f35b34801561065957600080fd5b50610674600480360381019061066f9190611ee7565b6113a7565b005b34801561068257600080fd5b5061068b61149f565b60405161069891906122a8565b60405180910390f35b6060600380546106b0906127f2565b80601f01602080910402602001604051908101604052809291908181526020018280546106dc906127f2565b80156107295780601f106106fe57610100808354040283529160200191610729565b820191906000526020600020905b81548152906001019060200180831161070c57829003601f168201915b5050505050905090565b60008061073e6114c5565b905061074b8185856114cd565b600191505092915050565b6000600254905090565b60156020528060005260406000206000915054906101000a900460ff1681565b60008061078b6114c5565b9050610798858285611698565b6107a3858585611724565b60019150509392505050565b6107b76114c5565b73ffffffffffffffffffffffffffffffffffffffff166107d5610a6d565b73ffffffffffffffffffffffffffffffffffffffff161461082b576040517f08c379a000000000000000000000000000000000000000000000000000000000815260040161082290612400565b60405180910390fd5b806014806101000a81548160ff021916908360ff16021790555050565b60006012905090565b60008061085c6114c5565b90506108f0818585600160008673ffffffffffffffffffffffffffffffffffffffff1673ffffffffffffffffffffffffffffffffffffffff16815260200190815260200160002060008973ffffffffffffffffffffffffffffffffffffffff1673ffffffffffffffffffffffffffffffffffffffff168152602001908152602001600020546108eb91906124d2565b6114cd565b600191505092915050565b601360009054906101000a900473ffffffffffffffffffffffffffffffffffffffff1681565b601260029054906101000a900473ffffffffffffffffffffffffffffffffffffffff1681565b6000601660008373ffffffffffffffffffffffffffffffffffffffff1673ffffffffffffffffffffffffffffffffffffffff16815260200190815260200160002060009054906101000a900460ff169050919050565b60008060008373ffffffffffffffffffffffffffffffffffffffff1673ffffffffffffffffffffffffffffffffffffffff168152602001908152602001600020549050919050565b6109ed6114c5565b73ffffffffffffffffffffffffffffffffffffffff16610a0b610a6d565b73ffffffffffffffffffffffffffffffffffffffff1614610a61576040517f08c379a0000000000000000000000000000000000000000000000000000000008152600401610a5890612400565b60405180910390fd5b610a6b6000611a40565b565b6000600560009054906101000a900473ffffffffffffffffffffffffffffffffffffffff16905090565b606060048054610aa6906127f2565b80601f0160208091040260200160405190810160405280929190818152602001828054610ad2906127f2565b8015610b1f5780601f10610af457610100808354040283529160200191610b1f565b820191906000526020600020905b815481529060010190602001808311610b0257829003601f168201915b5050505050905090565b600080610b346114c5565b90506000600160008373ffffffffffffffffffffffffffffffffffffffff1673ffffffffffffffffffffffffffffffffffffffff16815260200190815260200160002060008673ffffffffffffffffffffffffffffffffffffffff1673ffffffffffffffffffffffffffffffffffffffff16815260200190815260200160002054905083811015610bfa576040517f08c379a0000000000000000000000000000000000000000000000000000000008152600401610bf190612460565b60405180910390fd5b610c0782868684036114cd565b60019250505092915050565b610c1b6114c5565b73ffffffffffffffffffffffffffffffffffffffff16610c39610a6d565b73ffffffffffffffffffffffffffffffffffffffff1614610c8f576040517f08c379a0000000000000000000000000000000000000000000000000000000008152600401610c8690612400565b60405180910390fd5b60001515601260019054906101000a900460ff16151514610caf57600080fd5b80601460006101000a81548173ffffffffffffffffffffffffffffffffffffffff021916908373ffffffffffffffffffffffffffffffffffffffff1602179055506001601260016101000a81548160ff021916908315150217905550610d39601460009054906101000a900473ffffffffffffffffffffffffffffffffffffffff16601154610d3d565b5050565b6000610d51610d4a6114c5565b8484611724565b6001905092915050565b610d636114c5565b73ffffffffffffffffffffffffffffffffffffffff16610d81610a6d565b73ffffffffffffffffffffffffffffffffffffffff1614610dd7576040517f08c379a0000000000000000000000000000000000000000000000000000000008152600401610dce90612400565b60405180910390fd5b80601260026101000a81548173ffffffffffffffffffffffffffffffffffffffff021916908373ffffffffffffffffffffffffffffffffffffffff16021790555050565b610e236114c5565b73ffffffffffffffffffffffffffffffffffffffff16610e41610a6d565b73ffffffffffffffffffffffffffffffffffffffff1614610e97576040517f08c379a0000000000000000000000000000000000000000000000000000000008152600401610e8e90612400565b60405180910390fd5b60001515601260009054906101000a900460ff16151514610eb757600080fd5b6001601260006101000a81548160ff021916908315150217905550610f00601360009054906101000a900473ffffffffffffffffffffffffffffffffffffffff16601054610d3d565b50565b60148054906101000a900460ff1681565b610f1c6114c5565b73ffffffffffffffffffffffffffffffffffffffff16610f3a610a6d565b73ffffffffffffffffffffffffffffffffffffffff1614610f90576040517f08c379a0000000000000000000000000000000000000000000000000000000008152600401610f8790612400565b60405180910390fd5b601660008273ffffffffffffffffffffffffffffffffffffffff1673ffffffffffffffffffffffffffffffffffffffff16815260200190815260200160002060009054906101000a900460ff161561101d576040517f08c379a0000000000000000000000000000000000000000000000000000000008152600401611014906123c0565b60405180910390fd5b6001601660008373ffffffffffffffffffffffffffffffffffffffff1673ffffffffffffffffffffffffffffffffffffffff16815260200190815260200160002060006101000a81548160ff0219169083151502179055507f7e35d6b74d35c333860340884eeca4e63b18cb9d73ce17a147a1952654365b5e816040516110a4919061228d565b60405180910390a150565b6110b76114c5565b73ffffffffffffffffffffffffffffffffffffffff166110d5610a6d565b73ffffffffffffffffffffffffffffffffffffffff161461112b576040517f08c379a000000000000000000000000000000000000000000000000000000000815260040161112290612400565b60405180910390fd5b80601560008473ffffffffffffffffffffffffffffffffffffffff1673ffffffffffffffffffffffffffffffffffffffff16815260200190815260200160002060006101000a81548160ff0219169083151502179055505050565b61118e6114c5565b73ffffffffffffffffffffffffffffffffffffffff166111ac610a6d565b73ffffffffffffffffffffffffffffffffffffffff1614611202576040517f08c379a00000000000000000000000000000000000000000000000000000000081526004016111f990612400565b60405180910390fd5b601660008273ffffffffffffffffffffffffffffffffffffffff1673ffffffffffffffffffffffffffffffffffffffff16815260200190815260200160002060009054906101000a900460ff1661128e576040517f08c379a000000000000000000000000000000000000000000000000000000000815260040161128590612360565b60405180910390fd5b6000601660008373ffffffffffffffffffffffffffffffffffffffff1673ffffffffffffffffffffffffffffffffffffffff16815260200190815260200160002060006101000a81548160ff0219169083151502179055507fc782889d4eb26c6effaa6305a7075c22c2a6e2919ddf49a4a851fecf59cfc75f81604051611315919061228d565b60405180910390a150565b6000600160008473ffffffffffffffffffffffffffffffffffffffff1673ffffffffffffffffffffffffffffffffffffffff16815260200190815260200160002060008373ffffffffffffffffffffffffffffffffffffffff1673ffffffffffffffffffffffffffffffffffffffff16815260200190815260200160002054905092915050565b6113af6114c5565b73ffffffffffffffffffffffffffffffffffffffff166113cd610a6d565b73ffffffffffffffffffffffffffffffffffffffff1614611423576040517f08c379a000000000000000000000000000000000000000000000000000000000815260040161141a90612400565b60405180910390fd5b600073ffffffffffffffffffffffffffffffffffffffff168173ffffffffffffffffffffffffffffffffffffffff161415611493576040517f08c379a000000000000000000000000000000000000000000000000000000000815260040161148a90612320565b60405180910390fd5b61149c81611a40565b50565b601460009054906101000a900473ffffffffffffffffffffffffffffffffffffffff1681565b600033905090565b600073ffffffffffffffffffffffffffffffffffffffff168373ffffffffffffffffffffffffffffffffffffffff16141561153d576040517f08c379a000000000000000000000000000000000000000000000000000000000815260040161153490612440565b60405180910390fd5b600073ffffffffffffffffffffffffffffffffffffffff168273ffffffffffffffffffffffffffffffffffffffff1614156115ad576040517f08c379a00000000000000000000000000000000000000000000000000000000081526004016115a490612340565b60405180910390fd5b80600160008573ffffffffffffffffffffffffffffffffffffffff1673ffffffffffffffffffffffffffffffffffffffff16815260200190815260200160002060008473ffffffffffffffffffffffffffffffffffffffff1673ffffffffffffffffffffffffffffffffffffffff168152602001908152602001600020819055508173ffffffffffffffffffffffffffffffffffffffff168373ffffffffffffffffffffffffffffffffffffffff167f8c5be1e5ebec7d5bd14f71427d1e84f3dd0314c0f7b2291e5b200ac8c7c3b9258360405161168b9190612480565b60405180910390a3505050565b60006116a48484611320565b90507fffffffffffffffffffffffffffffffffffffffffffffffffffffffffffffffff811461171e5781811015611710576040517f08c379a000000000000000000000000000000000000000000000000000000000815260040161170790612380565b60405180910390fd5b61171d84848484036114cd565b5b50505050565b8282600073ffffffffffffffffffffffffffffffffffffffff168273ffffffffffffffffffffffffffffffffffffffff16141561176057600080fd5b600073ffffffffffffffffffffffffffffffffffffffff168173ffffffffffffffffffffffffffffffffffffffff16141561179a57600080fd5b601560008673ffffffffffffffffffffffffffffffffffffffff1673ffffffffffffffffffffffffffffffffffffffff16815260200190815260200160002060009054906101000a900460ff1615801561183e5750601560008573ffffffffffffffffffffffffffffffffffffffff1673ffffffffffffffffffffffffffffffffffffffff16815260200190815260200160002060009054906101000a900460ff16155b61187d576040517f08c379a0000000000000000000000000000000000000000000000000000000008152600401611874906123e0565b60405180910390fd5b60006001905060006118db85601660008a73ffffffffffffffffffffffffffffffffffffffff1673ffffffffffffffffffffffffffffffffffffffff16815260200190815260200160002060009054906101000a900460ff16611b06565b9050601660008873ffffffffffffffffffffffffffffffffffffffff1673ffffffffffffffffffffffffffffffffffffffff16815260200190815260200160002060009054906101000a900460ff168061197e5750601660008773ffffffffffffffffffffffffffffffffffffffff1673ffffffffffffffffffffffffffffffffffffffff16815260200190815260200160002060009054906101000a900460ff165b1561198857600091505b81156119c757806040015194506119c687601260029054906101000a900473ffffffffffffffffffffffffffffffffffffffff168360200151611b34565b5b6119d2878787611b34565b8573ffffffffffffffffffffffffffffffffffffffff168773ffffffffffffffffffffffffffffffffffffffff167fddf252ad1be2c89b69c2b068fc378daa952ba7f163c4a11628f55a4df523b3ef87604051611a2f9190612480565b60405180910390a350505050505050565b6000600560009054906101000a900473ffffffffffffffffffffffffffffffffffffffff16905081600560006101000a81548173ffffffffffffffffffffffffffffffffffffffff021916908373ffffffffffffffffffffffffffffffffffffffff1602179055508173ffffffffffffffffffffffffffffffffffffffff168173ffffffffffffffffffffffffffffffffffffffff167f8be0079c531659141344cd1fd0a4f28419497f9722a3daafe3b4186f6b6457e060405160405180910390a35050565b611b0e611e5d565b611b16611e5d565b83816000018181525050611b2a8184611db5565b8091505092915050565b600073ffffffffffffffffffffffffffffffffffffffff168373ffffffffffffffffffffffffffffffffffffffff161415611ba4576040517f08c379a0000000000000000000000000000000000000000000000000000000008152600401611b9b90612420565b60405180910390fd5b600073ffffffffffffffffffffffffffffffffffffffff168273ffffffffffffffffffffffffffffffffffffffff161415611c14576040517f08c379a0000000000000000000000000000000000000000000000000000000008152600401611c0b90612300565b60405180910390fd5b611c1f838383611e16565b60008060008573ffffffffffffffffffffffffffffffffffffffff1673ffffffffffffffffffffffffffffffffffffffff16815260200190815260200160002054905081811015611ca5576040517f08c379a0000000000000000000000000000000000000000000000000000000008152600401611c9c906123a0565b60405180910390fd5b8181036000808673ffffffffffffffffffffffffffffffffffffffff1673ffffffffffffffffffffffffffffffffffffffff16815260200190815260200160002081905550816000808573ffffffffffffffffffffffffffffffffffffffff1673ffffffffffffffffffffffffffffffffffffffff1681526020019081526020016000206000828254611d3891906124d2565b925050819055508273ffffffffffffffffffffffffffffffffffffffff168473ffffffffffffffffffffffffffffffffffffffff167fddf252ad1be2c89b69c2b068fc378daa952ba7f163c4a11628f55a4df523b3ef84604051611d9c9190612480565b60405180910390a3611daf848484611e1b565b50505050565b8015611dce578160000151826040018181525050611e12565b611deb826000015160148054906101000a900460ff166000611e20565b82602001818152505081602001518260000151611e089190612724565b8260400181815250505b5050565b505050565b505050565b6000606482600a611e3191906125ac565b8460ff1686611e4091906126ca565b611e4a9190612528565b611e549190612528565b90509392505050565b60405180606001604052806000815260200160008152602001600081525090565b600081359050611e8d81612bc5565b92915050565b600081359050611ea281612bdc565b92915050565b600081359050611eb781612bf3565b92915050565b600081359050611ecc81612c0a565b92915050565b600081359050611ee181612c21565b92915050565b600060208284031215611ef957600080fd5b6000611f0784828501611e7e565b91505092915050565b600060208284031215611f2257600080fd5b6000611f3084828501611e93565b91505092915050565b60008060408385031215611f4c57600080fd5b6000611f5a85828601611e7e565b9250506020611f6b85828601611e7e565b9150509250929050565b600080600060608486031215611f8a57600080fd5b6000611f9886828701611e7e565b9350506020611fa986828701611e7e565b9250506040611fba86828701611ebd565b9150509250925092565b60008060408385031215611fd757600080fd5b6000611fe585828601611e7e565b9250506020611ff685828601611ea8565b9150509250929050565b6000806040838503121561201357600080fd5b600061202185828601611e7e565b925050602061203285828601611ebd565b9150509250929050565b60006020828403121561204e57600080fd5b600061205c84828501611ed2565b91505092915050565b61206e8161276a565b82525050565b61207d81612758565b82525050565b61208c8161277c565b82525050565b600061209d826124b6565b6120a781856124c1565b93506120b78185602086016127bf565b6120c0816128b1565b840191505092915050565b60006120d86023836124c1565b91506120e3826128cf565b604082019050919050565b60006120fb6026836124c1565b91506121068261291e565b604082019050919050565b600061211e6022836124c1565b91506121298261296d565b604082019050919050565b6000612141601c836124c1565b915061214c826129bc565b602082019050919050565b6000612164601d836124c1565b915061216f826129e5565b602082019050919050565b60006121876026836124c1565b915061219282612a0e565b604082019050919050565b60006121aa601c836124c1565b91506121b582612a5d565b602082019050919050565b60006121cd6013836124c1565b91506121d882612a86565b602082019050919050565b60006121f06020836124c1565b91506121fb82612aaf565b602082019050919050565b60006122136025836124c1565b915061221e82612ad8565b604082019050919050565b60006122366024836124c1565b915061224182612b27565b604082019050919050565b60006122596025836124c1565b915061226482612b76565b604082019050919050565b612278816127a8565b82525050565b612287816127b2565b82525050565b60006020820190506122a26000830184612074565b92915050565b60006020820190506122bd6000830184612065565b92915050565b60006020820190506122d86000830184612083565b92915050565b600060208201905081810360008301526122f88184612092565b905092915050565b60006020820190508181036000830152612319816120cb565b9050919050565b60006020820190508181036000830152612339816120ee565b9050919050565b6000602082019050818103600083015261235981612111565b9050919050565b6000602082019050818103600083015261237981612134565b9050919050565b6000602082019050818103600083015261239981612157565b9050919050565b600060208201905081810360008301526123b98161217a565b9050919050565b600060208201905081810360008301526123d98161219d565b9050919050565b600060208201905081810360008301526123f9816121c0565b9050919050565b60006020820190508181036000830152612419816121e3565b9050919050565b6000602082019050818103600083015261243981612206565b9050919050565b6000602082019050818103600083015261245981612229565b9050919050565b600060208201905081810360008301526124798161224c565b9050919050565b6000602082019050612495600083018461226f565b92915050565b60006020820190506124b0600083018461227e565b92915050565b600081519050919050565b600082825260208201905092915050565b60006124dd826127a8565b91506124e8836127a8565b9250827fffffffffffffffffffffffffffffffffffffffffffffffffffffffffffffffff0382111561251d5761251c612824565b5b828201905092915050565b6000612533826127a8565b915061253e836127a8565b92508261254e5761254d612853565b5b828204905092915050565b6000808291508390505b60018511156125a35780860481111561257f5761257e612824565b5b600185161561258e5780820291505b808102905061259c856128c2565b9450612563565b94509492505050565b60006125b7826127a8565b91506125c2836127b2565b92506125ef7fffffffffffffffffffffffffffffffffffffffffffffffffffffffffffffffff84846125f7565b905092915050565b60008261260757600190506126c3565b8161261557600090506126c3565b816001811461262b576002811461263557612664565b60019150506126c3565b60ff84111561264757612646612824565b5b8360020a91508482111561265e5761265d612824565b5b506126c3565b5060208310610133831016604e8410600b84101617156126995782820a90508381111561269457612693612824565b5b6126c3565b6126a68484846001612559565b925090508184048111156126bd576126bc612824565b5b81810290505b9392505050565b60006126d5826127a8565b91506126e0836127a8565b9250817fffffffffffffffffffffffffffffffffffffffffffffffffffffffffffffffff048311821515161561271957612718612824565b5b828202905092915050565b600061272f826127a8565b915061273a836127a8565b92508282101561274d5761274c612824565b5b828203905092915050565b600061276382612788565b9050919050565b600061277582612788565b9050919050565b60008115159050919050565b600073ffffffffffffffffffffffffffffffffffffffff82169050919050565b6000819050919050565b600060ff82169050919050565b60005b838110156127dd5780820151818401526020810190506127c2565b838111156127ec576000848401525b50505050565b6000600282049050600182168061280a57607f821691505b6020821081141561281e5761281d612882565b5b50919050565b7f4e487b7100000000000000000000000000000000000000000000000000000000600052601160045260246000fd5b7f4e487b7100000000000000000000000000000000000000000000000000000000600052601260045260246000fd5b7f4e487b7100000000000000000000000000000000000000000000000000000000600052602260045260246000fd5b6000601f19601f8301169050919050565b60008160011c9050919050565b7f45524332303a207472616e7366657220746f20746865207a65726f206164647260008201527f6573730000000000000000000000000000000000000000000000000000000000602082015250565b7f4f776e61626c653a206e6577206f776e657220697320746865207a65726f206160008201527f6464726573730000000000000000000000000000000000000000000000000000602082015250565b7f45524332303a20617070726f766520746f20746865207a65726f20616464726560008201527f7373000000000000000000000000000000000000000000000000000000000000602082015250565b7f4163636f756e7420697320616c726561647920696e636c756465642e00000000600082015250565b7f45524332303a20696e73756666696369656e7420616c6c6f77616e6365000000600082015250565b7f45524332303a207472616e7366657220616d6f756e742065786365656473206260008201527f616c616e63650000000000000000000000000000000000000000000000000000602082015250565b7f4163636f756e7420697320616c7265616479206578636c756465642e00000000600082015250565b7f426c61636b6c6973746564206164647265737300000000000000000000000000600082015250565b7f4f776e61626c653a2063616c6c6572206973206e6f7420746865206f776e6572600082015250565b7f45524332303a207472616e736665722066726f6d20746865207a65726f20616460008201527f6472657373000000000000000000000000000000000000000000000000000000602082015250565b7f45524332303a20617070726f76652066726f6d20746865207a65726f2061646460008201527f7265737300000000000000000000000000000000000000000000000000000000602082015250565b7f45524332303a2064656372656173656420616c6c6f77616e63652062656c6f7760008201527f207a65726f000000000000000000000000000000000000000000000000000000602082015250565b612bce81612758565b8114612bd957600080fd5b50565b612be58161276a565b8114612bf057600080fd5b50565b612bfc8161277c565b8114612c0757600080fd5b50565b612c13816127a8565b8114612c1e57600080fd5b50565b612c2a816127b2565b8114612c3557600080fd5b5056fea26469706673582212207c0598e0d7fdd3b913abea832ee8886e5d724407d801d6b7eddbff34cc17149364736f6c63430008040033",
  "linkReferences": {},
  "deployedLinkReferences": {}
}