{
  "_format": "hh-sol-artifact-1",
  "contractName": "NodeManager",
  "sourceName": "contracts/PeachNode.sol",
  "abi": [
    {
      "inputs": [],
      "stateMutability": "nonpayable",
      "type": "constructor"
    },
    {
      "inputs": [
        {
          "internalType": "address",
          "name": "account",
          "type": "address"
        }
      ],
      "name": "_cashoutAllNodesReward",
      "outputs": [
        {
          "internalType": "uint256",
          "name": "",
          "type": "uint256"
        }
      ],
      "stateMutability": "nonpayable",
      "type": "function"
    },
    {
      "inputs": [
        {
          "internalType": "address",
          "name": "account",
          "type": "address"
        },
        {
          "internalType": "uint256",
          "name": "_creationTime",
          "type": "uint256"
        }
      ],
      "name": "_cashoutNodeReward",
      "outputs": [
        {
          "internalType": "uint256",
          "name": "",
          "type": "uint256"
        }
      ],
      "stateMutability": "nonpayable",
      "type": "function"
    },
    {
      "inputs": [
        {
          "internalType": "bool",
          "name": "newMode",
          "type": "bool"
        }
      ],
      "name": "_changeAutoDistri",
      "outputs": [],
      "stateMutability": "nonpayable",
      "type": "function"
    },
    {
      "inputs": [
        {
          "internalType": "uint256",
          "name": "newTime",
          "type": "uint256"
        }
      ],
      "name": "_changeClaimTime",
      "outputs": [],
      "stateMutability": "nonpayable",
      "type": "function"
    },
    {
      "inputs": [
        {
          "internalType": "uint256",
          "name": "newGasDistri",
          "type": "uint256"
        }
      ],
      "name": "_changeGasDistri",
      "outputs": [],
      "stateMutability": "nonpayable",
      "type": "function"
    },
    {
      "inputs": [
        {
          "internalType": "uint256",
          "name": "newNodePrice",
          "type": "uint256"
        }
      ],
      "name": "_changeNodePrice",
      "outputs": [],
      "stateMutability": "nonpayable",
      "type": "function"
    },
    {
      "inputs": [
        {
          "internalType": "uint256",
          "name": "newPrice",
          "type": "uint256"
        }
      ],
      "name": "_changeRewardPerNode",
      "outputs": [],
      "stateMutability": "nonpayable",
      "type": "function"
    },
    {
      "inputs": [],
      "name": "_distributeRewards",
      "outputs": [
        {
          "internalType": "uint256",
          "name": "",
          "type": "uint256"
        },
        {
          "internalType": "uint256",
          "name": "",
          "type": "uint256"
        },
        {
          "internalType": "uint256",
          "name": "",
          "type": "uint256"
        }
      ],
      "stateMutability": "nonpayable",
      "type": "function"
    },
    {
      "inputs": [],
      "name": "_getClaimTime",
      "outputs": [
        {
          "internalType": "uint256",
          "name": "currentClaimTime",
          "type": "uint256"
        }
      ],
      "stateMutability": "view",
      "type": "function"
    },
    {
      "inputs": [],
      "name": "_getGasForDistri",
      "outputs": [
        {
          "internalType": "uint256",
          "name": "currentGasForDistri",
          "type": "uint256"
        }
      ],
      "stateMutability": "view",
      "type": "function"
    },
    {
      "inputs": [
        {
          "internalType": "address",
          "name": "account",
          "type": "address"
        }
      ],
      "name": "_getNodeNumberOf",
      "outputs": [
        {
          "internalType": "uint256",
          "name": "",
          "type": "uint256"
        }
      ],
      "stateMutability": "view",
      "type": "function"
    },
    {
      "inputs": [],
      "name": "_getNodePrice",
      "outputs": [
        {
          "internalType": "uint256",
          "name": "currentNodePrice",
          "type": "uint256"
        }
      ],
      "stateMutability": "view",
      "type": "function"
    },
    {
      "inputs": [
        {
          "internalType": "address",
          "name": "account",
          "type": "address"
        },
        {
          "internalType": "uint256",
          "name": "creationTime",
          "type": "uint256"
        }
      ],
      "name": "_getNodeRewardAmountOf",
      "outputs": [
        {
          "internalType": "uint256",
          "name": "",
          "type": "uint256"
        }
      ],
      "stateMutability": "view",
      "type": "function"
    },
    {
      "inputs": [
        {
          "internalType": "address",
          "name": "account",
          "type": "address"
        }
      ],
      "name": "_getNodesCreationTime",
      "outputs": [
        {
          "internalType": "string",
          "name": "",
          "type": "string"
        }
      ],
      "stateMutability": "view",
      "type": "function"
    },
    {
      "inputs": [
        {
          "internalType": "address",
          "name": "account",
          "type": "address"
        }
      ],
      "name": "_getNodesLastClaimTime",
      "outputs": [
        {
          "internalType": "string",
          "name": "",
          "type": "string"
        }
      ],
      "stateMutability": "view",
      "type": "function"
    },
    {
      "inputs": [
        {
          "internalType": "address",
          "name": "account",
          "type": "address"
        }
      ],
      "name": "_getNodesNames",
      "outputs": [
        {
          "internalType": "string",
          "name": "",
          "type": "string"
        }
      ],
      "stateMutability": "view",
      "type": "function"
    },
    {
      "inputs": [
        {
          "internalType": "address",
          "name": "account",
          "type": "address"
        }
      ],
      "name": "_getNodesRewardAvailable",
      "outputs": [
        {
          "internalType": "string",
          "name": "",
          "type": "string"
        }
      ],
      "stateMutability": "view",
      "type": "function"
    },
    {
      "inputs": [
        {
          "internalType": "address",
          "name": "account",
          "type": "address"
        }
      ],
      "name": "_getRewardAmountOf",
      "outputs": [
        {
          "internalType": "uint256",
          "name": "",
          "type": "uint256"
        }
      ],
      "stateMutability": "view",
      "type": "function"
    },
    {
      "inputs": [],
      "name": "_getRewardPerNode",
      "outputs": [
        {
          "internalType": "uint256",
          "name": "currentRewardPerNode",
          "type": "uint256"
        }
      ],
      "stateMutability": "view",
      "type": "function"
    },
    {
      "inputs": [],
      "name": "_getTotalNodesCreated",
      "outputs": [
        {
          "internalType": "uint256",
          "name": "",
          "type": "uint256"
        }
      ],
      "stateMutability": "view",
      "type": "function"
    },
    {
      "inputs": [],
      "name": "_getTotalRewardsStaked",
      "outputs": [
        {
          "internalType": "uint256",
          "name": "currentTotalRewardsStaked",
          "type": "uint256"
        }
      ],
      "stateMutability": "view",
      "type": "function"
    },
    {
      "inputs": [
        {
          "internalType": "address",
          "name": "account",
          "type": "address"
        }
      ],
      "name": "_isNodeOwner",
      "outputs": [
        {
          "internalType": "bool",
          "name": "",
          "type": "bool"
        }
      ],
      "stateMutability": "view",
      "type": "function"
    },
    {
      "inputs": [],
      "name": "autoDistri",
      "outputs": [
        {
          "internalType": "bool",
          "name": "",
          "type": "bool"
        }
      ],
      "stateMutability": "view",
      "type": "function"
    },
    {
      "inputs": [],
      "name": "claimTime",
      "outputs": [
        {
          "internalType": "uint256",
          "name": "",
          "type": "uint256"
        }
      ],
      "stateMutability": "view",
      "type": "function"
    },
    {
      "inputs": [
        {
          "internalType": "address",
          "name": "account",
          "type": "address"
        },
        {
          "internalType": "string",
          "name": "nodeName",
          "type": "string"
        }
      ],
      "name": "createNode",
      "outputs": [],
      "stateMutability": "nonpayable",
      "type": "function"
    },
    {
      "inputs": [],
      "name": "distribution",
      "outputs": [
        {
          "internalType": "bool",
          "name": "",
          "type": "bool"
        }
      ],
      "stateMutability": "view",
      "type": "function"
    },
    {
      "inputs": [],
      "name": "gasForDistribution",
      "outputs": [
        {
          "internalType": "uint256",
          "name": "",
          "type": "uint256"
        }
      ],
      "stateMutability": "view",
      "type": "function"
    },
    {
      "inputs": [],
      "name": "gateKeeper",
      "outputs": [
        {
          "internalType": "address",
          "name": "",
          "type": "address"
        }
      ],
      "stateMutability": "view",
      "type": "function"
    },
    {
      "inputs": [],
      "name": "lastDistributionCount",
      "outputs": [
        {
          "internalType": "uint256",
          "name": "",
          "type": "uint256"
        }
      ],
      "stateMutability": "view",
      "type": "function"
    },
    {
      "inputs": [],
      "name": "lastIndexProcessed",
      "outputs": [
        {
          "internalType": "uint256",
          "name": "",
          "type": "uint256"
        }
      ],
      "stateMutability": "view",
      "type": "function"
    },
    {
      "inputs": [],
      "name": "nodePrice",
      "outputs": [
        {
          "internalType": "uint256",
          "name": "",
          "type": "uint256"
        }
      ],
      "stateMutability": "view",
      "type": "function"
    },
    {
      "inputs": [],
      "name": "rewardPerNode",
      "outputs": [
        {
          "internalType": "uint256",
          "name": "",
          "type": "uint256"
        }
      ],
      "stateMutability": "view",
      "type": "function"
    },
    {
      "inputs": [
        {
          "internalType": "address",
          "name": "token_",
          "type": "address"
        }
      ],
      "name": "setToken",
      "outputs": [],
      "stateMutability": "nonpayable",
      "type": "function"
    },
    {
      "inputs": [],
      "name": "token",
      "outputs": [
        {
          "internalType": "address",
          "name": "",
          "type": "address"
        }
      ],
      "stateMutability": "view",
      "type": "function"
    },
    {
      "inputs": [],
      "name": "totalNodesCreated",
      "outputs": [
        {
          "internalType": "uint256",
          "name": "",
          "type": "uint256"
        }
      ],
      "stateMutability": "view",
      "type": "function"
    },
    {
      "inputs": [],
      "name": "totalRewardStaked",
      "outputs": [
        {
          "internalType": "uint256",
          "name": "",
          "type": "uint256"
        }
      ],
      "stateMutability": "view",
      "type": "function"
    }
  ],
  "bytecode": "0x60806040526001600960146101000a81548160ff0219169083151502179055506000600960156101000a81548160ff021916908315150217905550620493e0600a556000600b556000600c556000600d556000600e5534801561006157600080fd5b5033600860006101000a81548173ffffffffffffffffffffffffffffffffffffffff021916908373ffffffffffffffffffffffffffffffffffffffff160217905550613ea7806100b26000396000f3fe608060405234801561001057600080fd5b506004361061021c5760003560e01c80637247657711610125578063cece91eb116100ad578063dec147261161007c578063dec147261461066d578063ef9bb9881461068b578063f1fec2b8146106a7578063fb10d6fb146106c5578063fc0c546a146106e35761021c565b8063cece91eb146105fb578063d1871a8914610617578063d34bf94c14610633578063dab0882a146106515761021c565b8063ab6b4d51116100f4578063ab6b4d5114610555578063b50cf88f14610573578063b8527aef14610591578063c6faedc8146105af578063c92819ce146105cb5761021c565b806372476577146104db57806385c44d9d146104f957806388fe6553146105175780638a327eaa146105375761021c565b80634cbab9c0116101a85780636067bd8d116101775780636067bd8d1461040f578063613ff46f1461042d578063619a635e1461044b5780636590c6911461047b5780636edb7002146104ab5761021c565b80634cbab9c0146103735780635759fb02146103915780635c298b1c146103c15780635ee58efc146103f15761021c565b8063334de3a2116101ef578063334de3a21461029557806341ac82b0146102c55780634491a7e4146102f557806345d61ded146103255780634a389fae146103435761021c565b806312b8603f1461022157806313804c3b1461023d578063144fa6d71461025b57806327b3bf1114610277575b600080fd5b61023b600480360381019061023691906131cf565b610701565b005b610245610a06565b60405161025291906137a3565b60405180910390f35b610275600480360381019061027091906131a6565b610a10565b005b61027f610b3c565b60405161028c91906137a3565b60405180910390f35b6102af60048036038101906102aa91906131a6565b610b42565b6040516102bc91906135a1565b60405180910390f35b6102df60048036038101906102da91906131a6565b610e04565b6040516102ec9190613586565b60405180910390f35b61030f600480360381019061030a91906131a6565b610e16565b60405161031c91906137a3565b60405180910390f35b61032d610eaa565b60405161033a919061356b565b60405180910390f35b61035d600480360381019061035891906131a6565b610ed0565b60405161036a91906135a1565b60405180910390f35b61037b6111a2565b60405161038891906137a3565b60405180910390f35b6103ab60048036038101906103a691906131a6565b6111ac565b6040516103b891906135a1565b60405180910390f35b6103db60048036038101906103d691906131a6565b61147e565b6040516103e891906137a3565b60405180910390f35b6103f961168e565b6040516104069190613586565b60405180910390f35b6104176116a1565b60405161042491906137a3565b60405180910390f35b6104356116ab565b60405161044291906137a3565b60405180910390f35b610465600480360381019061046091906131a6565b6116b1565b60405161047291906137a3565b60405180910390f35b61049560048036038101906104909190613223565b6117ce565b6040516104a291906137a3565b60405180910390f35b6104c560048036038101906104c09190613223565b611824565b6040516104d291906137a3565b60405180910390f35b6104e3611a0e565b6040516104f091906137a3565b60405180910390f35b610501611a14565b60405161050e9190613586565b60405180910390f35b61051f611a27565b60405161052e939291906137be565b60405180910390f35b61053f611b2d565b60405161054c91906137a3565b60405180910390f35b61055d611b33565b60405161056a91906137a3565b60405180910390f35b61057b611b3d565b60405161058891906137a3565b60405180910390f35b610599611b47565b6040516105a691906137a3565b60405180910390f35b6105c960048036038101906105c49190613288565b611b4d565b005b6105e560048036038101906105e091906131a6565b611c3f565b6040516105f291906135a1565b60405180910390f35b61061560048036038101906106109190613288565b611f11565b005b610631600480360381019061062c9190613288565b612003565b005b61063b6120f5565b60405161064891906137a3565b60405180910390f35b61066b6004803603810190610666919061325f565b6120ff565b005b610675612204565b60405161068291906137a3565b60405180910390f35b6106a560048036038101906106a09190613288565b61220a565b005b6106af6122fc565b6040516106bc91906137a3565b60405180910390f35b6106cd612302565b6040516106da91906137a3565b60405180910390f35b6106eb612308565b6040516106f8919061356b565b60405180910390f35b600960009054906101000a900473ffffffffffffffffffffffffffffffffffffffff1673ffffffffffffffffffffffffffffffffffffffff163373ffffffffffffffffffffffffffffffffffffffff1614806107aa5750600860009054906101000a900473ffffffffffffffffffffffffffffffffffffffff1673ffffffffffffffffffffffffffffffffffffffff163373ffffffffffffffffffffffffffffffffffffffff16145b6107e9576040517f08c379a00000000000000000000000000000000000000000000000000000000081526004016107e090613623565b60405180910390fd5b6107f3828261232e565b610832576040517f08c379a000000000000000000000000000000000000000000000000000000000815260040161082990613603565b60405180910390fd5b600460008373ffffffffffffffffffffffffffffffffffffffff1673ffffffffffffffffffffffffffffffffffffffff1681526020019081526020016000206040518060800160405280838152602001428152602001428152602001600654815250908060018154018082558091505060019003906000526020600020906004020160009091909190915060008201518160000190805190602001906108d992919061301f565b506020820151816001015560408201518160020155606082015181600301555050600073__$a2257d80957b0262bb10fd7639c13e0fa2$__63bc2b405c909184600460008773ffffffffffffffffffffffffffffffffffffffff1673ffffffffffffffffffffffffffffffffffffffff168152602001908152602001600020805490506040518463ffffffff1660e01b815260040161097a9392919061376c565b60006040518083038186803b15801561099257600080fd5b505af41580156109a6573d6000803e3d6000fd5b50505050600d60008154809291906109bd90613ab8565b9190505550600960149054906101000a900460ff1680156109eb5750600960159054906101000a900460ff16155b15610a02576109fe600a54600654612509565b5050505b5050565b6000600d54905090565b600960009054906101000a900473ffffffffffffffffffffffffffffffffffffffff1673ffffffffffffffffffffffffffffffffffffffff163373ffffffffffffffffffffffffffffffffffffffff161480610ab95750600860009054906101000a900473ffffffffffffffffffffffffffffffffffffffff1673ffffffffffffffffffffffffffffffffffffffff163373ffffffffffffffffffffffffffffffffffffffff16145b610af8576040517f08c379a0000000000000000000000000000000000000000000000000000000008152600401610aef90613623565b60405180910390fd5b80600960006101000a81548173ffffffffffffffffffffffffffffffffffffffff021916908373ffffffffffffffffffffffffffffffffffffffff16021790555050565b60075481565b6060610b4d8261289a565b610b8c576040517f08c379a0000000000000000000000000000000000000000000000000000000008152600401610b8390613703565b60405180910390fd5b6000600460008473ffffffffffffffffffffffffffffffffffffffff1673ffffffffffffffffffffffffffffffffffffffff168152602001908152602001600020805480602002602001604051908101604052809291908181526020016000905b82821015610ccf5783829060005260206000209060040201604051806080016040529081600082018054610c2090613a55565b80601f0160208091040260200160405190810160405280929190818152602001828054610c4c90613a55565b8015610c995780601f10610c6e57610100808354040283529160200191610c99565b820191906000526020600020905b815481529060010190602001808311610c7c57829003601f168201915b50505050508152602001600182015481526020016002820154815260200160038201548152505081526020019060010190610bed565b505050509050600081519050610ce36130a5565b600083600081518110610d1f577f4e487b7100000000000000000000000000000000000000000000000000000000600052603260045260246000fd5b602002602001015160000151905060006040518060400160405280600181526020017f230000000000000000000000000000000000000000000000000000000000000081525090506000600190505b84811015610df657858181518110610daf577f4e487b7100000000000000000000000000000000000000000000000000000000600052603260045260246000fd5b6020026020010151935082828560000151604051602001610dd29392919061353a565b60405160208183030381529060405292508080610dee90613ab8565b915050610d6e565b508195505050505050919050565b6000610e0f8261289a565b9050919050565b60008073__$a2257d80957b0262bb10fd7639c13e0fa2$__63732a2ccf9091846040518363ffffffff1660e01b8152600401610e53929190613743565b60206040518083038186803b158015610e6b57600080fd5b505af4158015610e7f573d6000803e3d6000fd5b505050506040513d601f19601f82011682018060405250810190610ea391906132b1565b9050919050565b600860009054906101000a900473ffffffffffffffffffffffffffffffffffffffff1681565b6060610edb8261289a565b610f1a576040517f08c379a0000000000000000000000000000000000000000000000000000000008152600401610f1190613683565b60405180910390fd5b6000600460008473ffffffffffffffffffffffffffffffffffffffff1673ffffffffffffffffffffffffffffffffffffffff168152602001908152602001600020805480602002602001604051908101604052809291908181526020016000905b8282101561105d5783829060005260206000209060040201604051806080016040529081600082018054610fae90613a55565b80601f0160208091040260200160405190810160405280929190818152602001828054610fda90613a55565b80156110275780601f10610ffc57610100808354040283529160200191611027565b820191906000526020600020905b81548152906001019060200180831161100a57829003601f168201915b50505050508152602001600182015481526020016002820154815260200160038201548152505081526020019060010190610f7b565b5050505090506000815190506110716130a5565b60006110c1846000815181106110b0577f4e487b7100000000000000000000000000000000000000000000000000000000600052603260045260246000fd5b602002602001015160600151612931565b905060006040518060400160405280600181526020017f230000000000000000000000000000000000000000000000000000000000000081525090506000600190505b8481101561119457858181518110611145577f4e487b7100000000000000000000000000000000000000000000000000000000600052603260045260246000fd5b60200260200101519350828261115e8660600151612931565b6040516020016111709392919061353a565b6040516020818303038152906040529250808061118c90613ab8565b915050611104565b508195505050505050919050565b6000600654905090565b60606111b78261289a565b6111f6576040517f08c379a00000000000000000000000000000000000000000000000000000000081526004016111ed90613643565b60405180910390fd5b6000600460008473ffffffffffffffffffffffffffffffffffffffff1673ffffffffffffffffffffffffffffffffffffffff168152602001908152602001600020805480602002602001604051908101604052809291908181526020016000905b82821015611339578382906000526020600020906004020160405180608001604052908160008201805461128a90613a55565b80601f01602080910402602001604051908101604052809291908181526020018280546112b690613a55565b80156113035780601f106112d857610100808354040283529160200191611303565b820191906000526020600020905b8154815290600101906020018083116112e657829003601f168201915b50505050508152602001600182015481526020016002820154815260200160038201548152505081526020019060010190611257565b50505050905060008151905061134d6130a5565b600061139d8460008151811061138c577f4e487b7100000000000000000000000000000000000000000000000000000000600052603260045260246000fd5b602002602001015160400151612931565b905060006040518060400160405280600181526020017f230000000000000000000000000000000000000000000000000000000000000081525090506000600190505b8481101561147057858181518110611421577f4e487b7100000000000000000000000000000000000000000000000000000000600052603260045260246000fd5b60200260200101519350828261143a8660400151612931565b60405160200161144c9392919061353a565b6040516020818303038152906040529250808061146890613ab8565b9150506113e0565b508195505050505050919050565b6000600960009054906101000a900473ffffffffffffffffffffffffffffffffffffffff1673ffffffffffffffffffffffffffffffffffffffff163373ffffffffffffffffffffffffffffffffffffffff1614806115295750600860009054906101000a900473ffffffffffffffffffffffffffffffffffffffff1673ffffffffffffffffffffffffffffffffffffffff163373ffffffffffffffffffffffffffffffffffffffff16145b611568576040517f08c379a000000000000000000000000000000000000000000000000000000000815260040161155f90613623565b60405180910390fd5b6000600460008473ffffffffffffffffffffffffffffffffffffffff1673ffffffffffffffffffffffffffffffffffffffff1681526020019081526020016000209050600081805490509050600081116115f7576040517f08c379a00000000000000000000000000000000000000000000000000000000081526004016115ee906135e3565b60405180910390fd5b6000806000905060005b8381101561168157848181548110611642577f4e487b7100000000000000000000000000000000000000000000000000000000600052603260045260246000fd5b906000526020600020906004020192508260030154826116629190613872565b915060008360030181905550808061167990613ab8565b915050611601565b5080945050505050919050565b600960159054906101000a900460ff1681565b6000600754905090565b60065481565b60006116bc8261289a565b6116fb576040517f08c379a00000000000000000000000000000000000000000000000000000000081526004016116f2906136e3565b60405180910390fd5b600080600090506000600460008673ffffffffffffffffffffffffffffffffffffffff1673ffffffffffffffffffffffffffffffffffffffff16815260200190815260200160002090508080549050925060005b838110156117c257818181548110611790577f4e487b7100000000000000000000000000000000000000000000000000000000600052603260045260246000fd5b906000526020600020906004020160030154836117ad9190613872565b925080806117ba90613ab8565b91505061174f565b50819350505050919050565b6000611818600460008573ffffffffffffffffffffffffffffffffffffffff1673ffffffffffffffffffffffffffffffffffffffff16815260200190815260200160002083612b06565b60030154905092915050565b6000600960009054906101000a900473ffffffffffffffffffffffffffffffffffffffff1673ffffffffffffffffffffffffffffffffffffffff163373ffffffffffffffffffffffffffffffffffffffff1614806118cf5750600860009054906101000a900473ffffffffffffffffffffffffffffffffffffffff1673ffffffffffffffffffffffffffffffffffffffff163373ffffffffffffffffffffffffffffffffffffffff16145b61190e576040517f08c379a000000000000000000000000000000000000000000000000000000000815260040161190590613623565b60405180910390fd5b60008211611951576040517f08c379a0000000000000000000000000000000000000000000000000000000008152600401611948906135e3565b60405180910390fd5b6000600460008573ffffffffffffffffffffffffffffffffffffffff1673ffffffffffffffffffffffffffffffffffffffff1681526020019081526020016000209050600081805490509050600081116119e0576040517f08c379a00000000000000000000000000000000000000000000000000000000081526004016119d790613723565b60405180910390fd5b60006119ec8386612b06565b9050600081600301549050600082600301819055508094505050505092915050565b600c5481565b600960149054906101000a900460ff1681565b6000806000600960009054906101000a900473ffffffffffffffffffffffffffffffffffffffff1673ffffffffffffffffffffffffffffffffffffffff163373ffffffffffffffffffffffffffffffffffffffff161480611ad55750600860009054906101000a900473ffffffffffffffffffffffffffffffffffffffff1673ffffffffffffffffffffffffffffffffffffffff163373ffffffffffffffffffffffffffffffffffffffff16145b611b14576040517f08c379a0000000000000000000000000000000000000000000000000000000008152600401611b0b90613623565b60405180910390fd5b611b22600a54600654612509565b925092509250909192565b600e5481565b6000600554905090565b6000600e54905090565b600d5481565b600960009054906101000a900473ffffffffffffffffffffffffffffffffffffffff1673ffffffffffffffffffffffffffffffffffffffff163373ffffffffffffffffffffffffffffffffffffffff161480611bf65750600860009054906101000a900473ffffffffffffffffffffffffffffffffffffffff1673ffffffffffffffffffffffffffffffffffffffff163373ffffffffffffffffffffffffffffffffffffffff16145b611c35576040517f08c379a0000000000000000000000000000000000000000000000000000000008152600401611c2c90613623565b60405180910390fd5b8060068190555050565b6060611c4a8261289a565b611c89576040517f08c379a0000000000000000000000000000000000000000000000000000000008152600401611c80906136a3565b60405180910390fd5b6000600460008473ffffffffffffffffffffffffffffffffffffffff1673ffffffffffffffffffffffffffffffffffffffff168152602001908152602001600020805480602002602001604051908101604052809291908181526020016000905b82821015611dcc5783829060005260206000209060040201604051806080016040529081600082018054611d1d90613a55565b80601f0160208091040260200160405190810160405280929190818152602001828054611d4990613a55565b8015611d965780601f10611d6b57610100808354040283529160200191611d96565b820191906000526020600020905b815481529060010190602001808311611d7957829003601f168201915b50505050508152602001600182015481526020016002820154815260200160038201548152505081526020019060010190611cea565b505050509050600081519050611de06130a5565b6000611e3084600081518110611e1f577f4e487b7100000000000000000000000000000000000000000000000000000000600052603260045260246000fd5b602002602001015160200151612931565b905060006040518060400160405280600181526020017f230000000000000000000000000000000000000000000000000000000000000081525090506000600190505b84811015611f0357858181518110611eb4577f4e487b7100000000000000000000000000000000000000000000000000000000600052603260045260246000fd5b602002602001015193508282611ecd8660200151612931565b604051602001611edf9392919061353a565b60405160208183030381529060405292508080611efb90613ab8565b915050611e73565b508195505050505050919050565b600960009054906101000a900473ffffffffffffffffffffffffffffffffffffffff1673ffffffffffffffffffffffffffffffffffffffff163373ffffffffffffffffffffffffffffffffffffffff161480611fba5750600860009054906101000a900473ffffffffffffffffffffffffffffffffffffffff1673ffffffffffffffffffffffffffffffffffffffff163373ffffffffffffffffffffffffffffffffffffffff16145b611ff9576040517f08c379a0000000000000000000000000000000000000000000000000000000008152600401611ff090613623565b60405180910390fd5b8060058190555050565b600960009054906101000a900473ffffffffffffffffffffffffffffffffffffffff1673ffffffffffffffffffffffffffffffffffffffff163373ffffffffffffffffffffffffffffffffffffffff1614806120ac5750600860009054906101000a900473ffffffffffffffffffffffffffffffffffffffff1673ffffffffffffffffffffffffffffffffffffffff163373ffffffffffffffffffffffffffffffffffffffff16145b6120eb576040517f08c379a00000000000000000000000000000000000000000000000000000000081526004016120e290613623565b60405180910390fd5b8060078190555050565b6000600a54905090565b600960009054906101000a900473ffffffffffffffffffffffffffffffffffffffff1673ffffffffffffffffffffffffffffffffffffffff163373ffffffffffffffffffffffffffffffffffffffff1614806121a85750600860009054906101000a900473ffffffffffffffffffffffffffffffffffffffff1673ffffffffffffffffffffffffffffffffffffffff163373ffffffffffffffffffffffffffffffffffffffff16145b6121e7576040517f08c379a00000000000000000000000000000000000000000000000000000000081526004016121de90613623565b60405180910390fd5b80600960146101000a81548160ff02191690831515021790555050565b600a5481565b600960009054906101000a900473ffffffffffffffffffffffffffffffffffffffff1673ffffffffffffffffffffffffffffffffffffffff163373ffffffffffffffffffffffffffffffffffffffff1614806122b35750600860009054906101000a900473ffffffffffffffffffffffffffffffffffffffff1673ffffffffffffffffffffffffffffffffffffffff163373ffffffffffffffffffffffffffffffffffffffff16145b6122f2576040517f08c379a00000000000000000000000000000000000000000000000000000000081526004016122e990613623565b60405180910390fd5b80600a8190555050565b60055481565b600b5481565b600960009054906101000a900473ffffffffffffffffffffffffffffffffffffffff1681565b600080600460008573ffffffffffffffffffffffffffffffffffffffff1673ffffffffffffffffffffffffffffffffffffffff168152602001908152602001600020805480602002602001604051908101604052809291908181526020016000905b8282101561247257838290600052602060002090600402016040518060800160405290816000820180546123c390613a55565b80601f01602080910402602001604051908101604052809291908181526020018280546123ef90613a55565b801561243c5780601f106124115761010080835404028352916020019161243c565b820191906000526020600020905b81548152906001019060200180831161241f57829003601f168201915b50505050508152602001600182015481526020016002820154815260200160038201548152505081526020019060010190612390565b50505050905060005b81518110156124fc5783805190602001208282815181106124c5577f4e487b7100000000000000000000000000000000000000000000000000000000600052603260045260246000fd5b6020026020010151600001518051906020012014156124e957600092505050612503565b80806124f490613ab8565b91505061247b565b5060019150505b92915050565b60008060006001600960156101000a81548160ff02191690831515021790555060008060000180549050905060008111612578576040517f08c379a000000000000000000000000000000000000000000000000000000000815260040161256f90613663565b60405180910390fd5b600081141561259357600080600c5493509350935050612893565b6000805a9050600080600c549050600080429050600080600090506000805b8f8a1080156125c057508a86105b1561285a5786806125d090613ab8565b975050600080018054905087106125e657600096505b60046000806000018981548110612626577f4e487b7100000000000000000000000000000000000000000000000000000000600052603260045260246000fd5b9060005260206000200160009054906101000a900473ffffffffffffffffffffffffffffffffffffffff1673ffffffffffffffffffffffffffffffffffffffff1673ffffffffffffffffffffffffffffffffffffffff16815260200190815260200160002091508180549050935060005b84811015612810578281815481106126d8577f4e487b7100000000000000000000000000000000000000000000000000000000600052603260045260246000fd5b906000526020600020906004020191506127ac8260405180608001604052908160008201805461270790613a55565b80601f016020809104026020016040519081016040528092919081815260200182805461273390613a55565b80156127805780601f1061275557610100808354040283529160200191612780565b820191906000526020600020905b81548152906001019060200180831161276357829003601f168201915b505050505081526020016001820154815260200160028201548152602001600382015481525050612d0f565b156127fd578f8260030160008282546127c59190613872565b925050819055508582600201819055508f600e60008282546127e79190613872565b9250508190555083806127f990613ab8565b9450505b808061280890613ab8565b915050612697565b50858061281c90613ab8565b9650505a9750878911156128525761284f612840898b612d2d90919063ffffffff16565b8b612d7790919063ffffffff16565b99505b8798506125b2565b86600c819055506000600960156101000a81548160ff0219169083151502179055508583600c549d509d509d5050505050505050505050505b9250925092565b600080600073__$a2257d80957b0262bb10fd7639c13e0fa2$__63732a2ccf9091856040518363ffffffff1660e01b81526004016128d9929190613743565b60206040518083038186803b1580156128f157600080fd5b505af4158015612905573d6000803e3d6000fd5b505050506040513d601f19601f8201168201806040525081019061292991906132b1565b119050919050565b60606000821415612979576040518060400160405280600181526020017f30000000000000000000000000000000000000000000000000000000000000008152509050612b01565b600082905060005b600082146129ab57808061299490613ab8565b915050600a826129a491906138ff565b9150612981565b60008167ffffffffffffffff8111156129ed577f4e487b7100000000000000000000000000000000000000000000000000000000600052604160045260246000fd5b6040519080825280601f01601f191660200182016040528015612a1f5781602001600182028036833780820191505090505b50905060008290505b60008614612af957600181612a3d919061398a565b90506000600a8088612a4f91906138ff565b612a599190613930565b87612a64919061398a565b6030612a7091906138c8565b905060008160f81b905080848481518110612ab4577f4e487b7100000000000000000000000000000000000000000000000000000000600052603260045260246000fd5b60200101907effffffffffffffffffffffffffffffffffffffffffffffffffffffffffffff1916908160001a905350600a88612af091906138ff565b97505050612a28565b819450505050505b919050565b6000808380549050905060008111612b53576040517f08c379a0000000000000000000000000000000000000000000000000000000008152600401612b4a90613723565b60405180910390fd5b600080612c6986805480602002602001604051908101604052809291908181526020016000905b82821015612c5c5783829060005260206000209060040201604051806080016040529081600082018054612bad90613a55565b80601f0160208091040260200160405190810160405280929190818152602001828054612bd990613a55565b8015612c265780601f10612bfb57610100808354040283529160200191612c26565b820191906000526020600020905b815481529060010190602001808311612c0957829003601f168201915b50505050508152602001600182015481526020016002820154815260200160038201548152505081526020019060010190612b7a565b5050505060008588612dd5565b90506000808212612c7c57600192508190505b82612cbc576040517f08c379a0000000000000000000000000000000000000000000000000000000008152600401612cb3906136c3565b60405180910390fd5b868181548110612cf5577f4e487b7100000000000000000000000000000000000000000000000000000000600052603260045260246000fd5b906000526020600020906004020194505050505092915050565b6000426007548360400151612d249190613872565b11159050919050565b6000612d6f83836040518060400160405280601e81526020017f536166654d6174683a207375627472616374696f6e206f766572666c6f770000815250612f0e565b905092915050565b6000808284612d869190613872565b905083811015612dcb576040517f08c379a0000000000000000000000000000000000000000000000000000000008152600401612dc2906135c3565b60405180910390fd5b8091505092915050565b6000838310612ee2576000612dff60028686612df19190613872565b612f7290919063ffffffff16565b905082868281518110612e3b577f4e487b7100000000000000000000000000000000000000000000000000000000600052603260045260246000fd5b6020026020010151602001511415612e565780915050612f06565b82868281518110612e90577f4e487b7100000000000000000000000000000000000000000000000000000000600052603260045260246000fd5b6020026020010151602001511115612ec257612eba8686600184612eb4919061398a565b86612dd5565b915050612f06565b612eda86600183612ed39190613872565b8686612dd5565b915050612f06565b7fffffffffffffffffffffffffffffffffffffffffffffffffffffffffffffffff90505b949350505050565b6000838311158290612f56576040517f08c379a0000000000000000000000000000000000000000000000000000000008152600401612f4d91906135a1565b60405180910390fd5b5060008385612f65919061398a565b9050809150509392505050565b6000612fb483836040518060400160405280601a81526020017f536166654d6174683a206469766973696f6e206279207a65726f000000000000815250612fbc565b905092915050565b60008083118290613003576040517f08c379a0000000000000000000000000000000000000000000000000000000008152600401612ffa91906135a1565b60405180910390fd5b506000838561301291906138ff565b9050809150509392505050565b82805461302b90613a55565b90600052602060002090601f01602090048101928261304d5760008555613094565b82601f1061306657805160ff1916838001178555613094565b82800160010185558215613094579182015b82811115613093578251825591602001919060010190613078565b5b5090506130a191906130cd565b5090565b6040518060800160405280606081526020016000815260200160008152602001600081525090565b5b808211156130e65760008160009055506001016130ce565b5090565b60006130fd6130f88461381a565b6137f5565b90508281526020810184848401111561311557600080fd5b613120848285613a13565b509392505050565b60008135905061313781613e2c565b92915050565b60008135905061314c81613e43565b92915050565b600082601f83011261316357600080fd5b81356131738482602086016130ea565b91505092915050565b60008135905061318b81613e5a565b92915050565b6000815190506131a081613e5a565b92915050565b6000602082840312156131b857600080fd5b60006131c684828501613128565b91505092915050565b600080604083850312156131e257600080fd5b60006131f085828601613128565b925050602083013567ffffffffffffffff81111561320d57600080fd5b61321985828601613152565b9150509250929050565b6000806040838503121561323657600080fd5b600061324485828601613128565b92505060206132558582860161317c565b9150509250929050565b60006020828403121561327157600080fd5b600061327f8482850161313d565b91505092915050565b60006020828403121561329a57600080fd5b60006132a88482850161317c565b91505092915050565b6000602082840312156132c357600080fd5b60006132d184828501613191565b91505092915050565b6132e3816139be565b82525050565b6132f2816139be565b82525050565b613301816139d0565b82525050565b60006133128261384b565b61331c8185613856565b935061332c818560208601613a22565b61333581613bbd565b840191505092915050565b600061334b8261384b565b6133558185613867565b9350613365818560208601613a22565b80840191505092915050565b600061337e601b83613856565b915061338982613bce565b602082019050919050565b60006133a1602783613856565b91506133ac82613bf7565b604082019050919050565b60006133c4601f83613856565b91506133cf82613c46565b602082019050919050565b60006133e7600d83613856565b91506133f282613c6f565b602082019050919050565b600061340a601f83613856565b915061341582613c98565b602082019050919050565b600061342d601e83613856565b915061343882613cc1565b602082019050919050565b6000613450601983613856565b915061345b82613cea565b602082019050919050565b6000613473601b83613856565b915061347e82613d13565b602082019050919050565b6000613496602e83613856565b91506134a182613d3c565b604082019050919050565b60006134b9601c83613856565b91506134c482613d8b565b602082019050919050565b60006134dc601883613856565b91506134e782613db4565b602082019050919050565b60006134ff602f83613856565b915061350a82613ddd565b604082019050919050565b8082525050565b613525816139fc565b82525050565b613534816139fc565b82525050565b60006135468286613340565b91506135528285613340565b915061355e8284613340565b9150819050949350505050565b600060208201905061358060008301846132da565b92915050565b600060208201905061359b60008301846132f8565b92915050565b600060208201905081810360008301526135bb8184613307565b905092915050565b600060208201905081810360008301526135dc81613371565b9050919050565b600060208201905081810360008301526135fc81613394565b9050919050565b6000602082019050818103600083015261361c816133b7565b9050919050565b6000602082019050818103600083015261363c816133da565b9050919050565b6000602082019050818103600083015261365c816133fd565b9050919050565b6000602082019050818103600083015261367c81613420565b9050919050565b6000602082019050818103600083015261369c81613443565b9050919050565b600060208201905081810360008301526136bc81613466565b9050919050565b600060208201905081810360008301526136dc81613489565b9050919050565b600060208201905081810360008301526136fc816134ac565b9050919050565b6000602082019050818103600083015261371c816134cf565b9050919050565b6000602082019050818103600083015261373c816134f2565b9050919050565b60006040820190506137586000830185613515565b61376560208301846132e9565b9392505050565b60006060820190506137816000830186613515565b61378e60208301856132e9565b61379b604083018461352b565b949350505050565b60006020820190506137b8600083018461351c565b92915050565b60006060820190506137d3600083018661351c565b6137e0602083018561351c565b6137ed604083018461351c565b949350505050565b60006137ff613810565b905061380b8282613a87565b919050565b6000604051905090565b600067ffffffffffffffff82111561383557613834613b8e565b5b61383e82613bbd565b9050602081019050919050565b600081519050919050565b600082825260208201905092915050565b600081905092915050565b600061387d826139fc565b9150613888836139fc565b9250827fffffffffffffffffffffffffffffffffffffffffffffffffffffffffffffffff038211156138bd576138bc613b01565b5b828201905092915050565b60006138d382613a06565b91506138de83613a06565b92508260ff038211156138f4576138f3613b01565b5b828201905092915050565b600061390a826139fc565b9150613915836139fc565b92508261392557613924613b30565b5b828204905092915050565b600061393b826139fc565b9150613946836139fc565b9250817fffffffffffffffffffffffffffffffffffffffffffffffffffffffffffffffff048311821515161561397f5761397e613b01565b5b828202905092915050565b6000613995826139fc565b91506139a0836139fc565b9250828210156139b3576139b2613b01565b5b828203905092915050565b60006139c9826139dc565b9050919050565b60008115159050919050565b600073ffffffffffffffffffffffffffffffffffffffff82169050919050565b6000819050919050565b600060ff82169050919050565b82818337600083830152505050565b60005b83811015613a40578082015181840152602081019050613a25565b83811115613a4f576000848401525b50505050565b60006002820490506001821680613a6d57607f821691505b60208210811415613a8157613a80613b5f565b5b50919050565b613a9082613bbd565b810181811067ffffffffffffffff82111715613aaf57613aae613b8e565b5b80604052505050565b6000613ac3826139fc565b91507fffffffffffffffffffffffffffffffffffffffffffffffffffffffffffffffff821415613af657613af5613b01565b5b600182019050919050565b7f4e487b7100000000000000000000000000000000000000000000000000000000600052601160045260246000fd5b7f4e487b7100000000000000000000000000000000000000000000000000000000600052601260045260246000fd5b7f4e487b7100000000000000000000000000000000000000000000000000000000600052602260045260246000fd5b7f4e487b7100000000000000000000000000000000000000000000000000000000600052604160045260246000fd5b6000601f19601f8301169050919050565b7f536166654d6174683a206164646974696f6e206f766572666c6f770000000000600082015250565b7f4e4f44453a204352454154494d45206d7573742062652068696768657220746860008201527f616e207a65726f00000000000000000000000000000000000000000000000000602082015250565b7f435245415445204e4f44453a204e616d65206e6f7420617661696c61626c6500600082015250565b7f4163636573732044656e69656400000000000000000000000000000000000000600082015250565b7f4c41535420434c41494d452054494d453a204e4f204e4f4445204f574e455200600082015250565b7f44495354524920524557415244533a204e4f204e4f4445204f574e4552530000600082015250565b7f474554205245574152443a204e4f204e4f4445204f574e455200000000000000600082015250565b7f474554204352454154494d453a204e4f204e4f4445204f574e45520000000000600082015250565b7f4e4f4445205345415243483a204e6f204e4f444520466f756e6420776974682060008201527f7468697320626c6f636b74696d65000000000000000000000000000000000000602082015250565b7f47455420524557415244204f463a204e4f204e4f4445204f574e455200000000600082015250565b7f474554204e414d45533a204e4f204e4f4445204f574e45520000000000000000600082015250565b7f434153484f5554204552524f523a20596f7520646f6e27742068617665206e6f60008201527f64657320746f20636173682d6f75740000000000000000000000000000000000602082015250565b613e35816139be565b8114613e4057600080fd5b50565b613e4c816139d0565b8114613e5757600080fd5b50565b613e63816139fc565b8114613e6e57600080fd5b5056fea2646970667358221220565d1ee35d50fd2b3d1adf1ae8c4a4f6780bf95413cf9d68b98c64d1dcfb09b864736f6c63430008040033",
  "linkReferences": {
    "contracts/PeachNode.sol": {
      "IterableMapping": [
        {
          "length": 20,
          "start": 2480
        },
        {
          "length": 20,
          "start": 3789
        },
        {
          "length": 20,
          "start": 10579
        }
      ]
    }
  },
  "deployedLinkReferences": {
    "contracts/PeachNode.sol": {
      "IterableMapping": [
        {
          "length": 20,
          "start": 2302
        },
        {
          "length": 20,
          "start": 3611
        },
        {
          "length": 20,
          "start": 10401
        }
      ]
    }
  }
}