{
  "_format": "hh-sol-artifact-1",
  "contractName": "NodeManager",
  "sourceName": "contracts/PeachNode.sol",
  "abi": [
    {
      "inputs": [
        {
          "internalType": "address",
          "name": "_peachToken",
          "type": "address"
        },
        {
          "internalType": "address",
          "name": "_taxContract",
          "type": "address"
        }
      ],
      "stateMutability": "nonpayable",
      "type": "constructor"
    },
    {
      "anonymous": false,
      "inputs": [
        {
          "indexed": true,
          "internalType": "address",
          "name": "account",
          "type": "address"
        },
        {
          "indexed": true,
          "internalType": "address",
          "name": "operator",
          "type": "address"
        },
        {
          "indexed": false,
          "internalType": "bool",
          "name": "approved",
          "type": "bool"
        }
      ],
      "name": "ApprovalForAll",
      "type": "event"
    },
    {
      "anonymous": false,
      "inputs": [
        {
          "indexed": true,
          "internalType": "address",
          "name": "previousOwner",
          "type": "address"
        },
        {
          "indexed": true,
          "internalType": "address",
          "name": "newOwner",
          "type": "address"
        }
      ],
      "name": "OwnershipTransferred",
      "type": "event"
    },
    {
      "anonymous": false,
      "inputs": [
        {
          "indexed": true,
          "internalType": "address",
          "name": "operator",
          "type": "address"
        },
        {
          "indexed": true,
          "internalType": "address",
          "name": "from",
          "type": "address"
        },
        {
          "indexed": true,
          "internalType": "address",
          "name": "to",
          "type": "address"
        },
        {
          "indexed": false,
          "internalType": "uint256[]",
          "name": "ids",
          "type": "uint256[]"
        },
        {
          "indexed": false,
          "internalType": "uint256[]",
          "name": "values",
          "type": "uint256[]"
        }
      ],
      "name": "TransferBatch",
      "type": "event"
    },
    {
      "anonymous": false,
      "inputs": [
        {
          "indexed": true,
          "internalType": "address",
          "name": "operator",
          "type": "address"
        },
        {
          "indexed": true,
          "internalType": "address",
          "name": "from",
          "type": "address"
        },
        {
          "indexed": true,
          "internalType": "address",
          "name": "to",
          "type": "address"
        },
        {
          "indexed": false,
          "internalType": "uint256",
          "name": "id",
          "type": "uint256"
        },
        {
          "indexed": false,
          "internalType": "uint256",
          "name": "value",
          "type": "uint256"
        }
      ],
      "name": "TransferSingle",
      "type": "event"
    },
    {
      "anonymous": false,
      "inputs": [
        {
          "indexed": false,
          "internalType": "string",
          "name": "value",
          "type": "string"
        },
        {
          "indexed": true,
          "internalType": "uint256",
          "name": "id",
          "type": "uint256"
        }
      ],
      "name": "URI",
      "type": "event"
    },
    {
      "inputs": [],
      "name": "_limit",
      "outputs": [
        {
          "internalType": "uint16",
          "name": "tier1",
          "type": "uint16"
        },
        {
          "internalType": "uint16",
          "name": "tier2",
          "type": "uint16"
        },
        {
          "internalType": "uint16",
          "name": "tier3",
          "type": "uint16"
        },
        {
          "internalType": "uint16",
          "name": "tier4",
          "type": "uint16"
        },
        {
          "internalType": "uint16",
          "name": "tier5",
          "type": "uint16"
        },
        {
          "internalType": "uint16",
          "name": "tier6",
          "type": "uint16"
        }
      ],
      "stateMutability": "view",
      "type": "function"
    },
    {
      "inputs": [],
      "name": "_rewards",
      "outputs": [
        {
          "internalType": "uint16",
          "name": "tier1",
          "type": "uint16"
        },
        {
          "internalType": "uint16",
          "name": "tier2",
          "type": "uint16"
        },
        {
          "internalType": "uint16",
          "name": "tier3",
          "type": "uint16"
        },
        {
          "internalType": "uint16",
          "name": "tier4",
          "type": "uint16"
        },
        {
          "internalType": "uint16",
          "name": "tier5",
          "type": "uint16"
        },
        {
          "internalType": "uint16",
          "name": "tier6",
          "type": "uint16"
        }
      ],
      "stateMutability": "view",
      "type": "function"
    },
    {
      "inputs": [
        {
          "internalType": "address",
          "name": "account",
          "type": "address"
        },
        {
          "internalType": "uint256",
          "name": "id",
          "type": "uint256"
        }
      ],
      "name": "balanceOf",
      "outputs": [
        {
          "internalType": "uint256",
          "name": "",
          "type": "uint256"
        }
      ],
      "stateMutability": "view",
      "type": "function"
    },
    {
      "inputs": [
        {
          "internalType": "address[]",
          "name": "accounts",
          "type": "address[]"
        },
        {
          "internalType": "uint256[]",
          "name": "ids",
          "type": "uint256[]"
        }
      ],
      "name": "balanceOfBatch",
      "outputs": [
        {
          "internalType": "uint256[]",
          "name": "",
          "type": "uint256[]"
        }
      ],
      "stateMutability": "view",
      "type": "function"
    },
    {
      "inputs": [
        {
          "internalType": "uint256",
          "name": "_tier",
          "type": "uint256"
        }
      ],
      "name": "claimRewards",
      "outputs": [],
      "stateMutability": "nonpayable",
      "type": "function"
    },
    {
      "inputs": [
        {
          "internalType": "uint256",
          "name": "_tier",
          "type": "uint256"
        }
      ],
      "name": "compoundRewards",
      "outputs": [],
      "stateMutability": "nonpayable",
      "type": "function"
    },
    {
      "inputs": [
        {
          "internalType": "uint256",
          "name": "_tier",
          "type": "uint256"
        },
        {
          "internalType": "uint256",
          "name": "amount",
          "type": "uint256"
        }
      ],
      "name": "createNode",
      "outputs": [],
      "stateMutability": "nonpayable",
      "type": "function"
    },
    {
      "inputs": [
        {
          "internalType": "address",
          "name": "account",
          "type": "address"
        },
        {
          "internalType": "address",
          "name": "operator",
          "type": "address"
        }
      ],
      "name": "isApprovedForAll",
      "outputs": [
        {
          "internalType": "bool",
          "name": "",
          "type": "bool"
        }
      ],
      "stateMutability": "view",
      "type": "function"
    },
    {
      "inputs": [],
      "name": "nodeCount",
      "outputs": [
        {
          "internalType": "uint256",
          "name": "",
          "type": "uint256"
        }
      ],
      "stateMutability": "view",
      "type": "function"
    },
    {
      "inputs": [],
      "name": "owner",
      "outputs": [
        {
          "internalType": "address",
          "name": "",
          "type": "address"
        }
      ],
      "stateMutability": "view",
      "type": "function"
    },
    {
      "inputs": [],
      "name": "priceSlotmachine",
      "outputs": [
        {
          "internalType": "uint256",
          "name": "",
          "type": "uint256"
        }
      ],
      "stateMutability": "view",
      "type": "function"
    },
    {
      "inputs": [],
      "name": "priceStandard",
      "outputs": [
        {
          "internalType": "uint256",
          "name": "",
          "type": "uint256"
        }
      ],
      "stateMutability": "view",
      "type": "function"
    },
    {
      "inputs": [],
      "name": "renounceOwnership",
      "outputs": [],
      "stateMutability": "nonpayable",
      "type": "function"
    },
    {
      "inputs": [
        {
          "internalType": "address",
          "name": "from",
          "type": "address"
        },
        {
          "internalType": "address",
          "name": "to",
          "type": "address"
        },
        {
          "internalType": "uint256[]",
          "name": "ids",
          "type": "uint256[]"
        },
        {
          "internalType": "uint256[]",
          "name": "amounts",
          "type": "uint256[]"
        },
        {
          "internalType": "bytes",
          "name": "data",
          "type": "bytes"
        }
      ],
      "name": "safeBatchTransferFrom",
      "outputs": [],
      "stateMutability": "nonpayable",
      "type": "function"
    },
    {
      "inputs": [
        {
          "internalType": "address",
          "name": "from",
          "type": "address"
        },
        {
          "internalType": "address",
          "name": "to",
          "type": "address"
        },
        {
          "internalType": "uint256",
          "name": "id",
          "type": "uint256"
        },
        {
          "internalType": "uint256",
          "name": "amount",
          "type": "uint256"
        },
        {
          "internalType": "bytes",
          "name": "data",
          "type": "bytes"
        }
      ],
      "name": "safeTransferFrom",
      "outputs": [],
      "stateMutability": "nonpayable",
      "type": "function"
    },
    {
      "inputs": [
        {
          "internalType": "address",
          "name": "operator",
          "type": "address"
        },
        {
          "internalType": "bool",
          "name": "approved",
          "type": "bool"
        }
      ],
      "name": "setApprovalForAll",
      "outputs": [],
      "stateMutability": "nonpayable",
      "type": "function"
    },
    {
      "inputs": [],
      "name": "setSlotPrice",
      "outputs": [],
      "stateMutability": "nonpayable",
      "type": "function"
    },
    {
      "inputs": [],
      "name": "setStandardPrice",
      "outputs": [],
      "stateMutability": "nonpayable",
      "type": "function"
    },
    {
      "inputs": [
        {
          "internalType": "bytes4",
          "name": "interfaceId",
          "type": "bytes4"
        }
      ],
      "name": "supportsInterface",
      "outputs": [
        {
          "internalType": "bool",
          "name": "",
          "type": "bool"
        }
      ],
      "stateMutability": "view",
      "type": "function"
    },
    {
      "inputs": [],
      "name": "time",
      "outputs": [
        {
          "internalType": "uint128",
          "name": "",
          "type": "uint128"
        }
      ],
      "stateMutability": "view",
      "type": "function"
    },
    {
      "inputs": [
        {
          "internalType": "address",
          "name": "newOwner",
          "type": "address"
        }
      ],
      "name": "transferOwnership",
      "outputs": [],
      "stateMutability": "nonpayable",
      "type": "function"
    },
    {
      "inputs": [
        {
          "internalType": "uint256",
          "name": "",
          "type": "uint256"
        }
      ],
      "name": "uri",
      "outputs": [
        {
          "internalType": "string",
          "name": "",
          "type": "string"
        }
      ],
      "stateMutability": "view",
      "type": "function"
    }
  ],
  "bytecode": "0x6080604052670de0b6b3a76400006006556006546014620000219190620005af565b6007556006546014620000359190620005af565b60085562015180600960006101000a8154816fffffffffffffffffffffffffffffffff02191690836fffffffffffffffffffffffffffffffff1602179055506040518060c001604052806103e861ffff16815260200161019061ffff16815260200161012c61ffff16815260200160fa61ffff16815260200160c861ffff168152602001604b61ffff16815250600a60008201518160000160006101000a81548161ffff021916908361ffff16021790555060208201518160000160026101000a81548161ffff021916908361ffff16021790555060408201518160000160046101000a81548161ffff021916908361ffff16021790555060608201518160000160066101000a81548161ffff021916908361ffff16021790555060808201518160000160086101000a81548161ffff021916908361ffff16021790555060a082015181600001600a6101000a81548161ffff021916908361ffff16021790555050506040518060c001604052806101c261ffff1681526020016109c461ffff16815260200161138861ffff16815260200161271061ffff168152602001614e2061ffff168152602001600061ffff16815250600b60008201518160000160006101000a81548161ffff021916908361ffff16021790555060208201518160000160026101000a81548161ffff021916908361ffff16021790555060408201518160000160046101000a81548161ffff021916908361ffff16021790555060608201518160000160066101000a81548161ffff021916908361ffff16021790555060808201518160000160086101000a81548161ffff021916908361ffff16021790555060a082015181600001600a6101000a81548161ffff021916908361ffff1602179055505050348015620002cb57600080fd5b5060405162004c7d38038062004c7d8339818101604052810190620002f191906200056e565b604051806020016040528060008152506200031281620003bd60201b60201c565b506200033362000327620003d960201b60201c565b620003e160201b60201c565b81600460006101000a81548173ffffffffffffffffffffffffffffffffffffffff021916908373ffffffffffffffffffffffffffffffffffffffff16021790555080600560006101000a81548173ffffffffffffffffffffffffffffffffffffffff021916908373ffffffffffffffffffffffffffffffffffffffff1602179055505050620006fc565b8060029080519060200190620003d5929190620004a7565b5050565b600033905090565b6000600360009054906101000a900473ffffffffffffffffffffffffffffffffffffffff16905081600360006101000a81548173ffffffffffffffffffffffffffffffffffffffff021916908373ffffffffffffffffffffffffffffffffffffffff1602179055508173ffffffffffffffffffffffffffffffffffffffff168173ffffffffffffffffffffffffffffffffffffffff167f8be0079c531659141344cd1fd0a4f28419497f9722a3daafe3b4186f6b6457e060405160405180910390a35050565b828054620004b5906200064e565b90600052602060002090601f016020900481019282620004d9576000855562000525565b82601f10620004f457805160ff191683800117855562000525565b8280016001018555821562000525579182015b828111156200052457825182559160200191906001019062000507565b5b50905062000534919062000538565b5090565b5b808211156200055357600081600090555060010162000539565b5090565b6000815190506200056881620006e2565b92915050565b600080604083850312156200058257600080fd5b6000620005928582860162000557565b9250506020620005a58582860162000557565b9150509250929050565b6000620005bc8262000644565b9150620005c98362000644565b9250817fffffffffffffffffffffffffffffffffffffffffffffffffffffffffffffffff048311821515161562000605576200060462000684565b5b828202905092915050565b60006200061d8262000624565b9050919050565b600073ffffffffffffffffffffffffffffffffffffffff82169050919050565b6000819050919050565b600060028204905060018216806200066757607f821691505b602082108114156200067e576200067d620006b3565b5b50919050565b7f4e487b7100000000000000000000000000000000000000000000000000000000600052601160045260246000fd5b7f4e487b7100000000000000000000000000000000000000000000000000000000600052602260045260246000fd5b620006ed8162000610565b8114620006f957600080fd5b50565b614571806200070c6000396000f3fe608060405234801561001057600080fd5b50600436106101415760003560e01c80636da49b83116100b8578063a22cb4651161007c578063a22cb4651461032a578063a6c2da4c14610346578063df2fb92c14610369578063e985e9c51461038c578063f242432a146103bc578063f2fde38b146103d857610141565b80636da49b83146102d0578063715018a6146102ee578063747f5fb0146102f85780638da5cb5b146103025780639e3265991461032057610141565b80631f909fa81161010a5780631f909fa8146102105780632eb2c2d61461022e578063330f3c5a1461024a5780634e1273f41461026657806360ca5b6514610296578063656c579f146102b457610141565b8062fdd58e1461014657806301ffc9a7146101765780630962ef79146101a65780630e89341c146101c257806316ada547146101f2575b600080fd5b610160600480360381019061015b919061313c565b6103f4565b60405161016d9190613ac8565b60405180910390f35b610190600480360381019061018b919061320d565b6104bd565b60405161019d91906137ef565b60405180910390f35b6101c060048036038101906101bb919061325f565b61059f565b005b6101dc60048036038101906101d7919061325f565b6106ca565b6040516101e9919061380a565b60405180910390f35b6101fa61075e565b6040516102079190613a4c565b60405180910390f35b610218610780565b6040516102259190613ac8565b60405180910390f35b61024860048036038101906102439190612fb2565b610786565b005b610264600480360381019061025f91906132b1565b610827565b005b610280600480360381019061027b9190613178565b610c1b565b60405161028d9190613796565b60405180910390f35b61029e610dcc565b6040516102ab9190613ac8565b60405180910390f35b6102ce60048036038101906102c9919061325f565b610dd2565b005b6102d8610f9f565b6040516102e59190613ac8565b60405180910390f35b6102f6610fa5565b005b61030061102d565b005b61030a6112b9565b6040516103179190613682565b60405180910390f35b6103286112e3565b005b610344600480360381019061033f9190613100565b6115c3565b005b61034e6115d9565b60405161036096959493929190613a67565b60405180910390f35b610371611657565b60405161038396959493929190613a67565b60405180910390f35b6103a660048036038101906103a19190612f76565b6116d5565b6040516103b391906137ef565b60405180910390f35b6103d660048036038101906103d19190613071565b611769565b005b6103f260048036038101906103ed9190612f4d565b61180a565b005b60008073ffffffffffffffffffffffffffffffffffffffff168373ffffffffffffffffffffffffffffffffffffffff161415610465576040517f08c379a000000000000000000000000000000000000000000000000000000000815260040161045c9061388c565b60405180910390fd5b60008083815260200190815260200160002060008473ffffffffffffffffffffffffffffffffffffffff1673ffffffffffffffffffffffffffffffffffffffff16815260200190815260200160002054905092915050565b60007fd9b67a26000000000000000000000000000000000000000000000000000000007bffffffffffffffffffffffffffffffffffffffffffffffffffffffff1916827bffffffffffffffffffffffffffffffffffffffffffffffffffffffff1916148061058857507f0e89341c000000000000000000000000000000000000000000000000000000007bffffffffffffffffffffffffffffffffffffffffffffffffffffffff1916827bffffffffffffffffffffffffffffffffffffffffffffffffffffffff1916145b80610598575061059782611902565b5b9050919050565b600033905060006105b0828461196c565b9050600181116105f5576040517f08c379a00000000000000000000000000000000000000000000000000000000081526004016105ec906138ec565b60405180910390fd5b60006064600c836106069190613cb2565b6106109190613c81565b9050600460009054906101000a900473ffffffffffffffffffffffffffffffffffffffff1673ffffffffffffffffffffffffffffffffffffffff166323b872dd3085846040518463ffffffff1660e01b815260040161067193929190613705565b602060405180830381600087803b15801561068b57600080fd5b505af115801561069f573d6000803e3d6000fd5b505050506040513d601f19601f820116820180604052508101906106c391906131e4565b5050505050565b6060600280546106d990613e20565b80601f016020809104026020016040519081016040528092919081815260200182805461070590613e20565b80156107525780601f1061072757610100808354040283529160200191610752565b820191906000526020600020905b81548152906001019060200180831161073557829003601f168201915b50505050509050919050565b600960009054906101000a90046fffffffffffffffffffffffffffffffff1681565b60085481565b61078e611c60565b73ffffffffffffffffffffffffffffffffffffffff168573ffffffffffffffffffffffffffffffffffffffff1614806107d457506107d3856107ce611c60565b6116d5565b5b610813576040517f08c379a000000000000000000000000000000000000000000000000000000000815260040161080a9061392c565b60405180910390fd5b6108208585858585611c68565b5050505050565b60003390506001831015801561083d5750600783105b61087c576040517f08c379a000000000000000000000000000000000000000000000000000000000815260040161087390613a2c565b60405180910390fd5b6108868383611fc8565b6108c5576040517f08c379a00000000000000000000000000000000000000000000000000000000081526004016108bc9061396c565b60405180910390fd5b6006600c60008581526020019081526020016000205414156108ee576108e961102d565b6108f7565b6108f66112e3565b5b6000600460009054906101000a900473ffffffffffffffffffffffffffffffffffffffff1673ffffffffffffffffffffffffffffffffffffffff166370a08231836040518263ffffffff1660e01b81526004016109549190613682565b60206040518083038186803b15801561096c57600080fd5b505afa158015610980573d6000803e3d6000fd5b505050506040513d601f19601f820116820180604052508101906109a49190613288565b9050600e60008373ffffffffffffffffffffffffffffffffffffffff1673ffffffffffffffffffffffffffffffffffffffff168152602001908152602001600020548110156109f257600080fd5b600083600e60008573ffffffffffffffffffffffffffffffffffffffff1673ffffffffffffffffffffffffffffffffffffffff16815260200190815260200160002054610a3f9190613cb2565b9050600460009054906101000a900473ffffffffffffffffffffffffffffffffffffffff1673ffffffffffffffffffffffffffffffffffffffff166323b872dd8430846040518463ffffffff1660e01b8152600401610aa093929190613705565b602060405180830381600087803b158015610aba57600080fd5b505af1158015610ace573d6000803e3d6000fd5b505050506040513d601f19601f82011682018060405250810190610af291906131e4565b5060005b84811015610bb557600d60008573ffffffffffffffffffffffffffffffffffffffff1673ffffffffffffffffffffffffffffffffffffffff16815260200190815260200160002060008781526020019081526020016000206040518060400160405280888152602001428152509080600181540180825580915050600190039060005260206000209060020201600090919091909150600082015181600001556020820151816001015550508080610bad90613e83565b915050610af6565b50610bd18386866040518060200160405280600081525061221c565b83600c60008781526020019081526020016000206000828254610bf49190613c2b565b9250508190555083600f6000828254610c0d9190613c2b565b925050819055505050505050565b60608151835114610c61576040517f08c379a0000000000000000000000000000000000000000000000000000000008152600401610c58906139cc565b60405180910390fd5b6000835167ffffffffffffffff811115610ca4577f4e487b7100000000000000000000000000000000000000000000000000000000600052604160045260246000fd5b604051908082528060200260200182016040528015610cd25781602001602082028036833780820191505090505b50905060005b8451811015610dc157610d6b858281518110610d1d577f4e487b7100000000000000000000000000000000000000000000000000000000600052603260045260246000fd5b6020026020010151858381518110610d5e577f4e487b7100000000000000000000000000000000000000000000000000000000600052603260045260246000fd5b60200260200101516103f4565b828281518110610da4577f4e487b7100000000000000000000000000000000000000000000000000000000600052603260045260246000fd5b60200260200101818152505080610dba90613e83565b9050610cd8565b508091505092915050565b60075481565b60003390506000610de3828461196c565b90506006600c6000858152602001908152602001600020541415610e0e57610e0961102d565b610e17565b610e166112e3565b5b600e60008373ffffffffffffffffffffffffffffffffffffffff1673ffffffffffffffffffffffffffffffffffffffff16815260200190815260200160002054811015610e99576040517f08c379a0000000000000000000000000000000000000000000000000000000008152600401610e90906138ec565b60405180910390fd5b600d60008373ffffffffffffffffffffffffffffffffffffffff1673ffffffffffffffffffffffffffffffffffffffff1681526020019081526020016000206000848152602001908152602001600020604051806040016040528085815260200142815250908060018154018082558091505060019003906000526020600020906002020160009091909190915060008201518160000155602082015181600101555050610f59828460016040518060200160405280600081525061221c565b600c60008481526020019081526020016000206000815480929190610f7d90613e83565b9190505550600f6000815480929190610f9590613e83565b9190505550505050565b600f5481565b610fad611c60565b73ffffffffffffffffffffffffffffffffffffffff16610fcb6112b9565b73ffffffffffffffffffffffffffffffffffffffff1614611021576040517f08c379a00000000000000000000000000000000000000000000000000000000081526004016110189061398c565b60405180910390fd5b61102b60006123b2565b565b6000339050600061103f8260066103f4565b9050600a8110156110a15760065460146110599190613cb2565b600e60003373ffffffffffffffffffffffffffffffffffffffff1673ffffffffffffffffffffffffffffffffffffffff168152602001908152602001600020819055506112b5565b600a81101580156110b25750601481105b1561110e5760065460196110c69190613cb2565b600e60003373ffffffffffffffffffffffffffffffffffffffff1673ffffffffffffffffffffffffffffffffffffffff168152602001908152602001600020819055506112b4565b6014811015801561111f5750602881105b1561117b57600654601e6111339190613cb2565b600e60003373ffffffffffffffffffffffffffffffffffffffff1673ffffffffffffffffffffffffffffffffffffffff168152602001908152602001600020819055506112b3565b6028811015801561118c5750605081105b156111e85760065460236111a09190613cb2565b600e60003373ffffffffffffffffffffffffffffffffffffffff1673ffffffffffffffffffffffffffffffffffffffff168152602001908152602001600020819055506112b2565b605081101580156111f95750606481105b1561125557600654602861120d9190613cb2565b600e60003373ffffffffffffffffffffffffffffffffffffffff1673ffffffffffffffffffffffffffffffffffffffff168152602001908152602001600020819055506112b1565b606481106112b057600654602d61126c9190613cb2565b600e60003373ffffffffffffffffffffffffffffffffffffffff1673ffffffffffffffffffffffffffffffffffffffff168152602001908152602001600020819055505b5b5b5b5b5b5050565b6000600360009054906101000a900473ffffffffffffffffffffffffffffffffffffffff16905090565b600033905060006112f58260056103f4565b6113008360046103f4565b61130b8460036103f4565b6113168560026103f4565b6113218660016103f4565b61132b9190613c2b565b6113359190613c2b565b61133f9190613c2b565b6113499190613c2b565b9050600a8110156113ab5760065460146113639190613cb2565b600e60003373ffffffffffffffffffffffffffffffffffffffff1673ffffffffffffffffffffffffffffffffffffffff168152602001908152602001600020819055506115bf565b600a81101580156113bc5750601481105b156114185760065460196113d09190613cb2565b600e60003373ffffffffffffffffffffffffffffffffffffffff1673ffffffffffffffffffffffffffffffffffffffff168152602001908152602001600020819055506115be565b601481101580156114295750602881105b1561148557600654601e61143d9190613cb2565b600e60003373ffffffffffffffffffffffffffffffffffffffff1673ffffffffffffffffffffffffffffffffffffffff168152602001908152602001600020819055506115bd565b602881101580156114965750605081105b156114f25760065460236114aa9190613cb2565b600e60003373ffffffffffffffffffffffffffffffffffffffff1673ffffffffffffffffffffffffffffffffffffffff168152602001908152602001600020819055506115bc565b605081101580156115035750606481105b1561155f5760065460286115179190613cb2565b600e60003373ffffffffffffffffffffffffffffffffffffffff1673ffffffffffffffffffffffffffffffffffffffff168152602001908152602001600020819055506115bb565b606481106115ba57600654602d6115769190613cb2565b600e60003373ffffffffffffffffffffffffffffffffffffffff1673ffffffffffffffffffffffffffffffffffffffff168152602001908152602001600020819055505b5b5b5b5b5b5050565b6115d56115ce611c60565b8383612478565b5050565b600a8060000160009054906101000a900461ffff16908060000160029054906101000a900461ffff16908060000160049054906101000a900461ffff16908060000160069054906101000a900461ffff16908060000160089054906101000a900461ffff169080600001600a9054906101000a900461ffff16905086565b600b8060000160009054906101000a900461ffff16908060000160029054906101000a900461ffff16908060000160049054906101000a900461ffff16908060000160069054906101000a900461ffff16908060000160089054906101000a900461ffff169080600001600a9054906101000a900461ffff16905086565b6000600160008473ffffffffffffffffffffffffffffffffffffffff1673ffffffffffffffffffffffffffffffffffffffff16815260200190815260200160002060008373ffffffffffffffffffffffffffffffffffffffff1673ffffffffffffffffffffffffffffffffffffffff16815260200190815260200160002060009054906101000a900460ff16905092915050565b611771611c60565b73ffffffffffffffffffffffffffffffffffffffff168573ffffffffffffffffffffffffffffffffffffffff1614806117b757506117b6856117b1611c60565b6116d5565b5b6117f6576040517f08c379a00000000000000000000000000000000000000000000000000000000081526004016117ed906138cc565b60405180910390fd5b61180385858585856125e5565b5050505050565b611812611c60565b73ffffffffffffffffffffffffffffffffffffffff166118306112b9565b73ffffffffffffffffffffffffffffffffffffffff1614611886576040517f08c379a000000000000000000000000000000000000000000000000000000000815260040161187d9061398c565b60405180910390fd5b600073ffffffffffffffffffffffffffffffffffffffff168173ffffffffffffffffffffffffffffffffffffffff1614156118f6576040517f08c379a00000000000000000000000000000000000000000000000000000000081526004016118ed906138ac565b60405180910390fd5b6118ff816123b2565b50565b60007f01ffc9a7000000000000000000000000000000000000000000000000000000007bffffffffffffffffffffffffffffffffffffffffffffffffffffffff1916827bffffffffffffffffffffffffffffffffffffffffffffffffffffffff1916149050919050565b60006001821015801561197f5750600782105b6119be576040517f08c379a00000000000000000000000000000000000000000000000000000000081526004016119b590613a2c565b60405180910390fd5b600060018314156119e857600a60000160009054906101000a900461ffff1661ffff169050611ab1565b6002831415611a1057600a60000160029054906101000a900461ffff1661ffff169050611ab0565b6003831415611a3857600a60000160049054906101000a900461ffff1661ffff169050611aaf565b6004831415611a6057600a60000160069054906101000a900461ffff1661ffff169050611aae565b6005831415611a8857600a60000160089054906101000a900461ffff1661ffff169050611aad565b6006831415611aac57600a600001600a9054906101000a900461ffff1661ffff1690505b5b5b5b5b5b60008490506000600d60008373ffffffffffffffffffffffffffffffffffffffff1673ffffffffffffffffffffffffffffffffffffffff1681526020019081526020016000206000868152602001908152602001600020905060008180549050905060008111611b56576040517f08c379a0000000000000000000000000000000000000000000000000000000008152600401611b4d9061386c565b60405180910390fd5b6000806000905060005b83811015611c5057848181548110611ba1577f4e487b7100000000000000000000000000000000000000000000000000000000600052603260045260246000fd5b906000526020600020906002020192506000600960009054906101000a90046fffffffffffffffffffffffffffffffff166fffffffffffffffffffffffffffffffff16846001015442611bf49190613d0c565b611bfe9190613c81565b90506103e88860065483611c129190613cb2565b611c1c9190613cb2565b611c269190613c81565b83611c319190613c2b565b9250428460010181905550508080611c4890613e83565b915050611b60565b5080965050505050505092915050565b600033905090565b8151835114611cac576040517f08c379a0000000000000000000000000000000000000000000000000000000008152600401611ca3906139ec565b60405180910390fd5b600073ffffffffffffffffffffffffffffffffffffffff168473ffffffffffffffffffffffffffffffffffffffff161415611d1c576040517f08c379a0000000000000000000000000000000000000000000000000000000008152600401611d139061390c565b60405180910390fd5b6000611d26611c60565b9050611d36818787878787612867565b60005b8451811015611f33576000858281518110611d7d577f4e487b7100000000000000000000000000000000000000000000000000000000600052603260045260246000fd5b602002602001015190506000858381518110611dc2577f4e487b7100000000000000000000000000000000000000000000000000000000600052603260045260246000fd5b60200260200101519050600080600084815260200190815260200160002060008b73ffffffffffffffffffffffffffffffffffffffff1673ffffffffffffffffffffffffffffffffffffffff16815260200190815260200160002054905081811015611e63576040517f08c379a0000000000000000000000000000000000000000000000000000000008152600401611e5a9061394c565b60405180910390fd5b81810360008085815260200190815260200160002060008c73ffffffffffffffffffffffffffffffffffffffff1673ffffffffffffffffffffffffffffffffffffffff168152602001908152602001600020819055508160008085815260200190815260200160002060008b73ffffffffffffffffffffffffffffffffffffffff1673ffffffffffffffffffffffffffffffffffffffff1681526020019081526020016000206000828254611f189190613c2b565b9250508190555050505080611f2c90613e83565b9050611d39565b508473ffffffffffffffffffffffffffffffffffffffff168673ffffffffffffffffffffffffffffffffffffffff168273ffffffffffffffffffffffffffffffffffffffff167f4a39dc06d4c0dbc64b70af90fd698a233a518aa5d07e595d983b8c0526c8f7fb8787604051611faa9291906137b8565b60405180910390a4611fc081878787878761286f565b505050505050565b600060018310158015611fdb5750600783105b611fe457600080fd5b6001600c600085815260200190815260200160002054141561204b57600b60000160009054906101000a900461ffff1661ffff1682600c6000868152602001908152602001600020546120379190613c2b565b11156120465760009050612216565b612211565b6002600c60008581526020019081526020016000205414156120b257600b60000160029054906101000a900461ffff1661ffff1682600c60008681526020019081526020016000205461209e9190613c2b565b11156120ad5760009050612216565b612210565b6003600c600085815260200190815260200160002054141561211957600b60000160049054906101000a900461ffff1661ffff1682600c6000868152602001908152602001600020546121059190613c2b565b11156121145760009050612216565b61220f565b6004600c600085815260200190815260200160002054141561218057600b60000160069054906101000a900461ffff1661ffff1682600c60008681526020019081526020016000205461216c9190613c2b565b111561217b5760009050612216565b61220e565b6005600c60008581526020019081526020016000205414156121e757600b60000160089054906101000a900461ffff1661ffff1682600c6000868152602001908152602001600020546121d39190613c2b565b11156121e25760009050612216565b61220d565b6006600c600085815260200190815260200160002054141561220c5760019050612216565b5b5b5b5b5b600190505b92915050565b600073ffffffffffffffffffffffffffffffffffffffff168473ffffffffffffffffffffffffffffffffffffffff16141561228c576040517f08c379a000000000000000000000000000000000000000000000000000000000815260040161228390613a0c565b60405180910390fd5b6000612296611c60565b90506122b7816000876122a888612a56565b6122b188612a56565b87612867565b8260008086815260200190815260200160002060008773ffffffffffffffffffffffffffffffffffffffff1673ffffffffffffffffffffffffffffffffffffffff16815260200190815260200160002060008282546123169190613c2b565b925050819055508473ffffffffffffffffffffffffffffffffffffffff16600073ffffffffffffffffffffffffffffffffffffffff168273ffffffffffffffffffffffffffffffffffffffff167fc3d58168c5ae7397731d063d5bbf3d657854427343f4c083240f7aacaa2d0f628787604051612394929190613ae3565b60405180910390a46123ab81600087878787612b1c565b5050505050565b6000600360009054906101000a900473ffffffffffffffffffffffffffffffffffffffff16905081600360006101000a81548173ffffffffffffffffffffffffffffffffffffffff021916908373ffffffffffffffffffffffffffffffffffffffff1602179055508173ffffffffffffffffffffffffffffffffffffffff168173ffffffffffffffffffffffffffffffffffffffff167f8be0079c531659141344cd1fd0a4f28419497f9722a3daafe3b4186f6b6457e060405160405180910390a35050565b8173ffffffffffffffffffffffffffffffffffffffff168373ffffffffffffffffffffffffffffffffffffffff1614156124e7576040517f08c379a00000000000000000000000000000000000000000000000000000000081526004016124de906139ac565b60405180910390fd5b80600160008573ffffffffffffffffffffffffffffffffffffffff1673ffffffffffffffffffffffffffffffffffffffff16815260200190815260200160002060008473ffffffffffffffffffffffffffffffffffffffff1673ffffffffffffffffffffffffffffffffffffffff16815260200190815260200160002060006101000a81548160ff0219169083151502179055508173ffffffffffffffffffffffffffffffffffffffff168373ffffffffffffffffffffffffffffffffffffffff167f17307eab39ab6107e8899845ad3d59bd9653f200f220920489ca2b5937696c31836040516125d891906137ef565b60405180910390a3505050565b600073ffffffffffffffffffffffffffffffffffffffff168473ffffffffffffffffffffffffffffffffffffffff161415612655576040517f08c379a000000000000000000000000000000000000000000000000000000000815260040161264c9061390c565b60405180910390fd5b600061265f611c60565b905061267f81878761267088612a56565b61267988612a56565b87612867565b600080600086815260200190815260200160002060008873ffffffffffffffffffffffffffffffffffffffff1673ffffffffffffffffffffffffffffffffffffffff16815260200190815260200160002054905083811015612716576040517f08c379a000000000000000000000000000000000000000000000000000000000815260040161270d9061394c565b60405180910390fd5b83810360008087815260200190815260200160002060008973ffffffffffffffffffffffffffffffffffffffff1673ffffffffffffffffffffffffffffffffffffffff168152602001908152602001600020819055508360008087815260200190815260200160002060008873ffffffffffffffffffffffffffffffffffffffff1673ffffffffffffffffffffffffffffffffffffffff16815260200190815260200160002060008282546127cb9190613c2b565b925050819055508573ffffffffffffffffffffffffffffffffffffffff168773ffffffffffffffffffffffffffffffffffffffff168373ffffffffffffffffffffffffffffffffffffffff167fc3d58168c5ae7397731d063d5bbf3d657854427343f4c083240f7aacaa2d0f628888604051612848929190613ae3565b60405180910390a461285e828888888888612b1c565b50505050505050565b505050505050565b61288e8473ffffffffffffffffffffffffffffffffffffffff16612d03565b15612a4e578373ffffffffffffffffffffffffffffffffffffffff1663bc197c8187878686866040518663ffffffff1660e01b81526004016128d495949392919061369d565b602060405180830381600087803b1580156128ee57600080fd5b505af192505050801561291f57506040513d601f19601f8201168201806040525081019061291c9190613236565b60015b6129c55761292b613f88565b806308c379a014156129885750612940614449565b8061294b575061298a565b806040517f08c379a000000000000000000000000000000000000000000000000000000000815260040161297f919061380a565b60405180910390fd5b505b6040517f08c379a00000000000000000000000000000000000000000000000000000000081526004016129bc9061382c565b60405180910390fd5b63bc197c8160e01b7bffffffffffffffffffffffffffffffffffffffffffffffffffffffff1916817bffffffffffffffffffffffffffffffffffffffffffffffffffffffff191614612a4c576040517f08c379a0000000000000000000000000000000000000000000000000000000008152600401612a439061384c565b60405180910390fd5b505b505050505050565b60606000600167ffffffffffffffff811115612a9b577f4e487b7100000000000000000000000000000000000000000000000000000000600052604160045260246000fd5b604051908082528060200260200182016040528015612ac95781602001602082028036833780820191505090505b5090508281600081518110612b07577f4e487b7100000000000000000000000000000000000000000000000000000000600052603260045260246000fd5b60200260200101818152505080915050919050565b612b3b8473ffffffffffffffffffffffffffffffffffffffff16612d03565b15612cfb578373ffffffffffffffffffffffffffffffffffffffff1663f23a6e6187878686866040518663ffffffff1660e01b8152600401612b8195949392919061373c565b602060405180830381600087803b158015612b9b57600080fd5b505af1925050508015612bcc57506040513d601f19601f82011682018060405250810190612bc99190613236565b60015b612c7257612bd8613f88565b806308c379a01415612c355750612bed614449565b80612bf85750612c37565b806040517f08c379a0000000000000000000000000000000000000000000000000000000008152600401612c2c919061380a565b60405180910390fd5b505b6040517f08c379a0000000000000000000000000000000000000000000000000000000008152600401612c699061382c565b60405180910390fd5b63f23a6e6160e01b7bffffffffffffffffffffffffffffffffffffffffffffffffffffffff1916817bffffffffffffffffffffffffffffffffffffffffffffffffffffffff191614612cf9576040517f08c379a0000000000000000000000000000000000000000000000000000000008152600401612cf09061384c565b60405180910390fd5b505b505050505050565b6000808273ffffffffffffffffffffffffffffffffffffffff163b119050919050565b6000612d39612d3484613b31565b613b0c565b90508083825260208201905082856020860282011115612d5857600080fd5b60005b85811015612d885781612d6e8882612e3c565b845260208401935060208301925050600181019050612d5b565b5050509392505050565b6000612da5612da084613b5d565b613b0c565b90508083825260208201905082856020860282011115612dc457600080fd5b60005b85811015612df45781612dda8882612f23565b845260208401935060208301925050600181019050612dc7565b5050509392505050565b6000612e11612e0c84613b89565b613b0c565b905082815260208101848484011115612e2957600080fd5b612e34848285613dde565b509392505050565b600081359050612e4b816144df565b92915050565b600082601f830112612e6257600080fd5b8135612e72848260208601612d26565b91505092915050565b600082601f830112612e8c57600080fd5b8135612e9c848260208601612d92565b91505092915050565b600081359050612eb4816144f6565b92915050565b600081519050612ec9816144f6565b92915050565b600081359050612ede8161450d565b92915050565b600081519050612ef38161450d565b92915050565b600082601f830112612f0a57600080fd5b8135612f1a848260208601612dfe565b91505092915050565b600081359050612f3281614524565b92915050565b600081519050612f4781614524565b92915050565b600060208284031215612f5f57600080fd5b6000612f6d84828501612e3c565b91505092915050565b60008060408385031215612f8957600080fd5b6000612f9785828601612e3c565b9250506020612fa885828601612e3c565b9150509250929050565b600080600080600060a08688031215612fca57600080fd5b6000612fd888828901612e3c565b9550506020612fe988828901612e3c565b945050604086013567ffffffffffffffff81111561300657600080fd5b61301288828901612e7b565b935050606086013567ffffffffffffffff81111561302f57600080fd5b61303b88828901612e7b565b925050608086013567ffffffffffffffff81111561305857600080fd5b61306488828901612ef9565b9150509295509295909350565b600080600080600060a0868803121561308957600080fd5b600061309788828901612e3c565b95505060206130a888828901612e3c565b94505060406130b988828901612f23565b93505060606130ca88828901612f23565b925050608086013567ffffffffffffffff8111156130e757600080fd5b6130f388828901612ef9565b9150509295509295909350565b6000806040838503121561311357600080fd5b600061312185828601612e3c565b925050602061313285828601612ea5565b9150509250929050565b6000806040838503121561314f57600080fd5b600061315d85828601612e3c565b925050602061316e85828601612f23565b9150509250929050565b6000806040838503121561318b57600080fd5b600083013567ffffffffffffffff8111156131a557600080fd5b6131b185828601612e51565b925050602083013567ffffffffffffffff8111156131ce57600080fd5b6131da85828601612e7b565b9150509250929050565b6000602082840312156131f657600080fd5b600061320484828501612eba565b91505092915050565b60006020828403121561321f57600080fd5b600061322d84828501612ecf565b91505092915050565b60006020828403121561324857600080fd5b600061325684828501612ee4565b91505092915050565b60006020828403121561327157600080fd5b600061327f84828501612f23565b91505092915050565b60006020828403121561329a57600080fd5b60006132a884828501612f38565b91505092915050565b600080604083850312156132c457600080fd5b60006132d285828601612f23565b92505060206132e385828601612f23565b9150509250929050565b60006132f98383613664565b60208301905092915050565b61330e81613d40565b82525050565b600061331f82613bca565b6133298185613bf8565b935061333483613bba565b8060005b8381101561336557815161334c88826132ed565b975061335783613beb565b925050600181019050613338565b5085935050505092915050565b61337b81613d52565b82525050565b600061338c82613bd5565b6133968185613c09565b93506133a6818560208601613ded565b6133af81613faa565b840191505092915050565b60006133c582613be0565b6133cf8185613c1a565b93506133df818560208601613ded565b6133e881613faa565b840191505092915050565b6000613400603483613c1a565b915061340b82613fc8565b604082019050919050565b6000613423602883613c1a565b915061342e82614017565b604082019050919050565b6000613446601283613c1a565b915061345182614066565b602082019050919050565b6000613469602b83613c1a565b91506134748261408f565b604082019050919050565b600061348c602683613c1a565b9150613497826140de565b604082019050919050565b60006134af602983613c1a565b91506134ba8261412d565b604082019050919050565b60006134d2601d83613c1a565b91506134dd8261417c565b602082019050919050565b60006134f5602583613c1a565b9150613500826141a5565b604082019050919050565b6000613518603283613c1a565b9150613523826141f4565b604082019050919050565b600061353b602a83613c1a565b915061354682614243565b604082019050919050565b600061355e601283613c1a565b915061356982614292565b602082019050919050565b6000613581602083613c1a565b915061358c826142bb565b602082019050919050565b60006135a4602983613c1a565b91506135af826142e4565b604082019050919050565b60006135c7602983613c1a565b91506135d282614333565b604082019050919050565b60006135ea602883613c1a565b91506135f582614382565b604082019050919050565b600061360d602183613c1a565b9150613618826143d1565b604082019050919050565b6000613630600c83613c1a565b915061363b82614420565b602082019050919050565b61364f81613d8a565b82525050565b61365e81613da6565b82525050565b61366d81613dd4565b82525050565b61367c81613dd4565b82525050565b60006020820190506136976000830184613305565b92915050565b600060a0820190506136b26000830188613305565b6136bf6020830187613305565b81810360408301526136d18186613314565b905081810360608301526136e58185613314565b905081810360808301526136f98184613381565b90509695505050505050565b600060608201905061371a6000830186613305565b6137276020830185613305565b6137346040830184613673565b949350505050565b600060a0820190506137516000830188613305565b61375e6020830187613305565b61376b6040830186613673565b6137786060830185613673565b818103608083015261378a8184613381565b90509695505050505050565b600060208201905081810360008301526137b08184613314565b905092915050565b600060408201905081810360008301526137d28185613314565b905081810360208301526137e68184613314565b90509392505050565b60006020820190506138046000830184613372565b92915050565b6000602082019050818103600083015261382481846133ba565b905092915050565b60006020820190508181036000830152613845816133f3565b9050919050565b6000602082019050818103600083015261386581613416565b9050919050565b6000602082019050818103600083015261388581613439565b9050919050565b600060208201905081810360008301526138a58161345c565b9050919050565b600060208201905081810360008301526138c58161347f565b9050919050565b600060208201905081810360008301526138e5816134a2565b9050919050565b60006020820190508181036000830152613905816134c5565b9050919050565b60006020820190508181036000830152613925816134e8565b9050919050565b600060208201905081810360008301526139458161350b565b9050919050565b600060208201905081810360008301526139658161352e565b9050919050565b6000602082019050818103600083015261398581613551565b9050919050565b600060208201905081810360008301526139a581613574565b9050919050565b600060208201905081810360008301526139c581613597565b9050919050565b600060208201905081810360008301526139e5816135ba565b9050919050565b60006020820190508181036000830152613a05816135dd565b9050919050565b60006020820190508181036000830152613a2581613600565b9050919050565b60006020820190508181036000830152613a4581613623565b9050919050565b6000602082019050613a616000830184613646565b92915050565b600060c082019050613a7c6000830189613655565b613a896020830188613655565b613a966040830187613655565b613aa36060830186613655565b613ab06080830185613655565b613abd60a0830184613655565b979650505050505050565b6000602082019050613add6000830184613673565b92915050565b6000604082019050613af86000830185613673565b613b056020830184613673565b9392505050565b6000613b16613b27565b9050613b228282613e52565b919050565b6000604051905090565b600067ffffffffffffffff821115613b4c57613b4b613f59565b5b602082029050602081019050919050565b600067ffffffffffffffff821115613b7857613b77613f59565b5b602082029050602081019050919050565b600067ffffffffffffffff821115613ba457613ba3613f59565b5b613bad82613faa565b9050602081019050919050565b6000819050602082019050919050565b600081519050919050565b600081519050919050565b600081519050919050565b6000602082019050919050565b600082825260208201905092915050565b600082825260208201905092915050565b600082825260208201905092915050565b6000613c3682613dd4565b9150613c4183613dd4565b9250827fffffffffffffffffffffffffffffffffffffffffffffffffffffffffffffffff03821115613c7657613c75613ecc565b5b828201905092915050565b6000613c8c82613dd4565b9150613c9783613dd4565b925082613ca757613ca6613efb565b5b828204905092915050565b6000613cbd82613dd4565b9150613cc883613dd4565b9250817fffffffffffffffffffffffffffffffffffffffffffffffffffffffffffffffff0483118215151615613d0157613d00613ecc565b5b828202905092915050565b6000613d1782613dd4565b9150613d2283613dd4565b925082821015613d3557613d34613ecc565b5b828203905092915050565b6000613d4b82613db4565b9050919050565b60008115159050919050565b60007fffffffff0000000000000000000000000000000000000000000000000000000082169050919050565b60006fffffffffffffffffffffffffffffffff82169050919050565b600061ffff82169050919050565b600073ffffffffffffffffffffffffffffffffffffffff82169050919050565b6000819050919050565b82818337600083830152505050565b60005b83811015613e0b578082015181840152602081019050613df0565b83811115613e1a576000848401525b50505050565b60006002820490506001821680613e3857607f821691505b60208210811415613e4c57613e4b613f2a565b5b50919050565b613e5b82613faa565b810181811067ffffffffffffffff82111715613e7a57613e79613f59565b5b80604052505050565b6000613e8e82613dd4565b91507fffffffffffffffffffffffffffffffffffffffffffffffffffffffffffffffff821415613ec157613ec0613ecc565b5b600182019050919050565b7f4e487b7100000000000000000000000000000000000000000000000000000000600052601160045260246000fd5b7f4e487b7100000000000000000000000000000000000000000000000000000000600052601260045260246000fd5b7f4e487b7100000000000000000000000000000000000000000000000000000000600052602260045260246000fd5b7f4e487b7100000000000000000000000000000000000000000000000000000000600052604160045260246000fd5b600060033d1115613fa75760046000803e613fa4600051613fbb565b90505b90565b6000601f19601f8301169050919050565b60008160e01c9050919050565b7f455243313135353a207472616e7366657220746f206e6f6e204552433131353560008201527f526563656976657220696d706c656d656e746572000000000000000000000000602082015250565b7f455243313135353a204552433131353552656365697665722072656a6563746560008201527f6420746f6b656e73000000000000000000000000000000000000000000000000602082015250565b7f4e6f20617661696c61626c65206e6f6465730000000000000000000000000000600082015250565b7f455243313135353a2062616c616e636520717565727920666f7220746865207a60008201527f65726f2061646472657373000000000000000000000000000000000000000000602082015250565b7f4f776e61626c653a206e6577206f776e657220697320746865207a65726f206160008201527f6464726573730000000000000000000000000000000000000000000000000000602082015250565b7f455243313135353a2063616c6c6572206973206e6f74206f776e6572206e6f7260008201527f20617070726f7665640000000000000000000000000000000000000000000000602082015250565b7f596f7520446f6e2774204861766520456e6f7567682052657761726473000000600082015250565b7f455243313135353a207472616e7366657220746f20746865207a65726f20616460008201527f6472657373000000000000000000000000000000000000000000000000000000602082015250565b7f455243313135353a207472616e736665722063616c6c6572206973206e6f742060008201527f6f776e6572206e6f7220617070726f7665640000000000000000000000000000602082015250565b7f455243313135353a20696e73756666696369656e742062616c616e636520666f60008201527f72207472616e7366657200000000000000000000000000000000000000000000602082015250565b7f4e6f6465206e6f7420617661696c61626c650000000000000000000000000000600082015250565b7f4f776e61626c653a2063616c6c6572206973206e6f7420746865206f776e6572600082015250565b7f455243313135353a2073657474696e6720617070726f76616c2073746174757360008201527f20666f722073656c660000000000000000000000000000000000000000000000602082015250565b7f455243313135353a206163636f756e747320616e6420696473206c656e67746860008201527f206d69736d617463680000000000000000000000000000000000000000000000602082015250565b7f455243313135353a2069647320616e6420616d6f756e7473206c656e6774682060008201527f6d69736d61746368000000000000000000000000000000000000000000000000602082015250565b7f455243313135353a206d696e7420746f20746865207a65726f2061646472657360008201527f7300000000000000000000000000000000000000000000000000000000000000602082015250565b7f496e76616c696420546965720000000000000000000000000000000000000000600082015250565b600060443d1015614459576144dc565b614461613b27565b60043d036004823e80513d602482011167ffffffffffffffff821117156144895750506144dc565b808201805167ffffffffffffffff8111156144a757505050506144dc565b80602083010160043d0385018111156144c45750505050506144dc565b6144d382602001850186613e52565b82955050505050505b90565b6144e881613d40565b81146144f357600080fd5b50565b6144ff81613d52565b811461450a57600080fd5b50565b61451681613d5e565b811461452157600080fd5b50565b61452d81613dd4565b811461453857600080fd5b5056fea2646970667358221220c411d9c1fa7e973df1cf48de908f4c6c95bffdcd46974432ca24e353a7d2cc3764736f6c63430008040033",
  "linkReferences": {},
  "deployedLinkReferences": {}
}