{
  "_format": "hh-sol-artifact-1",
  "contractName": "PeachNode",
  "sourceName": "contracts/PeachNode.sol",
  "abi": [
    {
      "inputs": [
        {
          "internalType": "address",
          "name": "_peachToken",
          "type": "address"
        },
        {
          "internalType": "address",
          "name": "_taxContract",
          "type": "address"
        }
      ],
      "stateMutability": "nonpayable",
      "type": "constructor"
    },
    {
      "anonymous": false,
      "inputs": [
        {
          "indexed": true,
          "internalType": "address",
          "name": "account",
          "type": "address"
        },
        {
          "indexed": true,
          "internalType": "address",
          "name": "operator",
          "type": "address"
        },
        {
          "indexed": false,
          "internalType": "bool",
          "name": "approved",
          "type": "bool"
        }
      ],
      "name": "ApprovalForAll",
      "type": "event"
    },
    {
      "anonymous": false,
      "inputs": [
        {
          "indexed": true,
          "internalType": "address",
          "name": "previousOwner",
          "type": "address"
        },
        {
          "indexed": true,
          "internalType": "address",
          "name": "newOwner",
          "type": "address"
        }
      ],
      "name": "OwnershipTransferred",
      "type": "event"
    },
    {
      "anonymous": false,
      "inputs": [
        {
          "indexed": true,
          "internalType": "address",
          "name": "operator",
          "type": "address"
        },
        {
          "indexed": true,
          "internalType": "address",
          "name": "from",
          "type": "address"
        },
        {
          "indexed": true,
          "internalType": "address",
          "name": "to",
          "type": "address"
        },
        {
          "indexed": false,
          "internalType": "uint256[]",
          "name": "ids",
          "type": "uint256[]"
        },
        {
          "indexed": false,
          "internalType": "uint256[]",
          "name": "values",
          "type": "uint256[]"
        }
      ],
      "name": "TransferBatch",
      "type": "event"
    },
    {
      "anonymous": false,
      "inputs": [
        {
          "indexed": true,
          "internalType": "address",
          "name": "operator",
          "type": "address"
        },
        {
          "indexed": true,
          "internalType": "address",
          "name": "from",
          "type": "address"
        },
        {
          "indexed": true,
          "internalType": "address",
          "name": "to",
          "type": "address"
        },
        {
          "indexed": false,
          "internalType": "uint256",
          "name": "id",
          "type": "uint256"
        },
        {
          "indexed": false,
          "internalType": "uint256",
          "name": "value",
          "type": "uint256"
        }
      ],
      "name": "TransferSingle",
      "type": "event"
    },
    {
      "anonymous": false,
      "inputs": [
        {
          "indexed": false,
          "internalType": "string",
          "name": "value",
          "type": "string"
        },
        {
          "indexed": true,
          "internalType": "uint256",
          "name": "id",
          "type": "uint256"
        }
      ],
      "name": "URI",
      "type": "event"
    },
    {
      "inputs": [],
      "name": "_limit",
      "outputs": [
        {
          "internalType": "uint16",
          "name": "tier1",
          "type": "uint16"
        },
        {
          "internalType": "uint16",
          "name": "tier2",
          "type": "uint16"
        },
        {
          "internalType": "uint16",
          "name": "tier3",
          "type": "uint16"
        },
        {
          "internalType": "uint16",
          "name": "tier4",
          "type": "uint16"
        },
        {
          "internalType": "uint16",
          "name": "tier5",
          "type": "uint16"
        },
        {
          "internalType": "uint16",
          "name": "tier6",
          "type": "uint16"
        }
      ],
      "stateMutability": "view",
      "type": "function"
    },
    {
      "inputs": [],
      "name": "_rewards",
      "outputs": [
        {
          "internalType": "uint16",
          "name": "tier1",
          "type": "uint16"
        },
        {
          "internalType": "uint16",
          "name": "tier2",
          "type": "uint16"
        },
        {
          "internalType": "uint16",
          "name": "tier3",
          "type": "uint16"
        },
        {
          "internalType": "uint16",
          "name": "tier4",
          "type": "uint16"
        },
        {
          "internalType": "uint16",
          "name": "tier5",
          "type": "uint16"
        },
        {
          "internalType": "uint16",
          "name": "tier6",
          "type": "uint16"
        }
      ],
      "stateMutability": "view",
      "type": "function"
    },
    {
      "inputs": [],
      "name": "approveContract",
      "outputs": [],
      "stateMutability": "nonpayable",
      "type": "function"
    },
    {
      "inputs": [
        {
          "internalType": "address",
          "name": "account",
          "type": "address"
        },
        {
          "internalType": "uint256",
          "name": "id",
          "type": "uint256"
        }
      ],
      "name": "balanceOf",
      "outputs": [
        {
          "internalType": "uint256",
          "name": "",
          "type": "uint256"
        }
      ],
      "stateMutability": "view",
      "type": "function"
    },
    {
      "inputs": [
        {
          "internalType": "address[]",
          "name": "accounts",
          "type": "address[]"
        },
        {
          "internalType": "uint256[]",
          "name": "ids",
          "type": "uint256[]"
        }
      ],
      "name": "balanceOfBatch",
      "outputs": [
        {
          "internalType": "uint256[]",
          "name": "",
          "type": "uint256[]"
        }
      ],
      "stateMutability": "view",
      "type": "function"
    },
    {
      "inputs": [
        {
          "internalType": "uint256",
          "name": "_tier",
          "type": "uint256"
        }
      ],
      "name": "claimRewards",
      "outputs": [],
      "stateMutability": "nonpayable",
      "type": "function"
    },
    {
      "inputs": [
        {
          "internalType": "uint256",
          "name": "_tier",
          "type": "uint256"
        }
      ],
      "name": "compoundRewards",
      "outputs": [],
      "stateMutability": "nonpayable",
      "type": "function"
    },
    {
      "inputs": [
        {
          "internalType": "uint256",
          "name": "_tier",
          "type": "uint256"
        },
        {
          "internalType": "uint256",
          "name": "amount",
          "type": "uint256"
        }
      ],
      "name": "createNode",
      "outputs": [],
      "stateMutability": "nonpayable",
      "type": "function"
    },
    {
      "inputs": [],
      "name": "getBalance",
      "outputs": [
        {
          "internalType": "uint256",
          "name": "",
          "type": "uint256"
        }
      ],
      "stateMutability": "view",
      "type": "function"
    },
    {
      "inputs": [
        {
          "internalType": "address",
          "name": "account",
          "type": "address"
        },
        {
          "internalType": "address",
          "name": "operator",
          "type": "address"
        }
      ],
      "name": "isApprovedForAll",
      "outputs": [
        {
          "internalType": "bool",
          "name": "",
          "type": "bool"
        }
      ],
      "stateMutability": "view",
      "type": "function"
    },
    {
      "inputs": [],
      "name": "nodeCount",
      "outputs": [
        {
          "internalType": "uint256",
          "name": "",
          "type": "uint256"
        }
      ],
      "stateMutability": "view",
      "type": "function"
    },
    {
      "inputs": [],
      "name": "owner",
      "outputs": [
        {
          "internalType": "address",
          "name": "",
          "type": "address"
        }
      ],
      "stateMutability": "view",
      "type": "function"
    },
    {
      "inputs": [],
      "name": "priceSlotmachine",
      "outputs": [
        {
          "internalType": "uint256",
          "name": "",
          "type": "uint256"
        }
      ],
      "stateMutability": "view",
      "type": "function"
    },
    {
      "inputs": [],
      "name": "priceStandard",
      "outputs": [
        {
          "internalType": "uint256",
          "name": "",
          "type": "uint256"
        }
      ],
      "stateMutability": "view",
      "type": "function"
    },
    {
      "inputs": [],
      "name": "renounceOwnership",
      "outputs": [],
      "stateMutability": "nonpayable",
      "type": "function"
    },
    {
      "inputs": [
        {
          "internalType": "address",
          "name": "from",
          "type": "address"
        },
        {
          "internalType": "address",
          "name": "to",
          "type": "address"
        },
        {
          "internalType": "uint256[]",
          "name": "ids",
          "type": "uint256[]"
        },
        {
          "internalType": "uint256[]",
          "name": "amounts",
          "type": "uint256[]"
        },
        {
          "internalType": "bytes",
          "name": "data",
          "type": "bytes"
        }
      ],
      "name": "safeBatchTransferFrom",
      "outputs": [],
      "stateMutability": "nonpayable",
      "type": "function"
    },
    {
      "inputs": [
        {
          "internalType": "address",
          "name": "from",
          "type": "address"
        },
        {
          "internalType": "address",
          "name": "to",
          "type": "address"
        },
        {
          "internalType": "uint256",
          "name": "id",
          "type": "uint256"
        },
        {
          "internalType": "uint256",
          "name": "amount",
          "type": "uint256"
        },
        {
          "internalType": "bytes",
          "name": "data",
          "type": "bytes"
        }
      ],
      "name": "safeTransferFrom",
      "outputs": [],
      "stateMutability": "nonpayable",
      "type": "function"
    },
    {
      "inputs": [
        {
          "internalType": "address",
          "name": "operator",
          "type": "address"
        },
        {
          "internalType": "bool",
          "name": "approved",
          "type": "bool"
        }
      ],
      "name": "setApprovalForAll",
      "outputs": [],
      "stateMutability": "nonpayable",
      "type": "function"
    },
    {
      "inputs": [],
      "name": "setSlotPrice",
      "outputs": [],
      "stateMutability": "nonpayable",
      "type": "function"
    },
    {
      "inputs": [],
      "name": "setStandardPrice",
      "outputs": [],
      "stateMutability": "nonpayable",
      "type": "function"
    },
    {
      "inputs": [
        {
          "internalType": "bytes4",
          "name": "interfaceId",
          "type": "bytes4"
        }
      ],
      "name": "supportsInterface",
      "outputs": [
        {
          "internalType": "bool",
          "name": "",
          "type": "bool"
        }
      ],
      "stateMutability": "view",
      "type": "function"
    },
    {
      "inputs": [],
      "name": "time",
      "outputs": [
        {
          "internalType": "uint128",
          "name": "",
          "type": "uint128"
        }
      ],
      "stateMutability": "view",
      "type": "function"
    },
    {
      "inputs": [
        {
          "internalType": "address",
          "name": "newOwner",
          "type": "address"
        }
      ],
      "name": "transferOwnership",
      "outputs": [],
      "stateMutability": "nonpayable",
      "type": "function"
    },
    {
      "inputs": [
        {
          "internalType": "uint256",
          "name": "",
          "type": "uint256"
        }
      ],
      "name": "uri",
      "outputs": [
        {
          "internalType": "string",
          "name": "",
          "type": "string"
        }
      ],
      "stateMutability": "view",
      "type": "function"
    }
  ],
  "bytecode": "0x6080604052670de0b6b3a76400006006556006546014620000219190620005af565b6007556006546014620000359190620005af565b60085562015180600960006101000a8154816fffffffffffffffffffffffffffffffff02191690836fffffffffffffffffffffffffffffffff1602179055506040518060c001604052806103e861ffff16815260200161019061ffff16815260200161012c61ffff16815260200160fa61ffff16815260200160c861ffff168152602001604b61ffff16815250600a60008201518160000160006101000a81548161ffff021916908361ffff16021790555060208201518160000160026101000a81548161ffff021916908361ffff16021790555060408201518160000160046101000a81548161ffff021916908361ffff16021790555060608201518160000160066101000a81548161ffff021916908361ffff16021790555060808201518160000160086101000a81548161ffff021916908361ffff16021790555060a082015181600001600a6101000a81548161ffff021916908361ffff16021790555050506040518060c001604052806101c261ffff1681526020016109c461ffff16815260200161138861ffff16815260200161271061ffff168152602001614e2061ffff168152602001600061ffff16815250600b60008201518160000160006101000a81548161ffff021916908361ffff16021790555060208201518160000160026101000a81548161ffff021916908361ffff16021790555060408201518160000160046101000a81548161ffff021916908361ffff16021790555060608201518160000160066101000a81548161ffff021916908361ffff16021790555060808201518160000160086101000a81548161ffff021916908361ffff16021790555060a082015181600001600a6101000a81548161ffff021916908361ffff1602179055505050348015620002cb57600080fd5b5060405162004ef238038062004ef28339818101604052810190620002f191906200056e565b604051806020016040528060008152506200031281620003bd60201b60201c565b506200033362000327620003d960201b60201c565b620003e160201b60201c565b81600460006101000a81548173ffffffffffffffffffffffffffffffffffffffff021916908373ffffffffffffffffffffffffffffffffffffffff16021790555080600560006101000a81548173ffffffffffffffffffffffffffffffffffffffff021916908373ffffffffffffffffffffffffffffffffffffffff1602179055505050620006fc565b8060029080519060200190620003d5929190620004a7565b5050565b600033905090565b6000600360009054906101000a900473ffffffffffffffffffffffffffffffffffffffff16905081600360006101000a81548173ffffffffffffffffffffffffffffffffffffffff021916908373ffffffffffffffffffffffffffffffffffffffff1602179055508173ffffffffffffffffffffffffffffffffffffffff168173ffffffffffffffffffffffffffffffffffffffff167f8be0079c531659141344cd1fd0a4f28419497f9722a3daafe3b4186f6b6457e060405160405180910390a35050565b828054620004b5906200064e565b90600052602060002090601f016020900481019282620004d9576000855562000525565b82601f10620004f457805160ff191683800117855562000525565b8280016001018555821562000525579182015b828111156200052457825182559160200191906001019062000507565b5b50905062000534919062000538565b5090565b5b808211156200055357600081600090555060010162000539565b5090565b6000815190506200056881620006e2565b92915050565b600080604083850312156200058257600080fd5b6000620005928582860162000557565b9250506020620005a58582860162000557565b9150509250929050565b6000620005bc8262000644565b9150620005c98362000644565b9250817fffffffffffffffffffffffffffffffffffffffffffffffffffffffffffffffff048311821515161562000605576200060462000684565b5b828202905092915050565b60006200061d8262000624565b9050919050565b600073ffffffffffffffffffffffffffffffffffffffff82169050919050565b6000819050919050565b600060028204905060018216806200066757607f821691505b602082108114156200067e576200067d620006b3565b5b50919050565b7f4e487b7100000000000000000000000000000000000000000000000000000000600052601160045260246000fd5b7f4e487b7100000000000000000000000000000000000000000000000000000000600052602260045260246000fd5b620006ed8162000610565b8114620006f957600080fd5b50565b6147e6806200070c6000396000f3fe608060405234801561001057600080fd5b50600436106101575760003560e01c8063656c579f116100c3578063a22cb4651161007c578063a22cb46514610368578063a6c2da4c14610384578063df2fb92c146103a7578063e985e9c5146103ca578063f242432a146103fa578063f2fde38b1461041657610157565b8063656c579f146102f25780636da49b831461030e578063715018a61461032c578063747f5fb0146103365780638da5cb5b146103405780639e3265991461035e57610157565b80631f909fa8116101155780631f909fa8146102445780632eb2c2d614610262578063330f3c5a1461027e57806343d00d041461029a5780634e1273f4146102a457806360ca5b65146102d457610157565b8062fdd58e1461015c57806301ffc9a71461018c5780630962ef79146101bc5780630e89341c146101d857806312065fe01461020857806316ada54714610226575b600080fd5b6101766004803603810190610171919061331c565b610432565b6040516101839190613d14565b60405180910390f35b6101a660048036038101906101a191906133ed565b6104fb565b6040516101b39190613a1b565b60405180910390f35b6101d660048036038101906101d1919061343f565b6105dd565b005b6101f260048036038101906101ed919061343f565b610708565b6040516101ff9190613a36565b60405180910390f35b61021061079c565b60405161021d9190613d14565b60405180910390f35b61022e61084e565b60405161023b9190613c98565b60405180910390f35b61024c610870565b6040516102599190613d14565b60405180910390f35b61027c60048036038101906102779190613192565b610876565b005b61029860048036038101906102939190613491565b610917565b005b6102a2610d41565b005b6102be60048036038101906102b99190613358565b610e13565b6040516102cb91906139c2565b60405180910390f35b6102dc610fc4565b6040516102e99190613d14565b60405180910390f35b61030c6004803603810190610307919061343f565b610fca565b005b610316611197565b6040516103239190613d14565b60405180910390f35b61033461119d565b005b61033e611225565b005b6103486114a5565b6040516103559190613885565b60405180910390f35b6103666114cf565b005b610382600480360381019061037d91906132e0565b6117a3565b005b61038c6117b9565b60405161039e96959493929190613cb3565b60405180910390f35b6103af611837565b6040516103c196959493929190613cb3565b60405180910390f35b6103e460048036038101906103df9190613156565b6118b5565b6040516103f19190613a1b565b60405180910390f35b610414600480360381019061040f9190613251565b611949565b005b610430600480360381019061042b919061312d565b6119ea565b005b60008073ffffffffffffffffffffffffffffffffffffffff168373ffffffffffffffffffffffffffffffffffffffff1614156104a3576040517f08c379a000000000000000000000000000000000000000000000000000000000815260040161049a90613ab8565b60405180910390fd5b60008083815260200190815260200160002060008473ffffffffffffffffffffffffffffffffffffffff1673ffffffffffffffffffffffffffffffffffffffff16815260200190815260200160002054905092915050565b60007fd9b67a26000000000000000000000000000000000000000000000000000000007bffffffffffffffffffffffffffffffffffffffffffffffffffffffff1916827bffffffffffffffffffffffffffffffffffffffffffffffffffffffff191614806105c657507f0e89341c000000000000000000000000000000000000000000000000000000007bffffffffffffffffffffffffffffffffffffffffffffffffffffffff1916827bffffffffffffffffffffffffffffffffffffffffffffffffffffffff1916145b806105d657506105d582611ae2565b5b9050919050565b600033905060006105ee8284611b4c565b905060018111610633576040517f08c379a000000000000000000000000000000000000000000000000000000000815260040161062a90613b18565b60405180910390fd5b60006064600c836106449190613efe565b61064e9190613ecd565b9050600460009054906101000a900473ffffffffffffffffffffffffffffffffffffffff1673ffffffffffffffffffffffffffffffffffffffff166323b872dd3085846040518463ffffffff1660e01b81526004016106af93929190613908565b602060405180830381600087803b1580156106c957600080fd5b505af11580156106dd573d6000803e3d6000fd5b505050506040513d601f19601f8201168201806040525081019061070191906133c4565b5050505050565b6060600280546107179061406c565b80601f01602080910402602001604051908101604052809291908181526020018280546107439061406c565b80156107905780601f1061076557610100808354040283529160200191610790565b820191906000526020600020905b81548152906001019060200180831161077357829003601f168201915b50505050509050919050565b6000600460009054906101000a900473ffffffffffffffffffffffffffffffffffffffff1673ffffffffffffffffffffffffffffffffffffffff166370a08231336040518263ffffffff1660e01b81526004016107f99190613885565b60206040518083038186803b15801561081157600080fd5b505afa158015610825573d6000803e3d6000fd5b505050506040513d601f19601f820116820180604052508101906108499190613468565b905090565b600960009054906101000a90046fffffffffffffffffffffffffffffffff1681565b60085481565b61087e611e40565b73ffffffffffffffffffffffffffffffffffffffff168573ffffffffffffffffffffffffffffffffffffffff1614806108c457506108c3856108be611e40565b6118b5565b5b610903576040517f08c379a00000000000000000000000000000000000000000000000000000000081526004016108fa90613b58565b60405180910390fd5b6109108585858585611e48565b5050505050565b60003390506001831015801561092d5750600783105b61096c576040517f08c379a000000000000000000000000000000000000000000000000000000000815260040161096390613c78565b60405180910390fd5b61097683836121a8565b6109b5576040517f08c379a00000000000000000000000000000000000000000000000000000000081526004016109ac90613b98565b60405180910390fd5b6006600c60008581526020019081526020016000205414156109de576109d9611225565b6109e7565b6109e66114cf565b5b6000600460009054906101000a900473ffffffffffffffffffffffffffffffffffffffff1673ffffffffffffffffffffffffffffffffffffffff166370a08231836040518263ffffffff1660e01b8152600401610a449190613885565b60206040518083038186803b158015610a5c57600080fd5b505afa158015610a70573d6000803e3d6000fd5b505050506040513d601f19601f82011682018060405250810190610a949190613468565b9050600e60008373ffffffffffffffffffffffffffffffffffffffff1673ffffffffffffffffffffffffffffffffffffffff16815260200190815260200160002054811015610b18576040517f08c379a0000000000000000000000000000000000000000000000000000000008152600401610b0f90613bd8565b60405180910390fd5b600083600e60008573ffffffffffffffffffffffffffffffffffffffff1673ffffffffffffffffffffffffffffffffffffffff16815260200190815260200160002054610b659190613efe565b9050600460009054906101000a900473ffffffffffffffffffffffffffffffffffffffff1673ffffffffffffffffffffffffffffffffffffffff166323b872dd8430846040518463ffffffff1660e01b8152600401610bc693929190613908565b602060405180830381600087803b158015610be057600080fd5b505af1158015610bf4573d6000803e3d6000fd5b505050506040513d601f19601f82011682018060405250810190610c1891906133c4565b5060005b84811015610cdb57600d60008573ffffffffffffffffffffffffffffffffffffffff1673ffffffffffffffffffffffffffffffffffffffff16815260200190815260200160002060008781526020019081526020016000206040518060400160405280888152602001428152509080600181540180825580915050600190039060005260206000209060020201600090919091909150600082015181600001556020820151816001015550508080610cd3906140cf565b915050610c1c565b50610cf7838686604051806020016040528060008152506123fc565b83600c60008781526020019081526020016000206000828254610d1a9190613e77565b9250508190555083600f6000828254610d339190613e77565b925050819055505050505050565b600460009054906101000a900473ffffffffffffffffffffffffffffffffffffffff1673ffffffffffffffffffffffffffffffffffffffff1663095ea7b3307fffffffffffffffffffffffffffffffffffffffffffffffffffffffffffffffff6040518363ffffffff1660e01b8152600401610dbe929190613999565b602060405180830381600087803b158015610dd857600080fd5b505af1158015610dec573d6000803e3d6000fd5b505050506040513d601f19601f82011682018060405250810190610e1091906133c4565b50565b60608151835114610e59576040517f08c379a0000000000000000000000000000000000000000000000000000000008152600401610e5090613c18565b60405180910390fd5b6000835167ffffffffffffffff811115610e9c577f4e487b7100000000000000000000000000000000000000000000000000000000600052604160045260246000fd5b604051908082528060200260200182016040528015610eca5781602001602082028036833780820191505090505b50905060005b8451811015610fb957610f63858281518110610f15577f4e487b7100000000000000000000000000000000000000000000000000000000600052603260045260246000fd5b6020026020010151858381518110610f56577f4e487b7100000000000000000000000000000000000000000000000000000000600052603260045260246000fd5b6020026020010151610432565b828281518110610f9c577f4e487b7100000000000000000000000000000000000000000000000000000000600052603260045260246000fd5b60200260200101818152505080610fb2906140cf565b9050610ed0565b508091505092915050565b60075481565b60003390506000610fdb8284611b4c565b90506006600c600085815260200190815260200160002054141561100657611001611225565b61100f565b61100e6114cf565b5b600e60008373ffffffffffffffffffffffffffffffffffffffff1673ffffffffffffffffffffffffffffffffffffffff16815260200190815260200160002054811015611091576040517f08c379a000000000000000000000000000000000000000000000000000000000815260040161108890613b18565b60405180910390fd5b600d60008373ffffffffffffffffffffffffffffffffffffffff1673ffffffffffffffffffffffffffffffffffffffff168152602001908152602001600020600084815260200190815260200160002060405180604001604052808581526020014281525090806001815401808255809150506001900390600052602060002090600202016000909190919091506000820151816000015560208201518160010155505061115182846001604051806020016040528060008152506123fc565b600c60008481526020019081526020016000206000815480929190611175906140cf565b9190505550600f600081548092919061118d906140cf565b9190505550505050565b600f5481565b6111a5611e40565b73ffffffffffffffffffffffffffffffffffffffff166111c36114a5565b73ffffffffffffffffffffffffffffffffffffffff1614611219576040517f08c379a000000000000000000000000000000000000000000000000000000000815260040161121090613bb8565b60405180910390fd5b6112236000612592565b565b60003390506000611237826006610432565b9050600a81101561128d57600854600e60003373ffffffffffffffffffffffffffffffffffffffff1673ffffffffffffffffffffffffffffffffffffffff168152602001908152602001600020819055506114a1565b600a811015801561129e5750601481105b156112fa5760065460196112b29190613efe565b600e60003373ffffffffffffffffffffffffffffffffffffffff1673ffffffffffffffffffffffffffffffffffffffff168152602001908152602001600020819055506114a0565b6014811015801561130b5750602881105b1561136757600654601e61131f9190613efe565b600e60003373ffffffffffffffffffffffffffffffffffffffff1673ffffffffffffffffffffffffffffffffffffffff1681526020019081526020016000208190555061149f565b602881101580156113785750605081105b156113d457600654602361138c9190613efe565b600e60003373ffffffffffffffffffffffffffffffffffffffff1673ffffffffffffffffffffffffffffffffffffffff1681526020019081526020016000208190555061149e565b605081101580156113e55750606481105b156114415760065460286113f99190613efe565b600e60003373ffffffffffffffffffffffffffffffffffffffff1673ffffffffffffffffffffffffffffffffffffffff1681526020019081526020016000208190555061149d565b6064811061149c57600654602d6114589190613efe565b600e60003373ffffffffffffffffffffffffffffffffffffffff1673ffffffffffffffffffffffffffffffffffffffff168152602001908152602001600020819055505b5b5b5b5b5b5050565b6000600360009054906101000a900473ffffffffffffffffffffffffffffffffffffffff16905090565b600033905060006114e1826005610432565b6114ec836004610432565b6114f7846003610432565b611502856002610432565b61150d866001610432565b6115179190613e77565b6115219190613e77565b61152b9190613e77565b6115359190613e77565b9050600a81101561158b57600754600e60003373ffffffffffffffffffffffffffffffffffffffff1673ffffffffffffffffffffffffffffffffffffffff1681526020019081526020016000208190555061179f565b600a811015801561159c5750601481105b156115f85760065460196115b09190613efe565b600e60003373ffffffffffffffffffffffffffffffffffffffff1673ffffffffffffffffffffffffffffffffffffffff1681526020019081526020016000208190555061179e565b601481101580156116095750602881105b1561166557600654601e61161d9190613efe565b600e60003373ffffffffffffffffffffffffffffffffffffffff1673ffffffffffffffffffffffffffffffffffffffff1681526020019081526020016000208190555061179d565b602881101580156116765750605081105b156116d257600654602361168a9190613efe565b600e60003373ffffffffffffffffffffffffffffffffffffffff1673ffffffffffffffffffffffffffffffffffffffff1681526020019081526020016000208190555061179c565b605081101580156116e35750606481105b1561173f5760065460286116f79190613efe565b600e60003373ffffffffffffffffffffffffffffffffffffffff1673ffffffffffffffffffffffffffffffffffffffff1681526020019081526020016000208190555061179b565b6064811061179a57600654602d6117569190613efe565b600e60003373ffffffffffffffffffffffffffffffffffffffff1673ffffffffffffffffffffffffffffffffffffffff168152602001908152602001600020819055505b5b5b5b5b5b5050565b6117b56117ae611e40565b8383612658565b5050565b600a8060000160009054906101000a900461ffff16908060000160029054906101000a900461ffff16908060000160049054906101000a900461ffff16908060000160069054906101000a900461ffff16908060000160089054906101000a900461ffff169080600001600a9054906101000a900461ffff16905086565b600b8060000160009054906101000a900461ffff16908060000160029054906101000a900461ffff16908060000160049054906101000a900461ffff16908060000160069054906101000a900461ffff16908060000160089054906101000a900461ffff169080600001600a9054906101000a900461ffff16905086565b6000600160008473ffffffffffffffffffffffffffffffffffffffff1673ffffffffffffffffffffffffffffffffffffffff16815260200190815260200160002060008373ffffffffffffffffffffffffffffffffffffffff1673ffffffffffffffffffffffffffffffffffffffff16815260200190815260200160002060009054906101000a900460ff16905092915050565b611951611e40565b73ffffffffffffffffffffffffffffffffffffffff168573ffffffffffffffffffffffffffffffffffffffff161480611997575061199685611991611e40565b6118b5565b5b6119d6576040517f08c379a00000000000000000000000000000000000000000000000000000000081526004016119cd90613af8565b60405180910390fd5b6119e385858585856127c5565b5050505050565b6119f2611e40565b73ffffffffffffffffffffffffffffffffffffffff16611a106114a5565b73ffffffffffffffffffffffffffffffffffffffff1614611a66576040517f08c379a0000000000000000000000000000000000000000000000000000000008152600401611a5d90613bb8565b60405180910390fd5b600073ffffffffffffffffffffffffffffffffffffffff168173ffffffffffffffffffffffffffffffffffffffff161415611ad6576040517f08c379a0000000000000000000000000000000000000000000000000000000008152600401611acd90613ad8565b60405180910390fd5b611adf81612592565b50565b60007f01ffc9a7000000000000000000000000000000000000000000000000000000007bffffffffffffffffffffffffffffffffffffffffffffffffffffffff1916827bffffffffffffffffffffffffffffffffffffffffffffffffffffffff1916149050919050565b600060018210158015611b5f5750600782105b611b9e576040517f08c379a0000000000000000000000000000000000000000000000000000000008152600401611b9590613c78565b60405180910390fd5b60006001831415611bc857600a60000160009054906101000a900461ffff1661ffff169050611c91565b6002831415611bf057600a60000160029054906101000a900461ffff1661ffff169050611c90565b6003831415611c1857600a60000160049054906101000a900461ffff1661ffff169050611c8f565b6004831415611c4057600a60000160069054906101000a900461ffff1661ffff169050611c8e565b6005831415611c6857600a60000160089054906101000a900461ffff1661ffff169050611c8d565b6006831415611c8c57600a600001600a9054906101000a900461ffff1661ffff1690505b5b5b5b5b5b60008490506000600d60008373ffffffffffffffffffffffffffffffffffffffff1673ffffffffffffffffffffffffffffffffffffffff1681526020019081526020016000206000868152602001908152602001600020905060008180549050905060008111611d36576040517f08c379a0000000000000000000000000000000000000000000000000000000008152600401611d2d90613a98565b60405180910390fd5b6000806000905060005b83811015611e3057848181548110611d81577f4e487b7100000000000000000000000000000000000000000000000000000000600052603260045260246000fd5b906000526020600020906002020192506000600960009054906101000a90046fffffffffffffffffffffffffffffffff166fffffffffffffffffffffffffffffffff16846001015442611dd49190613f58565b611dde9190613ecd565b90506103e88860065483611df29190613efe565b611dfc9190613efe565b611e069190613ecd565b83611e119190613e77565b9250428460010181905550508080611e28906140cf565b915050611d40565b5080965050505050505092915050565b600033905090565b8151835114611e8c576040517f08c379a0000000000000000000000000000000000000000000000000000000008152600401611e8390613c38565b60405180910390fd5b600073ffffffffffffffffffffffffffffffffffffffff168473ffffffffffffffffffffffffffffffffffffffff161415611efc576040517f08c379a0000000000000000000000000000000000000000000000000000000008152600401611ef390613b38565b60405180910390fd5b6000611f06611e40565b9050611f16818787878787612a47565b60005b8451811015612113576000858281518110611f5d577f4e487b7100000000000000000000000000000000000000000000000000000000600052603260045260246000fd5b602002602001015190506000858381518110611fa2577f4e487b7100000000000000000000000000000000000000000000000000000000600052603260045260246000fd5b60200260200101519050600080600084815260200190815260200160002060008b73ffffffffffffffffffffffffffffffffffffffff1673ffffffffffffffffffffffffffffffffffffffff16815260200190815260200160002054905081811015612043576040517f08c379a000000000000000000000000000000000000000000000000000000000815260040161203a90613b78565b60405180910390fd5b81810360008085815260200190815260200160002060008c73ffffffffffffffffffffffffffffffffffffffff1673ffffffffffffffffffffffffffffffffffffffff168152602001908152602001600020819055508160008085815260200190815260200160002060008b73ffffffffffffffffffffffffffffffffffffffff1673ffffffffffffffffffffffffffffffffffffffff16815260200190815260200160002060008282546120f89190613e77565b925050819055505050508061210c906140cf565b9050611f19565b508473ffffffffffffffffffffffffffffffffffffffff168673ffffffffffffffffffffffffffffffffffffffff168273ffffffffffffffffffffffffffffffffffffffff167f4a39dc06d4c0dbc64b70af90fd698a233a518aa5d07e595d983b8c0526c8f7fb878760405161218a9291906139e4565b60405180910390a46121a0818787878787612a4f565b505050505050565b6000600183101580156121bb5750600783105b6121c457600080fd5b6001600c600085815260200190815260200160002054141561222b57600b60000160009054906101000a900461ffff1661ffff1682600c6000868152602001908152602001600020546122179190613e77565b111561222657600090506123f6565b6123f1565b6002600c600085815260200190815260200160002054141561229257600b60000160029054906101000a900461ffff1661ffff1682600c60008681526020019081526020016000205461227e9190613e77565b111561228d57600090506123f6565b6123f0565b6003600c60008581526020019081526020016000205414156122f957600b60000160049054906101000a900461ffff1661ffff1682600c6000868152602001908152602001600020546122e59190613e77565b11156122f457600090506123f6565b6123ef565b6004600c600085815260200190815260200160002054141561236057600b60000160069054906101000a900461ffff1661ffff1682600c60008681526020019081526020016000205461234c9190613e77565b111561235b57600090506123f6565b6123ee565b6005600c60008581526020019081526020016000205414156123c757600b60000160089054906101000a900461ffff1661ffff1682600c6000868152602001908152602001600020546123b39190613e77565b11156123c257600090506123f6565b6123ed565b6006600c60008581526020019081526020016000205414156123ec57600190506123f6565b5b5b5b5b5b600190505b92915050565b600073ffffffffffffffffffffffffffffffffffffffff168473ffffffffffffffffffffffffffffffffffffffff16141561246c576040517f08c379a000000000000000000000000000000000000000000000000000000000815260040161246390613c58565b60405180910390fd5b6000612476611e40565b90506124978160008761248888612c36565b61249188612c36565b87612a47565b8260008086815260200190815260200160002060008773ffffffffffffffffffffffffffffffffffffffff1673ffffffffffffffffffffffffffffffffffffffff16815260200190815260200160002060008282546124f69190613e77565b925050819055508473ffffffffffffffffffffffffffffffffffffffff16600073ffffffffffffffffffffffffffffffffffffffff168273ffffffffffffffffffffffffffffffffffffffff167fc3d58168c5ae7397731d063d5bbf3d657854427343f4c083240f7aacaa2d0f628787604051612574929190613d2f565b60405180910390a461258b81600087878787612cfc565b5050505050565b6000600360009054906101000a900473ffffffffffffffffffffffffffffffffffffffff16905081600360006101000a81548173ffffffffffffffffffffffffffffffffffffffff021916908373ffffffffffffffffffffffffffffffffffffffff1602179055508173ffffffffffffffffffffffffffffffffffffffff168173ffffffffffffffffffffffffffffffffffffffff167f8be0079c531659141344cd1fd0a4f28419497f9722a3daafe3b4186f6b6457e060405160405180910390a35050565b8173ffffffffffffffffffffffffffffffffffffffff168373ffffffffffffffffffffffffffffffffffffffff1614156126c7576040517f08c379a00000000000000000000000000000000000000000000000000000000081526004016126be90613bf8565b60405180910390fd5b80600160008573ffffffffffffffffffffffffffffffffffffffff1673ffffffffffffffffffffffffffffffffffffffff16815260200190815260200160002060008473ffffffffffffffffffffffffffffffffffffffff1673ffffffffffffffffffffffffffffffffffffffff16815260200190815260200160002060006101000a81548160ff0219169083151502179055508173ffffffffffffffffffffffffffffffffffffffff168373ffffffffffffffffffffffffffffffffffffffff167f17307eab39ab6107e8899845ad3d59bd9653f200f220920489ca2b5937696c31836040516127b89190613a1b565b60405180910390a3505050565b600073ffffffffffffffffffffffffffffffffffffffff168473ffffffffffffffffffffffffffffffffffffffff161415612835576040517f08c379a000000000000000000000000000000000000000000000000000000000815260040161282c90613b38565b60405180910390fd5b600061283f611e40565b905061285f81878761285088612c36565b61285988612c36565b87612a47565b600080600086815260200190815260200160002060008873ffffffffffffffffffffffffffffffffffffffff1673ffffffffffffffffffffffffffffffffffffffff168152602001908152602001600020549050838110156128f6576040517f08c379a00000000000000000000000000000000000000000000000000000000081526004016128ed90613b78565b60405180910390fd5b83810360008087815260200190815260200160002060008973ffffffffffffffffffffffffffffffffffffffff1673ffffffffffffffffffffffffffffffffffffffff168152602001908152602001600020819055508360008087815260200190815260200160002060008873ffffffffffffffffffffffffffffffffffffffff1673ffffffffffffffffffffffffffffffffffffffff16815260200190815260200160002060008282546129ab9190613e77565b925050819055508573ffffffffffffffffffffffffffffffffffffffff168773ffffffffffffffffffffffffffffffffffffffff168373ffffffffffffffffffffffffffffffffffffffff167fc3d58168c5ae7397731d063d5bbf3d657854427343f4c083240f7aacaa2d0f628888604051612a28929190613d2f565b60405180910390a4612a3e828888888888612cfc565b50505050505050565b505050505050565b612a6e8473ffffffffffffffffffffffffffffffffffffffff16612ee3565b15612c2e578373ffffffffffffffffffffffffffffffffffffffff1663bc197c8187878686866040518663ffffffff1660e01b8152600401612ab49594939291906138a0565b602060405180830381600087803b158015612ace57600080fd5b505af1925050508015612aff57506040513d601f19601f82011682018060405250810190612afc9190613416565b60015b612ba557612b0b6141d4565b806308c379a01415612b685750612b206146be565b80612b2b5750612b6a565b806040517f08c379a0000000000000000000000000000000000000000000000000000000008152600401612b5f9190613a36565b60405180910390fd5b505b6040517f08c379a0000000000000000000000000000000000000000000000000000000008152600401612b9c90613a58565b60405180910390fd5b63bc197c8160e01b7bffffffffffffffffffffffffffffffffffffffffffffffffffffffff1916817bffffffffffffffffffffffffffffffffffffffffffffffffffffffff191614612c2c576040517f08c379a0000000000000000000000000000000000000000000000000000000008152600401612c2390613a78565b60405180910390fd5b505b505050505050565b60606000600167ffffffffffffffff811115612c7b577f4e487b7100000000000000000000000000000000000000000000000000000000600052604160045260246000fd5b604051908082528060200260200182016040528015612ca95781602001602082028036833780820191505090505b5090508281600081518110612ce7577f4e487b7100000000000000000000000000000000000000000000000000000000600052603260045260246000fd5b60200260200101818152505080915050919050565b612d1b8473ffffffffffffffffffffffffffffffffffffffff16612ee3565b15612edb578373ffffffffffffffffffffffffffffffffffffffff1663f23a6e6187878686866040518663ffffffff1660e01b8152600401612d6195949392919061393f565b602060405180830381600087803b158015612d7b57600080fd5b505af1925050508015612dac57506040513d601f19601f82011682018060405250810190612da99190613416565b60015b612e5257612db86141d4565b806308c379a01415612e155750612dcd6146be565b80612dd85750612e17565b806040517f08c379a0000000000000000000000000000000000000000000000000000000008152600401612e0c9190613a36565b60405180910390fd5b505b6040517f08c379a0000000000000000000000000000000000000000000000000000000008152600401612e4990613a58565b60405180910390fd5b63f23a6e6160e01b7bffffffffffffffffffffffffffffffffffffffffffffffffffffffff1916817bffffffffffffffffffffffffffffffffffffffffffffffffffffffff191614612ed9576040517f08c379a0000000000000000000000000000000000000000000000000000000008152600401612ed090613a78565b60405180910390fd5b505b505050505050565b6000808273ffffffffffffffffffffffffffffffffffffffff163b119050919050565b6000612f19612f1484613d7d565b613d58565b90508083825260208201905082856020860282011115612f3857600080fd5b60005b85811015612f685781612f4e888261301c565b845260208401935060208301925050600181019050612f3b565b5050509392505050565b6000612f85612f8084613da9565b613d58565b90508083825260208201905082856020860282011115612fa457600080fd5b60005b85811015612fd45781612fba8882613103565b845260208401935060208301925050600181019050612fa7565b5050509392505050565b6000612ff1612fec84613dd5565b613d58565b90508281526020810184848401111561300957600080fd5b61301484828561402a565b509392505050565b60008135905061302b81614754565b92915050565b600082601f83011261304257600080fd5b8135613052848260208601612f06565b91505092915050565b600082601f83011261306c57600080fd5b813561307c848260208601612f72565b91505092915050565b6000813590506130948161476b565b92915050565b6000815190506130a98161476b565b92915050565b6000813590506130be81614782565b92915050565b6000815190506130d381614782565b92915050565b600082601f8301126130ea57600080fd5b81356130fa848260208601612fde565b91505092915050565b60008135905061311281614799565b92915050565b60008151905061312781614799565b92915050565b60006020828403121561313f57600080fd5b600061314d8482850161301c565b91505092915050565b6000806040838503121561316957600080fd5b60006131778582860161301c565b92505060206131888582860161301c565b9150509250929050565b600080600080600060a086880312156131aa57600080fd5b60006131b88882890161301c565b95505060206131c98882890161301c565b945050604086013567ffffffffffffffff8111156131e657600080fd5b6131f28882890161305b565b935050606086013567ffffffffffffffff81111561320f57600080fd5b61321b8882890161305b565b925050608086013567ffffffffffffffff81111561323857600080fd5b613244888289016130d9565b9150509295509295909350565b600080600080600060a0868803121561326957600080fd5b60006132778882890161301c565b95505060206132888882890161301c565b945050604061329988828901613103565b93505060606132aa88828901613103565b925050608086013567ffffffffffffffff8111156132c757600080fd5b6132d3888289016130d9565b9150509295509295909350565b600080604083850312156132f357600080fd5b60006133018582860161301c565b925050602061331285828601613085565b9150509250929050565b6000806040838503121561332f57600080fd5b600061333d8582860161301c565b925050602061334e85828601613103565b9150509250929050565b6000806040838503121561336b57600080fd5b600083013567ffffffffffffffff81111561338557600080fd5b61339185828601613031565b925050602083013567ffffffffffffffff8111156133ae57600080fd5b6133ba8582860161305b565b9150509250929050565b6000602082840312156133d657600080fd5b60006133e48482850161309a565b91505092915050565b6000602082840312156133ff57600080fd5b600061340d848285016130af565b91505092915050565b60006020828403121561342857600080fd5b6000613436848285016130c4565b91505092915050565b60006020828403121561345157600080fd5b600061345f84828501613103565b91505092915050565b60006020828403121561347a57600080fd5b600061348884828501613118565b91505092915050565b600080604083850312156134a457600080fd5b60006134b285828601613103565b92505060206134c385828601613103565b9150509250929050565b60006134d98383613867565b60208301905092915050565b6134ee81613f8c565b82525050565b60006134ff82613e16565b6135098185613e44565b935061351483613e06565b8060005b8381101561354557815161352c88826134cd565b975061353783613e37565b925050600181019050613518565b5085935050505092915050565b61355b81613f9e565b82525050565b600061356c82613e21565b6135768185613e55565b9350613586818560208601614039565b61358f816141f6565b840191505092915050565b60006135a582613e2c565b6135af8185613e66565b93506135bf818560208601614039565b6135c8816141f6565b840191505092915050565b60006135e0603483613e66565b91506135eb82614214565b604082019050919050565b6000613603602883613e66565b915061360e82614263565b604082019050919050565b6000613626601283613e66565b9150613631826142b2565b602082019050919050565b6000613649602b83613e66565b9150613654826142db565b604082019050919050565b600061366c602683613e66565b91506136778261432a565b604082019050919050565b600061368f602983613e66565b915061369a82614379565b604082019050919050565b60006136b2601d83613e66565b91506136bd826143c8565b602082019050919050565b60006136d5602583613e66565b91506136e0826143f1565b604082019050919050565b60006136f8603283613e66565b915061370382614440565b604082019050919050565b600061371b602a83613e66565b91506137268261448f565b604082019050919050565b600061373e601283613e66565b9150613749826144de565b602082019050919050565b6000613761602083613e66565b915061376c82614507565b602082019050919050565b6000613784601483613e66565b915061378f82614530565b602082019050919050565b60006137a7602983613e66565b91506137b282614559565b604082019050919050565b60006137ca602983613e66565b91506137d5826145a8565b604082019050919050565b60006137ed602883613e66565b91506137f8826145f7565b604082019050919050565b6000613810602183613e66565b915061381b82614646565b604082019050919050565b6000613833600c83613e66565b915061383e82614695565b602082019050919050565b61385281613fd6565b82525050565b61386181613ff2565b82525050565b61387081614020565b82525050565b61387f81614020565b82525050565b600060208201905061389a60008301846134e5565b92915050565b600060a0820190506138b560008301886134e5565b6138c260208301876134e5565b81810360408301526138d481866134f4565b905081810360608301526138e881856134f4565b905081810360808301526138fc8184613561565b90509695505050505050565b600060608201905061391d60008301866134e5565b61392a60208301856134e5565b6139376040830184613876565b949350505050565b600060a08201905061395460008301886134e5565b61396160208301876134e5565b61396e6040830186613876565b61397b6060830185613876565b818103608083015261398d8184613561565b90509695505050505050565b60006040820190506139ae60008301856134e5565b6139bb6020830184613876565b9392505050565b600060208201905081810360008301526139dc81846134f4565b905092915050565b600060408201905081810360008301526139fe81856134f4565b90508181036020830152613a1281846134f4565b90509392505050565b6000602082019050613a306000830184613552565b92915050565b60006020820190508181036000830152613a50818461359a565b905092915050565b60006020820190508181036000830152613a71816135d3565b9050919050565b60006020820190508181036000830152613a91816135f6565b9050919050565b60006020820190508181036000830152613ab181613619565b9050919050565b60006020820190508181036000830152613ad18161363c565b9050919050565b60006020820190508181036000830152613af18161365f565b9050919050565b60006020820190508181036000830152613b1181613682565b9050919050565b60006020820190508181036000830152613b31816136a5565b9050919050565b60006020820190508181036000830152613b51816136c8565b9050919050565b60006020820190508181036000830152613b71816136eb565b9050919050565b60006020820190508181036000830152613b918161370e565b9050919050565b60006020820190508181036000830152613bb181613731565b9050919050565b60006020820190508181036000830152613bd181613754565b9050919050565b60006020820190508181036000830152613bf181613777565b9050919050565b60006020820190508181036000830152613c118161379a565b9050919050565b60006020820190508181036000830152613c31816137bd565b9050919050565b60006020820190508181036000830152613c51816137e0565b9050919050565b60006020820190508181036000830152613c7181613803565b9050919050565b60006020820190508181036000830152613c9181613826565b9050919050565b6000602082019050613cad6000830184613849565b92915050565b600060c082019050613cc86000830189613858565b613cd56020830188613858565b613ce26040830187613858565b613cef6060830186613858565b613cfc6080830185613858565b613d0960a0830184613858565b979650505050505050565b6000602082019050613d296000830184613876565b92915050565b6000604082019050613d446000830185613876565b613d516020830184613876565b9392505050565b6000613d62613d73565b9050613d6e828261409e565b919050565b6000604051905090565b600067ffffffffffffffff821115613d9857613d976141a5565b5b602082029050602081019050919050565b600067ffffffffffffffff821115613dc457613dc36141a5565b5b602082029050602081019050919050565b600067ffffffffffffffff821115613df057613def6141a5565b5b613df9826141f6565b9050602081019050919050565b6000819050602082019050919050565b600081519050919050565b600081519050919050565b600081519050919050565b6000602082019050919050565b600082825260208201905092915050565b600082825260208201905092915050565b600082825260208201905092915050565b6000613e8282614020565b9150613e8d83614020565b9250827fffffffffffffffffffffffffffffffffffffffffffffffffffffffffffffffff03821115613ec257613ec1614118565b5b828201905092915050565b6000613ed882614020565b9150613ee383614020565b925082613ef357613ef2614147565b5b828204905092915050565b6000613f0982614020565b9150613f1483614020565b9250817fffffffffffffffffffffffffffffffffffffffffffffffffffffffffffffffff0483118215151615613f4d57613f4c614118565b5b828202905092915050565b6000613f6382614020565b9150613f6e83614020565b925082821015613f8157613f80614118565b5b828203905092915050565b6000613f9782614000565b9050919050565b60008115159050919050565b60007fffffffff0000000000000000000000000000000000000000000000000000000082169050919050565b60006fffffffffffffffffffffffffffffffff82169050919050565b600061ffff82169050919050565b600073ffffffffffffffffffffffffffffffffffffffff82169050919050565b6000819050919050565b82818337600083830152505050565b60005b8381101561405757808201518184015260208101905061403c565b83811115614066576000848401525b50505050565b6000600282049050600182168061408457607f821691505b6020821081141561409857614097614176565b5b50919050565b6140a7826141f6565b810181811067ffffffffffffffff821117156140c6576140c56141a5565b5b80604052505050565b60006140da82614020565b91507fffffffffffffffffffffffffffffffffffffffffffffffffffffffffffffffff82141561410d5761410c614118565b5b600182019050919050565b7f4e487b7100000000000000000000000000000000000000000000000000000000600052601160045260246000fd5b7f4e487b7100000000000000000000000000000000000000000000000000000000600052601260045260246000fd5b7f4e487b7100000000000000000000000000000000000000000000000000000000600052602260045260246000fd5b7f4e487b7100000000000000000000000000000000000000000000000000000000600052604160045260246000fd5b600060033d11156141f35760046000803e6141f0600051614207565b90505b90565b6000601f19601f8301169050919050565b60008160e01c9050919050565b7f455243313135353a207472616e7366657220746f206e6f6e204552433131353560008201527f526563656976657220696d706c656d656e746572000000000000000000000000602082015250565b7f455243313135353a204552433131353552656365697665722072656a6563746560008201527f6420746f6b656e73000000000000000000000000000000000000000000000000602082015250565b7f4e6f20617661696c61626c65206e6f6465730000000000000000000000000000600082015250565b7f455243313135353a2062616c616e636520717565727920666f7220746865207a60008201527f65726f2061646472657373000000000000000000000000000000000000000000602082015250565b7f4f776e61626c653a206e6577206f776e657220697320746865207a65726f206160008201527f6464726573730000000000000000000000000000000000000000000000000000602082015250565b7f455243313135353a2063616c6c6572206973206e6f74206f776e6572206e6f7260008201527f20617070726f7665640000000000000000000000000000000000000000000000602082015250565b7f596f7520446f6e2774204861766520456e6f7567682052657761726473000000600082015250565b7f455243313135353a207472616e7366657220746f20746865207a65726f20616460008201527f6472657373000000000000000000000000000000000000000000000000000000602082015250565b7f455243313135353a207472616e736665722063616c6c6572206973206e6f742060008201527f6f776e6572206e6f7220617070726f7665640000000000000000000000000000602082015250565b7f455243313135353a20696e73756666696369656e742062616c616e636520666f60008201527f72207472616e7366657200000000000000000000000000000000000000000000602082015250565b7f4e6f6465206e6f7420617661696c61626c650000000000000000000000000000600082015250565b7f4f776e61626c653a2063616c6c6572206973206e6f7420746865206f776e6572600082015250565b7f496e73756666696369656e742042616c616e6365000000000000000000000000600082015250565b7f455243313135353a2073657474696e6720617070726f76616c2073746174757360008201527f20666f722073656c660000000000000000000000000000000000000000000000602082015250565b7f455243313135353a206163636f756e747320616e6420696473206c656e67746860008201527f206d69736d617463680000000000000000000000000000000000000000000000602082015250565b7f455243313135353a2069647320616e6420616d6f756e7473206c656e6774682060008201527f6d69736d61746368000000000000000000000000000000000000000000000000602082015250565b7f455243313135353a206d696e7420746f20746865207a65726f2061646472657360008201527f7300000000000000000000000000000000000000000000000000000000000000602082015250565b7f496e76616c696420546965720000000000000000000000000000000000000000600082015250565b600060443d10156146ce57614751565b6146d6613d73565b60043d036004823e80513d602482011167ffffffffffffffff821117156146fe575050614751565b808201805167ffffffffffffffff81111561471c5750505050614751565b80602083010160043d038501811115614739575050505050614751565b6147488260200185018661409e565b82955050505050505b90565b61475d81613f8c565b811461476857600080fd5b50565b61477481613f9e565b811461477f57600080fd5b50565b61478b81613faa565b811461479657600080fd5b50565b6147a281614020565b81146147ad57600080fd5b5056fea2646970667358221220d13f97801957b248cbfc4c8506349abfe72352dfedca0ff27143e9c4bceab11a64736f6c63430008040033",
  "linkReferences": {},
  "deployedLinkReferences": {}
}