{
  "_format": "hh-sol-artifact-1",
  "contractName": "PeachNode",
  "sourceName": "contracts/PeachNode.sol",
  "abi": [
    {
      "inputs": [
        {
          "internalType": "address",
          "name": "_peachToken",
          "type": "address"
        },
        {
          "internalType": "address",
          "name": "_rewardsPool",
          "type": "address"
        },
        {
          "internalType": "address",
          "name": "_teamWallet",
          "type": "address"
        },
        {
          "internalType": "address",
          "name": "_treasury",
          "type": "address"
        },
        {
          "internalType": "address payable",
          "name": "_peachManager",
          "type": "address"
        }
      ],
      "stateMutability": "nonpayable",
      "type": "constructor"
    },
    {
      "anonymous": false,
      "inputs": [
        {
          "indexed": true,
          "internalType": "address",
          "name": "account",
          "type": "address"
        },
        {
          "indexed": true,
          "internalType": "address",
          "name": "operator",
          "type": "address"
        },
        {
          "indexed": false,
          "internalType": "bool",
          "name": "approved",
          "type": "bool"
        }
      ],
      "name": "ApprovalForAll",
      "type": "event"
    },
    {
      "anonymous": false,
      "inputs": [
        {
          "indexed": true,
          "internalType": "address",
          "name": "previousOwner",
          "type": "address"
        },
        {
          "indexed": true,
          "internalType": "address",
          "name": "newOwner",
          "type": "address"
        }
      ],
      "name": "OwnershipTransferred",
      "type": "event"
    },
    {
      "anonymous": false,
      "inputs": [
        {
          "indexed": true,
          "internalType": "address",
          "name": "operator",
          "type": "address"
        },
        {
          "indexed": true,
          "internalType": "address",
          "name": "from",
          "type": "address"
        },
        {
          "indexed": true,
          "internalType": "address",
          "name": "to",
          "type": "address"
        },
        {
          "indexed": false,
          "internalType": "uint256[]",
          "name": "ids",
          "type": "uint256[]"
        },
        {
          "indexed": false,
          "internalType": "uint256[]",
          "name": "values",
          "type": "uint256[]"
        }
      ],
      "name": "TransferBatch",
      "type": "event"
    },
    {
      "anonymous": false,
      "inputs": [
        {
          "indexed": true,
          "internalType": "address",
          "name": "operator",
          "type": "address"
        },
        {
          "indexed": true,
          "internalType": "address",
          "name": "from",
          "type": "address"
        },
        {
          "indexed": true,
          "internalType": "address",
          "name": "to",
          "type": "address"
        },
        {
          "indexed": false,
          "internalType": "uint256",
          "name": "id",
          "type": "uint256"
        },
        {
          "indexed": false,
          "internalType": "uint256",
          "name": "value",
          "type": "uint256"
        }
      ],
      "name": "TransferSingle",
      "type": "event"
    },
    {
      "anonymous": false,
      "inputs": [
        {
          "indexed": false,
          "internalType": "string",
          "name": "value",
          "type": "string"
        },
        {
          "indexed": true,
          "internalType": "uint256",
          "name": "id",
          "type": "uint256"
        }
      ],
      "name": "URI",
      "type": "event"
    },
    {
      "inputs": [],
      "name": "_limit",
      "outputs": [
        {
          "internalType": "uint16",
          "name": "tier1",
          "type": "uint16"
        },
        {
          "internalType": "uint16",
          "name": "tier2",
          "type": "uint16"
        },
        {
          "internalType": "uint16",
          "name": "tier3",
          "type": "uint16"
        },
        {
          "internalType": "uint16",
          "name": "tier4",
          "type": "uint16"
        },
        {
          "internalType": "uint16",
          "name": "tier5",
          "type": "uint16"
        },
        {
          "internalType": "uint16",
          "name": "tier6",
          "type": "uint16"
        }
      ],
      "stateMutability": "view",
      "type": "function"
    },
    {
      "inputs": [],
      "name": "_rewards",
      "outputs": [
        {
          "internalType": "uint16",
          "name": "tier1",
          "type": "uint16"
        },
        {
          "internalType": "uint16",
          "name": "tier2",
          "type": "uint16"
        },
        {
          "internalType": "uint16",
          "name": "tier3",
          "type": "uint16"
        },
        {
          "internalType": "uint16",
          "name": "tier4",
          "type": "uint16"
        },
        {
          "internalType": "uint16",
          "name": "tier5",
          "type": "uint16"
        },
        {
          "internalType": "uint16",
          "name": "tier6",
          "type": "uint16"
        }
      ],
      "stateMutability": "view",
      "type": "function"
    },
    {
      "inputs": [],
      "name": "approveContract",
      "outputs": [],
      "stateMutability": "nonpayable",
      "type": "function"
    },
    {
      "inputs": [
        {
          "internalType": "address",
          "name": "account",
          "type": "address"
        },
        {
          "internalType": "uint256",
          "name": "id",
          "type": "uint256"
        }
      ],
      "name": "balanceOf",
      "outputs": [
        {
          "internalType": "uint256",
          "name": "",
          "type": "uint256"
        }
      ],
      "stateMutability": "view",
      "type": "function"
    },
    {
      "inputs": [
        {
          "internalType": "address[]",
          "name": "accounts",
          "type": "address[]"
        },
        {
          "internalType": "uint256[]",
          "name": "ids",
          "type": "uint256[]"
        }
      ],
      "name": "balanceOfBatch",
      "outputs": [
        {
          "internalType": "uint256[]",
          "name": "",
          "type": "uint256[]"
        }
      ],
      "stateMutability": "view",
      "type": "function"
    },
    {
      "inputs": [
        {
          "internalType": "uint256",
          "name": "_tier",
          "type": "uint256"
        }
      ],
      "name": "claimRewards",
      "outputs": [],
      "stateMutability": "nonpayable",
      "type": "function"
    },
    {
      "inputs": [
        {
          "internalType": "uint256",
          "name": "_tier",
          "type": "uint256"
        }
      ],
      "name": "compoundRewards",
      "outputs": [],
      "stateMutability": "nonpayable",
      "type": "function"
    },
    {
      "inputs": [
        {
          "internalType": "uint256",
          "name": "_tier",
          "type": "uint256"
        },
        {
          "internalType": "uint256",
          "name": "amount",
          "type": "uint256"
        }
      ],
      "name": "createNode",
      "outputs": [],
      "stateMutability": "nonpayable",
      "type": "function"
    },
    {
      "inputs": [],
      "name": "getTokenBalance",
      "outputs": [
        {
          "internalType": "uint256",
          "name": "",
          "type": "uint256"
        }
      ],
      "stateMutability": "view",
      "type": "function"
    },
    {
      "inputs": [
        {
          "internalType": "address",
          "name": "account",
          "type": "address"
        },
        {
          "internalType": "address",
          "name": "operator",
          "type": "address"
        }
      ],
      "name": "isApprovedForAll",
      "outputs": [
        {
          "internalType": "bool",
          "name": "",
          "type": "bool"
        }
      ],
      "stateMutability": "view",
      "type": "function"
    },
    {
      "inputs": [],
      "name": "nodeCount",
      "outputs": [
        {
          "internalType": "uint256",
          "name": "",
          "type": "uint256"
        }
      ],
      "stateMutability": "view",
      "type": "function"
    },
    {
      "inputs": [],
      "name": "owner",
      "outputs": [
        {
          "internalType": "address",
          "name": "",
          "type": "address"
        }
      ],
      "stateMutability": "view",
      "type": "function"
    },
    {
      "inputs": [],
      "name": "priceSlotmachine",
      "outputs": [
        {
          "internalType": "uint256",
          "name": "",
          "type": "uint256"
        }
      ],
      "stateMutability": "view",
      "type": "function"
    },
    {
      "inputs": [],
      "name": "priceStandard",
      "outputs": [
        {
          "internalType": "uint256",
          "name": "",
          "type": "uint256"
        }
      ],
      "stateMutability": "view",
      "type": "function"
    },
    {
      "inputs": [],
      "name": "renounceOwnership",
      "outputs": [],
      "stateMutability": "nonpayable",
      "type": "function"
    },
    {
      "inputs": [
        {
          "internalType": "address",
          "name": "from",
          "type": "address"
        },
        {
          "internalType": "address",
          "name": "to",
          "type": "address"
        },
        {
          "internalType": "uint256[]",
          "name": "ids",
          "type": "uint256[]"
        },
        {
          "internalType": "uint256[]",
          "name": "amounts",
          "type": "uint256[]"
        },
        {
          "internalType": "bytes",
          "name": "data",
          "type": "bytes"
        }
      ],
      "name": "safeBatchTransferFrom",
      "outputs": [],
      "stateMutability": "nonpayable",
      "type": "function"
    },
    {
      "inputs": [
        {
          "internalType": "address",
          "name": "from",
          "type": "address"
        },
        {
          "internalType": "address",
          "name": "to",
          "type": "address"
        },
        {
          "internalType": "uint256",
          "name": "id",
          "type": "uint256"
        },
        {
          "internalType": "uint256",
          "name": "amount",
          "type": "uint256"
        },
        {
          "internalType": "bytes",
          "name": "data",
          "type": "bytes"
        }
      ],
      "name": "safeTransferFrom",
      "outputs": [],
      "stateMutability": "nonpayable",
      "type": "function"
    },
    {
      "inputs": [
        {
          "internalType": "address",
          "name": "operator",
          "type": "address"
        },
        {
          "internalType": "bool",
          "name": "approved",
          "type": "bool"
        }
      ],
      "name": "setApprovalForAll",
      "outputs": [],
      "stateMutability": "nonpayable",
      "type": "function"
    },
    {
      "inputs": [],
      "name": "setSlotPrice",
      "outputs": [],
      "stateMutability": "nonpayable",
      "type": "function"
    },
    {
      "inputs": [],
      "name": "setStandardPrice",
      "outputs": [],
      "stateMutability": "nonpayable",
      "type": "function"
    },
    {
      "inputs": [
        {
          "internalType": "bytes4",
          "name": "interfaceId",
          "type": "bytes4"
        }
      ],
      "name": "supportsInterface",
      "outputs": [
        {
          "internalType": "bool",
          "name": "",
          "type": "bool"
        }
      ],
      "stateMutability": "view",
      "type": "function"
    },
    {
      "inputs": [],
      "name": "time",
      "outputs": [
        {
          "internalType": "uint128",
          "name": "",
          "type": "uint128"
        }
      ],
      "stateMutability": "view",
      "type": "function"
    },
    {
      "inputs": [
        {
          "internalType": "address",
          "name": "newOwner",
          "type": "address"
        }
      ],
      "name": "transferOwnership",
      "outputs": [],
      "stateMutability": "nonpayable",
      "type": "function"
    },
    {
      "inputs": [
        {
          "internalType": "uint256",
          "name": "",
          "type": "uint256"
        }
      ],
      "name": "uri",
      "outputs": [
        {
          "internalType": "string",
          "name": "",
          "type": "string"
        }
      ],
      "stateMutability": "view",
      "type": "function"
    },
    {
      "stateMutability": "payable",
      "type": "receive"
    }
  ],
  "bytecode": "0x608060405273b31f66aa3c1e785363f0875a1b74e27b85fd66c7600960006101000a81548173ffffffffffffffffffffffffffffffffffffffff021916908373ffffffffffffffffffffffffffffffffffffffff1602179055507360ae616a2155ee3d9a68541ba4544862310933d4600a60006101000a81548173ffffffffffffffffffffffffffffffffffffffff021916908373ffffffffffffffffffffffffffffffffffffffff160217905550670de0b6b3a7640000600b55600b546014620000cb9190620007cc565b600c55600b546014620000df9190620007cc565b600d557360ae616a2155ee3d9a68541ba4544862310933d4600e60006101000a81548173ffffffffffffffffffffffffffffffffffffffff021916908373ffffffffffffffffffffffffffffffffffffffff16021790555062015180600f60006101000a8154816fffffffffffffffffffffffffffffffff02191690836fffffffffffffffffffffffffffffffff1602179055506040518060c001604052806103e861ffff16815260200161019061ffff16815260200161012c61ffff16815260200160fa61ffff16815260200160c861ffff168152602001604b61ffff16815250601060008201518160000160006101000a81548161ffff021916908361ffff16021790555060208201518160000160026101000a81548161ffff021916908361ffff16021790555060408201518160000160046101000a81548161ffff021916908361ffff16021790555060608201518160000160066101000a81548161ffff021916908361ffff16021790555060808201518160000160086101000a81548161ffff021916908361ffff16021790555060a082015181600001600a6101000a81548161ffff021916908361ffff16021790555050506040518060c001604052806101c261ffff1681526020016109c461ffff16815260200161138861ffff16815260200161271061ffff168152602001614e2061ffff168152602001600061ffff16815250601160008201518160000160006101000a81548161ffff021916908361ffff16021790555060208201518160000160026101000a81548161ffff021916908361ffff16021790555060408201518160000160046101000a81548161ffff021916908361ffff16021790555060608201518160000160066101000a81548161ffff021916908361ffff16021790555060808201518160000160086101000a81548161ffff021916908361ffff16021790555060a082015181600001600a6101000a81548161ffff021916908361ffff1602179055505050348015620003ca57600080fd5b5060405162005e3738038062005e378339818101604052810190620003f091906200074a565b6040518060200160405280600081525062000411816200058260201b60201c565b5062000432620004266200059e60201b60201c565b620005a660201b60201c565b84600460006101000a81548173ffffffffffffffffffffffffffffffffffffffff021916908373ffffffffffffffffffffffffffffffffffffffff16021790555083600560006101000a81548173ffffffffffffffffffffffffffffffffffffffff021916908373ffffffffffffffffffffffffffffffffffffffff16021790555082600660006101000a81548173ffffffffffffffffffffffffffffffffffffffff021916908373ffffffffffffffffffffffffffffffffffffffff16021790555081600760006101000a81548173ffffffffffffffffffffffffffffffffffffffff021916908373ffffffffffffffffffffffffffffffffffffffff16021790555080600860006101000a81548173ffffffffffffffffffffffffffffffffffffffff021916908373ffffffffffffffffffffffffffffffffffffffff160217905550505050505062000947565b80600290805190602001906200059a9291906200066c565b5050565b600033905090565b6000600360009054906101000a900473ffffffffffffffffffffffffffffffffffffffff16905081600360006101000a81548173ffffffffffffffffffffffffffffffffffffffff021916908373ffffffffffffffffffffffffffffffffffffffff1602179055508173ffffffffffffffffffffffffffffffffffffffff168173ffffffffffffffffffffffffffffffffffffffff167f8be0079c531659141344cd1fd0a4f28419497f9722a3daafe3b4186f6b6457e060405160405180910390a35050565b8280546200067a906200087f565b90600052602060002090601f0160209004810192826200069e5760008555620006ea565b82601f10620006b957805160ff1916838001178555620006ea565b82800160010185558215620006ea579182015b82811115620006e9578251825591602001919060010190620006cc565b5b509050620006f99190620006fd565b5090565b5b8082111562000718576000816000905550600101620006fe565b5090565b6000815190506200072d8162000913565b92915050565b60008151905062000744816200092d565b92915050565b600080600080600060a086880312156200076357600080fd5b600062000773888289016200071c565b955050602062000786888289016200071c565b945050604062000799888289016200071c565b9350506060620007ac888289016200071c565b9250506080620007bf8882890162000733565b9150509295509295909350565b6000620007d98262000875565b9150620007e68362000875565b9250817fffffffffffffffffffffffffffffffffffffffffffffffffffffffffffffffff0483118215151615620008225762000821620008b5565b5b828202905092915050565b60006200083a8262000855565b9050919050565b60006200084e8262000855565b9050919050565b600073ffffffffffffffffffffffffffffffffffffffff82169050919050565b6000819050919050565b600060028204905060018216806200089857607f821691505b60208210811415620008af57620008ae620008e4565b5b50919050565b7f4e487b7100000000000000000000000000000000000000000000000000000000600052601160045260246000fd5b7f4e487b7100000000000000000000000000000000000000000000000000000000600052602260045260246000fd5b6200091e816200082d565b81146200092a57600080fd5b50565b620009388162000841565b81146200094457600080fd5b50565b6154e080620009576000396000f3fe60806040526004361061014e5760003560e01c80636da49b83116100b6578063a22cb4651161006f578063a22cb46514610450578063a6c2da4c14610479578063df2fb92c146104a9578063e985e9c5146104d9578063f242432a14610516578063f2fde38b1461053f57610155565b80636da49b831461038a578063715018a6146103b5578063747f5fb0146103cc57806382b2e257146103e35780638da5cb5b1461040e5780639e3265991461043957610155565b80632eb2c2d6116101085780632eb2c2d614610290578063330f3c5a146102b957806343d00d04146102e25780634e1273f4146102f957806360ca5b6514610336578063656c579f1461036157610155565b8062fdd58e1461015a57806301ffc9a7146101975780630962ef79146101d45780630e89341c146101fd57806316ada5471461023a5780631f909fa81461026557610155565b3661015557005b600080fd5b34801561016657600080fd5b50610181600480360381019061017c9190613ccd565b610568565b60405161018e91906148df565b60405180910390f35b3480156101a357600080fd5b506101be60048036038101906101b99190613ddf565b610631565b6040516101cb91906145a6565b60405180910390f35b3480156101e057600080fd5b506101fb60048036038101906101f69190613e31565b610713565b005b34801561020957600080fd5b50610224600480360381019061021f9190613e31565b610937565b60405161023191906145c1565b60405180910390f35b34801561024657600080fd5b5061024f6109cb565b60405161025c9190614863565b60405180910390f35b34801561027157600080fd5b5061027a6109ed565b60405161028791906148df565b60405180910390f35b34801561029c57600080fd5b506102b760048036038101906102b29190613b43565b6109f3565b005b3480156102c557600080fd5b506102e060048036038101906102db9190613e83565b610a94565b005b3480156102ee57600080fd5b506102f7610f45565b005b34801561030557600080fd5b50610320600480360381019061031b9190613d09565b611017565b60405161032d919061454d565b60405180910390f35b34801561034257600080fd5b5061034b6111c8565b60405161035891906148df565b60405180910390f35b34801561036d57600080fd5b5061038860048036038101906103839190613e31565b6111ce565b005b34801561039657600080fd5b5061039f6113a2565b6040516103ac91906148df565b60405180910390f35b3480156103c157600080fd5b506103ca6113a8565b005b3480156103d857600080fd5b506103e1611430565b005b3480156103ef57600080fd5b506103f86116b7565b60405161040591906148df565b60405180910390f35b34801561041a57600080fd5b50610423611770565b60405161043091906143af565b60405180910390f35b34801561044557600080fd5b5061044e61179a565b005b34801561045c57600080fd5b5061047760048036038101906104729190613c91565b611a75565b005b34801561048557600080fd5b5061048e611a8b565b6040516104a09695949392919061487e565b60405180910390f35b3480156104b557600080fd5b506104be611b09565b6040516104d09695949392919061487e565b60405180910390f35b3480156104e557600080fd5b5061050060048036038101906104fb9190613b07565b611b87565b60405161050d91906145a6565b60405180910390f35b34801561052257600080fd5b5061053d60048036038101906105389190613c02565b611c1b565b005b34801561054b57600080fd5b5061056660048036038101906105619190613ade565b611cbc565b005b60008073ffffffffffffffffffffffffffffffffffffffff168373ffffffffffffffffffffffffffffffffffffffff1614156105d9576040517f08c379a00000000000000000000000000000000000000000000000000000000081526004016105d090614643565b60405180910390fd5b60008083815260200190815260200160002060008473ffffffffffffffffffffffffffffffffffffffff1673ffffffffffffffffffffffffffffffffffffffff16815260200190815260200160002054905092915050565b60007fd9b67a26000000000000000000000000000000000000000000000000000000007bffffffffffffffffffffffffffffffffffffffffffffffffffffffff1916827bffffffffffffffffffffffffffffffffffffffffffffffffffffffff191614806106fc57507f0e89341c000000000000000000000000000000000000000000000000000000007bffffffffffffffffffffffffffffffffffffffffffffffffffffffff1916827bffffffffffffffffffffffffffffffffffffffffffffffffffffffff1916145b8061070c575061070b82611db4565b5b9050919050565b600061071d611e1e565b9050600061072b8284611e26565b905060018111610770576040517f08c379a0000000000000000000000000000000000000000000000000000000008152600401610767906146c3565b60405180910390fd5b60006064600c836107819190614b5c565b61078b9190614b2b565b90506000606460038461079e9190614b5c565b6107a89190614b2b565b9050600460009054906101000a900473ffffffffffffffffffffffffffffffffffffffff1673ffffffffffffffffffffffffffffffffffffffff166323b872dd3086856040518463ffffffff1660e01b815260040161080993929190614432565b602060405180830381600087803b15801561082357600080fd5b505af1158015610837573d6000803e3d6000fd5b505050506040513d601f19601f8201168201806040525081019061085b9190613db6565b50600460009054906101000a900473ffffffffffffffffffffffffffffffffffffffff1673ffffffffffffffffffffffffffffffffffffffff166323b872dd30600660009054906101000a900473ffffffffffffffffffffffffffffffffffffffff16846040518463ffffffff1660e01b81526004016108dd93929190614432565b602060405180830381600087803b1580156108f757600080fd5b505af115801561090b573d6000803e3d6000fd5b505050506040513d601f19601f8201168201806040525081019061092f9190613db6565b505050505050565b60606002805461094690614cee565b80601f016020809104026020016040519081016040528092919081815260200182805461097290614cee565b80156109bf5780601f10610994576101008083540402835291602001916109bf565b820191906000526020600020905b8154815290600101906020018083116109a257829003601f168201915b50505050509050919050565b600f60009054906101000a90046fffffffffffffffffffffffffffffffff1681565b600d5481565b6109fb611e1e565b73ffffffffffffffffffffffffffffffffffffffff168573ffffffffffffffffffffffffffffffffffffffff161480610a415750610a4085610a3b611e1e565b611b87565b5b610a80576040517f08c379a0000000000000000000000000000000000000000000000000000000008152600401610a7790614703565b60405180910390fd5b610a8d858585858561211a565b5050505050565b6000610a9e611e1e565b9050600073ffffffffffffffffffffffffffffffffffffffff168173ffffffffffffffffffffffffffffffffffffffff161415610b10576040517f08c379a0000000000000000000000000000000000000000000000000000000008152600401610b07906147a3565b60405180910390fd5b60018310158015610b215750600783105b610b60576040517f08c379a0000000000000000000000000000000000000000000000000000000008152600401610b5790614843565b60405180910390fd5b610b6a838361247a565b610ba9576040517f08c379a0000000000000000000000000000000000000000000000000000000008152600401610ba090614763565b60405180910390fd5b60158210610bec576040517f08c379a0000000000000000000000000000000000000000000000000000000008152600401610be390614683565b60405180910390fd5b600660126000858152602001908152602001600020541415610c1557610c10611430565b610c1e565b610c1d61179a565b5b600082601460008473ffffffffffffffffffffffffffffffffffffffff1673ffffffffffffffffffffffffffffffffffffffff16815260200190815260200160002054610c6b9190614b5c565b905080600460009054906101000a900473ffffffffffffffffffffffffffffffffffffffff1673ffffffffffffffffffffffffffffffffffffffff166370a08231846040518263ffffffff1660e01b8152600401610cc991906143af565b60206040518083038186803b158015610ce157600080fd5b505afa158015610cf5573d6000803e3d6000fd5b505050506040513d601f19601f82011682018060405250810190610d199190613e5a565b1015610d5a576040517f08c379a0000000000000000000000000000000000000000000000000000000008152600401610d5190614723565b60405180910390fd5b600460009054906101000a900473ffffffffffffffffffffffffffffffffffffffff1673ffffffffffffffffffffffffffffffffffffffff166323b872dd8330846040518463ffffffff1660e01b8152600401610db993929190614432565b602060405180830381600087803b158015610dd357600080fd5b505af1158015610de7573d6000803e3d6000fd5b505050506040513d601f19601f82011682018060405250810190610e0b9190613db6565b50610e15816126ce565b610e1e57600080fd5b60005b83811015610ee057601360008473ffffffffffffffffffffffffffffffffffffffff1673ffffffffffffffffffffffffffffffffffffffff16815260200190815260200160002060008681526020019081526020016000206040518060400160405280878152602001428152509080600181540180825580915050600190039060005260206000209060020201600090919091909150600082015181600001556020820151816001015550508080610ed890614d51565b915050610e21565b50610efc82858560405180602001604052806000815250612d17565b82601260008681526020019081526020016000206000828254610f1f9190614ad5565b925050819055508260156000828254610f389190614ad5565b9250508190555050505050565b600460009054906101000a900473ffffffffffffffffffffffffffffffffffffffff1673ffffffffffffffffffffffffffffffffffffffff1663095ea7b3307fffffffffffffffffffffffffffffffffffffffffffffffffffffffffffffffff6040518363ffffffff1660e01b8152600401610fc29291906144c3565b602060405180830381600087803b158015610fdc57600080fd5b505af1158015610ff0573d6000803e3d6000fd5b505050506040513d601f19601f820116820180604052508101906110149190613db6565b50565b6060815183511461105d576040517f08c379a0000000000000000000000000000000000000000000000000000000008152600401611054906147e3565b60405180910390fd5b6000835167ffffffffffffffff8111156110a0577f4e487b7100000000000000000000000000000000000000000000000000000000600052604160045260246000fd5b6040519080825280602002602001820160405280156110ce5781602001602082028036833780820191505090505b50905060005b84518110156111bd57611167858281518110611119577f4e487b7100000000000000000000000000000000000000000000000000000000600052603260045260246000fd5b602002602001015185838151811061115a577f4e487b7100000000000000000000000000000000000000000000000000000000600052603260045260246000fd5b6020026020010151610568565b8282815181106111a0577f4e487b7100000000000000000000000000000000000000000000000000000000600052603260045260246000fd5b602002602001018181525050806111b690614d51565b90506110d4565b508091505092915050565b600c5481565b60006111d8611e1e565b905060006111e68284611e26565b90506006601260008581526020019081526020016000205414156112115761120c611430565b61121a565b61121961179a565b5b601460008373ffffffffffffffffffffffffffffffffffffffff1673ffffffffffffffffffffffffffffffffffffffff1681526020019081526020016000205481101561129c576040517f08c379a0000000000000000000000000000000000000000000000000000000008152600401611293906146c3565b60405180910390fd5b601360008373ffffffffffffffffffffffffffffffffffffffff1673ffffffffffffffffffffffffffffffffffffffff168152602001908152602001600020600084815260200190815260200160002060405180604001604052808581526020014281525090806001815401808255809150506001900390600052602060002090600202016000909190919091506000820151816000015560208201518160010155505061135c8284600160405180602001604052806000815250612d17565b60126000848152602001908152602001600020600081548092919061138090614d51565b91905055506015600081548092919061139890614d51565b9190505550505050565b60155481565b6113b0611e1e565b73ffffffffffffffffffffffffffffffffffffffff166113ce611770565b73ffffffffffffffffffffffffffffffffffffffff1614611424576040517f08c379a000000000000000000000000000000000000000000000000000000000815260040161141b90614783565b60405180910390fd5b61142e6000612ead565b565b600061143a611e1e565b90506000611449826006610568565b9050600a81101561149f57600d54601460008473ffffffffffffffffffffffffffffffffffffffff1673ffffffffffffffffffffffffffffffffffffffff168152602001908152602001600020819055506116b3565b600a81101580156114b05750601481105b1561150c57600b5460196114c49190614b5c565b601460008473ffffffffffffffffffffffffffffffffffffffff1673ffffffffffffffffffffffffffffffffffffffff168152602001908152602001600020819055506116b2565b6014811015801561151d5750602881105b1561157957600b54601e6115319190614b5c565b601460008473ffffffffffffffffffffffffffffffffffffffff1673ffffffffffffffffffffffffffffffffffffffff168152602001908152602001600020819055506116b1565b6028811015801561158a5750605081105b156115e657600b54602361159e9190614b5c565b601460008473ffffffffffffffffffffffffffffffffffffffff1673ffffffffffffffffffffffffffffffffffffffff168152602001908152602001600020819055506116b0565b605081101580156115f75750606481105b1561165357600b54602861160b9190614b5c565b601460008473ffffffffffffffffffffffffffffffffffffffff1673ffffffffffffffffffffffffffffffffffffffff168152602001908152602001600020819055506116af565b606481106116ae57600b54602d61166a9190614b5c565b601460008473ffffffffffffffffffffffffffffffffffffffff1673ffffffffffffffffffffffffffffffffffffffff168152602001908152602001600020819055505b5b5b5b5b5b5050565b6000600460009054906101000a900473ffffffffffffffffffffffffffffffffffffffff1673ffffffffffffffffffffffffffffffffffffffff166370a082316116ff611e1e565b6040518263ffffffff1660e01b815260040161171b91906143af565b60206040518083038186803b15801561173357600080fd5b505afa158015611747573d6000803e3d6000fd5b505050506040513d601f19601f8201168201806040525081019061176b9190613e5a565b905090565b6000600360009054906101000a900473ffffffffffffffffffffffffffffffffffffffff16905090565b60006117a4611e1e565b905060006117b3826005610568565b6117be836004610568565b6117c9846003610568565b6117d4856002610568565b6117df866001610568565b6117e99190614ad5565b6117f39190614ad5565b6117fd9190614ad5565b6118079190614ad5565b9050600a81101561185d57600c54601460008473ffffffffffffffffffffffffffffffffffffffff1673ffffffffffffffffffffffffffffffffffffffff16815260200190815260200160002081905550611a71565b600a811015801561186e5750601481105b156118ca57600b5460196118829190614b5c565b601460008473ffffffffffffffffffffffffffffffffffffffff1673ffffffffffffffffffffffffffffffffffffffff16815260200190815260200160002081905550611a70565b601481101580156118db5750602881105b1561193757600b54601e6118ef9190614b5c565b601460008473ffffffffffffffffffffffffffffffffffffffff1673ffffffffffffffffffffffffffffffffffffffff16815260200190815260200160002081905550611a6f565b602881101580156119485750605081105b156119a457600b54602361195c9190614b5c565b601460008473ffffffffffffffffffffffffffffffffffffffff1673ffffffffffffffffffffffffffffffffffffffff16815260200190815260200160002081905550611a6e565b605081101580156119b55750606481105b15611a1157600b5460286119c99190614b5c565b601460008473ffffffffffffffffffffffffffffffffffffffff1673ffffffffffffffffffffffffffffffffffffffff16815260200190815260200160002081905550611a6d565b60648110611a6c57600b54602d611a289190614b5c565b601460008473ffffffffffffffffffffffffffffffffffffffff1673ffffffffffffffffffffffffffffffffffffffff168152602001908152602001600020819055505b5b5b5b5b5b5050565b611a87611a80611e1e565b8383612f73565b5050565b60108060000160009054906101000a900461ffff16908060000160029054906101000a900461ffff16908060000160049054906101000a900461ffff16908060000160069054906101000a900461ffff16908060000160089054906101000a900461ffff169080600001600a9054906101000a900461ffff16905086565b60118060000160009054906101000a900461ffff16908060000160029054906101000a900461ffff16908060000160049054906101000a900461ffff16908060000160069054906101000a900461ffff16908060000160089054906101000a900461ffff169080600001600a9054906101000a900461ffff16905086565b6000600160008473ffffffffffffffffffffffffffffffffffffffff1673ffffffffffffffffffffffffffffffffffffffff16815260200190815260200160002060008373ffffffffffffffffffffffffffffffffffffffff1673ffffffffffffffffffffffffffffffffffffffff16815260200190815260200160002060009054906101000a900460ff16905092915050565b611c23611e1e565b73ffffffffffffffffffffffffffffffffffffffff168573ffffffffffffffffffffffffffffffffffffffff161480611c695750611c6885611c63611e1e565b611b87565b5b611ca8576040517f08c379a0000000000000000000000000000000000000000000000000000000008152600401611c9f906146a3565b60405180910390fd5b611cb585858585856130e0565b5050505050565b611cc4611e1e565b73ffffffffffffffffffffffffffffffffffffffff16611ce2611770565b73ffffffffffffffffffffffffffffffffffffffff1614611d38576040517f08c379a0000000000000000000000000000000000000000000000000000000008152600401611d2f90614783565b60405180910390fd5b600073ffffffffffffffffffffffffffffffffffffffff168173ffffffffffffffffffffffffffffffffffffffff161415611da8576040517f08c379a0000000000000000000000000000000000000000000000000000000008152600401611d9f90614663565b60405180910390fd5b611db181612ead565b50565b60007f01ffc9a7000000000000000000000000000000000000000000000000000000007bffffffffffffffffffffffffffffffffffffffffffffffffffffffff1916827bffffffffffffffffffffffffffffffffffffffffffffffffffffffff1916149050919050565b600033905090565b600060018210158015611e395750600782105b611e78576040517f08c379a0000000000000000000000000000000000000000000000000000000008152600401611e6f90614843565b60405180910390fd5b60006001831415611ea257601060000160009054906101000a900461ffff1661ffff169050611f6b565b6002831415611eca57601060000160029054906101000a900461ffff1661ffff169050611f6a565b6003831415611ef257601060000160049054906101000a900461ffff1661ffff169050611f69565b6004831415611f1a57601060000160069054906101000a900461ffff1661ffff169050611f68565b6005831415611f4257601060000160089054906101000a900461ffff1661ffff169050611f67565b6006831415611f66576010600001600a9054906101000a900461ffff1661ffff1690505b5b5b5b5b5b60008490506000601360008373ffffffffffffffffffffffffffffffffffffffff1673ffffffffffffffffffffffffffffffffffffffff1681526020019081526020016000206000868152602001908152602001600020905060008180549050905060008111612010576040517f08c379a000000000000000000000000000000000000000000000000000000000815260040161200790614623565b60405180910390fd5b6000806000905060005b8381101561210a5784818154811061205b577f4e487b7100000000000000000000000000000000000000000000000000000000600052603260045260246000fd5b906000526020600020906002020192506000600f60009054906101000a90046fffffffffffffffffffffffffffffffff166fffffffffffffffffffffffffffffffff168460010154426120ae9190614bb6565b6120b89190614b2b565b90506103e888600b54836120cc9190614b5c565b6120d69190614b5c565b6120e09190614b2b565b836120eb9190614ad5565b925042846001018190555050808061210290614d51565b91505061201a565b5080965050505050505092915050565b815183511461215e576040517f08c379a000000000000000000000000000000000000000000000000000000000815260040161215590614803565b60405180910390fd5b600073ffffffffffffffffffffffffffffffffffffffff168473ffffffffffffffffffffffffffffffffffffffff1614156121ce576040517f08c379a00000000000000000000000000000000000000000000000000000000081526004016121c5906146e3565b60405180910390fd5b60006121d8611e1e565b90506121e8818787878787613362565b60005b84518110156123e557600085828151811061222f577f4e487b7100000000000000000000000000000000000000000000000000000000600052603260045260246000fd5b602002602001015190506000858381518110612274577f4e487b7100000000000000000000000000000000000000000000000000000000600052603260045260246000fd5b60200260200101519050600080600084815260200190815260200160002060008b73ffffffffffffffffffffffffffffffffffffffff1673ffffffffffffffffffffffffffffffffffffffff16815260200190815260200160002054905081811015612315576040517f08c379a000000000000000000000000000000000000000000000000000000000815260040161230c90614743565b60405180910390fd5b81810360008085815260200190815260200160002060008c73ffffffffffffffffffffffffffffffffffffffff1673ffffffffffffffffffffffffffffffffffffffff168152602001908152602001600020819055508160008085815260200190815260200160002060008b73ffffffffffffffffffffffffffffffffffffffff1673ffffffffffffffffffffffffffffffffffffffff16815260200190815260200160002060008282546123ca9190614ad5565b92505081905550505050806123de90614d51565b90506121eb565b508473ffffffffffffffffffffffffffffffffffffffff168673ffffffffffffffffffffffffffffffffffffffff168273ffffffffffffffffffffffffffffffffffffffff167f4a39dc06d4c0dbc64b70af90fd698a233a518aa5d07e595d983b8c0526c8f7fb878760405161245c92919061456f565b60405180910390a461247281878787878761336a565b505050505050565b60006001831015801561248d5750600783105b61249657600080fd5b6001601260008581526020019081526020016000205414156124fd57601160000160009054906101000a900461ffff1661ffff168260126000868152602001908152602001600020546124e99190614ad5565b11156124f857600090506126c8565b6126c3565b60026012600085815260200190815260200160002054141561256457601160000160029054906101000a900461ffff1661ffff168260126000868152602001908152602001600020546125509190614ad5565b111561255f57600090506126c8565b6126c2565b6003601260008581526020019081526020016000205414156125cb57601160000160049054906101000a900461ffff1661ffff168260126000868152602001908152602001600020546125b79190614ad5565b11156125c657600090506126c8565b6126c1565b60046012600085815260200190815260200160002054141561263257601160000160069054906101000a900461ffff1661ffff1682601260008681526020019081526020016000205461261e9190614ad5565b111561262d57600090506126c8565b6126c0565b60056012600085815260200190815260200160002054141561269957601160000160089054906101000a900461ffff1661ffff168260126000868152602001908152602001600020546126859190614ad5565b111561269457600090506126c8565b6126bf565b6006601260008581526020019081526020016000205414156126be57600190506126c8565b5b5b5b5b5b600190505b92915050565b60008060646014846126e09190614b5c565b6126ea9190614b2b565b9050600060646005856126fd9190614b5c565b6127079190614b2b565b9050600060026064600f8761271c9190614b5c565b6127269190614b2b565b6127309190614b2b565b9050600460009054906101000a900473ffffffffffffffffffffffffffffffffffffffff1673ffffffffffffffffffffffffffffffffffffffff1663095ea7b3600a60009054906101000a900473ffffffffffffffffffffffffffffffffffffffff167fffffffffffffffffffffffffffffffffffffffffffffffffffffffffffffffff6040518363ffffffff1660e01b81526004016127d19291906144c3565b602060405180830381600087803b1580156127eb57600080fd5b505af11580156127ff573d6000803e3d6000fd5b505050506040513d601f19601f820116820180604052508101906128239190613db6565b50600460009054906101000a900473ffffffffffffffffffffffffffffffffffffffff1673ffffffffffffffffffffffffffffffffffffffff1663a9059cbb600760009054906101000a900473ffffffffffffffffffffffffffffffffffffffff16856040518363ffffffff1660e01b81526004016128a39291906144c3565b602060405180830381600087803b1580156128bd57600080fd5b505af11580156128d1573d6000803e3d6000fd5b505050506040513d601f19601f820116820180604052508101906128f59190613db6565b50600460009054906101000a900473ffffffffffffffffffffffffffffffffffffffff1673ffffffffffffffffffffffffffffffffffffffff1663a9059cbb600660009054906101000a900473ffffffffffffffffffffffffffffffffffffffff16846040518363ffffffff1660e01b81526004016129759291906144c3565b602060405180830381600087803b15801561298f57600080fd5b505af11580156129a3573d6000803e3d6000fd5b505050506040513d601f19601f820116820180604052508101906129c79190613db6565b506000600267ffffffffffffffff811115612a0b577f4e487b7100000000000000000000000000000000000000000000000000000000600052604160045260246000fd5b604051908082528060200260200182016040528015612a395781602001602082028036833780820191505090505b509050600460009054906101000a900473ffffffffffffffffffffffffffffffffffffffff1681600081518110612a99577f4e487b7100000000000000000000000000000000000000000000000000000000600052603260045260246000fd5b602002602001019073ffffffffffffffffffffffffffffffffffffffff16908173ffffffffffffffffffffffffffffffffffffffff1681525050600960009054906101000a900473ffffffffffffffffffffffffffffffffffffffff1681600181518110612b30577f4e487b7100000000000000000000000000000000000000000000000000000000600052603260045260246000fd5b602002602001019073ffffffffffffffffffffffffffffffffffffffff16908173ffffffffffffffffffffffffffffffffffffffff1681525050600e60009054906101000a900473ffffffffffffffffffffffffffffffffffffffff1673ffffffffffffffffffffffffffffffffffffffff1663676528d18360008430426040518663ffffffff1660e01b8152600401612bce9594939291906148fa565b600060405180830381600087803b158015612be857600080fd5b505af1158015612bfc573d6000803e3d6000fd5b505050506040513d6000823e3d601f19601f82011682018060405250810190612c259190613d75565b506000479050600e60009054906101000a900473ffffffffffffffffffffffffffffffffffffffff1673ffffffffffffffffffffffffffffffffffffffff1663f91b3f7282600460009054906101000a900473ffffffffffffffffffffffffffffffffffffffff168660018030426040518863ffffffff1660e01b8152600401612cb4969594939291906144ec565b6060604051808303818588803b158015612ccd57600080fd5b505af1158015612ce1573d6000803e3d6000fd5b50505050506040513d601f19601f82011682018060405250810190612d069190613ebf565b505050600195505050505050919050565b600073ffffffffffffffffffffffffffffffffffffffff168473ffffffffffffffffffffffffffffffffffffffff161415612d87576040517f08c379a0000000000000000000000000000000000000000000000000000000008152600401612d7e90614823565b60405180910390fd5b6000612d91611e1e565b9050612db281600087612da388613551565b612dac88613551565b87613362565b8260008086815260200190815260200160002060008773ffffffffffffffffffffffffffffffffffffffff1673ffffffffffffffffffffffffffffffffffffffff1681526020019081526020016000206000828254612e119190614ad5565b925050819055508473ffffffffffffffffffffffffffffffffffffffff16600073ffffffffffffffffffffffffffffffffffffffff168273ffffffffffffffffffffffffffffffffffffffff167fc3d58168c5ae7397731d063d5bbf3d657854427343f4c083240f7aacaa2d0f628787604051612e8f929190614954565b60405180910390a4612ea681600087878787613617565b5050505050565b6000600360009054906101000a900473ffffffffffffffffffffffffffffffffffffffff16905081600360006101000a81548173ffffffffffffffffffffffffffffffffffffffff021916908373ffffffffffffffffffffffffffffffffffffffff1602179055508173ffffffffffffffffffffffffffffffffffffffff168173ffffffffffffffffffffffffffffffffffffffff167f8be0079c531659141344cd1fd0a4f28419497f9722a3daafe3b4186f6b6457e060405160405180910390a35050565b8173ffffffffffffffffffffffffffffffffffffffff168373ffffffffffffffffffffffffffffffffffffffff161415612fe2576040517f08c379a0000000000000000000000000000000000000000000000000000000008152600401612fd9906147c3565b60405180910390fd5b80600160008573ffffffffffffffffffffffffffffffffffffffff1673ffffffffffffffffffffffffffffffffffffffff16815260200190815260200160002060008473ffffffffffffffffffffffffffffffffffffffff1673ffffffffffffffffffffffffffffffffffffffff16815260200190815260200160002060006101000a81548160ff0219169083151502179055508173ffffffffffffffffffffffffffffffffffffffff168373ffffffffffffffffffffffffffffffffffffffff167f17307eab39ab6107e8899845ad3d59bd9653f200f220920489ca2b5937696c31836040516130d391906145a6565b60405180910390a3505050565b600073ffffffffffffffffffffffffffffffffffffffff168473ffffffffffffffffffffffffffffffffffffffff161415613150576040517f08c379a0000000000000000000000000000000000000000000000000000000008152600401613147906146e3565b60405180910390fd5b600061315a611e1e565b905061317a81878761316b88613551565b61317488613551565b87613362565b600080600086815260200190815260200160002060008873ffffffffffffffffffffffffffffffffffffffff1673ffffffffffffffffffffffffffffffffffffffff16815260200190815260200160002054905083811015613211576040517f08c379a000000000000000000000000000000000000000000000000000000000815260040161320890614743565b60405180910390fd5b83810360008087815260200190815260200160002060008973ffffffffffffffffffffffffffffffffffffffff1673ffffffffffffffffffffffffffffffffffffffff168152602001908152602001600020819055508360008087815260200190815260200160002060008873ffffffffffffffffffffffffffffffffffffffff1673ffffffffffffffffffffffffffffffffffffffff16815260200190815260200160002060008282546132c69190614ad5565b925050819055508573ffffffffffffffffffffffffffffffffffffffff168773ffffffffffffffffffffffffffffffffffffffff168373ffffffffffffffffffffffffffffffffffffffff167fc3d58168c5ae7397731d063d5bbf3d657854427343f4c083240f7aacaa2d0f628888604051613343929190614954565b60405180910390a4613359828888888888613617565b50505050505050565b505050505050565b6133898473ffffffffffffffffffffffffffffffffffffffff166137fe565b15613549578373ffffffffffffffffffffffffffffffffffffffff1663bc197c8187878686866040518663ffffffff1660e01b81526004016133cf9594939291906143ca565b602060405180830381600087803b1580156133e957600080fd5b505af192505050801561341a57506040513d601f19601f820116820180604052508101906134179190613e08565b60015b6134c057613426614e56565b806308c379a01415613483575061343b6153b8565b806134465750613485565b806040517f08c379a000000000000000000000000000000000000000000000000000000000815260040161347a91906145c1565b60405180910390fd5b505b6040517f08c379a00000000000000000000000000000000000000000000000000000000081526004016134b7906145e3565b60405180910390fd5b63bc197c8160e01b7bffffffffffffffffffffffffffffffffffffffffffffffffffffffff1916817bffffffffffffffffffffffffffffffffffffffffffffffffffffffff191614613547576040517f08c379a000000000000000000000000000000000000000000000000000000000815260040161353e90614603565b60405180910390fd5b505b505050505050565b60606000600167ffffffffffffffff811115613596577f4e487b7100000000000000000000000000000000000000000000000000000000600052604160045260246000fd5b6040519080825280602002602001820160405280156135c45781602001602082028036833780820191505090505b5090508281600081518110613602577f4e487b7100000000000000000000000000000000000000000000000000000000600052603260045260246000fd5b60200260200101818152505080915050919050565b6136368473ffffffffffffffffffffffffffffffffffffffff166137fe565b156137f6578373ffffffffffffffffffffffffffffffffffffffff1663f23a6e6187878686866040518663ffffffff1660e01b815260040161367c959493929190614469565b602060405180830381600087803b15801561369657600080fd5b505af19250505080156136c757506040513d601f19601f820116820180604052508101906136c49190613e08565b60015b61376d576136d3614e56565b806308c379a0141561373057506136e86153b8565b806136f35750613732565b806040517f08c379a000000000000000000000000000000000000000000000000000000000815260040161372791906145c1565b60405180910390fd5b505b6040517f08c379a0000000000000000000000000000000000000000000000000000000008152600401613764906145e3565b60405180910390fd5b63f23a6e6160e01b7bffffffffffffffffffffffffffffffffffffffffffffffffffffffff1916817bffffffffffffffffffffffffffffffffffffffffffffffffffffffff1916146137f4576040517f08c379a00000000000000000000000000000000000000000000000000000000081526004016137eb90614603565b60405180910390fd5b505b505050505050565b6000808273ffffffffffffffffffffffffffffffffffffffff163b119050919050565b600061383461382f846149a2565b61497d565b9050808382526020820190508285602086028201111561385357600080fd5b60005b85811015613883578161386988826139a3565b845260208401935060208301925050600181019050613856565b5050509392505050565b60006138a061389b846149ce565b61497d565b905080838252602082019050828560208602820111156138bf57600080fd5b60005b858110156138ef57816138d58882613ab4565b8452602084019350602083019250506001810190506138c2565b5050509392505050565b600061390c613907846149ce565b61497d565b9050808382526020820190508285602086028201111561392b57600080fd5b60005b8581101561395b57816139418882613ac9565b84526020840193506020830192505060018101905061392e565b5050509392505050565b6000613978613973846149fa565b61497d565b90508281526020810184848401111561399057600080fd5b61399b848285614cac565b509392505050565b6000813590506139b28161544e565b92915050565b600082601f8301126139c957600080fd5b81356139d9848260208601613821565b91505092915050565b600082601f8301126139f357600080fd5b8135613a0384826020860161388d565b91505092915050565b600082601f830112613a1d57600080fd5b8151613a2d8482602086016138f9565b91505092915050565b600081359050613a4581615465565b92915050565b600081519050613a5a81615465565b92915050565b600081359050613a6f8161547c565b92915050565b600081519050613a848161547c565b92915050565b600082601f830112613a9b57600080fd5b8135613aab848260208601613965565b91505092915050565b600081359050613ac381615493565b92915050565b600081519050613ad881615493565b92915050565b600060208284031215613af057600080fd5b6000613afe848285016139a3565b91505092915050565b60008060408385031215613b1a57600080fd5b6000613b28858286016139a3565b9250506020613b39858286016139a3565b9150509250929050565b600080600080600060a08688031215613b5b57600080fd5b6000613b69888289016139a3565b9550506020613b7a888289016139a3565b945050604086013567ffffffffffffffff811115613b9757600080fd5b613ba3888289016139e2565b935050606086013567ffffffffffffffff811115613bc057600080fd5b613bcc888289016139e2565b925050608086013567ffffffffffffffff811115613be957600080fd5b613bf588828901613a8a565b9150509295509295909350565b600080600080600060a08688031215613c1a57600080fd5b6000613c28888289016139a3565b9550506020613c39888289016139a3565b9450506040613c4a88828901613ab4565b9350506060613c5b88828901613ab4565b925050608086013567ffffffffffffffff811115613c7857600080fd5b613c8488828901613a8a565b9150509295509295909350565b60008060408385031215613ca457600080fd5b6000613cb2858286016139a3565b9250506020613cc385828601613a36565b9150509250929050565b60008060408385031215613ce057600080fd5b6000613cee858286016139a3565b9250506020613cff85828601613ab4565b9150509250929050565b60008060408385031215613d1c57600080fd5b600083013567ffffffffffffffff811115613d3657600080fd5b613d42858286016139b8565b925050602083013567ffffffffffffffff811115613d5f57600080fd5b613d6b858286016139e2565b9150509250929050565b600060208284031215613d8757600080fd5b600082015167ffffffffffffffff811115613da157600080fd5b613dad84828501613a0c565b91505092915050565b600060208284031215613dc857600080fd5b6000613dd684828501613a4b565b91505092915050565b600060208284031215613df157600080fd5b6000613dff84828501613a60565b91505092915050565b600060208284031215613e1a57600080fd5b6000613e2884828501613a75565b91505092915050565b600060208284031215613e4357600080fd5b6000613e5184828501613ab4565b91505092915050565b600060208284031215613e6c57600080fd5b6000613e7a84828501613ac9565b91505092915050565b60008060408385031215613e9657600080fd5b6000613ea485828601613ab4565b9250506020613eb585828601613ab4565b9150509250929050565b600080600060608486031215613ed457600080fd5b6000613ee286828701613ac9565b9350506020613ef386828701613ac9565b9250506040613f0486828701613ac9565b9150509250925092565b6000613f1a8383613f3e565b60208301905092915050565b6000613f328383614391565b60208301905092915050565b613f4781614bea565b82525050565b613f5681614bea565b82525050565b6000613f6782614a4b565b613f718185614a91565b9350613f7c83614a2b565b8060005b83811015613fad578151613f948882613f0e565b9750613f9f83614a77565b925050600181019050613f80565b5085935050505092915050565b6000613fc582614a56565b613fcf8185614aa2565b9350613fda83614a3b565b8060005b8381101561400b578151613ff28882613f26565b9750613ffd83614a84565b925050600181019050613fde565b5085935050505092915050565b61402181614bfc565b82525050565b600061403282614a61565b61403c8185614ab3565b935061404c818560208601614cbb565b61405581614e78565b840191505092915050565b61406981614c88565b82525050565b61407881614c9a565b82525050565b600061408982614a6c565b6140938185614ac4565b93506140a3818560208601614cbb565b6140ac81614e78565b840191505092915050565b60006140c4603483614ac4565b91506140cf82614e96565b604082019050919050565b60006140e7602883614ac4565b91506140f282614ee5565b604082019050919050565b600061410a601283614ac4565b915061411582614f34565b602082019050919050565b600061412d602b83614ac4565b915061413882614f5d565b604082019050919050565b6000614150602683614ac4565b915061415b82614fac565b604082019050919050565b6000614173602283614ac4565b915061417e82614ffb565b604082019050919050565b6000614196602983614ac4565b91506141a18261504a565b604082019050919050565b60006141b9601d83614ac4565b91506141c482615099565b602082019050919050565b60006141dc602583614ac4565b91506141e7826150c2565b604082019050919050565b60006141ff603283614ac4565b915061420a82615111565b604082019050919050565b6000614222601b83614ac4565b915061422d82615160565b602082019050919050565b6000614245602a83614ac4565b915061425082615189565b604082019050919050565b6000614268601283614ac4565b9150614273826151d8565b602082019050919050565b600061428b602083614ac4565b915061429682615201565b602082019050919050565b60006142ae600f83614ac4565b91506142b98261522a565b602082019050919050565b60006142d1602983614ac4565b91506142dc82615253565b604082019050919050565b60006142f4602983614ac4565b91506142ff826152a2565b604082019050919050565b6000614317602883614ac4565b9150614322826152f1565b604082019050919050565b600061433a602183614ac4565b915061434582615340565b604082019050919050565b600061435d600c83614ac4565b91506143688261538f565b602082019050919050565b61437c81614c34565b82525050565b61438b81614c50565b82525050565b61439a81614c7e565b82525050565b6143a981614c7e565b82525050565b60006020820190506143c46000830184613f4d565b92915050565b600060a0820190506143df6000830188613f4d565b6143ec6020830187613f4d565b81810360408301526143fe8186613fba565b905081810360608301526144128185613fba565b905081810360808301526144268184614027565b90509695505050505050565b60006060820190506144476000830186613f4d565b6144546020830185613f4d565b61446160408301846143a0565b949350505050565b600060a08201905061447e6000830188613f4d565b61448b6020830187613f4d565b61449860408301866143a0565b6144a560608301856143a0565b81810360808301526144b78184614027565b90509695505050505050565b60006040820190506144d86000830185613f4d565b6144e560208301846143a0565b9392505050565b600060c0820190506145016000830189613f4d565b61450e60208301886143a0565b61451b604083018761406f565b614528606083018661406f565b6145356080830185613f4d565b61454260a08301846143a0565b979650505050505050565b600060208201905081810360008301526145678184613fba565b905092915050565b600060408201905081810360008301526145898185613fba565b9050818103602083015261459d8184613fba565b90509392505050565b60006020820190506145bb6000830184614018565b92915050565b600060208201905081810360008301526145db818461407e565b905092915050565b600060208201905081810360008301526145fc816140b7565b9050919050565b6000602082019050818103600083015261461c816140da565b9050919050565b6000602082019050818103600083015261463c816140fd565b9050919050565b6000602082019050818103600083015261465c81614120565b9050919050565b6000602082019050818103600083015261467c81614143565b9050919050565b6000602082019050818103600083015261469c81614166565b9050919050565b600060208201905081810360008301526146bc81614189565b9050919050565b600060208201905081810360008301526146dc816141ac565b9050919050565b600060208201905081810360008301526146fc816141cf565b9050919050565b6000602082019050818103600083015261471c816141f2565b9050919050565b6000602082019050818103600083015261473c81614215565b9050919050565b6000602082019050818103600083015261475c81614238565b9050919050565b6000602082019050818103600083015261477c8161425b565b9050919050565b6000602082019050818103600083015261479c8161427e565b9050919050565b600060208201905081810360008301526147bc816142a1565b9050919050565b600060208201905081810360008301526147dc816142c4565b9050919050565b600060208201905081810360008301526147fc816142e7565b9050919050565b6000602082019050818103600083015261481c8161430a565b9050919050565b6000602082019050818103600083015261483c8161432d565b9050919050565b6000602082019050818103600083015261485c81614350565b9050919050565b60006020820190506148786000830184614373565b92915050565b600060c0820190506148936000830189614382565b6148a06020830188614382565b6148ad6040830187614382565b6148ba6060830186614382565b6148c76080830185614382565b6148d460a0830184614382565b979650505050505050565b60006020820190506148f460008301846143a0565b92915050565b600060a08201905061490f60008301886143a0565b61491c6020830187614060565b818103604083015261492e8186613f5c565b905061493d6060830185613f4d565b61494a60808301846143a0565b9695505050505050565b600060408201905061496960008301856143a0565b61497660208301846143a0565b9392505050565b6000614987614998565b90506149938282614d20565b919050565b6000604051905090565b600067ffffffffffffffff8211156149bd576149bc614e27565b5b602082029050602081019050919050565b600067ffffffffffffffff8211156149e9576149e8614e27565b5b602082029050602081019050919050565b600067ffffffffffffffff821115614a1557614a14614e27565b5b614a1e82614e78565b9050602081019050919050565b6000819050602082019050919050565b6000819050602082019050919050565b600081519050919050565b600081519050919050565b600081519050919050565b600081519050919050565b6000602082019050919050565b6000602082019050919050565b600082825260208201905092915050565b600082825260208201905092915050565b600082825260208201905092915050565b600082825260208201905092915050565b6000614ae082614c7e565b9150614aeb83614c7e565b9250827fffffffffffffffffffffffffffffffffffffffffffffffffffffffffffffffff03821115614b2057614b1f614d9a565b5b828201905092915050565b6000614b3682614c7e565b9150614b4183614c7e565b925082614b5157614b50614dc9565b5b828204905092915050565b6000614b6782614c7e565b9150614b7283614c7e565b9250817fffffffffffffffffffffffffffffffffffffffffffffffffffffffffffffffff0483118215151615614bab57614baa614d9a565b5b828202905092915050565b6000614bc182614c7e565b9150614bcc83614c7e565b925082821015614bdf57614bde614d9a565b5b828203905092915050565b6000614bf582614c5e565b9050919050565b60008115159050919050565b60007fffffffff0000000000000000000000000000000000000000000000000000000082169050919050565b60006fffffffffffffffffffffffffffffffff82169050919050565b600061ffff82169050919050565b600073ffffffffffffffffffffffffffffffffffffffff82169050919050565b6000819050919050565b6000614c9382614c7e565b9050919050565b6000614ca582614c7e565b9050919050565b82818337600083830152505050565b60005b83811015614cd9578082015181840152602081019050614cbe565b83811115614ce8576000848401525b50505050565b60006002820490506001821680614d0657607f821691505b60208210811415614d1a57614d19614df8565b5b50919050565b614d2982614e78565b810181811067ffffffffffffffff82111715614d4857614d47614e27565b5b80604052505050565b6000614d5c82614c7e565b91507fffffffffffffffffffffffffffffffffffffffffffffffffffffffffffffffff821415614d8f57614d8e614d9a565b5b600182019050919050565b7f4e487b7100000000000000000000000000000000000000000000000000000000600052601160045260246000fd5b7f4e487b7100000000000000000000000000000000000000000000000000000000600052601260045260246000fd5b7f4e487b7100000000000000000000000000000000000000000000000000000000600052602260045260246000fd5b7f4e487b7100000000000000000000000000000000000000000000000000000000600052604160045260246000fd5b600060033d1115614e755760046000803e614e72600051614e89565b90505b90565b6000601f19601f8301169050919050565b60008160e01c9050919050565b7f455243313135353a207472616e7366657220746f206e6f6e204552433131353560008201527f526563656976657220696d706c656d656e746572000000000000000000000000602082015250565b7f455243313135353a204552433131353552656365697665722072656a6563746560008201527f6420746f6b656e73000000000000000000000000000000000000000000000000602082015250565b7f4e6f20617661696c61626c65206e6f6465730000000000000000000000000000600082015250565b7f455243313135353a2062616c616e636520717565727920666f7220746865207a60008201527f65726f2061646472657373000000000000000000000000000000000000000000602082015250565b7f4f776e61626c653a206e6577206f776e657220697320746865207a65726f206160008201527f6464726573730000000000000000000000000000000000000000000000000000602082015250565b7f4d6178204e6f64657320506572205472616e73616374696f6e2045786365656460008201527f6564000000000000000000000000000000000000000000000000000000000000602082015250565b7f455243313135353a2063616c6c6572206973206e6f74206f776e6572206e6f7260008201527f20617070726f7665640000000000000000000000000000000000000000000000602082015250565b7f596f7520446f6e2774204861766520456e6f7567682052657761726473000000600082015250565b7f455243313135353a207472616e7366657220746f20746865207a65726f20616460008201527f6472657373000000000000000000000000000000000000000000000000000000602082015250565b7f455243313135353a207472616e736665722063616c6c6572206973206e6f742060008201527f6f776e6572206e6f7220617070726f7665640000000000000000000000000000602082015250565b7f496e73756666696369656e74202450454143482042616c616e63650000000000600082015250565b7f455243313135353a20696e73756666696369656e742062616c616e636520666f60008201527f72207472616e7366657200000000000000000000000000000000000000000000602082015250565b7f4e6f6465206e6f7420617661696c61626c650000000000000000000000000000600082015250565b7f4f776e61626c653a2063616c6c6572206973206e6f7420746865206f776e6572600082015250565b7f496e76616c696420416464726573730000000000000000000000000000000000600082015250565b7f455243313135353a2073657474696e6720617070726f76616c2073746174757360008201527f20666f722073656c660000000000000000000000000000000000000000000000602082015250565b7f455243313135353a206163636f756e747320616e6420696473206c656e67746860008201527f206d69736d617463680000000000000000000000000000000000000000000000602082015250565b7f455243313135353a2069647320616e6420616d6f756e7473206c656e6774682060008201527f6d69736d61746368000000000000000000000000000000000000000000000000602082015250565b7f455243313135353a206d696e7420746f20746865207a65726f2061646472657360008201527f7300000000000000000000000000000000000000000000000000000000000000602082015250565b7f496e76616c696420546965720000000000000000000000000000000000000000600082015250565b600060443d10156153c85761544b565b6153d0614998565b60043d036004823e80513d602482011167ffffffffffffffff821117156153f857505061544b565b808201805167ffffffffffffffff811115615416575050505061544b565b80602083010160043d03850181111561543357505050505061544b565b61544282602001850186614d20565b82955050505050505b90565b61545781614bea565b811461546257600080fd5b50565b61546e81614bfc565b811461547957600080fd5b50565b61548581614c08565b811461549057600080fd5b50565b61549c81614c7e565b81146154a757600080fd5b5056fea2646970667358221220217bb0048ccd18ac805a8ba57ab1a6bcd03c5387945a9b0ad117a84642f8533a64736f6c63430008040033",
  "linkReferences": {},
  "deployedLinkReferences": {}
}