{
  "_format": "hh-sol-artifact-1",
  "contractName": "PeachNode",
  "sourceName": "contracts/PeachNode.sol",
  "abi": [
    {
      "inputs": [
        {
          "internalType": "address",
          "name": "_peachToken",
          "type": "address"
        },
        {
          "internalType": "address",
          "name": "_rewardsPool",
          "type": "address"
        },
        {
          "internalType": "address",
          "name": "_teamWallet",
          "type": "address"
        },
        {
          "internalType": "address",
          "name": "_treasury",
          "type": "address"
        }
      ],
      "stateMutability": "nonpayable",
      "type": "constructor"
    },
    {
      "anonymous": false,
      "inputs": [
        {
          "indexed": true,
          "internalType": "address",
          "name": "account",
          "type": "address"
        },
        {
          "indexed": true,
          "internalType": "address",
          "name": "operator",
          "type": "address"
        },
        {
          "indexed": false,
          "internalType": "bool",
          "name": "approved",
          "type": "bool"
        }
      ],
      "name": "ApprovalForAll",
      "type": "event"
    },
    {
      "anonymous": false,
      "inputs": [
        {
          "indexed": true,
          "internalType": "address",
          "name": "previousOwner",
          "type": "address"
        },
        {
          "indexed": true,
          "internalType": "address",
          "name": "newOwner",
          "type": "address"
        }
      ],
      "name": "OwnershipTransferred",
      "type": "event"
    },
    {
      "anonymous": false,
      "inputs": [
        {
          "indexed": true,
          "internalType": "address",
          "name": "operator",
          "type": "address"
        },
        {
          "indexed": true,
          "internalType": "address",
          "name": "from",
          "type": "address"
        },
        {
          "indexed": true,
          "internalType": "address",
          "name": "to",
          "type": "address"
        },
        {
          "indexed": false,
          "internalType": "uint256[]",
          "name": "ids",
          "type": "uint256[]"
        },
        {
          "indexed": false,
          "internalType": "uint256[]",
          "name": "values",
          "type": "uint256[]"
        }
      ],
      "name": "TransferBatch",
      "type": "event"
    },
    {
      "anonymous": false,
      "inputs": [
        {
          "indexed": true,
          "internalType": "address",
          "name": "operator",
          "type": "address"
        },
        {
          "indexed": true,
          "internalType": "address",
          "name": "from",
          "type": "address"
        },
        {
          "indexed": true,
          "internalType": "address",
          "name": "to",
          "type": "address"
        },
        {
          "indexed": false,
          "internalType": "uint256",
          "name": "id",
          "type": "uint256"
        },
        {
          "indexed": false,
          "internalType": "uint256",
          "name": "value",
          "type": "uint256"
        }
      ],
      "name": "TransferSingle",
      "type": "event"
    },
    {
      "anonymous": false,
      "inputs": [
        {
          "indexed": false,
          "internalType": "string",
          "name": "value",
          "type": "string"
        },
        {
          "indexed": true,
          "internalType": "uint256",
          "name": "id",
          "type": "uint256"
        }
      ],
      "name": "URI",
      "type": "event"
    },
    {
      "inputs": [],
      "name": "_limit",
      "outputs": [
        {
          "internalType": "uint16",
          "name": "tier1",
          "type": "uint16"
        },
        {
          "internalType": "uint16",
          "name": "tier2",
          "type": "uint16"
        },
        {
          "internalType": "uint16",
          "name": "tier3",
          "type": "uint16"
        },
        {
          "internalType": "uint16",
          "name": "tier4",
          "type": "uint16"
        },
        {
          "internalType": "uint16",
          "name": "tier5",
          "type": "uint16"
        },
        {
          "internalType": "uint16",
          "name": "tier6",
          "type": "uint16"
        }
      ],
      "stateMutability": "view",
      "type": "function"
    },
    {
      "inputs": [],
      "name": "_rewards",
      "outputs": [
        {
          "internalType": "uint16",
          "name": "tier1",
          "type": "uint16"
        },
        {
          "internalType": "uint16",
          "name": "tier2",
          "type": "uint16"
        },
        {
          "internalType": "uint16",
          "name": "tier3",
          "type": "uint16"
        },
        {
          "internalType": "uint16",
          "name": "tier4",
          "type": "uint16"
        },
        {
          "internalType": "uint16",
          "name": "tier5",
          "type": "uint16"
        },
        {
          "internalType": "uint16",
          "name": "tier6",
          "type": "uint16"
        }
      ],
      "stateMutability": "view",
      "type": "function"
    },
    {
      "inputs": [],
      "name": "approveContract",
      "outputs": [],
      "stateMutability": "nonpayable",
      "type": "function"
    },
    {
      "inputs": [
        {
          "internalType": "address",
          "name": "account",
          "type": "address"
        },
        {
          "internalType": "uint256",
          "name": "id",
          "type": "uint256"
        }
      ],
      "name": "balanceOf",
      "outputs": [
        {
          "internalType": "uint256",
          "name": "",
          "type": "uint256"
        }
      ],
      "stateMutability": "view",
      "type": "function"
    },
    {
      "inputs": [
        {
          "internalType": "address[]",
          "name": "accounts",
          "type": "address[]"
        },
        {
          "internalType": "uint256[]",
          "name": "ids",
          "type": "uint256[]"
        }
      ],
      "name": "balanceOfBatch",
      "outputs": [
        {
          "internalType": "uint256[]",
          "name": "",
          "type": "uint256[]"
        }
      ],
      "stateMutability": "view",
      "type": "function"
    },
    {
      "inputs": [
        {
          "internalType": "uint256",
          "name": "_tier",
          "type": "uint256"
        }
      ],
      "name": "claimRewards",
      "outputs": [],
      "stateMutability": "nonpayable",
      "type": "function"
    },
    {
      "inputs": [
        {
          "internalType": "uint256",
          "name": "_tier",
          "type": "uint256"
        }
      ],
      "name": "compoundRewards",
      "outputs": [],
      "stateMutability": "nonpayable",
      "type": "function"
    },
    {
      "inputs": [
        {
          "internalType": "uint256",
          "name": "_tier",
          "type": "uint256"
        },
        {
          "internalType": "uint256",
          "name": "amount",
          "type": "uint256"
        }
      ],
      "name": "createNode",
      "outputs": [],
      "stateMutability": "nonpayable",
      "type": "function"
    },
    {
      "inputs": [],
      "name": "getTokenBalance",
      "outputs": [
        {
          "internalType": "uint256",
          "name": "",
          "type": "uint256"
        }
      ],
      "stateMutability": "view",
      "type": "function"
    },
    {
      "inputs": [
        {
          "internalType": "address",
          "name": "account",
          "type": "address"
        },
        {
          "internalType": "address",
          "name": "operator",
          "type": "address"
        }
      ],
      "name": "isApprovedForAll",
      "outputs": [
        {
          "internalType": "bool",
          "name": "",
          "type": "bool"
        }
      ],
      "stateMutability": "view",
      "type": "function"
    },
    {
      "inputs": [],
      "name": "nodeCount",
      "outputs": [
        {
          "internalType": "uint256",
          "name": "",
          "type": "uint256"
        }
      ],
      "stateMutability": "view",
      "type": "function"
    },
    {
      "inputs": [],
      "name": "owner",
      "outputs": [
        {
          "internalType": "address",
          "name": "",
          "type": "address"
        }
      ],
      "stateMutability": "view",
      "type": "function"
    },
    {
      "inputs": [],
      "name": "priceSlotmachine",
      "outputs": [
        {
          "internalType": "uint256",
          "name": "",
          "type": "uint256"
        }
      ],
      "stateMutability": "view",
      "type": "function"
    },
    {
      "inputs": [],
      "name": "priceStandard",
      "outputs": [
        {
          "internalType": "uint256",
          "name": "",
          "type": "uint256"
        }
      ],
      "stateMutability": "view",
      "type": "function"
    },
    {
      "inputs": [],
      "name": "renounceOwnership",
      "outputs": [],
      "stateMutability": "nonpayable",
      "type": "function"
    },
    {
      "inputs": [
        {
          "internalType": "address",
          "name": "from",
          "type": "address"
        },
        {
          "internalType": "address",
          "name": "to",
          "type": "address"
        },
        {
          "internalType": "uint256[]",
          "name": "ids",
          "type": "uint256[]"
        },
        {
          "internalType": "uint256[]",
          "name": "amounts",
          "type": "uint256[]"
        },
        {
          "internalType": "bytes",
          "name": "data",
          "type": "bytes"
        }
      ],
      "name": "safeBatchTransferFrom",
      "outputs": [],
      "stateMutability": "nonpayable",
      "type": "function"
    },
    {
      "inputs": [
        {
          "internalType": "address",
          "name": "from",
          "type": "address"
        },
        {
          "internalType": "address",
          "name": "to",
          "type": "address"
        },
        {
          "internalType": "uint256",
          "name": "id",
          "type": "uint256"
        },
        {
          "internalType": "uint256",
          "name": "amount",
          "type": "uint256"
        },
        {
          "internalType": "bytes",
          "name": "data",
          "type": "bytes"
        }
      ],
      "name": "safeTransferFrom",
      "outputs": [],
      "stateMutability": "nonpayable",
      "type": "function"
    },
    {
      "inputs": [
        {
          "internalType": "address",
          "name": "operator",
          "type": "address"
        },
        {
          "internalType": "bool",
          "name": "approved",
          "type": "bool"
        }
      ],
      "name": "setApprovalForAll",
      "outputs": [],
      "stateMutability": "nonpayable",
      "type": "function"
    },
    {
      "inputs": [],
      "name": "setSlotPrice",
      "outputs": [],
      "stateMutability": "nonpayable",
      "type": "function"
    },
    {
      "inputs": [],
      "name": "setStandardPrice",
      "outputs": [],
      "stateMutability": "nonpayable",
      "type": "function"
    },
    {
      "inputs": [
        {
          "internalType": "bytes4",
          "name": "interfaceId",
          "type": "bytes4"
        }
      ],
      "name": "supportsInterface",
      "outputs": [
        {
          "internalType": "bool",
          "name": "",
          "type": "bool"
        }
      ],
      "stateMutability": "view",
      "type": "function"
    },
    {
      "inputs": [],
      "name": "time",
      "outputs": [
        {
          "internalType": "uint128",
          "name": "",
          "type": "uint128"
        }
      ],
      "stateMutability": "view",
      "type": "function"
    },
    {
      "inputs": [
        {
          "internalType": "address",
          "name": "newOwner",
          "type": "address"
        }
      ],
      "name": "transferOwnership",
      "outputs": [],
      "stateMutability": "nonpayable",
      "type": "function"
    },
    {
      "inputs": [
        {
          "internalType": "uint256",
          "name": "",
          "type": "uint256"
        }
      ],
      "name": "uri",
      "outputs": [
        {
          "internalType": "string",
          "name": "",
          "type": "string"
        }
      ],
      "stateMutability": "view",
      "type": "function"
    },
    {
      "stateMutability": "payable",
      "type": "receive"
    }
  ],
  "bytecode": "0x608060405273b31f66aa3c1e785363f0875a1b74e27b85fd66c7600860006101000a81548173ffffffffffffffffffffffffffffffffffffffff021916908373ffffffffffffffffffffffffffffffffffffffff1602179055507360ae616a2155ee3d9a68541ba4544862310933d4600960006101000a81548173ffffffffffffffffffffffffffffffffffffffff021916908373ffffffffffffffffffffffffffffffffffffffff160217905550670de0b6b3a7640000600a55600a546014620000cb91906200075d565b600b55600a546014620000df91906200075d565b600c557360ae616a2155ee3d9a68541ba4544862310933d4600d60006101000a81548173ffffffffffffffffffffffffffffffffffffffff021916908373ffffffffffffffffffffffffffffffffffffffff16021790555062015180600e60006101000a8154816fffffffffffffffffffffffffffffffff02191690836fffffffffffffffffffffffffffffffff1602179055506040518060c001604052806103e861ffff16815260200161019061ffff16815260200161012c61ffff16815260200160fa61ffff16815260200160c861ffff168152602001604b61ffff16815250600f60008201518160000160006101000a81548161ffff021916908361ffff16021790555060208201518160000160026101000a81548161ffff021916908361ffff16021790555060408201518160000160046101000a81548161ffff021916908361ffff16021790555060608201518160000160066101000a81548161ffff021916908361ffff16021790555060808201518160000160086101000a81548161ffff021916908361ffff16021790555060a082015181600001600a6101000a81548161ffff021916908361ffff16021790555050506040518060c001604052806101c261ffff1681526020016109c461ffff16815260200161138861ffff16815260200161271061ffff168152602001614e2061ffff168152602001600061ffff16815250601060008201518160000160006101000a81548161ffff021916908361ffff16021790555060208201518160000160026101000a81548161ffff021916908361ffff16021790555060408201518160000160046101000a81548161ffff021916908361ffff16021790555060608201518160000160066101000a81548161ffff021916908361ffff16021790555060808201518160000160086101000a81548161ffff021916908361ffff16021790555060a082015181600001600a6101000a81548161ffff021916908361ffff1602179055505050348015620003ca57600080fd5b506040516200605b3803806200605b8339818101604052810190620003f09190620006f1565b6040518060200160405280600081525062000411816200054060201b60201c565b5062000432620004266200055c60201b60201c565b6200056460201b60201c565b83600460006101000a81548173ffffffffffffffffffffffffffffffffffffffff021916908373ffffffffffffffffffffffffffffffffffffffff16021790555082600560006101000a81548173ffffffffffffffffffffffffffffffffffffffff021916908373ffffffffffffffffffffffffffffffffffffffff16021790555081600660006101000a81548173ffffffffffffffffffffffffffffffffffffffff021916908373ffffffffffffffffffffffffffffffffffffffff16021790555080600760006101000a81548173ffffffffffffffffffffffffffffffffffffffff021916908373ffffffffffffffffffffffffffffffffffffffff16021790555050505050620008aa565b8060029080519060200190620005589291906200062a565b5050565b600033905090565b6000600360009054906101000a900473ffffffffffffffffffffffffffffffffffffffff16905081600360006101000a81548173ffffffffffffffffffffffffffffffffffffffff021916908373ffffffffffffffffffffffffffffffffffffffff1602179055508173ffffffffffffffffffffffffffffffffffffffff168173ffffffffffffffffffffffffffffffffffffffff167f8be0079c531659141344cd1fd0a4f28419497f9722a3daafe3b4186f6b6457e060405160405180910390a35050565b8280546200063890620007fc565b90600052602060002090601f0160209004810192826200065c5760008555620006a8565b82601f106200067757805160ff1916838001178555620006a8565b82800160010185558215620006a8579182015b82811115620006a75782518255916020019190600101906200068a565b5b509050620006b79190620006bb565b5090565b5b80821115620006d6576000816000905550600101620006bc565b5090565b600081519050620006eb8162000890565b92915050565b600080600080608085870312156200070857600080fd5b60006200071887828801620006da565b94505060206200072b87828801620006da565b93505060406200073e87828801620006da565b92505060606200075187828801620006da565b91505092959194509250565b60006200076a82620007f2565b91506200077783620007f2565b9250817fffffffffffffffffffffffffffffffffffffffffffffffffffffffffffffffff0483118215151615620007b357620007b262000832565b5b828202905092915050565b6000620007cb82620007d2565b9050919050565b600073ffffffffffffffffffffffffffffffffffffffff82169050919050565b6000819050919050565b600060028204905060018216806200081557607f821691505b602082108114156200082c576200082b62000861565b5b50919050565b7f4e487b7100000000000000000000000000000000000000000000000000000000600052601160045260246000fd5b7f4e487b7100000000000000000000000000000000000000000000000000000000600052602260045260246000fd5b6200089b81620007be565b8114620008a757600080fd5b50565b6157a180620008ba6000396000f3fe60806040526004361061014e5760003560e01c80636da49b83116100b6578063a22cb4651161006f578063a22cb46514610450578063a6c2da4c14610479578063df2fb92c146104a9578063e985e9c5146104d9578063f242432a14610516578063f2fde38b1461053f57610155565b80636da49b831461038a578063715018a6146103b5578063747f5fb0146103cc57806382b2e257146103e35780638da5cb5b1461040e5780639e3265991461043957610155565b80632eb2c2d6116101085780632eb2c2d614610290578063330f3c5a146102b957806343d00d04146102e25780634e1273f4146102f957806360ca5b6514610336578063656c579f1461036157610155565b8062fdd58e1461015a57806301ffc9a7146101975780630962ef79146101d45780630e89341c146101fd57806316ada5471461023a5780631f909fa81461026557610155565b3661015557005b600080fd5b34801561016657600080fd5b50610181600480360381019061017c9190613f8e565b610568565b60405161018e9190614ba0565b60405180910390f35b3480156101a357600080fd5b506101be60048036038101906101b991906140a0565b610631565b6040516101cb9190614867565b60405180910390f35b3480156101e057600080fd5b506101fb60048036038101906101f691906140f2565b610713565b005b34801561020957600080fd5b50610224600480360381019061021f91906140f2565b610997565b6040516102319190614882565b60405180910390f35b34801561024657600080fd5b5061024f610a2b565b60405161025c9190614b24565b60405180910390f35b34801561027157600080fd5b5061027a610a4d565b6040516102879190614ba0565b60405180910390f35b34801561029c57600080fd5b506102b760048036038101906102b29190613e04565b610a53565b005b3480156102c557600080fd5b506102e060048036038101906102db9190614144565b610af4565b005b3480156102ee57600080fd5b506102f7610ef4565b005b34801561030557600080fd5b50610320600480360381019061031b9190613fca565b610fc6565b60405161032d919061480e565b60405180910390f35b34801561034257600080fd5b5061034b611177565b6040516103589190614ba0565b60405180910390f35b34801561036d57600080fd5b50610388600480360381019061038391906140f2565b61117d565b005b34801561039657600080fd5b5061039f611351565b6040516103ac9190614ba0565b60405180910390f35b3480156103c157600080fd5b506103ca611357565b005b3480156103d857600080fd5b506103e16113df565b005b3480156103ef57600080fd5b506103f8611666565b6040516104059190614ba0565b60405180910390f35b34801561041a57600080fd5b5061042361171f565b6040516104309190614670565b60405180910390f35b34801561044557600080fd5b5061044e611749565b005b34801561045c57600080fd5b5061047760048036038101906104729190613f52565b611a24565b005b34801561048557600080fd5b5061048e611a3a565b6040516104a096959493929190614b3f565b60405180910390f35b3480156104b557600080fd5b506104be611ab8565b6040516104d096959493929190614b3f565b60405180910390f35b3480156104e557600080fd5b5061050060048036038101906104fb9190613dc8565b611b36565b60405161050d9190614867565b60405180910390f35b34801561052257600080fd5b5061053d60048036038101906105389190613ec3565b611bca565b005b34801561054b57600080fd5b5061056660048036038101906105619190613d9f565b611c6b565b005b60008073ffffffffffffffffffffffffffffffffffffffff168373ffffffffffffffffffffffffffffffffffffffff1614156105d9576040517f08c379a00000000000000000000000000000000000000000000000000000000081526004016105d090614904565b60405180910390fd5b60008083815260200190815260200160002060008473ffffffffffffffffffffffffffffffffffffffff1673ffffffffffffffffffffffffffffffffffffffff16815260200190815260200160002054905092915050565b60007fd9b67a26000000000000000000000000000000000000000000000000000000007bffffffffffffffffffffffffffffffffffffffffffffffffffffffff1916827bffffffffffffffffffffffffffffffffffffffffffffffffffffffff191614806106fc57507f0e89341c000000000000000000000000000000000000000000000000000000007bffffffffffffffffffffffffffffffffffffffffffffffffffffffff1916827bffffffffffffffffffffffffffffffffffffffffffffffffffffffff1916145b8061070c575061070b82611d63565b5b9050919050565b600061071d611dcd565b9050600061072b8284611dd5565b905060018111610770576040517f08c379a000000000000000000000000000000000000000000000000000000000815260040161076790614984565b60405180910390fd5b60006064600c836107819190614e1d565b61078b9190614dec565b90506000606460038461079e9190614e1d565b6107a89190614dec565b905060008183856107b99190614e77565b6107c39190614e77565b9050600460009054906101000a900473ffffffffffffffffffffffffffffffffffffffff1673ffffffffffffffffffffffffffffffffffffffff166323b872dd600560009054906101000a900473ffffffffffffffffffffffffffffffffffffffff1687846040518463ffffffff1660e01b8152600401610846939291906146f3565b602060405180830381600087803b15801561086057600080fd5b505af1158015610874573d6000803e3d6000fd5b505050506040513d601f19601f820116820180604052508101906108989190614077565b50600460009054906101000a900473ffffffffffffffffffffffffffffffffffffffff1673ffffffffffffffffffffffffffffffffffffffff166323b872dd600560009054906101000a900473ffffffffffffffffffffffffffffffffffffffff16600660009054906101000a900473ffffffffffffffffffffffffffffffffffffffff16856040518463ffffffff1660e01b815260040161093c939291906146f3565b602060405180830381600087803b15801561095657600080fd5b505af115801561096a573d6000803e3d6000fd5b505050506040513d601f19601f8201168201806040525081019061098e9190614077565b50505050505050565b6060600280546109a690614faf565b80601f01602080910402602001604051908101604052809291908181526020018280546109d290614faf565b8015610a1f5780601f106109f457610100808354040283529160200191610a1f565b820191906000526020600020905b815481529060010190602001808311610a0257829003601f168201915b50505050509050919050565b600e60009054906101000a90046fffffffffffffffffffffffffffffffff1681565b600c5481565b610a5b611dcd565b73ffffffffffffffffffffffffffffffffffffffff168573ffffffffffffffffffffffffffffffffffffffff161480610aa15750610aa085610a9b611dcd565b611b36565b5b610ae0576040517f08c379a0000000000000000000000000000000000000000000000000000000008152600401610ad7906149c4565b60405180910390fd5b610aed85858585856120c9565b5050505050565b6000610afe611dcd565b9050600073ffffffffffffffffffffffffffffffffffffffff168173ffffffffffffffffffffffffffffffffffffffff161415610b70576040517f08c379a0000000000000000000000000000000000000000000000000000000008152600401610b6790614a64565b60405180910390fd5b60018310158015610b815750600783105b610bc0576040517f08c379a0000000000000000000000000000000000000000000000000000000008152600401610bb790614b04565b60405180910390fd5b610bca8383612429565b610c09576040517f08c379a0000000000000000000000000000000000000000000000000000000008152600401610c0090614a24565b60405180910390fd5b60158210610c4c576040517f08c379a0000000000000000000000000000000000000000000000000000000008152600401610c4390614944565b60405180910390fd5b600660116000858152602001908152602001600020541415610c7557610c706113df565b610c7e565b610c7d611749565b5b600082601360008473ffffffffffffffffffffffffffffffffffffffff1673ffffffffffffffffffffffffffffffffffffffff16815260200190815260200160002054610ccb9190614e1d565b905080600460009054906101000a900473ffffffffffffffffffffffffffffffffffffffff1673ffffffffffffffffffffffffffffffffffffffff166370a08231846040518263ffffffff1660e01b8152600401610d299190614670565b60206040518083038186803b158015610d4157600080fd5b505afa158015610d55573d6000803e3d6000fd5b505050506040513d601f19601f82011682018060405250810190610d79919061411b565b1015610dba576040517f08c379a0000000000000000000000000000000000000000000000000000000008152600401610db1906149e4565b60405180910390fd5b610dc4828261267d565b610dcd57600080fd5b60005b83811015610e8f57601260008473ffffffffffffffffffffffffffffffffffffffff1673ffffffffffffffffffffffffffffffffffffffff16815260200190815260200160002060008681526020019081526020016000206040518060400160405280878152602001428152509080600181540180825580915050600190039060005260206000209060020201600090919091909150600082015181600001556020820151816001015550508080610e8790615012565b915050610dd0565b50610eab82858560405180602001604052806000815250612fd8565b82601160008681526020019081526020016000206000828254610ece9190614d96565b925050819055508260146000828254610ee79190614d96565b9250508190555050505050565b600460009054906101000a900473ffffffffffffffffffffffffffffffffffffffff1673ffffffffffffffffffffffffffffffffffffffff1663095ea7b3307fffffffffffffffffffffffffffffffffffffffffffffffffffffffffffffffff6040518363ffffffff1660e01b8152600401610f71929190614784565b602060405180830381600087803b158015610f8b57600080fd5b505af1158015610f9f573d6000803e3d6000fd5b505050506040513d601f19601f82011682018060405250810190610fc39190614077565b50565b6060815183511461100c576040517f08c379a000000000000000000000000000000000000000000000000000000000815260040161100390614aa4565b60405180910390fd5b6000835167ffffffffffffffff81111561104f577f4e487b7100000000000000000000000000000000000000000000000000000000600052604160045260246000fd5b60405190808252806020026020018201604052801561107d5781602001602082028036833780820191505090505b50905060005b845181101561116c576111168582815181106110c8577f4e487b7100000000000000000000000000000000000000000000000000000000600052603260045260246000fd5b6020026020010151858381518110611109577f4e487b7100000000000000000000000000000000000000000000000000000000600052603260045260246000fd5b6020026020010151610568565b82828151811061114f577f4e487b7100000000000000000000000000000000000000000000000000000000600052603260045260246000fd5b6020026020010181815250508061116590615012565b9050611083565b508091505092915050565b600b5481565b6000611187611dcd565b905060006111958284611dd5565b90506006601160008581526020019081526020016000205414156111c0576111bb6113df565b6111c9565b6111c8611749565b5b601360008373ffffffffffffffffffffffffffffffffffffffff1673ffffffffffffffffffffffffffffffffffffffff1681526020019081526020016000205481101561124b576040517f08c379a000000000000000000000000000000000000000000000000000000000815260040161124290614984565b60405180910390fd5b601260008373ffffffffffffffffffffffffffffffffffffffff1673ffffffffffffffffffffffffffffffffffffffff168152602001908152602001600020600084815260200190815260200160002060405180604001604052808581526020014281525090806001815401808255809150506001900390600052602060002090600202016000909190919091506000820151816000015560208201518160010155505061130b8284600160405180602001604052806000815250612fd8565b60116000848152602001908152602001600020600081548092919061132f90615012565b91905055506014600081548092919061134790615012565b9190505550505050565b60145481565b61135f611dcd565b73ffffffffffffffffffffffffffffffffffffffff1661137d61171f565b73ffffffffffffffffffffffffffffffffffffffff16146113d3576040517f08c379a00000000000000000000000000000000000000000000000000000000081526004016113ca90614a44565b60405180910390fd5b6113dd600061316e565b565b60006113e9611dcd565b905060006113f8826006610568565b9050600a81101561144e57600c54601360008473ffffffffffffffffffffffffffffffffffffffff1673ffffffffffffffffffffffffffffffffffffffff16815260200190815260200160002081905550611662565b600a811015801561145f5750601481105b156114bb57600a5460196114739190614e1d565b601360008473ffffffffffffffffffffffffffffffffffffffff1673ffffffffffffffffffffffffffffffffffffffff16815260200190815260200160002081905550611661565b601481101580156114cc5750602881105b1561152857600a54601e6114e09190614e1d565b601360008473ffffffffffffffffffffffffffffffffffffffff1673ffffffffffffffffffffffffffffffffffffffff16815260200190815260200160002081905550611660565b602881101580156115395750605081105b1561159557600a54602361154d9190614e1d565b601360008473ffffffffffffffffffffffffffffffffffffffff1673ffffffffffffffffffffffffffffffffffffffff1681526020019081526020016000208190555061165f565b605081101580156115a65750606481105b1561160257600a5460286115ba9190614e1d565b601360008473ffffffffffffffffffffffffffffffffffffffff1673ffffffffffffffffffffffffffffffffffffffff1681526020019081526020016000208190555061165e565b6064811061165d57600a54602d6116199190614e1d565b601360008473ffffffffffffffffffffffffffffffffffffffff1673ffffffffffffffffffffffffffffffffffffffff168152602001908152602001600020819055505b5b5b5b5b5b5050565b6000600460009054906101000a900473ffffffffffffffffffffffffffffffffffffffff1673ffffffffffffffffffffffffffffffffffffffff166370a082316116ae611dcd565b6040518263ffffffff1660e01b81526004016116ca9190614670565b60206040518083038186803b1580156116e257600080fd5b505afa1580156116f6573d6000803e3d6000fd5b505050506040513d601f19601f8201168201806040525081019061171a919061411b565b905090565b6000600360009054906101000a900473ffffffffffffffffffffffffffffffffffffffff16905090565b6000611753611dcd565b90506000611762826005610568565b61176d836004610568565b611778846003610568565b611783856002610568565b61178e866001610568565b6117989190614d96565b6117a29190614d96565b6117ac9190614d96565b6117b69190614d96565b9050600a81101561180c57600b54601360008473ffffffffffffffffffffffffffffffffffffffff1673ffffffffffffffffffffffffffffffffffffffff16815260200190815260200160002081905550611a20565b600a811015801561181d5750601481105b1561187957600a5460196118319190614e1d565b601360008473ffffffffffffffffffffffffffffffffffffffff1673ffffffffffffffffffffffffffffffffffffffff16815260200190815260200160002081905550611a1f565b6014811015801561188a5750602881105b156118e657600a54601e61189e9190614e1d565b601360008473ffffffffffffffffffffffffffffffffffffffff1673ffffffffffffffffffffffffffffffffffffffff16815260200190815260200160002081905550611a1e565b602881101580156118f75750605081105b1561195357600a54602361190b9190614e1d565b601360008473ffffffffffffffffffffffffffffffffffffffff1673ffffffffffffffffffffffffffffffffffffffff16815260200190815260200160002081905550611a1d565b605081101580156119645750606481105b156119c057600a5460286119789190614e1d565b601360008473ffffffffffffffffffffffffffffffffffffffff1673ffffffffffffffffffffffffffffffffffffffff16815260200190815260200160002081905550611a1c565b60648110611a1b57600a54602d6119d79190614e1d565b601360008473ffffffffffffffffffffffffffffffffffffffff1673ffffffffffffffffffffffffffffffffffffffff168152602001908152602001600020819055505b5b5b5b5b5b5050565b611a36611a2f611dcd565b8383613234565b5050565b600f8060000160009054906101000a900461ffff16908060000160029054906101000a900461ffff16908060000160049054906101000a900461ffff16908060000160069054906101000a900461ffff16908060000160089054906101000a900461ffff169080600001600a9054906101000a900461ffff16905086565b60108060000160009054906101000a900461ffff16908060000160029054906101000a900461ffff16908060000160049054906101000a900461ffff16908060000160069054906101000a900461ffff16908060000160089054906101000a900461ffff169080600001600a9054906101000a900461ffff16905086565b6000600160008473ffffffffffffffffffffffffffffffffffffffff1673ffffffffffffffffffffffffffffffffffffffff16815260200190815260200160002060008373ffffffffffffffffffffffffffffffffffffffff1673ffffffffffffffffffffffffffffffffffffffff16815260200190815260200160002060009054906101000a900460ff16905092915050565b611bd2611dcd565b73ffffffffffffffffffffffffffffffffffffffff168573ffffffffffffffffffffffffffffffffffffffff161480611c185750611c1785611c12611dcd565b611b36565b5b611c57576040517f08c379a0000000000000000000000000000000000000000000000000000000008152600401611c4e90614964565b60405180910390fd5b611c6485858585856133a1565b5050505050565b611c73611dcd565b73ffffffffffffffffffffffffffffffffffffffff16611c9161171f565b73ffffffffffffffffffffffffffffffffffffffff1614611ce7576040517f08c379a0000000000000000000000000000000000000000000000000000000008152600401611cde90614a44565b60405180910390fd5b600073ffffffffffffffffffffffffffffffffffffffff168173ffffffffffffffffffffffffffffffffffffffff161415611d57576040517f08c379a0000000000000000000000000000000000000000000000000000000008152600401611d4e90614924565b60405180910390fd5b611d608161316e565b50565b60007f01ffc9a7000000000000000000000000000000000000000000000000000000007bffffffffffffffffffffffffffffffffffffffffffffffffffffffff1916827bffffffffffffffffffffffffffffffffffffffffffffffffffffffff1916149050919050565b600033905090565b600060018210158015611de85750600782105b611e27576040517f08c379a0000000000000000000000000000000000000000000000000000000008152600401611e1e90614b04565b60405180910390fd5b60006001831415611e5157600f60000160009054906101000a900461ffff1661ffff169050611f1a565b6002831415611e7957600f60000160029054906101000a900461ffff1661ffff169050611f19565b6003831415611ea157600f60000160049054906101000a900461ffff1661ffff169050611f18565b6004831415611ec957600f60000160069054906101000a900461ffff1661ffff169050611f17565b6005831415611ef157600f60000160089054906101000a900461ffff1661ffff169050611f16565b6006831415611f1557600f600001600a9054906101000a900461ffff1661ffff1690505b5b5b5b5b5b60008490506000601260008373ffffffffffffffffffffffffffffffffffffffff1673ffffffffffffffffffffffffffffffffffffffff1681526020019081526020016000206000868152602001908152602001600020905060008180549050905060008111611fbf576040517f08c379a0000000000000000000000000000000000000000000000000000000008152600401611fb6906148e4565b60405180910390fd5b6000806000905060005b838110156120b95784818154811061200a577f4e487b7100000000000000000000000000000000000000000000000000000000600052603260045260246000fd5b906000526020600020906002020192506000600e60009054906101000a90046fffffffffffffffffffffffffffffffff166fffffffffffffffffffffffffffffffff1684600101544261205d9190614e77565b6120679190614dec565b90506103e888600a548361207b9190614e1d565b6120859190614e1d565b61208f9190614dec565b8361209a9190614d96565b92504284600101819055505080806120b190615012565b915050611fc9565b5080965050505050505092915050565b815183511461210d576040517f08c379a000000000000000000000000000000000000000000000000000000000815260040161210490614ac4565b60405180910390fd5b600073ffffffffffffffffffffffffffffffffffffffff168473ffffffffffffffffffffffffffffffffffffffff16141561217d576040517f08c379a0000000000000000000000000000000000000000000000000000000008152600401612174906149a4565b60405180910390fd5b6000612187611dcd565b9050612197818787878787613623565b60005b84518110156123945760008582815181106121de577f4e487b7100000000000000000000000000000000000000000000000000000000600052603260045260246000fd5b602002602001015190506000858381518110612223577f4e487b7100000000000000000000000000000000000000000000000000000000600052603260045260246000fd5b60200260200101519050600080600084815260200190815260200160002060008b73ffffffffffffffffffffffffffffffffffffffff1673ffffffffffffffffffffffffffffffffffffffff168152602001908152602001600020549050818110156122c4576040517f08c379a00000000000000000000000000000000000000000000000000000000081526004016122bb90614a04565b60405180910390fd5b81810360008085815260200190815260200160002060008c73ffffffffffffffffffffffffffffffffffffffff1673ffffffffffffffffffffffffffffffffffffffff168152602001908152602001600020819055508160008085815260200190815260200160002060008b73ffffffffffffffffffffffffffffffffffffffff1673ffffffffffffffffffffffffffffffffffffffff16815260200190815260200160002060008282546123799190614d96565b925050819055505050508061238d90615012565b905061219a565b508473ffffffffffffffffffffffffffffffffffffffff168673ffffffffffffffffffffffffffffffffffffffff168273ffffffffffffffffffffffffffffffffffffffff167f4a39dc06d4c0dbc64b70af90fd698a233a518aa5d07e595d983b8c0526c8f7fb878760405161240b929190614830565b60405180910390a461242181878787878761362b565b505050505050565b60006001831015801561243c5750600783105b61244557600080fd5b6001601160008581526020019081526020016000205414156124ac57601060000160009054906101000a900461ffff1661ffff168260116000868152602001908152602001600020546124989190614d96565b11156124a75760009050612677565b612672565b60026011600085815260200190815260200160002054141561251357601060000160029054906101000a900461ffff1661ffff168260116000868152602001908152602001600020546124ff9190614d96565b111561250e5760009050612677565b612671565b60036011600085815260200190815260200160002054141561257a57601060000160049054906101000a900461ffff1661ffff168260116000868152602001908152602001600020546125669190614d96565b11156125755760009050612677565b612670565b6004601160008581526020019081526020016000205414156125e157601060000160069054906101000a900461ffff1661ffff168260116000868152602001908152602001600020546125cd9190614d96565b11156125dc5760009050612677565b61266f565b60056011600085815260200190815260200160002054141561264857601060000160089054906101000a900461ffff1661ffff168260116000868152602001908152602001600020546126349190614d96565b11156126435760009050612677565b61266e565b60066011600085815260200190815260200160002054141561266d5760019050612677565b5b5b5b5b5b600190505b92915050565b6000600460009054906101000a900473ffffffffffffffffffffffffffffffffffffffff1673ffffffffffffffffffffffffffffffffffffffff166323b872dd8430856040518463ffffffff1660e01b81526004016126de939291906146f3565b602060405180830381600087803b1580156126f857600080fd5b505af115801561270c573d6000803e3d6000fd5b505050506040513d601f19601f820116820180604052508101906127309190614077565b50600060646014846127429190614e1d565b61274c9190614dec565b90506000606460058561275f9190614e1d565b6127699190614dec565b905060006064600f8661277c9190614e1d565b6127869190614dec565b905060006002826127979190614dec565b9050600460009054906101000a900473ffffffffffffffffffffffffffffffffffffffff1673ffffffffffffffffffffffffffffffffffffffff1663095ea7b3600960009054906101000a900473ffffffffffffffffffffffffffffffffffffffff167fffffffffffffffffffffffffffffffffffffffffffffffffffffffffffffffff6040518363ffffffff1660e01b8152600401612838929190614784565b602060405180830381600087803b15801561285257600080fd5b505af1158015612866573d6000803e3d6000fd5b505050506040513d601f19601f8201168201806040525081019061288a9190614077565b50600460009054906101000a900473ffffffffffffffffffffffffffffffffffffffff1673ffffffffffffffffffffffffffffffffffffffff1663095ea7b3307fffffffffffffffffffffffffffffffffffffffffffffffffffffffffffffffff6040518363ffffffff1660e01b8152600401612908929190614784565b602060405180830381600087803b15801561292257600080fd5b505af1158015612936573d6000803e3d6000fd5b505050506040513d601f19601f8201168201806040525081019061295a9190614077565b50600460009054906101000a900473ffffffffffffffffffffffffffffffffffffffff1673ffffffffffffffffffffffffffffffffffffffff166323b872dd30600760009054906101000a900473ffffffffffffffffffffffffffffffffffffffff16876040518463ffffffff1660e01b81526004016129dc939291906146f3565b602060405180830381600087803b1580156129f657600080fd5b505af1158015612a0a573d6000803e3d6000fd5b505050506040513d601f19601f82011682018060405250810190612a2e9190614077565b50600460009054906101000a900473ffffffffffffffffffffffffffffffffffffffff1673ffffffffffffffffffffffffffffffffffffffff166323b872dd30600660009054906101000a900473ffffffffffffffffffffffffffffffffffffffff16866040518463ffffffff1660e01b8152600401612ab0939291906146f3565b602060405180830381600087803b158015612aca57600080fd5b505af1158015612ade573d6000803e3d6000fd5b505050506040513d601f19601f82011682018060405250810190612b029190614077565b506000600267ffffffffffffffff811115612b46577f4e487b7100000000000000000000000000000000000000000000000000000000600052604160045260246000fd5b604051908082528060200260200182016040528015612b745781602001602082028036833780820191505090505b509050600460009054906101000a900473ffffffffffffffffffffffffffffffffffffffff1681600081518110612bd4577f4e487b7100000000000000000000000000000000000000000000000000000000600052603260045260246000fd5b602002602001019073ffffffffffffffffffffffffffffffffffffffff16908173ffffffffffffffffffffffffffffffffffffffff1681525050600860009054906101000a900473ffffffffffffffffffffffffffffffffffffffff1681600181518110612c6b577f4e487b7100000000000000000000000000000000000000000000000000000000600052603260045260246000fd5b602002602001019073ffffffffffffffffffffffffffffffffffffffff16908173ffffffffffffffffffffffffffffffffffffffff1681525050600d60009054906101000a900473ffffffffffffffffffffffffffffffffffffffff1673ffffffffffffffffffffffffffffffffffffffff1663676528d18360008430426040518663ffffffff1660e01b8152600401612d09959493929190614bbb565b600060405180830381600087803b158015612d2357600080fd5b505af1158015612d37573d6000803e3d6000fd5b505050506040513d6000823e3d601f19601f82011682018060405250810190612d609190614036565b506000479050600d60009054906101000a900473ffffffffffffffffffffffffffffffffffffffff1673ffffffffffffffffffffffffffffffffffffffff1663f91b3f7282600460009054906101000a900473ffffffffffffffffffffffffffffffffffffffff168760018030426040518863ffffffff1660e01b8152600401612def969594939291906147ad565b6060604051808303818588803b158015612e0857600080fd5b505af1158015612e1c573d6000803e3d6000fd5b50505050506040513d601f19601f82011682018060405250810190612e419190614180565b5050506000600460009054906101000a900473ffffffffffffffffffffffffffffffffffffffff1673ffffffffffffffffffffffffffffffffffffffff166370a08231306040518263ffffffff1660e01b8152600401612ea19190614670565b60206040518083038186803b158015612eb957600080fd5b505afa158015612ecd573d6000803e3d6000fd5b505050506040513d601f19601f82011682018060405250810190612ef1919061411b565b9050600460009054906101000a900473ffffffffffffffffffffffffffffffffffffffff1673ffffffffffffffffffffffffffffffffffffffff166323b872dd30600560009054906101000a900473ffffffffffffffffffffffffffffffffffffffff16846040518463ffffffff1660e01b8152600401612f74939291906146f3565b602060405180830381600087803b158015612f8e57600080fd5b505af1158015612fa2573d6000803e3d6000fd5b505050506040513d601f19601f82011682018060405250810190612fc69190614077565b50600197505050505050505092915050565b600073ffffffffffffffffffffffffffffffffffffffff168473ffffffffffffffffffffffffffffffffffffffff161415613048576040517f08c379a000000000000000000000000000000000000000000000000000000000815260040161303f90614ae4565b60405180910390fd5b6000613052611dcd565b90506130738160008761306488613812565b61306d88613812565b87613623565b8260008086815260200190815260200160002060008773ffffffffffffffffffffffffffffffffffffffff1673ffffffffffffffffffffffffffffffffffffffff16815260200190815260200160002060008282546130d29190614d96565b925050819055508473ffffffffffffffffffffffffffffffffffffffff16600073ffffffffffffffffffffffffffffffffffffffff168273ffffffffffffffffffffffffffffffffffffffff167fc3d58168c5ae7397731d063d5bbf3d657854427343f4c083240f7aacaa2d0f628787604051613150929190614c15565b60405180910390a4613167816000878787876138d8565b5050505050565b6000600360009054906101000a900473ffffffffffffffffffffffffffffffffffffffff16905081600360006101000a81548173ffffffffffffffffffffffffffffffffffffffff021916908373ffffffffffffffffffffffffffffffffffffffff1602179055508173ffffffffffffffffffffffffffffffffffffffff168173ffffffffffffffffffffffffffffffffffffffff167f8be0079c531659141344cd1fd0a4f28419497f9722a3daafe3b4186f6b6457e060405160405180910390a35050565b8173ffffffffffffffffffffffffffffffffffffffff168373ffffffffffffffffffffffffffffffffffffffff1614156132a3576040517f08c379a000000000000000000000000000000000000000000000000000000000815260040161329a90614a84565b60405180910390fd5b80600160008573ffffffffffffffffffffffffffffffffffffffff1673ffffffffffffffffffffffffffffffffffffffff16815260200190815260200160002060008473ffffffffffffffffffffffffffffffffffffffff1673ffffffffffffffffffffffffffffffffffffffff16815260200190815260200160002060006101000a81548160ff0219169083151502179055508173ffffffffffffffffffffffffffffffffffffffff168373ffffffffffffffffffffffffffffffffffffffff167f17307eab39ab6107e8899845ad3d59bd9653f200f220920489ca2b5937696c31836040516133949190614867565b60405180910390a3505050565b600073ffffffffffffffffffffffffffffffffffffffff168473ffffffffffffffffffffffffffffffffffffffff161415613411576040517f08c379a0000000000000000000000000000000000000000000000000000000008152600401613408906149a4565b60405180910390fd5b600061341b611dcd565b905061343b81878761342c88613812565b61343588613812565b87613623565b600080600086815260200190815260200160002060008873ffffffffffffffffffffffffffffffffffffffff1673ffffffffffffffffffffffffffffffffffffffff168152602001908152602001600020549050838110156134d2576040517f08c379a00000000000000000000000000000000000000000000000000000000081526004016134c990614a04565b60405180910390fd5b83810360008087815260200190815260200160002060008973ffffffffffffffffffffffffffffffffffffffff1673ffffffffffffffffffffffffffffffffffffffff168152602001908152602001600020819055508360008087815260200190815260200160002060008873ffffffffffffffffffffffffffffffffffffffff1673ffffffffffffffffffffffffffffffffffffffff16815260200190815260200160002060008282546135879190614d96565b925050819055508573ffffffffffffffffffffffffffffffffffffffff168773ffffffffffffffffffffffffffffffffffffffff168373ffffffffffffffffffffffffffffffffffffffff167fc3d58168c5ae7397731d063d5bbf3d657854427343f4c083240f7aacaa2d0f628888604051613604929190614c15565b60405180910390a461361a8288888888886138d8565b50505050505050565b505050505050565b61364a8473ffffffffffffffffffffffffffffffffffffffff16613abf565b1561380a578373ffffffffffffffffffffffffffffffffffffffff1663bc197c8187878686866040518663ffffffff1660e01b815260040161369095949392919061468b565b602060405180830381600087803b1580156136aa57600080fd5b505af19250505080156136db57506040513d601f19601f820116820180604052508101906136d891906140c9565b60015b613781576136e7615117565b806308c379a0141561374457506136fc615679565b806137075750613746565b806040517f08c379a000000000000000000000000000000000000000000000000000000000815260040161373b9190614882565b60405180910390fd5b505b6040517f08c379a0000000000000000000000000000000000000000000000000000000008152600401613778906148a4565b60405180910390fd5b63bc197c8160e01b7bffffffffffffffffffffffffffffffffffffffffffffffffffffffff1916817bffffffffffffffffffffffffffffffffffffffffffffffffffffffff191614613808576040517f08c379a00000000000000000000000000000000000000000000000000000000081526004016137ff906148c4565b60405180910390fd5b505b505050505050565b60606000600167ffffffffffffffff811115613857577f4e487b7100000000000000000000000000000000000000000000000000000000600052604160045260246000fd5b6040519080825280602002602001820160405280156138855781602001602082028036833780820191505090505b50905082816000815181106138c3577f4e487b7100000000000000000000000000000000000000000000000000000000600052603260045260246000fd5b60200260200101818152505080915050919050565b6138f78473ffffffffffffffffffffffffffffffffffffffff16613abf565b15613ab7578373ffffffffffffffffffffffffffffffffffffffff1663f23a6e6187878686866040518663ffffffff1660e01b815260040161393d95949392919061472a565b602060405180830381600087803b15801561395757600080fd5b505af192505050801561398857506040513d601f19601f8201168201806040525081019061398591906140c9565b60015b613a2e57613994615117565b806308c379a014156139f157506139a9615679565b806139b457506139f3565b806040517f08c379a00000000000000000000000000000000000000000000000000000000081526004016139e89190614882565b60405180910390fd5b505b6040517f08c379a0000000000000000000000000000000000000000000000000000000008152600401613a25906148a4565b60405180910390fd5b63f23a6e6160e01b7bffffffffffffffffffffffffffffffffffffffffffffffffffffffff1916817bffffffffffffffffffffffffffffffffffffffffffffffffffffffff191614613ab5576040517f08c379a0000000000000000000000000000000000000000000000000000000008152600401613aac906148c4565b60405180910390fd5b505b505050505050565b6000808273ffffffffffffffffffffffffffffffffffffffff163b119050919050565b6000613af5613af084614c63565b614c3e565b90508083825260208201905082856020860282011115613b1457600080fd5b60005b85811015613b445781613b2a8882613c64565b845260208401935060208301925050600181019050613b17565b5050509392505050565b6000613b61613b5c84614c8f565b614c3e565b90508083825260208201905082856020860282011115613b8057600080fd5b60005b85811015613bb05781613b968882613d75565b845260208401935060208301925050600181019050613b83565b5050509392505050565b6000613bcd613bc884614c8f565b614c3e565b90508083825260208201905082856020860282011115613bec57600080fd5b60005b85811015613c1c5781613c028882613d8a565b845260208401935060208301925050600181019050613bef565b5050509392505050565b6000613c39613c3484614cbb565b614c3e565b905082815260208101848484011115613c5157600080fd5b613c5c848285614f6d565b509392505050565b600081359050613c738161570f565b92915050565b600082601f830112613c8a57600080fd5b8135613c9a848260208601613ae2565b91505092915050565b600082601f830112613cb457600080fd5b8135613cc4848260208601613b4e565b91505092915050565b600082601f830112613cde57600080fd5b8151613cee848260208601613bba565b91505092915050565b600081359050613d0681615726565b92915050565b600081519050613d1b81615726565b92915050565b600081359050613d308161573d565b92915050565b600081519050613d458161573d565b92915050565b600082601f830112613d5c57600080fd5b8135613d6c848260208601613c26565b91505092915050565b600081359050613d8481615754565b92915050565b600081519050613d9981615754565b92915050565b600060208284031215613db157600080fd5b6000613dbf84828501613c64565b91505092915050565b60008060408385031215613ddb57600080fd5b6000613de985828601613c64565b9250506020613dfa85828601613c64565b9150509250929050565b600080600080600060a08688031215613e1c57600080fd5b6000613e2a88828901613c64565b9550506020613e3b88828901613c64565b945050604086013567ffffffffffffffff811115613e5857600080fd5b613e6488828901613ca3565b935050606086013567ffffffffffffffff811115613e8157600080fd5b613e8d88828901613ca3565b925050608086013567ffffffffffffffff811115613eaa57600080fd5b613eb688828901613d4b565b9150509295509295909350565b600080600080600060a08688031215613edb57600080fd5b6000613ee988828901613c64565b9550506020613efa88828901613c64565b9450506040613f0b88828901613d75565b9350506060613f1c88828901613d75565b925050608086013567ffffffffffffffff811115613f3957600080fd5b613f4588828901613d4b565b9150509295509295909350565b60008060408385031215613f6557600080fd5b6000613f7385828601613c64565b9250506020613f8485828601613cf7565b9150509250929050565b60008060408385031215613fa157600080fd5b6000613faf85828601613c64565b9250506020613fc085828601613d75565b9150509250929050565b60008060408385031215613fdd57600080fd5b600083013567ffffffffffffffff811115613ff757600080fd5b61400385828601613c79565b925050602083013567ffffffffffffffff81111561402057600080fd5b61402c85828601613ca3565b9150509250929050565b60006020828403121561404857600080fd5b600082015167ffffffffffffffff81111561406257600080fd5b61406e84828501613ccd565b91505092915050565b60006020828403121561408957600080fd5b600061409784828501613d0c565b91505092915050565b6000602082840312156140b257600080fd5b60006140c084828501613d21565b91505092915050565b6000602082840312156140db57600080fd5b60006140e984828501613d36565b91505092915050565b60006020828403121561410457600080fd5b600061411284828501613d75565b91505092915050565b60006020828403121561412d57600080fd5b600061413b84828501613d8a565b91505092915050565b6000806040838503121561415757600080fd5b600061416585828601613d75565b925050602061417685828601613d75565b9150509250929050565b60008060006060848603121561419557600080fd5b60006141a386828701613d8a565b93505060206141b486828701613d8a565b92505060406141c586828701613d8a565b9150509250925092565b60006141db83836141ff565b60208301905092915050565b60006141f38383614652565b60208301905092915050565b61420881614eab565b82525050565b61421781614eab565b82525050565b600061422882614d0c565b6142328185614d52565b935061423d83614cec565b8060005b8381101561426e57815161425588826141cf565b975061426083614d38565b925050600181019050614241565b5085935050505092915050565b600061428682614d17565b6142908185614d63565b935061429b83614cfc565b8060005b838110156142cc5781516142b388826141e7565b97506142be83614d45565b92505060018101905061429f565b5085935050505092915050565b6142e281614ebd565b82525050565b60006142f382614d22565b6142fd8185614d74565b935061430d818560208601614f7c565b61431681615139565b840191505092915050565b61432a81614f49565b82525050565b61433981614f5b565b82525050565b600061434a82614d2d565b6143548185614d85565b9350614364818560208601614f7c565b61436d81615139565b840191505092915050565b6000614385603483614d85565b915061439082615157565b604082019050919050565b60006143a8602883614d85565b91506143b3826151a6565b604082019050919050565b60006143cb601283614d85565b91506143d6826151f5565b602082019050919050565b60006143ee602b83614d85565b91506143f98261521e565b604082019050919050565b6000614411602683614d85565b915061441c8261526d565b604082019050919050565b6000614434602283614d85565b915061443f826152bc565b604082019050919050565b6000614457602983614d85565b91506144628261530b565b604082019050919050565b600061447a601d83614d85565b91506144858261535a565b602082019050919050565b600061449d602583614d85565b91506144a882615383565b604082019050919050565b60006144c0603283614d85565b91506144cb826153d2565b604082019050919050565b60006144e3601b83614d85565b91506144ee82615421565b602082019050919050565b6000614506602a83614d85565b91506145118261544a565b604082019050919050565b6000614529601283614d85565b915061453482615499565b602082019050919050565b600061454c602083614d85565b9150614557826154c2565b602082019050919050565b600061456f600f83614d85565b915061457a826154eb565b602082019050919050565b6000614592602983614d85565b915061459d82615514565b604082019050919050565b60006145b5602983614d85565b91506145c082615563565b604082019050919050565b60006145d8602883614d85565b91506145e3826155b2565b604082019050919050565b60006145fb602183614d85565b915061460682615601565b604082019050919050565b600061461e600c83614d85565b915061462982615650565b602082019050919050565b61463d81614ef5565b82525050565b61464c81614f11565b82525050565b61465b81614f3f565b82525050565b61466a81614f3f565b82525050565b6000602082019050614685600083018461420e565b92915050565b600060a0820190506146a0600083018861420e565b6146ad602083018761420e565b81810360408301526146bf818661427b565b905081810360608301526146d3818561427b565b905081810360808301526146e781846142e8565b90509695505050505050565b6000606082019050614708600083018661420e565b614715602083018561420e565b6147226040830184614661565b949350505050565b600060a08201905061473f600083018861420e565b61474c602083018761420e565b6147596040830186614661565b6147666060830185614661565b818103608083015261477881846142e8565b90509695505050505050565b6000604082019050614799600083018561420e565b6147a66020830184614661565b9392505050565b600060c0820190506147c2600083018961420e565b6147cf6020830188614661565b6147dc6040830187614330565b6147e96060830186614330565b6147f6608083018561420e565b61480360a0830184614661565b979650505050505050565b60006020820190508181036000830152614828818461427b565b905092915050565b6000604082019050818103600083015261484a818561427b565b9050818103602083015261485e818461427b565b90509392505050565b600060208201905061487c60008301846142d9565b92915050565b6000602082019050818103600083015261489c818461433f565b905092915050565b600060208201905081810360008301526148bd81614378565b9050919050565b600060208201905081810360008301526148dd8161439b565b9050919050565b600060208201905081810360008301526148fd816143be565b9050919050565b6000602082019050818103600083015261491d816143e1565b9050919050565b6000602082019050818103600083015261493d81614404565b9050919050565b6000602082019050818103600083015261495d81614427565b9050919050565b6000602082019050818103600083015261497d8161444a565b9050919050565b6000602082019050818103600083015261499d8161446d565b9050919050565b600060208201905081810360008301526149bd81614490565b9050919050565b600060208201905081810360008301526149dd816144b3565b9050919050565b600060208201905081810360008301526149fd816144d6565b9050919050565b60006020820190508181036000830152614a1d816144f9565b9050919050565b60006020820190508181036000830152614a3d8161451c565b9050919050565b60006020820190508181036000830152614a5d8161453f565b9050919050565b60006020820190508181036000830152614a7d81614562565b9050919050565b60006020820190508181036000830152614a9d81614585565b9050919050565b60006020820190508181036000830152614abd816145a8565b9050919050565b60006020820190508181036000830152614add816145cb565b9050919050565b60006020820190508181036000830152614afd816145ee565b9050919050565b60006020820190508181036000830152614b1d81614611565b9050919050565b6000602082019050614b396000830184614634565b92915050565b600060c082019050614b546000830189614643565b614b616020830188614643565b614b6e6040830187614643565b614b7b6060830186614643565b614b886080830185614643565b614b9560a0830184614643565b979650505050505050565b6000602082019050614bb56000830184614661565b92915050565b600060a082019050614bd06000830188614661565b614bdd6020830187614321565b8181036040830152614bef818661421d565b9050614bfe606083018561420e565b614c0b6080830184614661565b9695505050505050565b6000604082019050614c2a6000830185614661565b614c376020830184614661565b9392505050565b6000614c48614c59565b9050614c548282614fe1565b919050565b6000604051905090565b600067ffffffffffffffff821115614c7e57614c7d6150e8565b5b602082029050602081019050919050565b600067ffffffffffffffff821115614caa57614ca96150e8565b5b602082029050602081019050919050565b600067ffffffffffffffff821115614cd657614cd56150e8565b5b614cdf82615139565b9050602081019050919050565b6000819050602082019050919050565b6000819050602082019050919050565b600081519050919050565b600081519050919050565b600081519050919050565b600081519050919050565b6000602082019050919050565b6000602082019050919050565b600082825260208201905092915050565b600082825260208201905092915050565b600082825260208201905092915050565b600082825260208201905092915050565b6000614da182614f3f565b9150614dac83614f3f565b9250827fffffffffffffffffffffffffffffffffffffffffffffffffffffffffffffffff03821115614de157614de061505b565b5b828201905092915050565b6000614df782614f3f565b9150614e0283614f3f565b925082614e1257614e1161508a565b5b828204905092915050565b6000614e2882614f3f565b9150614e3383614f3f565b9250817fffffffffffffffffffffffffffffffffffffffffffffffffffffffffffffffff0483118215151615614e6c57614e6b61505b565b5b828202905092915050565b6000614e8282614f3f565b9150614e8d83614f3f565b925082821015614ea057614e9f61505b565b5b828203905092915050565b6000614eb682614f1f565b9050919050565b60008115159050919050565b60007fffffffff0000000000000000000000000000000000000000000000000000000082169050919050565b60006fffffffffffffffffffffffffffffffff82169050919050565b600061ffff82169050919050565b600073ffffffffffffffffffffffffffffffffffffffff82169050919050565b6000819050919050565b6000614f5482614f3f565b9050919050565b6000614f6682614f3f565b9050919050565b82818337600083830152505050565b60005b83811015614f9a578082015181840152602081019050614f7f565b83811115614fa9576000848401525b50505050565b60006002820490506001821680614fc757607f821691505b60208210811415614fdb57614fda6150b9565b5b50919050565b614fea82615139565b810181811067ffffffffffffffff82111715615009576150086150e8565b5b80604052505050565b600061501d82614f3f565b91507fffffffffffffffffffffffffffffffffffffffffffffffffffffffffffffffff8214156150505761504f61505b565b5b600182019050919050565b7f4e487b7100000000000000000000000000000000000000000000000000000000600052601160045260246000fd5b7f4e487b7100000000000000000000000000000000000000000000000000000000600052601260045260246000fd5b7f4e487b7100000000000000000000000000000000000000000000000000000000600052602260045260246000fd5b7f4e487b7100000000000000000000000000000000000000000000000000000000600052604160045260246000fd5b600060033d11156151365760046000803e61513360005161514a565b90505b90565b6000601f19601f8301169050919050565b60008160e01c9050919050565b7f455243313135353a207472616e7366657220746f206e6f6e204552433131353560008201527f526563656976657220696d706c656d656e746572000000000000000000000000602082015250565b7f455243313135353a204552433131353552656365697665722072656a6563746560008201527f6420746f6b656e73000000000000000000000000000000000000000000000000602082015250565b7f4e6f20617661696c61626c65206e6f6465730000000000000000000000000000600082015250565b7f455243313135353a2062616c616e636520717565727920666f7220746865207a60008201527f65726f2061646472657373000000000000000000000000000000000000000000602082015250565b7f4f776e61626c653a206e6577206f776e657220697320746865207a65726f206160008201527f6464726573730000000000000000000000000000000000000000000000000000602082015250565b7f4d6178204e6f64657320506572205472616e73616374696f6e2045786365656460008201527f6564000000000000000000000000000000000000000000000000000000000000602082015250565b7f455243313135353a2063616c6c6572206973206e6f74206f776e6572206e6f7260008201527f20617070726f7665640000000000000000000000000000000000000000000000602082015250565b7f596f7520446f6e2774204861766520456e6f7567682052657761726473000000600082015250565b7f455243313135353a207472616e7366657220746f20746865207a65726f20616460008201527f6472657373000000000000000000000000000000000000000000000000000000602082015250565b7f455243313135353a207472616e736665722063616c6c6572206973206e6f742060008201527f6f776e6572206e6f7220617070726f7665640000000000000000000000000000602082015250565b7f496e73756666696369656e74202450454143482042616c616e63650000000000600082015250565b7f455243313135353a20696e73756666696369656e742062616c616e636520666f60008201527f72207472616e7366657200000000000000000000000000000000000000000000602082015250565b7f4e6f6465206e6f7420617661696c61626c650000000000000000000000000000600082015250565b7f4f776e61626c653a2063616c6c6572206973206e6f7420746865206f776e6572600082015250565b7f496e76616c696420416464726573730000000000000000000000000000000000600082015250565b7f455243313135353a2073657474696e6720617070726f76616c2073746174757360008201527f20666f722073656c660000000000000000000000000000000000000000000000602082015250565b7f455243313135353a206163636f756e747320616e6420696473206c656e67746860008201527f206d69736d617463680000000000000000000000000000000000000000000000602082015250565b7f455243313135353a2069647320616e6420616d6f756e7473206c656e6774682060008201527f6d69736d61746368000000000000000000000000000000000000000000000000602082015250565b7f455243313135353a206d696e7420746f20746865207a65726f2061646472657360008201527f7300000000000000000000000000000000000000000000000000000000000000602082015250565b7f496e76616c696420546965720000000000000000000000000000000000000000600082015250565b600060443d10156156895761570c565b615691614c59565b60043d036004823e80513d602482011167ffffffffffffffff821117156156b957505061570c565b808201805167ffffffffffffffff8111156156d7575050505061570c565b80602083010160043d0385018111156156f457505050505061570c565b61570382602001850186614fe1565b82955050505050505b90565b61571881614eab565b811461572357600080fd5b50565b61572f81614ebd565b811461573a57600080fd5b50565b61574681614ec9565b811461575157600080fd5b50565b61575d81614f3f565b811461576857600080fd5b5056fea264697066735822122015773a7916c2e0e6f0ee53e11ac5546b013a3fe60e0714507404ffc1eb8cc72e64736f6c63430008040033",
  "linkReferences": {},
  "deployedLinkReferences": {}
}